{
  "_format": "hh-sol-artifact-1",
  "contractName": "SkinURIs",
  "sourceName": "contracts/SkinURIs.sol",
  "abi": [
    {
      "inputs": [
        {
          "internalType": "uint256",
          "name": "_maxSupply",
          "type": "uint256"
        }
      ],
      "stateMutability": "nonpayable",
      "type": "constructor"
    },
    {
      "inputs": [
        {
          "internalType": "uint256",
          "name": "_tokenId",
          "type": "uint256"
        },
        {
          "internalType": "uint256",
          "name": "_dna",
          "type": "uint256"
        }
      ],
      "name": "tokenURI",
      "outputs": [
        {
          "internalType": "string",
          "name": "",
          "type": "string"
        }
      ],
      "stateMutability": "view",
      "type": "function"
    }
  ],
  "bytecode": "0x60c06040523480156200001157600080fd5b506040516200a4903803806200a49083398181016040528101906200003791906200293b565b6040518061014001604052806040518060400160405280600681526020017f464644343332000000000000000000000000000000000000000000000000000081525081526020016040518060400160405280600681526020017f463238444232000000000000000000000000000000000000000000000000000081525081526020016040518060400160405280600681526020017f413245304530000000000000000000000000000000000000000000000000000081525081526020016040518060400160405280600681526020017f464641413938000000000000000000000000000000000000000000000000000081525081526020016040518060400160405280600681526020017f443930423143000000000000000000000000000000000000000000000000000081525081526020016040518060400160405280600681526020017f303332353843000000000000000000000000000000000000000000000000000081525081526020016040518060400160405280600681526020017f443244393034000000000000000000000000000000000000000000000000000081525081526020016040518060400160405280600681526020017f323543374439000000000000000000000000000000000000000000000000000081525081526020016040518060400160405280600681526020017f373234384235000000000000000000000000000000000000000000000000000081525081526020016040518060400160405280600681526020017f38433033323700000000000000000000000000000000000000000000000000008152508152506000800190600a620002a392919062002738565b506040518061014001604052806040518060400160405280600681526020017f313130303636000000000000000000000000000000000000000000000000000081525081526020016040518060400160405280600681526020017f333338364130000000000000000000000000000000000000000000000000000081525081526020016040518060400160405280600681526020017f424637423644000000000000000000000000000000000000000000000000000081525081526020016040518060400160405280600681526020017f364230444646000000000000000000000000000000000000000000000000000081525081526020016040518060400160405280600681526020017f343033343246000000000000000000000000000000000000000000000000000081525081526020016040518060400160405280600681526020017f464645303030000000000000000000000000000000000000000000000000000081525081526020016040518060400160405280600681526020017f353931323032000000000000000000000000000000000000000000000000000081525081526020016040518060400160405280600681526020017f453838353637000000000000000000000000000000000000000000000000000081525081526020016040518060400160405280600681526020017f444437463139000000000000000000000000000000000000000000000000000081525081526020016040518060400160405280600681526020017f3044374341330000000000000000000000000000000000000000000000000000815250815250600060010190600a6200051192919062002738565b506040518061014001604052806040518060400160405280600681526020017f663964316237000000000000000000000000000000000000000000000000000081525081526020016040518060400160405280600681526020017f663762383937000000000000000000000000000000000000000000000000000081525081526020016040518060400160405280600681526020017f663339633737000000000000000000000000000000000000000000000000000081525081526020016040518060400160405280600681526020017f666663623834000000000000000000000000000000000000000000000000000081525081526020016040518060400160405280600681526020017f626437653437000000000000000000000000000000000000000000000000000081525081526020016040518060400160405280600681526020017f623937653462000000000000000000000000000000000000000000000000000081525081526020016040518060400160405280600681526020017f623937613530000000000000000000000000000000000000000000000000000081525081526020016040518060400160405280600681526020017f356133323134000000000000000000000000000000000000000000000000000081525081526020016040518060400160405280600681526020017f353032373065000000000000000000000000000000000000000000000000000081525081526020016040518060400160405280600681526020017f3361316230390000000000000000000000000000000000000000000000000000815250815250600060020190600a6200077f92919062002738565b5060405180604001604052807f42726163656c657400000000000000000000000000000000000000000000000073ffffffffffffffffffffffffffffffffffffffff191681526020016040518060800160405280605e81526020016200673f605e91398152506000600301600080815260200190815260200160002060008201518160000160006101000a8154816bffffffffffffffffffffffff021916908360a01c02179055506020820151816001019080519060200190620008459291906200279f565b5090505060405180604001604052807f45617272696e670000000000000000000000000000000000000000000000000073ffffffffffffffffffffffffffffffffffffffff191681526020016040518060600160405280602281526020016200617d60229139815250600060030160006001815260200190815260200160002060008201518160000160006101000a8154816bffffffffffffffffffffffff021916908360a01c021790555060208201518160010190805190602001906200090f9291906200279f565b5090505060405180604001604052807f4e65636b6c61636500000000000000000000000000000000000000000000000073ffffffffffffffffffffffffffffffffffffffff191681526020016040518060c00160405280608681526020016200604060869139815250600060030160006002815260200190815260200160002060008201518160000160006101000a8154816bffffffffffffffffffffffff021916908360a01c02179055506020820151816001019080519060200190620009d99291906200279f565b5090505060405180604001604052807f52696e670000000000000000000000000000000000000000000000000000000073ffffffffffffffffffffffffffffffffffffffff1916815260200160405180606001604052806027815260200162008a6060279139815250600060030160006003815260200190815260200160002060008201518160000160006101000a8154816bffffffffffffffffffffffff021916908360a01c0217905550602082015181600101908051906020019062000aa39291906200279f565b5090505060405180604001604052807f476c6f766573000000000000000000000000000000000000000000000000000073ffffffffffffffffffffffffffffffffffffffff1916815260200160405180608001604052806059815260200162008dae60599139815250600060030160006004815260200190815260200160002060008201518160000160006101000a8154816bffffffffffffffffffffffff021916908360a01c0217905550602082015181600101908051906020019062000b6d9291906200279f565b5090505060405180604001604052807f426f77000000000000000000000000000000000000000000000000000000000073ffffffffffffffffffffffffffffffffffffffff191681526020016040518061022001604052806101f0815260200162006fc16101f091398152506000600401600080815260200190815260200160002060008201518160000160006101000a8154816bffffffffffffffffffffffff021916908360a01c0217905550602082015181600101908051906020019062000c399291906200279f565b5090505060405180604001604052807f446167676572000000000000000000000000000000000000000000000000000073ffffffffffffffffffffffffffffffffffffffff191681526020016040518061020001604052806101d8815260200162005cd46101d89139815250600060040160006001815260200190815260200160002060008201518160000160006101000a8154816bffffffffffffffffffffffff021916908360a01c0217905550602082015181600101908051906020019062000d069291906200279f565b5090505060405180604001604052807f4669726562616c6c00000000000000000000000000000000000000000000000073ffffffffffffffffffffffffffffffffffffffff1916815260200160405180610100016040528060da815260200162007c1360da9139815250600060040160006002815260200190815260200160002060008201518160000160006101000a8154816bffffffffffffffffffffffff021916908360a01c0217905550602082015181600101908051906020019062000dd19291906200279f565b5090505060405180604001604052807f48616c626572640000000000000000000000000000000000000000000000000073ffffffffffffffffffffffffffffffffffffffff191681526020016040518061038001604052806103558152602001620084bb6103559139815250600060040160006003815260200190815260200160002060008201518160000160006101000a8154816bffffffffffffffffffffffff021916908360a01c0217905550602082015181600101908051906020019062000e9e9291906200279f565b5090505060405180604001604052807f486174636865740000000000000000000000000000000000000000000000000073ffffffffffffffffffffffffffffffffffffffff191681526020016040518061032001604052806102f28152602001620078086102f29139815250600060040160006004815260200190815260200160002060008201518160000160006101000a8154816bffffffffffffffffffffffff021916908360a01c0217905550602082015181600101908051906020019062000f6b9291906200279f565b5090505060405180604001604052807f4b6174616e61000000000000000000000000000000000000000000000000000073ffffffffffffffffffffffffffffffffffffffff191681526020016040518061032001604052806102e8815260200162008ac66102e89139815250600060040160006005815260200190815260200160002060008201518160000160006101000a8154816bffffffffffffffffffffffff021916908360a01c02179055506020820151816001019080519060200190620010389291906200279f565b5090505060405180604001604052807f4b6e69766573000000000000000000000000000000000000000000000000000073ffffffffffffffffffffffffffffffffffffffff19168152602001604051806101e001604052806101a98152602001620097df6101a99139815250600060040160006006815260200190815260200160002060008201518160000160006101000a8154816bffffffffffffffffffffffff021916908360a01c02179055506020820151816001019080519060200190620011059291906200279f565b5090505060405180604001604052807f537065617200000000000000000000000000000000000000000000000000000073ffffffffffffffffffffffffffffffffffffffff19168152602001604051806102400160405280610215815260200162007ced6102159139815250600060040160006007815260200190815260200160002060008201518160000160006101000a8154816bffffffffffffffffffffffff021916908360a01c02179055506020820151816001019080519060200190620011d29291906200279f565b5090505060405180604001604052807f53776f726400000000000000000000000000000000000000000000000000000073ffffffffffffffffffffffffffffffffffffffff19168152602001604051806104a0016040528061047e815260200162008f4c61047e9139815250600060040160006008815260200190815260200160002060008201518160000160006101000a8154816bffffffffffffffffffffffff021916908360a01c021790555060208201518160010190805190602001906200129f9291906200279f565b5090505060405180604001604052807f57616e640000000000000000000000000000000000000000000000000000000073ffffffffffffffffffffffffffffffffffffffff1916815260200160405180610100016040528060d981526020016200619f60d99139815250600060040160006009815260200190815260200160002060008201518160000160006101000a8154816bffffffffffffffffffffffff021916908360a01c021790555060208201518160010190805190602001906200136a9291906200279f565b5090505060405180604001604052807f457965205061746368000000000000000000000000000000000000000000000073ffffffffffffffffffffffffffffffffffffffff191681526020016040518060c001604052806090815260200162009dc7609091398152506000600501600080815260200190815260200160002060008201518160000160006101000a8154816bffffffffffffffffffffffff021916908360a01c02179055506020820151816001019080519060200190620014339291906200279f565b5090505060405180604001604052807f486174000000000000000000000000000000000000000000000000000000000073ffffffffffffffffffffffffffffffffffffffff19168152602001604051806102a0016040528061027681526020016200679d6102769139815250600060050160006001815260200190815260200160002060008201518160000160006101000a8154816bffffffffffffffffffffffff021916908360a01c02179055506020820151816001019080519060200190620015009291906200279f565b5090505060405180604001604052807f4865616462616e6400000000000000000000000000000000000000000000000073ffffffffffffffffffffffffffffffffffffffff191681526020016040518060c00160405280608a815260200162006a13608a9139815250600060050160006002815260200190815260200160002060008201518160000160006101000a8154816bffffffffffffffffffffffff021916908360a01c02179055506020820151816001019080519060200190620015ca9291906200279f565b5090505060405180604001604052807f486f726e6564000000000000000000000000000000000000000000000000000073ffffffffffffffffffffffffffffffffffffffff191681526020016040518061034001604052806103168152602001620057b76103169139815250600060050160006003815260200190815260200160002060008201518160000160006101000a8154816bffffffffffffffffffffffff021916908360a01c02179055506020820151816001019080519060200190620016979291906200279f565b5090505060405180604001604052807f4b6e69676874000000000000000000000000000000000000000000000000000073ffffffffffffffffffffffffffffffffffffffff191681526020016040518061038001604052806103538152602001620074246103539139815250600060050160006004815260200190815260200160002060008201518160000160006101000a8154816bffffffffffffffffffffffff021916908360a01c02179055506020820151816001019080519060200190620017649291906200279f565b5090505060405180604001604052807f576869746520457965730000000000000000000000000000000000000000000073ffffffffffffffffffffffffffffffffffffffff191681526020016040518060600160405280603181526020016200892060319139815250600060050160006005815260200190815260200160002060008201518160000160006101000a8154816bffffffffffffffffffffffff021916908360a01c021790555060208201518160010190805190602001906200182e9291906200279f565b5090505060405180604001604052807f4269672053686f6573000000000000000000000000000000000000000000000073ffffffffffffffffffffffffffffffffffffffff1916815260200160405180610100016040528060cf81526020016200802160cf91398152506000600601600080815260200190815260200160002060008201518160000160006101000a8154816bffffffffffffffffffffffff021916908360a01c02179055506020820151816001019080519060200190620018f89291906200279f565b5090505060405180604001604052807f53616e64616c730000000000000000000000000000000000000000000000000073ffffffffffffffffffffffffffffffffffffffff191681526020016040518060a00160405280607a8152602001620062ee607a9139815250600060060160006001815260200190815260200160002060008201518160000160006101000a8154816bffffffffffffffffffffffff021916908360a01c02179055506020820151816001019080519060200190620019c29291906200279f565b5090505060405180604001604052807f53686f657300000000000000000000000000000000000000000000000000000073ffffffffffffffffffffffffffffffffffffffff191681526020016040518060e0016040528060be81526020016200a3d260be9139815250600060060160006002815260200190815260200160002060008201518160000160006101000a8154816bffffffffffffffffffffffff021916908360a01c0217905550602082015181600101908051906020019062001a8c9291906200279f565b5090505060405180604001604052807f57696e6765642053686f6573000000000000000000000000000000000000000073ffffffffffffffffffffffffffffffffffffffff191681526020016040518061018001604052806101468152602001620054f66101469139815250600060060160006003815260200190815260200160002060008201518160000160006101000a8154816bffffffffffffffffffffffff021916908360a01c0217905550602082015181600101908051906020019062001b599291906200279f565b5090505060405180604001604052807f41726d6f7200000000000000000000000000000000000000000000000000000073ffffffffffffffffffffffffffffffffffffffff19168152602001604051806102a001604052806102738152602001620071b161027391398152506000600701600080815260200190815260200160002060008201518160000160006101000a8154816bffffffffffffffffffffffff021916908360a01c0217905550602082015181600101908051906020019062001c259291906200279f565b5090505060405180604001604052807f4261636b7061636b00000000000000000000000000000000000000000000000073ffffffffffffffffffffffffffffffffffffffff1916815260200160405180610120016040528060ff81526020016200a26260ff9139815250600060070160006001815260200190815260200160002060008201518160000160006101000a8154816bffffffffffffffffffffffff021916908360a01c0217905550602082015181600101908051906020019062001cf09291906200279f565b5090505060405180604001604052807f426561726400000000000000000000000000000000000000000000000000000073ffffffffffffffffffffffffffffffffffffffff191681526020016040518061022001604052806101e481526020016200953f6101e49139815250600060070160006002815260200190815260200160002060008201518160000160006101000a8154816bffffffffffffffffffffffff021916908360a01c0217905550602082015181600101908051906020019062001dbd9291906200279f565b5090505060405180604001604052807f436170650000000000000000000000000000000000000000000000000000000073ffffffffffffffffffffffffffffffffffffffff19168152602001604051806102c001604052806102a0815260200162006ba46102a09139815250600060070160006003815260200190815260200160002060008201518160000160006101000a8154816bffffffffffffffffffffffff021916908360a01c0217905550602082015181600101908051906020019062001e8a9291906200279f565b5090505060405180604001604052807f5361746368656c0000000000000000000000000000000000000000000000000073ffffffffffffffffffffffffffffffffffffffff1916815260200160405180610120016040528060ec81526020016200665360ec9139815250600060070160006004815260200190815260200160002060008201518160000160006101000a8154816bffffffffffffffffffffffff021916908360a01c0217905550602082015181600101908051906020019062001f559291906200279f565b5090505060405180604001604052807f536361626261726400000000000000000000000000000000000000000000000073ffffffffffffffffffffffffffffffffffffffff1916815260200160405180610240016040528061021981526020016200639b6102199139815250600060070160006005815260200190815260200160002060008201518160000160006101000a8154816bffffffffffffffffffffffff021916908360a01c02179055506020820151816001019080519060200190620020229291906200279f565b5090505060405180604001604052807f536361726600000000000000000000000000000000000000000000000000000073ffffffffffffffffffffffffffffffffffffffff191681526020016040518060e0016040528060a381526020016200895160a39139815250600060070160006006815260200190815260200160002060008201518160000160006101000a8154816bffffffffffffffffffffffff021916908360a01c02179055506020820151816001019080519060200190620020ec9291906200279f565b50905050604051806101600160405280604051806060016040528060338152602001620063686033913981526020016040518060600160405280603b8152602001620060c6603b913981526020016040518060600160405280603b8152602001620060c6603b913981526020016040518060600160405280603b8152602001620060c6603b913981526020016040518060600160405280603f815260200162006a9d603f913981526020016040518060600160405280603f815260200162008a87603f913981526020016040518060600160405280603b815260200162009e57603b9139815260200160405180608001604052806043815260200162008e076043913981526020016040518060800160405280605881526020016200949d605891398152602001604051806060016040528060398152602001620097a66039913981526020016040518060800160405280604a8152602001620094f5604a9139815250600060080190600b6200226492919062002830565b506040518061016001604052806040518060a00160405280607c815260200162006101607c913981526020016040518060a00160405280606d815260200162008e4a606d913981526020016040518060c0016040528060838152602001620097236083913981526020016040518060a0016040528060768152602001620062786076913981526020016040518060a00160405280606c8152602001620089f4606c913981526020016040518060a00160405280607181526020016200a3616071913981526020016040518060a001604052806078815260200162007f026078913981526020016040518060a001604052806063815260200162009a2f6063913981526020016040518060c00160405280609f8152602001620065b4609f913981526020016040518060e0016040528060a7815260200162007f7a60a7913981526020016040518060e0016040528060a7815260200162007f7a60a79139815250600060090190600b620023d992919062002830565b506040518061016001604052806040518060c00160405280609181526020016200777760919139815260200160405180610140016040528061010e81526020016200818861010e91398152602001604051806101400160405280610119815260200162007afa61011991398152602001604051806101400160405280610107815260200162005acd6101079139815260200160405180610100016040528060c8815260200162006adc60c89139815260200160405180610100016040528060d38152602001620093ca60d391398152602001604051806101200160405280610100815260200162005bd46101009139815260200160405180610100016040528060df815260200162009f9a60df913981526020016040518061022001604052806101e981526020016200a0796101e991398152602001604051806101a0016040528061017d815260200162006e4461017d91398152602001604051806101a0016040528061017d815260200162006e4461017d91398152506000600a0190600b6200256692919062002830565b50604051806101600160405280604051806101c00160405280610194815260200162005eac61019491398152602001604051806101400160405280610110815260200162009a92610110913981526020016040518061014001604052806101108152602001620088106101109139815260200160405180610260016040528061022581526020016200829661022591398152602001604051806101800160405280610144815260200162009c8361014491398152602001604051806101400160405280610108815260200162009e9261010891398152602001604051806101a0016040528061017b81526020016200563c61017b913981526020016040518060c0016040528060988152602001620080f06098913981526020016040518060c001604052806095815260200162008eb76095913981526020016040518060e0016040528060a781526020016200998860a79139815260200160405180610120016040528060e1815260200162009ba260e191398152506000600b0190600b620026f192919062002830565b5080608081815250503373ffffffffffffffffffffffffffffffffffffffff1660a08173ffffffffffffffffffffffffffffffffffffffff1660601b8152505050620029f0565b8280548282559060005260206000209081019282156200278c579160200282015b828111156200278b5782518290805190602001906200277a9291906200279f565b509160200191906001019062002759565b5b5090506200279b919062002897565b5090565b828054620027ad9062002971565b90600052602060002090601f016020900481019282620027d157600085556200281d565b82601f10620027ec57805160ff19168380011785556200281d565b828001600101855582156200281d579182015b828111156200281c578251825591602001919060010190620027ff565b5b5090506200282c9190620028bf565b5090565b82805482825590600052602060002090810192821562002884579160200282015b8281111562002883578251829080519060200190620028729291906200279f565b509160200191906001019062002851565b5b50905062002893919062002897565b5090565b5b80821115620028bb5760008181620028b19190620028de565b5060010162002898565b5090565b5b80821115620028da576000816000905550600101620028c0565b5090565b508054620028ec9062002971565b6000825580601f1062002900575062002921565b601f016020900490600052602060002090810190620029209190620028bf565b5b50565b6000815190506200293581620029d6565b92915050565b6000602082840312156200294e57600080fd5b60006200295e8482850162002924565b91505092915050565b6000819050919050565b600060028204905060018216806200298a57607f821691505b60208210811415620029a157620029a0620029a7565b5b50919050565b7f4e487b7100000000000000000000000000000000000000000000000000000000600052602260045260246000fd5b620029e18162002967565b8114620029ed57600080fd5b50565b60805160a05160601c612add62002a1960003960006112b1015260006109e00152612add6000f3fe608060405234801561001057600080fd5b506004361061002b5760003560e01c806392cb829d14610030575b600080fd5b61004a60048036038101906100459190611995565b610060565b6040516100579190612115565b60405180910390f35b606061007461006f848461009b565b610a45565b60405160200161008491906120f3565b604051602081830303815290604052905092915050565b606060006100a883610bf0565b905060006040518060a0016040528060006003016000856000600881106100f8577f4e487b7100000000000000000000000000000000000000000000000000000000600052603260045260246000fd5b602002015160ff1681526020019081526020016000206040518060400160405290816000820160009054906101000a900460a01b73ffffffffffffffffffffffffffffffffffffffff191673ffffffffffffffffffffffffffffffffffffffff1916815260200160018201805461016e906122ed565b80601f016020809104026020016040519081016040528092919081815260200182805461019a906122ed565b80156101e75780601f106101bc576101008083540402835291602001916101e7565b820191906000526020600020905b8154815290600101906020018083116101ca57829003601f168201915b50505050508152505081526020016000600401600085600160088110610236577f4e487b7100000000000000000000000000000000000000000000000000000000600052603260045260246000fd5b602002015160ff1681526020019081526020016000206040518060400160405290816000820160009054906101000a900460a01b73ffffffffffffffffffffffffffffffffffffffff191673ffffffffffffffffffffffffffffffffffffffff191681526020016001820180546102ac906122ed565b80601f01602080910402602001604051908101604052809291908181526020018280546102d8906122ed565b80156103255780601f106102fa57610100808354040283529160200191610325565b820191906000526020600020905b81548152906001019060200180831161030857829003601f168201915b50505050508152505081526020016000600501600085600260088110610374577f4e487b7100000000000000000000000000000000000000000000000000000000600052603260045260246000fd5b602002015160ff1681526020019081526020016000206040518060400160405290816000820160009054906101000a900460a01b73ffffffffffffffffffffffffffffffffffffffff191673ffffffffffffffffffffffffffffffffffffffff191681526020016001820180546103ea906122ed565b80601f0160208091040260200160405190810160405280929190818152602001828054610416906122ed565b80156104635780601f1061043857610100808354040283529160200191610463565b820191906000526020600020905b81548152906001019060200180831161044657829003601f168201915b505050505081525050815260200160006006016000856003600881106104b2577f4e487b7100000000000000000000000000000000000000000000000000000000600052603260045260246000fd5b602002015160ff1681526020019081526020016000206040518060400160405290816000820160009054906101000a900460a01b73ffffffffffffffffffffffffffffffffffffffff191673ffffffffffffffffffffffffffffffffffffffff19168152602001600182018054610528906122ed565b80601f0160208091040260200160405190810160405280929190818152602001828054610554906122ed565b80156105a15780601f10610576576101008083540402835291602001916105a1565b820191906000526020600020905b81548152906001019060200180831161058457829003601f168201915b505050505081525050815260200160006007016000856004600881106105f0577f4e487b7100000000000000000000000000000000000000000000000000000000600052603260045260246000fd5b602002015160ff1681526020019081526020016000206040518060400160405290816000820160009054906101000a900460a01b73ffffffffffffffffffffffffffffffffffffffff191673ffffffffffffffffffffffffffffffffffffffff19168152602001600182018054610666906122ed565b80601f0160208091040260200160405190810160405280929190818152602001828054610692906122ed565b80156106df5780601f106106b4576101008083540402835291602001916106df565b820191906000526020600020905b8154815290600101906020018083116106c257829003601f168201915b5050505050815250508152509050606060006040518060a001604052806040518060400160405280600981526020017f4163636573736f7279000000000000000000000000000000000000000000000081525081526020016040518060400160405280600681526020017f576561706f6e000000000000000000000000000000000000000000000000000081525081526020016040518060400160405280600481526020017f486561640000000000000000000000000000000000000000000000000000000081525081526020016040518060400160405280600581526020017f53686f657300000000000000000000000000000000000000000000000000000081525081526020016040518060400160405280600581526020017f546f72736f000000000000000000000000000000000000000000000000000000815250815250905060005b60058110156109d157600084826005811061086a577f4e487b7100000000000000000000000000000000000000000000000000000000600052603260045260246000fd5b60200201516000015173ffffffffffffffffffffffffffffffffffffffff19161415610895576109be565b8260008451146108da576040518060400160405280600381526020017f2c207b0000000000000000000000000000000000000000000000000000000000815250610911565b6040518060400160405280600181526020017f7b000000000000000000000000000000000000000000000000000000000000008152505b83836005811061094a577f4e487b7100000000000000000000000000000000000000000000000000000000600052603260045260246000fd5b602002015161099987856005811061098b577f4e487b7100000000000000000000000000000000000000000000000000000000600052603260045260246000fd5b602002015160000151610e96565b6040516020016109ac9493929190611e34565b60405160208183030381529060405292505b80806109c99061231f565b915050610826565b506109db876110ef565b610a047f00000000000000000000000000000000000000000000000000000000000000006110ef565b610a16610a118a8a61129c565b610a45565b84604051602001610a2a9493929190612047565b60405160208183030381529060405294505050505092915050565b6060600082511415610a6857604051806020016040528060008152509050610beb565b6000604051806060016040528060408152602001612a686040913990506000600360028551610a97919061218e565b610aa191906121e4565b6004610aad9190612215565b90506000602082610abe919061218e565b67ffffffffffffffff811115610afd577f4e487b7100000000000000000000000000000000000000000000000000000000600052604160045260246000fd5b6040519080825280601f01601f191660200182016040528015610b2f5781602001600182028036833780820191505090505b509050818152600183018586518101602084015b81831015610baa576003830192508251603f8160121c1685015160f81b8252600182019150603f81600c1c1685015160f81b8252600182019150603f8160061c1685015160f81b8252600182019150603f811685015160f81b825260018201915050610b43565b600389510660018114610bc45760028114610bd457610bdf565b613d3d60f01b6002830352610bdf565b603d60f81b60018303525b50505050508093505050505b919050565b610bf861191f565b610c0061191f565b600a83610c0d9190612392565b81600060088110610c47577f4e487b7100000000000000000000000000000000000000000000000000000000600052603260045260246000fd5b602002019060ff16908160ff1681525050600a83610c6591906121e4565b9250600e83610c749190612392565b81600160088110610cae577f4e487b7100000000000000000000000000000000000000000000000000000000600052603260045260246000fd5b602002019060ff16908160ff1681525050600e83610ccc91906121e4565b9250600c83610cdb9190612392565b81600260088110610d15577f4e487b7100000000000000000000000000000000000000000000000000000000600052603260045260246000fd5b602002019060ff16908160ff1681525050600c83610d3391906121e4565b9250600883610d429190612392565b81600360088110610d7c577f4e487b7100000000000000000000000000000000000000000000000000000000600052603260045260246000fd5b602002019060ff16908160ff1681525050600883610d9a91906121e4565b9250601083610da99190612392565b81600460088110610de3577f4e487b7100000000000000000000000000000000000000000000000000000000600052603260045260246000fd5b602002019060ff16908160ff1681525050601083610e0191906121e4565b92506000600590505b6008811015610e8c57600a84610e209190612392565b828260088110610e59577f4e487b7100000000000000000000000000000000000000000000000000000000600052603260045260246000fd5b602002019060ff16908160ff1681525050600a84610e7791906121e4565b93508080610e849061231f565b915050610e0a565b5080915050919050565b606060005b600c8160ff16108015610f135750600060f81b838260ff16600c8110610eea577f4e487b7100000000000000000000000000000000000000000000000000000000600052603260045260246000fd5b1a60f81b7effffffffffffffffffffffffffffffffffffffffffffffffffffffffffffff191614155b15610f2b578080610f2390612368565b915050610e9b565b60008160ff1667ffffffffffffffff811115610f70577f4e487b7100000000000000000000000000000000000000000000000000000000600052604160045260246000fd5b6040519080825280601f01601f191660200182016040528015610fa25781602001600182028036833780820191505090505b509050600091505b600c8260ff161080156110225750600060f81b848360ff16600c8110610ff9577f4e487b7100000000000000000000000000000000000000000000000000000000600052603260045260246000fd5b1a60f81b7effffffffffffffffffffffffffffffffffffffffffffffffffffffffffffff191614155b156110e557838260ff16600c8110611063577f4e487b7100000000000000000000000000000000000000000000000000000000600052603260045260246000fd5b1a60f81b818360ff16815181106110a3577f4e487b7100000000000000000000000000000000000000000000000000000000600052603260045260246000fd5b60200101907effffffffffffffffffffffffffffffffffffffffffffffffffffffffffffff1916908160001a90535081806110dd90612368565b925050610faa565b8092505050919050565b60606000821415611137576040518060400160405280600181526020017f30000000000000000000000000000000000000000000000000000000000000008152509050611297565b600082905060005b600082146111695780806111529061231f565b915050600a8261116291906121e4565b915061113f565b60008167ffffffffffffffff8111156111ab577f4e487b7100000000000000000000000000000000000000000000000000000000600052604160045260246000fd5b6040519080825280601f01601f1916602001820160405280156111dd5781602001600182028036833780820191505090505b5090505b60008514611290576001826111f6919061226f565b9150600a856112059190612392565b6030611211919061218e565b60f81b81838151811061124d577f4e487b7100000000000000000000000000000000000000000000000000000000600052603260045260246000fd5b60200101907effffffffffffffffffffffffffffffffffffffffffffffffffffffffffffff1916908160001a905350600a8561128991906121e4565b94506111e1565b8093505050505b919050565b606060006112a983610bf0565b9050600060017f000000000000000000000000000000000000000000000000000000000000000073ffffffffffffffffffffffffffffffffffffffff16633613a9f4876040518263ffffffff1660e01b81526004016113089190612137565b60206040518083038186803b15801561132057600080fd5b505afa158015611334573d6000803e3d6000fd5b505050506040513d601f19601f82011682018060405250810190611358919061196c565b611362919061226f565b9050600060078214806113755750600182145b61138e5760405180602001604052806000815250611436565b6000600201836007600881106113cd577f4e487b7100000000000000000000000000000000000000000000000000000000600052603260045260246000fd5b602002015160ff168154811061140c577f4e487b7100000000000000000000000000000000000000000000000000000000600052603260045260246000fd5b906000526020600020016040516020016114269190611ef4565b6040516020818303038152906040525b9050611441866110ef565b600060020184600760088110611480577f4e487b7100000000000000000000000000000000000000000000000000000000600052603260045260246000fd5b602002015160ff16815481106114bf577f4e487b7100000000000000000000000000000000000000000000000000000000600052603260045260246000fd5b9060005260206000200182600060010186600560088110611509577f4e487b7100000000000000000000000000000000000000000000000000000000600052603260045260246000fd5b602002015160ff1681548110611548577f4e487b7100000000000000000000000000000000000000000000000000000000600052603260045260246000fd5b906000526020600020016000600801868154811061158f577f4e487b7100000000000000000000000000000000000000000000000000000000600052603260045260246000fd5b9060005260206000200160008001886006600881106115d7577f4e487b7100000000000000000000000000000000000000000000000000000000600052603260045260246000fd5b602002015160ff1681548110611616577f4e487b7100000000000000000000000000000000000000000000000000000000600052603260045260246000fd5b906000526020600020016000600901888154811061165d577f4e487b7100000000000000000000000000000000000000000000000000000000600052603260045260246000fd5b906000526020600020016000600a0189815481106116a4577f4e487b7100000000000000000000000000000000000000000000000000000000600052603260045260246000fd5b906000526020600020016000600b018a815481106116eb577f4e487b7100000000000000000000000000000000000000000000000000000000600052603260045260246000fd5b906000526020600020016116fe8c611731565b6040516020016117179a99989796959493929190611f21565b604051602081830303815290604052935050505092915050565b60606000600701600083600160088110611774577f4e487b7100000000000000000000000000000000000000000000000000000000600052603260045260246000fd5b602002015160ff16815260200190815260200160002060010160006005016000846000600881106117ce577f4e487b7100000000000000000000000000000000000000000000000000000000600052603260045260246000fd5b602002015160ff1681526020019081526020016000206001016000600301600085600260088110611828577f4e487b7100000000000000000000000000000000000000000000000000000000600052603260045260246000fd5b602002015160ff1681526020019081526020016000206001016000600601600086600360088110611882577f4e487b7100000000000000000000000000000000000000000000000000000000600052603260045260246000fd5b602002015160ff16815260200190815260200160002060010160006004016000876004600881106118dc577f4e487b7100000000000000000000000000000000000000000000000000000000600052603260045260246000fd5b602002015160ff168152602001908152602001600020600101604051602001611909959493929190611ea9565b6040516020818303038152906040529050919050565b604051806101000160405280600890602082028036833780820191505090505090565b60008135905061195181612a50565b92915050565b60008151905061196681612a50565b92915050565b60006020828403121561197e57600080fd5b600061198c84828501611957565b91505092915050565b600080604083850312156119a857600080fd5b60006119b685828601611942565b92505060206119c785828601611942565b9150509250929050565b60006119dc82612167565b6119e68185612172565b93506119f68185602086016122ba565b6119ff81612450565b840191505092915050565b6000611a1582612167565b611a1f8185612183565b9350611a2f8185602086016122ba565b80840191505092915050565b60008154611a48816122ed565b611a528186612183565b94506001821660008114611a6d5760018114611a7e57611ab1565b60ff19831686528186019350611ab1565b611a8785612152565b60005b83811015611aa957815481890152600182019150602081019050611a8a565b838801955050505b50505092915050565b6000611ac7600a83612183565b9150611ad282612461565b600a82019050919050565b6000611aea601183612183565b9150611af58261248a565b601182019050919050565b6000611b0d600283612183565b9150611b18826124b3565b600282019050919050565b6000611b30608c83612183565b9150611b3b826124dc565b608c82019050919050565b6000611b53602483612183565b9150611b5e8261259d565b602482019050919050565b6000611b76601283612183565b9150611b81826125ec565b601282019050919050565b6000611b99600f83612183565b9150611ba482612615565b600f82019050919050565b6000611bbc601483612183565b9150611bc78261263e565b601482019050919050565b6000611bdf606783612183565b9150611bea82612667565b606782019050919050565b6000611c02600383612183565b9150611c0d82612702565b600382019050919050565b6000611c25600f83612183565b9150611c308261272b565b600f82019050919050565b6000611c48600183612183565b9150611c5382612754565b600182019050919050565b6000611c6b600a83612183565b9150611c768261277d565b600a82019050919050565b6000611c8e600183612183565b9150611c99826127a6565b600182019050919050565b6000611cb1606183612183565b9150611cbc826127cf565b606182019050919050565b6000611cd4603183612183565b9150611cdf8261286a565b603182019050919050565b6000611cf7600483612183565b9150611d02826128b9565b600482019050919050565b6000611d1a603983612183565b9150611d25826128e2565b603982019050919050565b6000611d3d600183612183565b9150611d4882612931565b600182019050919050565b6000611d60600183612183565b9150611d6b8261295a565b600182019050919050565b6000611d83600d83612183565b9150611d8e82612983565b600d82019050919050565b6000611da6601d83612183565b9150611db1826129ac565b601d82019050919050565b6000611dc9601383612183565b9150611dd4826129d5565b601382019050919050565b6000611dec600283612183565b9150611df7826129fe565b600282019050919050565b6000611e0f600683612183565b9150611e1a82612a27565b600682019050919050565b611e2e816122a3565b82525050565b6000611e408287611a0a565b9150611e4c8286611a0a565b9150611e5782611b8c565b9150611e638285611a0a565b9150611e6e82611b00565b9150611e7982611aba565b9150611e858284611a0a565b9150611e9082611c81565b9150611e9b82611c3b565b915081905095945050505050565b6000611eb58288611a3b565b9150611ec18287611a3b565b9150611ecd8286611a3b565b9150611ed98285611a3b565b9150611ee58284611a3b565b91508190509695505050505050565b6000611eff82611b23565b9150611f0b8284611a3b565b9150611f1682611bf5565b915081905092915050565b6000611f2c82611b69565b9150611f38828d611a0a565b9150611f4382611d0d565b9150611f4e82611d76565b9150611f5a828c611a3b565b9150611f6582611bd2565b9150611f71828b611a0a565b9150611f7c82611cc7565b9150611f8782611c5e565b9150611f93828a611a3b565b9150611f9e82611ddf565b9150611faa8289611a3b565b9150611fb582611cea565b9150611fc082611c5e565b9150611fcc8288611a3b565b9150611fd782611ddf565b9150611fe38287611a3b565b9150611fee82611cea565b9150611ff982611add565b91506120058286611a3b565b915061201082611cea565b915061201c8285611a3b565b91506120288284611a0a565b915061203382611e02565b91508190509b9a5050505050505050505050565b600061205282611d30565b915061205d82611baf565b91506120698287611a0a565b915061207482611b00565b915061207f82611ca4565b915061208b8286611a0a565b915061209682611dbc565b91506120a182611b46565b91506120ad8285611a0a565b91506120b882611b00565b91506120c382611c18565b91506120cf8284611a0a565b91506120da82611d53565b91506120e582611c3b565b915081905095945050505050565b60006120fe82611d99565b915061210a8284611a0a565b915081905092915050565b6000602082019050818103600083015261212f81846119d1565b905092915050565b600060208201905061214c6000830184611e25565b92915050565b60008190508160005260206000209050919050565b600081519050919050565b600082825260208201905092915050565b600081905092915050565b6000612199826122a3565b91506121a4836122a3565b9250827fffffffffffffffffffffffffffffffffffffffffffffffffffffffffffffffff038211156121d9576121d86123c3565b5b828201905092915050565b60006121ef826122a3565b91506121fa836122a3565b92508261220a576122096123f2565b5b828204905092915050565b6000612220826122a3565b915061222b836122a3565b9250817fffffffffffffffffffffffffffffffffffffffffffffffffffffffffffffffff0483118215151615612264576122636123c3565b5b828202905092915050565b600061227a826122a3565b9150612285836122a3565b925082821015612298576122976123c3565b5b828203905092915050565b6000819050919050565b600060ff82169050919050565b60005b838110156122d85780820151818401526020810190506122bd565b838111156122e7576000848401525b50505050565b6000600282049050600182168061230557607f821691505b6020821081141561231957612318612421565b5b50919050565b600061232a826122a3565b91507fffffffffffffffffffffffffffffffffffffffffffffffffffffffffffffffff82141561235d5761235c6123c3565b5b600182019050919050565b6000612373826122ad565b915060ff821415612387576123866123c3565b5b600182019050919050565b600061239d826122a3565b91506123a8836122a3565b9250826123b8576123b76123f2565b5b828206905092915050565b7f4e487b7100000000000000000000000000000000000000000000000000000000600052601160045260246000fd5b7f4e487b7100000000000000000000000000000000000000000000000000000000600052601260045260246000fd5b7f4e487b7100000000000000000000000000000000000000000000000000000000600052602260045260246000fd5b6000601f19601f8301169050919050565b7f2776616c7565273a202700000000000000000000000000000000000000000000600082015250565b7f3c67206f7061636974793d222e3233223e000000000000000000000000000000600082015250565b7f272c000000000000000000000000000000000000000000000000000000000000600082015250565b7f3c7061746820643d274d31352e3939203131762d3168315639682d315635682d60008201527f315634682d315633682d347631682d317631682d31763568317631683176326860208201527f2d312d312d317631203120316831763268327631682d3176356831203520317660408201527f2d31682d31762d356831762d316831762d32682d31762d312d31682d31762d3260608201527f68317a272066696c6c3d27230000000000000000000000000000000000000000608082015250565b7f27696d616765273a2027646174613a696d6167652f7376672b786d6c3b62617360008201527f6536342c00000000000000000000000000000000000000000000000000000000602082015250565b7f3c7376672069643d227261726520736b696e0000000000000000000000000000600082015250565b7f2774726169745f74797065273a20270000000000000000000000000000000000600082015250565b7f276e616d65273a20275261726520536b696e2023000000000000000000000000600082015250565b7f2720643d274d3136203131762d3168315639682d315635682d315634682d315660008201527f33682d347631483976314838763568317631683176344838763368327631483960208201527f7635683120352031762d31682d31762d356831762d316831762d32682d32762d60408201527f3468317a272f3e00000000000000000000000000000000000000000000000000606082015250565b7f272f3e0000000000000000000000000000000000000000000000000000000000600082015250565b7f2761747472696275746573273a205b0000000000000000000000000000000000600082015250565b7f7d00000000000000000000000000000000000000000000000000000000000000600082015250565b7f3c672066696c6c3d272300000000000000000000000000000000000000000000600082015250565b7f2700000000000000000000000000000000000000000000000000000000000000600082015250565b7f276465736372697074696f6e273a20275261726520536b696e7320617265207260008201527f616e646f6d6c792067656e65726174656420616e64206861766520313030252060208201527f6f6e2d636861696e2061727420616e64206d65746164617461202d204f6e6c7960408201527f2000000000000000000000000000000000000000000000000000000000000000606082015250565b7f3c7061746820643d274d3132203768317631682d317a6d33203068317631682d60008201527f317a272066696c6c3d2723666666272f3e000000000000000000000000000000602082015250565b7f3c2f673e00000000000000000000000000000000000000000000000000000000600082015250565b7f2220786d6c6e733d22687474703a2f2f7777772e77332e6f72672f323030302f60008201527f737667222076696577426f783d22302030203234203234223e00000000000000602082015250565b7f7b00000000000000000000000000000000000000000000000000000000000000600082015250565b7f5d00000000000000000000000000000000000000000000000000000000000000600082015250565b7f3c706174682066696c6c3d272300000000000000000000000000000000000000600082015250565b7f646174613a6170706c69636174696f6e2f6a736f6e3b6261736536342c000000600082015250565b7f2077696c6c206576657220657869737421272c00000000000000000000000000600082015250565b7f273e000000000000000000000000000000000000000000000000000000000000600082015250565b7f3c2f7376673e0000000000000000000000000000000000000000000000000000600082015250565b612a59816122a3565b8114612a6457600080fd5b5056fe4142434445464748494a4b4c4d4e4f505152535455565758595a6162636465666768696a6b6c6d6e6f707172737475767778797a303132333435363738392b2fa2646970667358221220bb58cd3c38112fbaef33412e671986b0cdd112f39bfcfaba22cad4e86222281864736f6c634300080400333c7061746820643d274d3135203232762d312d31682d312d312d31763120312031682d31762d31682d312d31763120316831203120312031203120312031762d312d31682d317a272066696c6c3d2723316331633163272f3e3c672066696c6c3d2723666365373932273e3c7061746820643d274d39203139483820377631683120312031762d3148397a272f3e3c7061746820643d274d31302032307631483920387631683120312031762d312d31682d317a272f3e3c2f673e3c672066696c6c3d2723666664383134273e3c7061746820643d274d31312032307631203120316831762d312d312d31682d317a272f3e3c7061746820643d274d313020313968317631682d317a272f3e3c7061746820643d274d39203138483820377631683120312031762d3148397a6d2d312032763168312031762d31483920387a272f3e3c2f673e3c7061746820643d274d3135203868317631682d317a6d2d33203068317631682d317a272066696c6c3d2723326233666232272f3e3c7061746820643d274d313120377631683120315637682d312d317a6d342030682d317631683120315637682d317a6d312d335633682d315632682d312d312d3120302d3120302d312d31763148387631483776314836763120312031683120315637683176316831563720366831563568312031203120317631683120315634682d317a4d362039763148357631203120316831762d312d316831762d3168315639483720367a272066696c6c3d2723653563663330272f3e3c7061746820643d274d3720384836763168312031563848377a272066696c6c3d2723343733663365272f3e3c672066696c6c3d2723343733663365273e3c7061746820643d274d3720313676316831762d312d31483776317a272f3e3c7061746820643d274d38203134763168312031762d31483920387a6d37203068317631682d317a272f3e3c2f673e3c672066696c6c3d2723373537333733273e3c7061746820643d274d3130203876312031203120316831762d312d312d312d312d31682d3176317a6d322d3468317631682d317a6d33203068317631682d317a272f3e3c7061746820643d274d3134203368317631682d317a6d2d33203368317631682d317a272f3e3c2f673e3c672066696c6c3d2723333333273e3c7061746820643d274d31342032682d312d312d312d312d3176316831203120312031203120315632682d317a272f3e3c7061746820643d274d3135203368317631682d317a272f3e3c7061746820643d274d313620347631682d312d312d312d317631203168315636683120312031763120312031683156382037203620352034682d317a6d30203776316831762d312d31682d3176317a4d37203956382037203620352034483676312031203120312031203120316831762d312d317a272f3e3c7061746820643d274d39203131483820377631683120312031762d3148397a272f3e3c7061746820643d274d313020313268317631682d317a272f3e3c7061746820643d274d3131203876312031203120316831762d312d312d312d312d31682d3176317a272f3e3c2f673e3c7061746820643d274d392036483856354837763120312031203120312031683120312031762d312d312d312d31483956367a6d352d325633682d312d312d312d3176316831203120317631683120315634682d317a272066696c6c3d2723346334633463272f3e3c672066696c6c3d2723666664383134273e3c7061746820643d274d3920367631683120315636682d312d317a272f3e3c7061746820643d274d3820356831763148387a6d33203068317631682d317a272f3e3c2f673e3c672066696c6c3d2723666665643663273e3c7061746820643d274d3130203456334839563268315631483920387631483776312031203168312031763168312031563568315634682d312d317a272f3e3c7061746820643d274d3130203068317631682d317a6d34203068317631682d317a272f3e3c7061746820643d274d3135203176312031683156322031682d317a272f3e3c2f673e3c7061746820643d274d313020313948397631203168312031762d31682d31762d317a272f3e3c7061746820643d274d3134203139682d312d312d3176316831203120312031762d312d31682d3176317a6d2d342d3268317631682d317a6d2d342d347631203120316831762d312d312d312d31483676317a6d38203076312031682d31763168312031762d312d312d312d31682d3176317a272f3e3c7061746820643d274d3920313048382037763168312031762d317a6d342033682d31762d31682d31763120312031203120316831762d312d316831762d312d317a272f3e3c7061746820643d274d313520313168317631682d317a6d2d3620306831763148397a272f3e3c7061746820643d274d313220313868317631682d317a6d2d32203076316831762d312d31682d3176317a272f3e3c7061746820643d274d3134203133682d312d317631683120317631682d312d317631683120317631682d317631683176316831762d312d312d312d312d312d312d31682d3176317a6d2d372d33763168312031762d31483820377a272f3e3c7061746820643d274d3130203133763120316831762d312d312d31682d3176317a6d352d3268317631682d317a272f3e3c7061746820643d274d3620313276312031203120316831762d312d312d3168312031762d3148382037762d31483676317a6d3130203068317631682d317a272f3e3c672066696c6c3d2723613035303030273e3c7061746820643d274d372031386831763148377a6d332d3368317631682d317a272f3e3c7061746820643d274d392031346831763148397a6d32203268317631682d317a272f3e3c2f673e3c672066696c6c3d2723373162636433273e3c7061746820643d274d313020313468317631682d317a272f3e3c7061746820643d274d313120313568317631682d317a6d302d3268317631682d317a272f3e3c7061746820643d274d313220313468317631682d317a6d302d3268317631682d317a272f3e3c7061746820643d274d313320313368317631682d317a6d302d3268317631682d317a272f3e3c7061746820643d274d313420313268317631682d317a6d302d3268317631682d317a272f3e3c7061746820643d274d313520313168317631682d317a272f3e3c2f673e3c672066696c6c3d2723336439346130273e3c7061746820643d274d313120313468317631682d317a272f3e3c7061746820643d274d313220313368317631682d317a272f3e3c7061746820643d274d313320313268317631682d317a272f3e3c7061746820643d274d313420313168317631682d317a272f3e3c7061746820643d274d313520313068317631682d317a272f3e3c2f673e3c672066696c6c3d2723343733663365273e3c7061746820643d274d3920377631683156372036483976317a272f3e3c7061746820643d274d3130203568317631682d317a272f3e3c7061746820643d274d3131203468317631682d317a4d3920377631683156372036483976317a272f3e3c7061746820643d274d3130203568317631682d317a272f3e3c7061746820643d274d3131203468317631682d317a272f3e3c2f673e3c7061746820643d274d313120377631683120315637682d312d317a6d342030682d317631683120315637682d317a272066696c6c3d2723346331643063272f3e3c7061746820643d274d3135203868317631682d317a6d2d33203068317631682d317a272066696c6c3d2723653230303030272f3e3c672066696c6c3d2723343733663365273e3c7061746820643d274d372031356831763148377a272f3e3c7061746820643d274d372031366831763148377a6d312d326831763148387a272f3e3c7061746820643d274d392031346831763148397a6d372031682d31762d3168317a272f3e3c2f673e3c7061746820643d274d313320313468317631682d317a272066696c6c3d2723313664366266272f3e3c672066696c6c3d2723666664383134273e3c7061746820643d274d313120313268317631682d317a6d33203068317631682d317a272f3e3c7061746820643d274d3132203133763168312031762d31682d312d317a272f3e3c2f673e3c7061746820643d274d3134203230682d312d312d312d312d3176312031203168312031762d316831203120312031762d312d31682d317a272f3e3c7061746820643d274d3131203132682d31762d314839762d314838203776312031483676312031203120316831762d316831762d31683120317631683176316831762d312d312d316831762d31682d312d317a6d342d317631682d3176312031203120316831762d312d316831762d312d312d31682d317a272f3e3c7061746820643d274d3820396831763148387a272066696c6c3d27726564272f3e3c672066696c6c3d2723343232303037273e3c7061746820643d274d313720313468317631682d317a272f3e3c7061746820643d274d313820313368317631682d317a272f3e3c7061746820643d274d313920313268317631682d317a272f3e3c7061746820643d274d323020313168317631682d317a272f3e3c7061746820643d274d323120313068317631682d317a272f3e3c2f673e3c7061746820643d274d313920313068317631682d317a6d322d3268317631682d317a6d31203468317631682d317a272066696c6c3d2723666666323464272f3e3c7061746820643d274d31352031317631682d312d312d312d312d31762d314839762d314838203776312031483676312031203120316831762d3168312032203176312031682d31763120314839763120316832762d316834762d312d312d312d312d316831762d312d312d312d31682d317a272f3e3c7061746820643d274d3135203233682d312d312d312d312d312d3176316831203120312031203120312031762d31682d317a272066696c6c3d2723333331363032272f3e3c7061746820643d274d313220323268317631682d317a6d32203068317631682d317a272066696c6c3d2723353432613064272f3e3c7061746820643d274d3134203136682d312d312d31763120316831763168312031762d316831762d312d31682d317a272f3e3c7061746820643d274d313320313768317631682d317a272066696c6c3d2723666630303235272f3e3c7061746820643d274d3131203137763168312031762d31682d312d317a6d33203068317631682d317a272066696c6c3d2723343734373437272f3e3c672066696c6c3d2723666662373537273e3c7061746820643d274d372032306831763148377a272f3e3c7061746820643d274d362032316831763148367a272f3e3c7061746820643d274d3620323248357631203168312031762d314836762d317a272f3e3c7061746820643d274d372032326831763148377a272f3e3c7061746820643d274d382032316831763148387a272f3e3c7061746820643d274d392032306831763148397a272f3e3c7061746820643d274d313020313968317631682d317a272f3e3c7061746820643d274d313120313868317631682d317a6d2d3320316831763148387a272f3e3c7061746820643d274d392031386831763148397a272f3e3c7061746820643d274d313020313768317631682d317a272f3e3c2f673e3c672066696c6c3d2723653561633163273e3c7061746820643d274d362032326831763148367a272f3e3c7061746820643d274d372032316831763148377a272f3e3c7061746820643d274d382032306831763148387a272f3e3c7061746820643d274d392031396831763148397a272f3e3c7061746820643d274d313020313868317631682d317a272f3e3c2f673e3c7061746820643d274d313620345633682d315632483876314837763148367635683176322031483676312031203120316831762d3168312032203176312031682d3176312031483976316833762d31683120312031762d312d312d312d316831762d312d312d312d31682d317631682d312d312d31762d31682d31762d31682d3156396831563868315636683376316831763268315634682d317a272f3e3c7061746820643d274d313120313468317631682d317a272066696c6c3d2723356231623065272f3e3c672066696c6c3d2723656131633434273e3c7061746820643d274d313420313268317631682d317a6d2d312033682d317631682d31763168312031762d316831762d312d31682d3176317a272f3e3c7061746820643d274d313020313768317631682d317a272f3e3c2f673e3c672066696c6c3d2723623231663435273e3c7061746820643d274d313220313468317631682d317a272f3e3c7061746820643d274d313120313568317631682d317a6d322d3268317631682d317a272f3e3c2f673e3c672066696c6c3d2723666665393232273e3c7061746820643d274d372031366831763148377a272f3e3c7061746820643d274d382031356831763148387a272f3e3c7061746820643d274d392031346831763148397a272f3e3c2f673e3c7061746820643d274d3820316831763148387a4d3620347631683120315634483720367a272066696c6c3d2723323932343264272f3e3c7061746820643d274d313120336831203120315632682d315631682d312d312d317631683176317a6d332031682d312d312d312d312d312d31763168312031203120312031203120315634682d317a272066696c6c3d2723333732663364272f3e3c7061746820643d274d3135203356322031682d312d3176316831763168317a6d312031682d317631683120315634682d317a272066696c6c3d2723346634323562272f3e3c672066696c6c3d2723326432643264273e3c7061746820643d274d3520346831763148357a6d3132203068317631682d317a272f3e3c7061746820643d274d31352035682d312d312d312d312d312d312d312d312d317631683120312031203120312031203120312031203120315635682d312d317a6d302d32682d312d312d312d312d31763168312031203120312031203120315633682d3156322031682d31763120317a4d3820346831563348385632203148377631203148367631683120317a272f3e3c7061746820643d274d31302031683120312031203120315630682d312d312d312d312d312d312d317631683120317a272f3e3c2f673e3c7061746820643d274d3920326831763148397a272066696c6c3d2723663461363237272f3e3c672066696c6c3d2723326161366632273e3c7061746820643d274d3820326831763148387a272f3e3c7061746820643d274d3920316831763148397a272f3e3c7061746820643d274d3130203268317631682d317a272f3e3c7061746820643d274d3920336831763148397a272f3e3c2f673e3c7061746820643d274d3135203668317631682d317a4d3820367631683120315636483920387a272066696c6c3d2723616632383235272f3e3c7061746820643d274d31342036682d312d312d312d317631683120312031203120315636682d317a4d3720356831763148377a6d3020326831763148377a272066696c6c3d2723646233393331272f3e3c7061746820643d274d3134203138682d312d312d312d317631483976312031203168312031762d316831203120312031762d312d312d31682d317a272f3e3c7061746820643d274d3134203133682d312d31763120316831762d31683176312031203120316831762d312d312d312d312d312d31682d3176317a6d2d372d33763168312031762d31483820377a6d342033762d31682d317631203120316831762d312d317a272f3e3c7061746820643d274d3131203136763120316831762d312d312d31682d3176317a6d342d3568317631682d317a6d2d3920314835763168317631203120316831762d312d312d3168312031762d3148382037762d31483676317a272f3e3c672066696c6c3d2723393236643164273e3c7061746820643d274d37203138762d312d3148367631203120316831762d317a272f3e3c7061746820643d274d36203231762d312d3148357631203120316831762d317a272f3e3c7061746820643d274d313020323076312031203148392038203720362035762d314834763120316831203120312031203120312031762d312d312d312d31682d317a272f3e3c2f673e3c672066696c6c3d2723323932393735273e3c7061746820643d274d372031376831763148377a6d2d3120336831763148367a272f3e3c7061746820643d274d382031386831763148387a272f3e3c7061746820643d274d372031396831763148377a6d3020326831763148377a272f3e3c7061746820643d274d362032326831763148367a6d322d326831763148387a6d322d3268317631682d317a272f3e3c7061746820643d274d392031396831763148397a6d3020326831763148397a272f3e3c7061746820643d274d382032326831763148387a6d332d3568317631682d317a272f3e3c2f673e3c672066696c6c3d2723633039343262273e3c7061746820643d274d372031386831763148377a272f3e3c7061746820643d274d362031396831763148367a6d3020326831763148367a272f3e3c7061746820643d274d352032326831763148357a6d322d326831763148377a6d322d326831763148397a272f3e3c7061746820643d274d382031396831763148387a6d3020326831763148387a272f3e3c7061746820643d274d372032326831763148377a6d322d326831763148397a272f3e3c7061746820643d274d313020313968317631682d317a6d2d3120336831763148397a6d312d3568317631682d317a272f3e3c7061746820643d274d313120313668317631682d317a272f3e3c2f673e3c7061746820643d274d31342031397631203120316831762d312d312d312d312d31682d31763120317a6d2d342d3268317631682d317a272f3e3c7061746820643d274d392031386831763148397a6d302d336831763148397a6d352d3368317631682d317a6d2d372d316831763148377a272f3e3c7061746820643d274d382031306831763148387a6d332033762d31682d312d31763120316831762d3168317a272f3e3c7061746820643d274d31332031347631203120316831762d312d312d312d31682d3176317a6d2d322030682d3176316831763120316831762d312d312d312d31682d3176317a6d34203068317631682d317a6d302d3368317631682d317a6d2d3820376831763148377a272f3e3c7061746820643d274d37203136762d312d312d312d3148367631203120312031203120316831762d312d317a6d31203476316831762d312d31483876317a272f3e3c7061746820643d274d372032327631203168312031762d314838762d312d31483776317a272f3e3c7061746820643d274d332e30342031356831347631682d31347a272066696c6c3d2723666666272f3e3c7061746820643d274d352e303420313768317631682d317a6d32203068317631682d317a6d36203068317631682d317a6d2d32203068317631682d317a272066696c6c3d2723356231323132272f3e3c672066696c6c3d2723383930663063273e3c7061746820643d274d322e3034203135682d31763168312031762d31682d317a272f3e3c7061746820643d274d332e3034203136763168312031762d31682d312d317a6d33203168317631682d317a6d31322d32682d31763168312031762d31682d317a272f3e3c7061746820643d274d31352e3034203136763168312031762d31682d312d317a272f3e3c7061746820643d274d31342e303420313768317631682d317a6d2d32203068317631682d317a6d2d32203068317631682d317a272f3e3c2f673e3c672066696c6c3d2723393133343133273e3c7061746820643d274d322e303420313668317631682d317a272f3e3c7061746820643d274d332e303420313768327631682d327a6d3132203068327631682d327a272f3e3c7061746820643d274d31372e303420313668317631682d317a6d2d362032682d312d312d312d337631683320312031203120312033762d31682d332d317a272f3e3c2f673e3c672066696c6c3d2723333333273e3c7061746820643d274d36203132483576316831763120316831762d312d316831762d314837762d31483676317a272f3e3c7061746820643d274d382031304837763168312031762d3148387a272f3e3c7061746820643d274d392031316831763148397a272f3e3c7061746820643d274d3131203132682d31763120316831762d312d317a6d342d3168317631682d317a272f3e3c7061746820643d274d313620313268317631682d317a6d2d352033763120316831762d312d312d31682d3176317a272f3e3c7061746820643d274d313320313276316831763120312031203120316831762d312d312d312d312d312d31682d312d317a6d2d33203568317631682d317a272f3e3c2f673e3c7061746820643d274d37203131763168312031762d31483820377a6d36203468317631682d317a6d302d3268317631682d317a6d30203468317631682d317a272066696c6c3d2723356230303030272f3e3c672066696c6c3d2723373537333733273e3c7061746820643d274d382031326831763148387a6d352034682d31763168312031762d31682d317a272f3e3c7061746820643d274d313120313768317631682d317a272f3e3c2f673e3c672066696c6c3d2723346334633463273e3c7061746820643d274d31352031327631203120316831762d312d312d31682d317a6d2d3920336831763148367a272f3e3c7061746820643d274d3133203133762d31682d312d317631682d31762d314839763148382037763120316831762d316831203176316831762d316831763120316831762d316831762d31682d31762d317a6d2d31203468317631682d317a272f3e3c2f673e3c672066696c6c3d2723333333273e3c7061746820643d274d313520313068317631682d317a272f3e3c7061746820643d274d313020313268312031203120312031762d31682d312d312d312d312d312d31763168317a4d3820334837763148367631203120312031203120316831563920382037203620356831563420337a272f3e3c7061746820643d274d3820356831763148387a272f3e3c7061746820643d274d31342036682d312d312d312d312d3176312031683156376831203120312031203120315636682d312d317a272f3e3c7061746820643d274d31362033682d315632682d312d312d312d312d312d312d3176316831203176312031683156342033683176312031683156342033683176312031683156346831763120316831563520342033682d317a6d2d3820386831762d3148382037763168317a6d302d336831763148387a272f3e3c2f673e3c672066696c6c3d2723346334633463273e3c7061746820643d274d3720367631203120312031683120317631683120312031762d31682d312d315639483956384838563720362035483776317a272f3e3c7061746820643d274d313420355634682d317631682d315634682d317631682d31563448395633483876312031683176316831203120312031203120315635682d317a272f3e3c2f673e3c672066696c6c3d2723373537333733273e3c7061746820643d274d3920364838763120316831563720367a272f3e3c7061746820643d274d3130203848397631683176316831563920382037682d3176317a6d332032682d317631683120312031762d31682d312d317a6d2d322d3768317631682d317a4d3920336831763148397a6d34203068317631682d317a6d32203176312031683156352034682d317a272f3e3c2f673e3c7061746820643d274d372031682d2e30375630483620357631483420337631683120315631683176316831763168315632203148377a4d3220347631683156342033483276317a6d3220336831763148347a272066696c6c3d2723613031303361272f3e3c7061746820643d274d362032563148357631483420337631203120312031203168315636203520346831563368312031563248367a4d3320397631683156392038483376317a272066696c6c3d2723636533613435272f3e3c7061746820643d274d362031337631203120316831762d312d312d312d31483676317a6d312d33763168312031762d31483820377a6d342034763120316831762d312d312d31682d3176317a6d342d3368317631682d317a272f3e3c7061746820643d274d313220313268317631682d317a6d3220317631203120316831762d312d312d312d31682d3176317a272f3e3c672066696c6c3d2723336132313130273e3c7061746820643d274d372031376831763148377a272f3e3c7061746820643d274d382031386831763148387a6d2d3220306831763148367a272f3e3c7061746820643d274d372031396831763148377a6d332d3568317631682d317a272f3e3c7061746820643d274d3620313948357631203168312031762d314836762d317a6d352d3468317631682d317a272f3e3c2f673e3c672066696c6c3d2723363236326334273e3c7061746820643d274d313220313368317631682d317a272f3e3c7061746820643d274d313320313268317631682d317a272f3e3c2f673e3c672066696c6c3d2723353632333031273e3c7061746820643d274d372031386831763148377a272f3e3c7061746820643d274d362031396831763148367a6d352d3568317631682d317a6d332d3368317631682d317a272f3e3c2f673e3c672066696c6c3d2723326231363034273e3c7061746820643d274d313120313368317631682d317a272f3e3c7061746820643d274d313220313468317631682d317a6d302d3268317631682d317a272f3e3c7061746820643d274d313320313368317631682d317a6d302d3268317631682d317a272f3e3c7061746820643d274d313420313268317631682d317a272f3e3c2f673e3c672066696c6c3d2723393131333133273e3c7061746820643d274d313520313568317631682d317a272f3e3c7061746820643d274d313420313668317631682d317a272f3e3c2f673e3c7061746820643d274d3135203133682d317631682d317631203168312031762d316831762d312d31682d317a6d2d322d32762d31682d312d317631682d317631203168312031762d316831762d317a272066696c6c3d2723333033303330272f3e3c672066696c6c3d2723313431343134273e3c7061746820643d274d313620313468317631682d317a6d2d362d3468317631682d317a272f3e3c7061746820643d274d3131203968317631682d317a6d2d3220326831763148397a272f3e3c2f673e3c7061746820643d274d3132203230682d317631683120312031762d31682d312d317a272f3e3c7061746820643d274d3130203230762d31483976312031203168312031762d31682d31762d317a272f3e3c7061746820643d274d3131203138762d31682d31763120316831762d317a6d2d352d357631203120316831762d312d312d312d31483676317a272f3e3c7061746820643d274d3134203133682d312d31762d31682d31763120312031203120316831762d312d312d31683176316831763120312031203120316831762d312d312d312d312d312d312d312d31682d3176317a6d2d362d336831763148387a272f3e3c7061746820643d274d313520313168317631682d317a6d2d3820306831763148377a272f3e3c672066696c6c3d2723666637363130273e3c7061746820643d274d313120313468317631682d317a6d2d322d346831763148397a272f3e3c7061746820643d274d3131203668317631682d317a6d2d312038483976312031683176316831762d312d31682d31762d317a272f3e3c2f673e3c672066696c6c3d2723666365303366273e3c7061746820643d274d313120313568317631682d317a272f3e3c7061746820643d274d3131203133682d31763120316831762d312d317a6d302d3268317631682d317a4d3920396831763148397a272f3e3c2f673e3c7061746820643d274d3137203868317631682d317a272066696c6c3d2723363236326334272f3e3c7061746820643d274d342032316831763148347a6d322d326831763148367a6d362d3668317631682d317a6d2d32203268317631682d317a6d342d3468317631682d317a6d322d3268317631682d317a272066696c6c3d2723353632333031272f3e3c7061746820643d274d352032306831763148357a6d2d3220326831763148337a6d342d346831763148377a6d342d3468317631682d317a6d322d3268317631682d317a6d322d3268317631682d317a272066696c6c3d2723336132313130272f3e3c672066696c6c3d2723326231383036273e3c7061746820643d274d313920385637682d315636682d317631203168317631683120315638682d317a272f3e3c7061746820643d274d3136203868317631682d317a272f3e3c7061746820643d274d3137203968317631682d317a272f3e3c2f673e3c7061746820643d274d3139203768317631682d317a6d322d3268317631682d317a272066696c6c3d2723373537333733272f3e3c7061746820643d274d323120337631682d317631682d317631682d31763168312031563668315635683156342033682d317a272066696c6c3d2723346334633463272f3e3c7061746820643d274d3230203668317631682d317a6d322d3376312031683156342033682d317a272066696c6c3d2723393131333133272f3e3c7061746820643d274d3136203132762d31682d317631682d312d312d312d312d31762d314839762d314838203776314836763120312031203120316831762d3168312032203176312031682d317631203168312031203120312031762d312d312d312d316831762d312d316831762d31682d317a272f3e3c7061746820643d274d3131203132682d31762d314839762d314838763148377631483676366831763168317632483776336832762d326831762d316831762d326831762d36682d317a6d3020347631682d3176314839762d326831762d3168317a6d342d357631682d317631682d3176312031203120312031203120316831763120316831762d312d312d312d312d312d312d316831762d312d312d312d31682d317a272f3e3c7061746820643d274d313020323168317631682d317a6d342d3168317631682d317a6d2d32203068317631682d317a272066696c6c3d2723636363272f3e3c7061746820643d274d313320323068317631682d317a6d2d3420316831763148397a6d322d3168317631682d317a272066696c6c3d2723613061306130272f3e3c7061746820643d274d3135203232762d31682d312d312d312d317631682d312d31763120316831203120312031203120312031762d312d31682d317a272066696c6c3d2723316331633163272f3e3c7061746820643d274d31342e3939203868317631682d317a6d2d33203068317631682d317a272066696c6c3d2723356164626639272f3e3c7061746820643d274d31352e393920345633682d315632682d312d312d312d312d312d317631682d317631682d31763120312031203168315637683176316831563720366831563568312031203120317631683120315634682d317a272f3e3c7061746820643d274d313020313948397631203168312031762d31682d31762d317a272f3e3c7061746820643d274d3131203138762d31682d31763120316831762d317a272f3e3c7061746820643d274d313120313668317631682d317a272f3e3c7061746820643d274d31342031337631203120312031682d312d317631683120317631682d312d312d3176316831203120312031762d312d312d312d312d312d312d312d31682d3176317a6d2d352d3348382037763168312031762d317a272f3e3c7061746820643d274d3131203134762d316831762d31682d312d317631203120316831762d317a6d2d352d3276316831762d312d31483676317a6d392d3168317631682d317a272f3e3c7061746820643d274d3720384836763168312031563848377a272066696c6c3d2723343733663365272f3e3c7061746820643d274d362039763148357631203120316831762d316831762d312d3168315639483720367a6d31302d355633682d315632682d312d312d312d312d312d31763148387631483776314836763120312031683120315637683176316831563720366831563568312031203120317631683120315634682d317a272066696c6c3d2723356532663064272f3e3c7061746820643d274d3135203868317631682d317a6d2d33203068317631682d317a272066696c6c3d2723353862373161272f3e3c672066696c6c3d2723343733663365273e3c7061746820643d274d3720313676316831762d312d31483776317a272f3e3c7061746820643d274d38203134763168312031762d31483920387a6d37203068317631682d317a272f3e3c2f673e3c7061746820643d274d3134203136682d317631203168312031762d312d31682d317a272066696c6c3d2723353632393061272f3e3c7061746820643d274d3135203130682d312d312d3176312031683120312031762d316831762d31682d317a272066696c6c3d2723363364366261272f3e3c672066696c6c3d2723623262326232273e3c7061746820643d274d313120313068317631682d317a272f3e3c7061746820643d274d3130203968317631682d317a272f3e3c7061746820643d274d3920386831763148397a272f3e3c2f673e3c7061746820643d274d32312035682d317631683120315635682d317a272066696c6c3d2723336133613832272f3e3c7061746820643d274d32312034682d317631683120315634682d317a272066696c6c3d2723363236326334272f3e3c7061746820643d274d323020313368317631682d317a6d2d322d3168317631682d317a272066696c6c3d2723333333272f3e3c672066696c6c3d2723393131333133273e3c7061746820643d274d32332039682d317631683176316831762d312d31682d317a272f3e3c7061746820643d274d323220313168317631682d317a272f3e3c7061746820643d274d323120313268317631682d317a6d2d332031763168312031762d31682d312d317a272f3e3c2f673e3c672066696c6c3d2723373537333733273e3c7061746820643d274d3232203368317631682d317a6d2d36203668317631682d317a6d302d3468317631682d317a272f3e3c7061746820643d274d3230203856372036682d312d312d31763168317631682d3176316831763168317631203168312031762d312d312d31682d3156387a272f3e3c2f673e3c672066696c6c3d2723346334633463273e3c7061746820643d274d323220313056392038682d315637682d317631203168317631203120316831762d316831762d31682d317a272f3e3c7061746820643d274d3139203132763168312031762d31682d312d317a6d302d37682d315634682d31763120316831203156357a272f3e3c2f673e3c672066696c6c3d2723326231383036273e3c7061746820643d274d352032306831763148357a272f3e3c7061746820643d274d342032316831763148347a272f3e3c7061746820643d274d332032326831763148337a6d342d346831763148377a272f3e3c7061746820643d274d362031396831763148367a6d362d3668317631682d317a272f3e3c7061746820643d274d313120313468317631682d317a272f3e3c7061746820643d274d313020313568317631682d317a6d342d3468317631682d317a272f3e3c7061746820643d274d313320313268317631682d317a6d332d33682d317631203168312031762d31682d3156397a272f3e3c7061746820643d274d3137203968317631682d317a272f3e3c7061746820643d274d3136203868317631682d317a272f3e3c2f673e3c7061746820643d274d313520335632682d312d312d312d312d312d31763148387631483776312031203120312031203168315639203820376831763168315637203648395635203468315633683120312031203176316831763120316831563520342033682d317a272066696c6c3d2723613061306130272f3e3c7061746820643d274d3135203868317631682d317a6d2d33203068317631682d317a272066696c6c3d2723383939366339272f3e3c672066696c6c3d2723343733663365273e3c7061746820643d274d3720313676316831762d312d31483776317a272f3e3c7061746820643d274d38203134763168312031762d31483920387a6d37203068317631682d317a272f3e3c2f673e3c7061746820643d274d3132203868317631682d317a6d33203068317631682d317a272066696c6c3d2723666666272f3e3c7061746820643d274d313120313368317631682d317a6d312d33682d312d312d317631683176316831762d3168312031762d31682d317a272066696c6c3d2723616632383235272f3e3c7061746820643d274d313120313468317631682d317a6d342d34682d312d317631682d312d317631682d3176316831203120312031762d316831762d316831762d31682d317a272066696c6c3d2723646233393331272f3e3c7061746820643d274d31352031317631682d312d312d312d312d31762d314839762d31483820377631483676314835763168317631203120316831762d316831203220317631203120316831203120312031762d312d312d316831762d312d312d312d31682d317a272f3e3c7061746820643d274d392031366831763148397a272066696c6c3d2723666665393232272f3e3c7061746820643d274d3134203139682d312d312d312d312d31763120312031203168312031762d316831203120312031762d312d312d31682d317a272f3e3c7061746820643d274d372031386831763148377a6d332d3368317631682d317a272066696c6c3d2723656661323162272f3e3c672066696c6c3d2723306130613534273e3c7061746820643d274d372031376831763148377a272f3e3c7061746820643d274d382031386831763148387a272f3e3c7061746820643d274d3720313848367631203168312031762d314837762d317a6d332d3468317631682d317a272f3e3c7061746820643d274d313120313568317631682d317a272f3e3c2f673e3c672066696c6c3d2723366638363865273e3c7061746820643d274d313120313468317631682d317a272f3e3c7061746820643d274d313220313368317631682d317a272f3e3c7061746820643d274d313320313268317631682d317a272f3e3c7061746820643d274d313420313168317631682d317a6d332d3368317631682d317a272f3e3c2f673e3c672066696c6c3d2723393131333133273e3c7061746820643d274d313520313068317631682d317a272f3e3c7061746820643d274d3136203968317631682d317a6d322d3268317631682d317a272f3e3c7061746820643d274d3139203668317631682d317a272f3e3c7061746820643d274d3230203568317631682d317a272f3e3c2f673e3c672066696c6c3d2723343434613463273e3c7061746820643d274d313120313368317631682d317a272f3e3c7061746820643d274d313220313268317631682d317a272f3e3c7061746820643d274d313320313168317631682d317a272f3e3c7061746820643d274d313420313068317631682d317a272f3e3c7061746820643d274d3135203968317631682d317a272f3e3c7061746820643d274d3136203868317631682d317a272f3e3c7061746820643d274d3137203768317631682d317a272f3e3c7061746820643d274d3138203668317631682d317a272f3e3c7061746820643d274d3139203568317631682d317a272f3e3c7061746820643d274d3230203468317631682d317a272f3e3c2f673e3c7061746820643d274d39203135483876312031203168312031762d316831762d312d31682d312d317a6d372030682d317631203120316831762d316831762d312d31682d317a272066696c6c3d2723316331633163272f3e3c7061746820643d274d31302e39392031367631682d317632682d31763120312031203168312031762d316831203120312031762d312d312d312d33682d347a272f3e3c7061746820643d274d31352031317631682d312d312d312d312d31762d314839762d31483820377631483676312031683120312031203176312031683176312031682d317632483976326832762d3168312033762d332d312d312d312d316831762d312d31682d317a272f3e3c7061746820643d274d3135203868317631682d317a6d2d33203068317631682d317a272066696c6c3d2723376630613734272f3e3c672066696c6c3d2723343733663365273e3c7061746820643d274d3720313676316831762d312d31483776317a272f3e3c7061746820643d274d38203134763168312031762d31483920387a6d37203068317631682d317a272f3e3c2f673e3c7061746820643d274d313020313568317631682d317a272066696c6c3d2723336133613832272f3e3c672066696c6c3d2723613339663962273e3c7061746820643d274d313620313068317631682d317a272f3e3c7061746820643d274d3138203676312031682d3176312031683156396831563820372036682d317a272f3e3c2f673e3c672066696c6c3d2723326231383036273e3c7061746820643d274d372031386831763148377a6d322d346831763148397a272f3e3c7061746820643d274d313120313668317631682d317a6d2d312d33762d3148392038763120316831762d3168317a272f3e3c7061746820643d274d313020313368317631682d317a6d32203268317631682d317a272f3e3c7061746820643d274d31332031367631682d31763168312031762d312d31682d317a272f3e3c2f673e3c672066696c6c3d2723393131333133273e3c7061746820643d274d323020357631682d31763120312031683156382037683156362035682d317a6d2d34203668317631682d317a272f3e3c7061746820643d274d3138203968317631682d317a6d2d33203368317631682d317a272f3e3c2f673e3c672066696c6c3d2723323332333233273e3c7061746820643d274d32302035682d312d3176316831203156357a6d2d36203468317631682d317a272f3e3c7061746820643d274d3135203868317631682d317a272f3e3c7061746820643d274d3136203768317631682d317a272f3e3c7061746820643d274d3137203668317631682d317a6d30203468317631682d317a6d332d3368317631682d317a6d2d37203368317631682d317a272f3e3c7061746820643d274d313220313168317631682d317a6d32203268317631682d317a272f3e3c7061746820643d274d313120313268317631682d317a6d32203268317631682d317a272f3e3c2f673e3c672066696c6c3d2723363236326334273e3c7061746820643d274d313120313468317631682d317a6d322d3268317631682d317a272f3e3c7061746820643d274d313220313368317631682d317a272f3e3c2f673e3c672066696c6c3d2723376137363732273e3c7061746820643d274d31362039682d3176312031682d31763120316831762d316831762d312d31683156392038682d3176317a272f3e3c7061746820643d274d3137203768317631682d317a272f3e3c2f673e3c672066696c6c3d2723346334633463273e3c7061746820643d274d313220313268317631682d317a272f3e3c7061746820643d274d313320313368317631682d317a6d302d3268317631682d317a272f3e3c7061746820643d274d313420313068317631682d317a6d2d33203368317631682d317a272f3e3c7061746820643d274d313220313468317631682d317a272f3e3c2f673e3c672066696c6c3d2723393334363064273e3c7061746820643d274d313220313668317631682d317a272f3e3c7061746820643d274d313120313568317631682d317a272f3e3c7061746820643d274d313020313468317631682d317a272f3e3c7061746820643d274d392031336831763148397a272f3e3c2f673e3c7061746820643d274d3132203136762d316831762d31682d31762d312d31682d31763120312031203120316831762d317a6d2d362d337631203120316831762d312d312d312d31483676317a272f3e3c7061746820643d274d3134203133682d31763168317631203120312031682d312d312d31762d31682d317631203168312031203120312031762d312d312d312d312d312d312d31682d3176317a6d2d362d336831763148387a272f3e3c7061746820643d274d313520313168317631682d317a6d2d3820306831763148377a272f3e3c7061746820643d274d3134203139682d312d312d312d312d31763120312031203168312031762d316831203120312031762d312d312d31682d317a6d2d322d395639682d327633683120312034762d32682d347a272f3e3c7061746820643d274d3136203130682d365639483876326832763268317637682d312d3176312031203168312031762d316831203120312031762d312d312d376831762d337a272f3e3c672066696c6c3d2723633163316331273e3c7061746820643d274d313020313068317631682d317a272f3e3c7061746820643d274d313120313168317631682d317a272f3e3c7061746820643d274d3133203132682d31763120316831762d312d317a6d3220307631203120316831762d312d312d31682d317a272f3e3c7061746820643d274d3920396831763148397a6d35203668317631682d317a272f3e3c7061746820643d274d313320313468317631682d317a272f3e3c2f673e3c672066696c6c3d2723396539653965273e3c7061746820643d274d392031306831763148397a272f3e3c7061746820643d274d313020313168317631682d317a272f3e3c7061746820643d274d3132203132682d31763120316831762d312d317a6d31203368317631682d317a272f3e3c7061746820643d274d313220313468317631682d317a4d3920384838763120316831563920387a272f3e3c2f673e3c672066696c6c3d2723653065306530273e3c7061746820643d274d3135203130682d312d312d312d31763168317631683176312031683176316831762d312d312d316831762d312d31682d317a272f3e3c7061746820643d274d3130203968317631682d317a272f3e3c7061746820643d274d3920386831763148397a272f3e3c2f673e3c7061746820643d274d31352031317631682d312d312d312d312d31762d314839762d314838763148377631483676312031203120316831762d3168312032203176312031682d3176312031483976312031203168312031762d31683120312031762d316831762d312d312d312d312d316831762d312d312d312d31682d317a272f3e3c7061746820643d274d31312031327638682d312d3176312031203168312031762d316831203120312031762d312d312d38682d347a272f3e3c672066696c6c3d2723373162636433273e3c7061746820643d274d313620313468317631682d317a272f3e3c7061746820643d274d313720313368317631682d317a6d2d37203168317631682d317a272f3e3c7061746820643d274d313120313368317631682d317a272f3e3c7061746820643d274d313220313268317631682d317a272f3e3c2f673e3c672066696c6c3d2723393131333133273e3c7061746820643d274d3138203132763120316831762d312d31682d317a272f3e3c7061746820643d274d313720313468317631682d317a6d2d352d3168317631682d317a272f3e3c7061746820643d274d313120313468317631682d317a272f3e3c2f673e3c7061746820643d274d313620313568317631682d317a6d2d36203068317631682d317a272066696c6c3d2723336439346130272f3e3c672066696c6c3d2723613035303030273e3c7061746820643d274d313520313568317631682d317a272f3e3c7061746820643d274d313620313668317631682d317a6d2d372d316831763148397a272f3e3c7061746820643d274d313020313668317631682d317a272f3e3c2f673e3c7061746820643d274d313620345633682d315632682d312d312d312d312d312d3176314838763120314837763120312031203120316831563920382037683176316831563720366831563568312031203120317631683120315634682d317a272066696c6c3d2723613061306130272f3e3c7061746820643d274d3135203868317631682d317a6d2d33203068317631682d317a272066696c6c3d2723656437663433272f3e3c7061746820643d274d31342e39392031317631682d312d312d312d312d31762d31682d31762d31682d312d317631682d3176312031683120312031203176312031683176316831203120312031762d312d312d316831762d312d31682d317a272f3e3c7061746820643d274d3135203868317631682d317a6d2d33203068317631682d317a272066696c6c3d2723666638646534272f3e3c672066696c6c3d2723356532663064273e3c7061746820643d274d313120377631683156372036682d3176317a272f3e3c7061746820643d274d313620345633682d315632682d312d312d312d312d312d31763148387631483776312031203120312031203168315639203820376831763120316831563820372036683156356831763168315635683176316831763168315636683156352034682d317a6d2d35203568317631682d317a272f3e3c2f673e3c7061746820643d274d31322039682d31563868317a272066696c6c3d2723343733663365272f3e3c7061746820643d274d3135203868317631682d317a6d2d33203068317631682d317a272066696c6c3d2723653533633864272f3e3c672066696c6c3d2723383734393162273e3c7061746820643d274d313620345633682d315632682d312d312d312d312d312d3176314838763120314837763120312031203120316831563920382037683176316831563720366831563568312031203120317631683120315634682d317a272f3e3c7061746820643d274d31352037682d317631683120315637682d317a6d2d3420307631683120315637682d312d317a272f3e3c2f673e3c7061746820643d274d313120377631683120315637682d312d317a6d342030682d317631683120315637682d317a272066696c6c3d2723356532663064272f3e3c7061746820643d274d3135203868317631682d317a6d2d33203068317631682d317a272066696c6c3d2723636363333536272f3e3c7061746820643d274d313620345633682d315632682d312d312d312d312d312d31763148387631483776312031203120312031683156382037683176316831563720366831563568312031203120317631683120315634682d317a272066696c6c3d2723356532663064272f3e3c672066696c6c3d2723343733663365273e3c7061746820643d274d3720313676316831762d312d31483776317a272f3e3c7061746820643d274d38203134763168312031762d31483920387a6d37203068317631682d317a272f3e3c2f673e3c7061746820643d274d31332037682d31763120316831203156382037682d317a272066696c6c3d2723316331633162272f3e3c672066696c6c3d2723336633663366273e3c7061746820643d274d31352036682d317631683120315636682d317a6d2d34203368317631682d317a272f3e3c7061746820643d274d313020313068317631682d317a272f3e3c2f673e3c7061746820643d274d3134203139682d312d312d312d312d3176312031203168312031762d316831203120312031762d312d31682d317a272f3e3c7061746820643d274d3135203868317631682d317a6d2d33203068317631682d317a272066696c6c3d2723326233666232272f3e3c7061746820643d274d313620345633682d312d317631682d312d312d315633682d312d312d31763148377631483676312031203168317631683156382037683176316831563720366831563568312031203120317631683120315634682d317a272066696c6c3d2723356532663064272f3e3c672066696c6c3d2723343733663365273e3c7061746820643d274d3720313676316831762d312d31483776317a272f3e3c7061746820643d274d38203134763168312031762d31483920387a6d37203068317631682d317a272f3e3c2f673e3c7061746820643d274d31332e3939203133682d31763168317631682d31763168312031762d312d312d312d31682d3176317a6d2d372d33763168312031762d31682d312d317a272f3e3c7061746820643d274d31312e393920313468317631682d317a6d302d3268317631682d317a6d2d36203076316831762d312d31682d3176317a6d392d3168317631682d317a272f3e3c7061746820643d274d31312e3939203134762d31682d31762d31682d317631203120316831762d3168317a272f3e3c7061746820643d274d31302e393920313568317631682d317a272f3e3c7061746820643d274d3131203138762d31682d317631203148397631683120312031762d31682d31762d317a272f3e3c7061746820643d274d3132203136762d312d312d312d31682d31763120312031203120316831762d317a6d2d362d337631203120316831762d312d312d312d31483676317a6d38203076312031203120312031682d312d317631683120312031762d312d312d312d312d312d312d31682d3176317a272f3e3c7061746820643d274d313520313168317631682d317a4d38203948377631203168312031762d31483856397a272f3e3c7061746820643d274d3720375636203520344836763120312031203120316831563820377a272f3e3c7061746820643d274d3720336831763148377a272f3e3c7061746820643d274d31302033683120312031203120315632682d312d312d312d312d312d312d317631683120317a272f3e3c7061746820643d274d3135203368317631682d317a272f3e3c7061746820643d274d3136203476312031682d317631683176312031683156382037203620352034682d317a4d3920396831763148397a272f3e3c7061746820643d274d31342035682d312d312d317631203120316831563720366831203120315635682d317a272f3e3c7061746820643d274d3130203868317631682d317a272f3e3c672066696c6c3d2723373030643064273e3c7061746820643d274d313020313368317631682d317a6d34203068317631682d317a6d2d3820336831763148367a272f3e3c7061746820643d274d372031376831763148377a272f3e3c7061746820643d274d38203138763168312031762d31483920387a272f3e3c2f673e3c7061746820643d274d313020313268317631682d317a6d34203068317631682d317a6d2d372d324836203576314834763120312031203120312031683176316831763168312031762d314837762d314836762d312d312d312d312d316831762d316831762d312d31483776317a272066696c6c3d2723633632383238272f3e3c7061746820643d274d31352031317631682d312d312d312d312d31762d314839762d314838763148377631483676312031203120316831762d3168312032203176312031682d317631203168312031203120312031762d312d312d312d316831762d312d312d312d31682d317a272f3e3c7061746820643d274d31352032327631682d312d312d312d312d312d3176316831203120312031203120312031762d312d31682d317a272066696c6c3d2723316331633163272f3e3c7061746820643d274d313320323268317631682d317a6d2d32203068317631682d317a272066696c6c3d2723613061306130272f3e3c7061746820643d274d313420323268317631682d317a6d2d34203068317631682d317a6d32203068317631682d317a272066696c6c3d2723636363272f3e",
  "linkReferences": {},
  "deployedLinkReferences": {}
}