{
  "_format": "hh-sol-artifact-1",
  "contractName": "SkinURIs",
  "sourceName": "contracts/alts/SkinURIs.sol",
  "abi": [
    {
      "inputs": [
        {
          "internalType": "uint256",
          "name": "_maxSupply",
          "type": "uint256"
        }
      ],
      "stateMutability": "nonpayable",
      "type": "constructor"
    },
    {
      "anonymous": false,
      "inputs": [
        {
          "indexed": true,
          "internalType": "address",
          "name": "previousOwner",
          "type": "address"
        },
        {
          "indexed": true,
          "internalType": "address",
          "name": "newOwner",
          "type": "address"
        }
      ],
      "name": "OwnershipTransferred",
      "type": "event"
    },
    {
      "inputs": [
        {
          "internalType": "uint256",
          "name": "startIndex",
          "type": "uint256"
        },
        {
          "internalType": "string[][]",
          "name": "data",
          "type": "string[][]"
        }
      ],
      "name": "initializeArt",
      "outputs": [],
      "stateMutability": "nonpayable",
      "type": "function"
    },
    {
      "inputs": [],
      "name": "owner",
      "outputs": [
        {
          "internalType": "address",
          "name": "",
          "type": "address"
        }
      ],
      "stateMutability": "view",
      "type": "function"
    },
    {
      "inputs": [],
      "name": "renounceOwnership",
      "outputs": [],
      "stateMutability": "nonpayable",
      "type": "function"
    },
    {
      "inputs": [
        {
          "internalType": "uint256",
          "name": "_tokenId",
          "type": "uint256"
        },
        {
          "internalType": "uint256",
          "name": "_dna",
          "type": "uint256"
        }
      ],
      "name": "tokenURI",
      "outputs": [
        {
          "internalType": "string",
          "name": "",
          "type": "string"
        }
      ],
      "stateMutability": "view",
      "type": "function"
    },
    {
      "inputs": [
        {
          "internalType": "address",
          "name": "newOwner",
          "type": "address"
        }
      ],
      "name": "transferOwnership",
      "outputs": [],
      "stateMutability": "nonpayable",
      "type": "function"
    }
  ],
  "bytecode": "0x60c06040523480156200001157600080fd5b50604051620038cf380380620038cf833981810160405281019062000037919062000db4565b620000576200004b620009b060201b60201c565b620009b860201b60201c565b80608081815250503373ffffffffffffffffffffffffffffffffffffffff1660a08173ffffffffffffffffffffffffffffffffffffffff1660601b815250506040518060a001604052806040518060400160405280600881526020017f42726163656c657400000000000000000000000000000000000000000000000081525081526020016040518060400160405280600781526020017f45617272696e670000000000000000000000000000000000000000000000000081525081526020016040518060400160405280600881526020017f4e65636b6c61636500000000000000000000000000000000000000000000000081525081526020016040518060400160405280600481526020017f52696e670000000000000000000000000000000000000000000000000000000081525081526020016040518060400160405280600681526020017f476c6f7665730000000000000000000000000000000000000000000000000000815250815250600260006005811062000202577f4e487b7100000000000000000000000000000000000000000000000000000000600052603260045260246000fd5b019060056200021392919062000a7c565b506040518061014001604052806040518060400160405280600381526020017f426f77000000000000000000000000000000000000000000000000000000000081525081526020016040518060400160405280600681526020017f446167676572000000000000000000000000000000000000000000000000000081525081526020016040518060400160405280600881526020017f4669726562616c6c00000000000000000000000000000000000000000000000081525081526020016040518060400160405280600781526020017f48616c626572640000000000000000000000000000000000000000000000000081525081526020016040518060400160405280600781526020017f486174636865740000000000000000000000000000000000000000000000000081525081526020016040518060400160405280600681526020017f4b6174616e61000000000000000000000000000000000000000000000000000081525081526020016040518060400160405280600681526020017f4b6e69766573000000000000000000000000000000000000000000000000000081525081526020016040518060400160405280600581526020017f537065617200000000000000000000000000000000000000000000000000000081525081526020016040518060400160405280600581526020017f53776f726400000000000000000000000000000000000000000000000000000081525081526020016040518060400160405280600481526020017f57616e64000000000000000000000000000000000000000000000000000000008152508152506002600160058110620004a8577f4e487b7100000000000000000000000000000000000000000000000000000000600052603260045260246000fd5b0190600a620004b992919062000ae3565b506040518060c001604052806040518060400160405280600981526020017f457965205061746368000000000000000000000000000000000000000000000081525081526020016040518060400160405280600381526020017f486174000000000000000000000000000000000000000000000000000000000081525081526020016040518060400160405280600881526020017f4865616462616e6400000000000000000000000000000000000000000000000081525081526020016040518060400160405280600681526020017f486f726e6564000000000000000000000000000000000000000000000000000081525081526020016040518060400160405280600681526020017f4b6e69676874000000000000000000000000000000000000000000000000000081525081526020016040518060400160405280600a81526020017f57686974652045796573000000000000000000000000000000000000000000008152508152506002806005811062000660577f4e487b7100000000000000000000000000000000000000000000000000000000600052603260045260246000fd5b019060066200067192919062000b4a565b5060405180608001604052806040518060400160405280600981526020017f4269672053686f6573000000000000000000000000000000000000000000000081525081526020016040518060400160405280600781526020017f53616e64616c730000000000000000000000000000000000000000000000000081525081526020016040518060400160405280600581526020017f53686f657300000000000000000000000000000000000000000000000000000081525081526020016040518060400160405280600c81526020017f57696e6765642053686f657300000000000000000000000000000000000000008152508152506002600360058110620007a3577f4e487b7100000000000000000000000000000000000000000000000000000000600052603260045260246000fd5b01906004620007b492919062000bb1565b506040518060e001604052806040518060400160405280600581526020017f41726d6f7200000000000000000000000000000000000000000000000000000081525081526020016040518060400160405280600881526020017f4261636b7061636b00000000000000000000000000000000000000000000000081525081526020016040518060400160405280600581526020017f426561726400000000000000000000000000000000000000000000000000000081525081526020016040518060400160405280600481526020017f436170650000000000000000000000000000000000000000000000000000000081525081526020016040518060400160405280600781526020017f5361746368656c0000000000000000000000000000000000000000000000000081525081526020016040518060400160405280600881526020017f536361626261726400000000000000000000000000000000000000000000000081525081526020016040518060400160405280600581526020017f5363617266000000000000000000000000000000000000000000000000000000815250815250600260046005811062000997577f4e487b7100000000000000000000000000000000000000000000000000000000600052603260045260246000fd5b01906007620009a892919062000c18565b505062000e69565b600033905090565b60008060009054906101000a900473ffffffffffffffffffffffffffffffffffffffff169050816000806101000a81548173ffffffffffffffffffffffffffffffffffffffff021916908373ffffffffffffffffffffffffffffffffffffffff1602179055508173ffffffffffffffffffffffffffffffffffffffff168173ffffffffffffffffffffffffffffffffffffffff167f8be0079c531659141344cd1fd0a4f28419497f9722a3daafe3b4186f6b6457e060405160405180910390a35050565b82805482825590600052602060002090810192821562000ad0579160200282015b8281111562000acf57825182908051906020019062000abe92919062000c7f565b509160200191906001019062000a9d565b5b50905062000adf919062000d10565b5090565b82805482825590600052602060002090810192821562000b37579160200282015b8281111562000b3657825182908051906020019062000b2592919062000c7f565b509160200191906001019062000b04565b5b50905062000b46919062000d10565b5090565b82805482825590600052602060002090810192821562000b9e579160200282015b8281111562000b9d57825182908051906020019062000b8c92919062000c7f565b509160200191906001019062000b6b565b5b50905062000bad919062000d10565b5090565b82805482825590600052602060002090810192821562000c05579160200282015b8281111562000c0457825182908051906020019062000bf392919062000c7f565b509160200191906001019062000bd2565b5b50905062000c14919062000d10565b5090565b82805482825590600052602060002090810192821562000c6c579160200282015b8281111562000c6b57825182908051906020019062000c5a92919062000c7f565b509160200191906001019062000c39565b5b50905062000c7b919062000d10565b5090565b82805462000c8d9062000dea565b90600052602060002090601f01602090048101928262000cb1576000855562000cfd565b82601f1062000ccc57805160ff191683800117855562000cfd565b8280016001018555821562000cfd579182015b8281111562000cfc57825182559160200191906001019062000cdf565b5b50905062000d0c919062000d38565b5090565b5b8082111562000d34576000818162000d2a919062000d57565b5060010162000d11565b5090565b5b8082111562000d5357600081600090555060010162000d39565b5090565b50805462000d659062000dea565b6000825580601f1062000d79575062000d9a565b601f01602090049060005260206000209081019062000d99919062000d38565b5b50565b60008151905062000dae8162000e4f565b92915050565b60006020828403121562000dc757600080fd5b600062000dd78482850162000d9d565b91505092915050565b6000819050919050565b6000600282049050600182168062000e0357607f821691505b6020821081141562000e1a5762000e1962000e20565b5b50919050565b7f4e487b7100000000000000000000000000000000000000000000000000000000600052602260045260246000fd5b62000e5a8162000de0565b811462000e6657600080fd5b50565b60805160a05160601c612a3d62000e926000396000610f7a015260006109030152612a3d6000f3fe608060405234801561001057600080fd5b50600436106100575760003560e01c8063715018a61461005c5780638da5cb5b1461006657806392cb829d1461008457806393e6f872146100b4578063f2fde38b146100d0575b600080fd5b6100646100ec565b005b61006e610174565b60405161007b9190611ee2565b60405180910390f35b61009e6004803603810190610099919061170d565b61019d565b6040516100ab9190611efd565b60405180910390f35b6100ce60048036038101906100c991906116b5565b6101d8565b005b6100ea60048036038101906100e59190611663565b6103b7565b005b6100f46104af565b73ffffffffffffffffffffffffffffffffffffffff16610112610174565b73ffffffffffffffffffffffffffffffffffffffff1614610168576040517f08c379a000000000000000000000000000000000000000000000000000000000815260040161015f90611f3f565b60405180910390fd5b61017260006104b7565b565b60008060009054906101000a900473ffffffffffffffffffffffffffffffffffffffff16905090565b60606101b16101ac848461057b565b610967565b6040516020016101c19190611ec0565b604051602081830303815290604052905092915050565b6101e06104af565b73ffffffffffffffffffffffffffffffffffffffff166101fe610174565b73ffffffffffffffffffffffffffffffffffffffff1614610254576040517f08c379a000000000000000000000000000000000000000000000000000000000815260040161024b90611f3f565b60405180910390fd5b60005b828290508110156103b15760005b83838381811061029e577f4e487b7100000000000000000000000000000000000000000000000000000000600052603260045260246000fd5b90506020028101906102b09190611f7a565b905081101561039d578383838181106102f2577f4e487b7100000000000000000000000000000000000000000000000000000000600052603260045260246000fd5b90506020028101906103049190611f7a565b8281811061033b577f4e487b7100000000000000000000000000000000000000000000000000000000600052603260045260246000fd5b905060200281019061034d9190611fd1565b60016000858961035d9190612064565b815260200190815260200160002060008481526020019081526020016000209190610389929190611514565b5080806103959061221a565b915050610265565b5080806103a99061221a565b915050610257565b50505050565b6103bf6104af565b73ffffffffffffffffffffffffffffffffffffffff166103dd610174565b73ffffffffffffffffffffffffffffffffffffffff1614610433576040517f08c379a000000000000000000000000000000000000000000000000000000000815260040161042a90611f3f565b60405180910390fd5b600073ffffffffffffffffffffffffffffffffffffffff168173ffffffffffffffffffffffffffffffffffffffff1614156104a3576040517f08c379a000000000000000000000000000000000000000000000000000000000815260040161049a90611f1f565b60405180910390fd5b6104ac816104b7565b50565b600033905090565b60008060009054906101000a900473ffffffffffffffffffffffffffffffffffffffff169050816000806101000a81548173ffffffffffffffffffffffffffffffffffffffff021916908373ffffffffffffffffffffffffffffffffffffffff1602179055508173ffffffffffffffffffffffffffffffffffffffff168173ffffffffffffffffffffffffffffffffffffffff167f8be0079c531659141344cd1fd0a4f28419497f9722a3daafe3b4186f6b6457e060405160405180910390a35050565b6060600061058883610b12565b9050606060006040518060a001604052806040518060400160405280600981526020017f4163636573736f7279000000000000000000000000000000000000000000000081525081526020016040518060400160405280600681526020017f576561706f6e000000000000000000000000000000000000000000000000000081525081526020016040518060400160405280600481526020017f486561640000000000000000000000000000000000000000000000000000000081525081526020016040518060400160405280600581526020017f53686f657300000000000000000000000000000000000000000000000000000081525081526020016040518060400160405280600581526020017f546f72736f000000000000000000000000000000000000000000000000000000815250815250905060005b60058110156108f457600060016000838152602001908152602001600020600086846008811061071c577f4e487b7100000000000000000000000000000000000000000000000000000000600052603260045260246000fd5b602002015160ff168152602001908152602001600020805461073d906121e8565b905011156108e15782600084511461078a576040518060400160405280600381526020017f2c207b00000000000000000000000000000000000000000000000000000000008152506107c1565b6040518060400160405280600181526020017f7b000000000000000000000000000000000000000000000000000000000000008152505b8383600581106107fa577f4e487b7100000000000000000000000000000000000000000000000000000000600052603260045260246000fd5b602002015160028460058110610839577f4e487b7100000000000000000000000000000000000000000000000000000000600052603260045260246000fd5b01878560088110610873577f4e487b7100000000000000000000000000000000000000000000000000000000600052603260045260246000fd5b602002015160ff16815481106108b2577f4e487b7100000000000000000000000000000000000000000000000000000000600052603260045260246000fd5b906000526020600020016040516020016108cf9493929190611c01565b60405160208183030381529060405292505b80806108ec9061221a565b9150506106c3565b506108fe86610db8565b6109277f0000000000000000000000000000000000000000000000000000000000000000610db8565b6109396109348989610f65565b610967565b8460405160200161094d9493929190611e14565b604051602081830303815290604052935050505092915050565b606060008251141561098a57604051806020016040528060008152509050610b0d565b60006040518060600160405280604081526020016129c860409139905060006003600285516109b99190612064565b6109c391906120ba565b60046109cf91906120eb565b905060006020826109e09190612064565b67ffffffffffffffff811115610a1f577f4e487b7100000000000000000000000000000000000000000000000000000000600052604160045260246000fd5b6040519080825280601f01601f191660200182016040528015610a515781602001600182028036833780820191505090505b509050818152600183018586518101602084015b81831015610acc576003830192508251603f8160121c1685015160f81b8252600182019150603f81600c1c1685015160f81b8252600182019150603f8160061c1685015160f81b8252600182019150603f811685015160f81b825260018201915050610a65565b600389510660018114610ae65760028114610af657610b01565b613d3d60f01b6002830352610b01565b603d60f81b60018303525b50505050508093505050505b919050565b610b1a61159a565b610b2261159a565b600a83610b2f9190612263565b81600060088110610b69577f4e487b7100000000000000000000000000000000000000000000000000000000600052603260045260246000fd5b602002019060ff16908160ff1681525050600a83610b8791906120ba565b9250600e83610b969190612263565b81600160088110610bd0577f4e487b7100000000000000000000000000000000000000000000000000000000600052603260045260246000fd5b602002019060ff16908160ff1681525050600e83610bee91906120ba565b9250600c83610bfd9190612263565b81600260088110610c37577f4e487b7100000000000000000000000000000000000000000000000000000000600052603260045260246000fd5b602002019060ff16908160ff1681525050600c83610c5591906120ba565b9250600883610c649190612263565b81600360088110610c9e577f4e487b7100000000000000000000000000000000000000000000000000000000600052603260045260246000fd5b602002019060ff16908160ff1681525050600883610cbc91906120ba565b9250601083610ccb9190612263565b81600460088110610d05577f4e487b7100000000000000000000000000000000000000000000000000000000600052603260045260246000fd5b602002019060ff16908160ff1681525050601083610d2391906120ba565b92506000600590505b6008811015610dae57600a84610d429190612263565b828260088110610d7b577f4e487b7100000000000000000000000000000000000000000000000000000000600052603260045260246000fd5b602002019060ff16908160ff1681525050600a84610d9991906120ba565b93508080610da69061221a565b915050610d2c565b5080915050919050565b60606000821415610e00576040518060400160405280600181526020017f30000000000000000000000000000000000000000000000000000000000000008152509050610f60565b600082905060005b60008214610e32578080610e1b9061221a565b915050600a82610e2b91906120ba565b9150610e08565b60008167ffffffffffffffff811115610e74577f4e487b7100000000000000000000000000000000000000000000000000000000600052604160045260246000fd5b6040519080825280601f01601f191660200182016040528015610ea65781602001600182028036833780820191505090505b5090505b60008514610f5957600182610ebf9190612145565b9150600a85610ece9190612263565b6030610eda9190612064565b60f81b818381518110610f16577f4e487b7100000000000000000000000000000000000000000000000000000000600052603260045260246000fd5b60200101907effffffffffffffffffffffffffffffffffffffffffffffffffffffffffffff1916908160001a905350600a85610f5291906120ba565b9450610eaa565b8093505050505b919050565b60606000610f7283610b12565b9050600060017f000000000000000000000000000000000000000000000000000000000000000073ffffffffffffffffffffffffffffffffffffffff16633613a9f4876040518263ffffffff1660e01b8152600401610fd19190611f5f565b60206040518083038186803b158015610fe957600080fd5b505afa158015610ffd573d6000803e3d6000fd5b505050506040513d601f19601f82011682018060405250810190611021919061168c565b61102b9190612145565b90506000600782148061103e5750600182145b61105757604051806020016040528060008152506110dd565b60016000600781526020019081526020016000206000846007600881106110a7577f4e487b7100000000000000000000000000000000000000000000000000000000600052603260045260246000fd5b602002015160ff1681526020019081526020016000206040516020016110cd9190611de7565b6040516020818303038152906040525b90506110e886610db8565b6001600060078152602001908152602001600020600085600760088110611138577f4e487b7100000000000000000000000000000000000000000000000000000000600052603260045260246000fd5b602002015160ff16815260200190815260200160002082600160006006815260200190815260200160002060008760066008811061119f577f4e487b7100000000000000000000000000000000000000000000000000000000600052603260045260246000fd5b602002015160ff16815260200190815260200160002060016000600881526020019081526020016000206000878152602001908152602001600020600160006005815260200190815260200160002060008960056008811061122a577f4e487b7100000000000000000000000000000000000000000000000000000000600052603260045260246000fd5b602002015160ff1681526020019081526020016000206001600060098152602001908152602001600020600089815260200190815260200160002060016000600a815260200190815260200160002060008a815260200190815260200160002060016000600b815260200190815260200160002060008b81526020019081526020016000206112b88c6112eb565b6040516020016112d19a99989796959493929190611cc1565b604051602081830303815290604052935050505092915050565b6060600160006004815260200190815260200160002060008360046008811061133d577f4e487b7100000000000000000000000000000000000000000000000000000000600052603260045260246000fd5b602002015160ff16815260200190815260200160002060016000600281526020019081526020016000206000846002600881106113a3577f4e487b7100000000000000000000000000000000000000000000000000000000600052603260045260246000fd5b602002015160ff16815260200190815260200160002060016000808152602001908152602001600020600085600060088110611408577f4e487b7100000000000000000000000000000000000000000000000000000000600052603260045260246000fd5b602002015160ff168152602001908152602001600020600160006003815260200190815260200160002060008660036008811061146e577f4e487b7100000000000000000000000000000000000000000000000000000000600052603260045260246000fd5b602002015160ff16815260200190815260200160002060016000600181526020019081526020016000206000876001600881106114d4577f4e487b7100000000000000000000000000000000000000000000000000000000600052603260045260246000fd5b602002015160ff1681526020019081526020016000206040516020016114fe959493929190611c76565b6040516020818303038152906040529050919050565b828054611520906121e8565b90600052602060002090601f0160209004810192826115425760008555611589565b82601f1061155b57803560ff1916838001178555611589565b82800160010185558215611589579182015b8281111561158857823582559160200191906001019061156d565b5b50905061159691906115bd565b5090565b604051806101000160405280600890602082028036833780820191505090505090565b5b808211156115d65760008160009055506001016115be565b5090565b6000813590506115e981612999565b92915050565b60008083601f84011261160157600080fd5b8235905067ffffffffffffffff81111561161a57600080fd5b60208301915083602082028301111561163257600080fd5b9250929050565b600081359050611648816129b0565b92915050565b60008151905061165d816129b0565b92915050565b60006020828403121561167557600080fd5b6000611683848285016115da565b91505092915050565b60006020828403121561169e57600080fd5b60006116ac8482850161164e565b91505092915050565b6000806000604084860312156116ca57600080fd5b60006116d886828701611639565b935050602084013567ffffffffffffffff8111156116f557600080fd5b611701868287016115ef565b92509250509250925092565b6000806040838503121561172057600080fd5b600061172e85828601611639565b925050602061173f85828601611639565b9150509250929050565b61175281612179565b82525050565b60006117638261203d565b61176d8185612048565b935061177d8185602086016121b5565b61178681612321565b840191505092915050565b600061179c8261203d565b6117a68185612059565b93506117b68185602086016121b5565b80840191505092915050565b600081546117cf816121e8565b6117d98186612059565b945060018216600081146117f4576001811461180557611838565b60ff19831686528186019350611838565b61180e85612028565b60005b8381101561183057815481890152600182019150602081019050611811565b838801955050505b50505092915050565b600061184e601483612059565b915061185982612332565b601482019050919050565b6000611871603183612059565b915061187c8261235b565b603182019050919050565b6000611894602683612048565b915061189f826123aa565b604082019050919050565b60006118b7600283612059565b91506118c2826123f9565b600282019050919050565b60006118da601383612059565b91506118e582612422565b601382019050919050565b60006118fd600f83612059565b91506119088261244b565b600f82019050919050565b6000611920600d83612059565b915061192b82612474565b600d82019050919050565b6000611943606783612059565b915061194e8261249d565b606782019050919050565b6000611966600a83612059565b915061197182612538565b600a82019050919050565b6000611989600183612059565b915061199482612561565b600182019050919050565b60006119ac601183612059565b91506119b78261258a565b601182019050919050565b60006119cf602483612059565b91506119da826125b3565b602482019050919050565b60006119f2600183612059565b91506119fd82612602565b600182019050919050565b6000611a15602083612048565b9150611a208261262b565b602082019050919050565b6000611a38600483612059565b9150611a4382612654565b600482019050919050565b6000611a5b608c83612059565b9150611a668261267d565b608c82019050919050565b6000611a7e600183612059565b9150611a898261273e565b600182019050919050565b6000611aa1600f83612059565b9150611aac82612767565b600f82019050919050565b6000611ac4600a83612059565b9150611acf82612790565b600a82019050919050565b6000611ae7600383612059565b9150611af2826127b9565b600382019050919050565b6000611b0a600183612059565b9150611b15826127e2565b600182019050919050565b6000611b2d606183612059565b9150611b388261280b565b606182019050919050565b6000611b50601d83612059565b9150611b5b826128a6565b601d82019050919050565b6000611b73601483612059565b9150611b7e826128cf565b601482019050919050565b6000611b96600283612059565b9150611ba1826128f8565b600282019050919050565b6000611bb9603983612059565b9150611bc482612921565b603982019050919050565b6000611bdc600683612059565b9150611be782612970565b600682019050919050565b611bfb816121ab565b82525050565b6000611c0d8287611791565b9150611c198286611791565b9150611c24826118f0565b9150611c308285611791565b9150611c3b826118aa565b9150611c4682611ab7565b9150611c5282846117c2565b9150611c5d8261197c565b9150611c68826119e5565b915081905095945050505050565b6000611c8282886117c2565b9150611c8e82876117c2565b9150611c9a82866117c2565b9150611ca682856117c2565b9150611cb282846117c2565b91508190509695505050505050565b6000611ccc82611841565b9150611cd8828d611791565b9150611ce382611bac565b9150611cee82611913565b9150611cfa828c6117c2565b9150611d0582611936565b9150611d11828b611791565b9150611d1c82611864565b9150611d2782611959565b9150611d33828a6117c2565b9150611d3e82611b89565b9150611d4a82896117c2565b9150611d5582611a2b565b9150611d6082611959565b9150611d6c82886117c2565b9150611d7782611b89565b9150611d8382876117c2565b9150611d8e82611a2b565b9150611d998261199f565b9150611da582866117c2565b9150611db082611a2b565b9150611dbc82856117c2565b9150611dc88284611791565b9150611dd382611bcf565b91508190509b9a5050505050505050505050565b6000611df282611a4e565b9150611dfe82846117c2565b9150611e0982611ada565b915081905092915050565b6000611e1f82611a71565b9150611e2a82611b66565b9150611e368287611791565b9150611e41826118aa565b9150611e4c82611b20565b9150611e588286611791565b9150611e63826118cd565b9150611e6e826119c2565b9150611e7a8285611791565b9150611e85826118aa565b9150611e9082611a94565b9150611e9c8284611791565b9150611ea782611afd565b9150611eb2826119e5565b915081905095945050505050565b6000611ecb82611b43565b9150611ed78284611791565b915081905092915050565b6000602082019050611ef76000830184611749565b92915050565b60006020820190508181036000830152611f178184611758565b905092915050565b60006020820190508181036000830152611f3881611887565b9050919050565b60006020820190508181036000830152611f5881611a08565b9050919050565b6000602082019050611f746000830184611bf2565b92915050565b60008083356001602003843603038112611f9357600080fd5b80840192508235915067ffffffffffffffff821115611fb157600080fd5b602083019250602082023603831315611fc957600080fd5b509250929050565b60008083356001602003843603038112611fea57600080fd5b80840192508235915067ffffffffffffffff82111561200857600080fd5b60208301925060018202360383131561202057600080fd5b509250929050565b60008190508160005260206000209050919050565b600081519050919050565b600082825260208201905092915050565b600081905092915050565b600061206f826121ab565b915061207a836121ab565b9250827fffffffffffffffffffffffffffffffffffffffffffffffffffffffffffffffff038211156120af576120ae612294565b5b828201905092915050565b60006120c5826121ab565b91506120d0836121ab565b9250826120e0576120df6122c3565b5b828204905092915050565b60006120f6826121ab565b9150612101836121ab565b9250817fffffffffffffffffffffffffffffffffffffffffffffffffffffffffffffffff048311821515161561213a57612139612294565b5b828202905092915050565b6000612150826121ab565b915061215b836121ab565b92508282101561216e5761216d612294565b5b828203905092915050565b60006121848261218b565b9050919050565b600073ffffffffffffffffffffffffffffffffffffffff82169050919050565b6000819050919050565b60005b838110156121d35780820151818401526020810190506121b8565b838111156121e2576000848401525b50505050565b6000600282049050600182168061220057607f821691505b60208210811415612214576122136122f2565b5b50919050565b6000612225826121ab565b91507fffffffffffffffffffffffffffffffffffffffffffffffffffffffffffffffff82141561225857612257612294565b5b600182019050919050565b600061226e826121ab565b9150612279836121ab565b925082612289576122886122c3565b5b828206905092915050565b7f4e487b7100000000000000000000000000000000000000000000000000000000600052601160045260246000fd5b7f4e487b7100000000000000000000000000000000000000000000000000000000600052601260045260246000fd5b7f4e487b7100000000000000000000000000000000000000000000000000000000600052602260045260246000fd5b6000601f19601f8301169050919050565b7f3c7376672069643d275261726520536b696e2023000000000000000000000000600082015250565b7f3c7061746820643d224d3132203768317631682d317a6d33203068317631682d60008201527f317a222066696c6c3d2223666666222f3e000000000000000000000000000000602082015250565b7f4f776e61626c653a206e6577206f776e657220697320746865207a65726f206160008201527f6464726573730000000000000000000000000000000000000000000000000000602082015250565b7f222c000000000000000000000000000000000000000000000000000000000000600082015250565b7f2077696c6c206576657220657869737421222c00000000000000000000000000600082015250565b7f2274726169745f74797065223a20220000000000000000000000000000000000600082015250565b7f3c706174682066696c6c3d222300000000000000000000000000000000000000600082015250565b7f2220643d224d3136203131762d3168315639682d315635682d315634682d315660008201527f33682d347631483976314838763568317631683176344838763368327631483960208201527f7635683120352031762d31682d31762d356831762d316831762d32682d32762d60408201527f3468317a222f3e00000000000000000000000000000000000000000000000000606082015250565b7f3c672066696c6c3d222300000000000000000000000000000000000000000000600082015250565b7f2200000000000000000000000000000000000000000000000000000000000000600082015250565b7f3c67206f7061636974793d272e3233273e000000000000000000000000000000600082015250565b7f22696d616765223a2022646174613a696d6167652f7376672b786d6c3b62617360008201527f6536342c00000000000000000000000000000000000000000000000000000000602082015250565b7f7d00000000000000000000000000000000000000000000000000000000000000600082015250565b7f4f776e61626c653a2063616c6c6572206973206e6f7420746865206f776e6572600082015250565b7f3c2f673e00000000000000000000000000000000000000000000000000000000600082015250565b7f3c7061746820643d224d31352e3939203131762d3168315639682d315635682d60008201527f315634682d315633682d347631682d317631682d31763568317631683176326860208201527f2d312d312d317631203120316831763268327631682d3176356831203520317660408201527f2d31682d31762d356831762d316831762d32682d31762d312d31682d31762d3260608201527f68317a222066696c6c3d22230000000000000000000000000000000000000000608082015250565b7f7b00000000000000000000000000000000000000000000000000000000000000600082015250565b7f2261747472696275746573223a205b0000000000000000000000000000000000600082015250565b7f2276616c7565223a202200000000000000000000000000000000000000000000600082015250565b7f222f3e0000000000000000000000000000000000000000000000000000000000600082015250565b7f5d00000000000000000000000000000000000000000000000000000000000000600082015250565b7f226465736372697074696f6e223a20225261726520536b696e7320617265207260008201527f616e646f6d6c792067656e65726174656420616e64206861766520313030252060208201527f6f6e2d636861696e2061727420616e64206d65746164617461202d204f6e6c7960408201527f2000000000000000000000000000000000000000000000000000000000000000606082015250565b7f646174613a6170706c69636174696f6e2f6a736f6e3b6261736536342c000000600082015250565b7f226e616d65223a20225261726520536b696e2023000000000000000000000000600082015250565b7f223e000000000000000000000000000000000000000000000000000000000000600082015250565b7f2720786d6c6e733d27687474703a2f2f7777772e77332e6f72672f323030302f60008201527f737667272076696577426f783d27302030203234203234273e00000000000000602082015250565b7f3c2f7376673e0000000000000000000000000000000000000000000000000000600082015250565b6129a281612179565b81146129ad57600080fd5b50565b6129b9816121ab565b81146129c457600080fd5b5056fe4142434445464748494a4b4c4d4e4f505152535455565758595a6162636465666768696a6b6c6d6e6f707172737475767778797a303132333435363738392b2fa26469706673582212202f2a16be47d30a6132b2c096fe08210d8e3b415048c59e86e734adb1194b3dcc64736f6c63430008040033",
  "linkReferences": {},
  "deployedLinkReferences": {}
}