{
  "_format": "hh-sol-artifact-1",
  "contractName": "RaritySkinManager",
  "sourceName": "contracts/alts/RaritySkinManager.sol",
  "abi": [
    {
      "anonymous": false,
      "inputs": [
        {
          "indexed": true,
          "internalType": "address",
          "name": "previousOwner",
          "type": "address"
        },
        {
          "indexed": true,
          "internalType": "address",
          "name": "newOwner",
          "type": "address"
        }
      ],
      "name": "OwnershipTransferred",
      "type": "event"
    },
    {
      "anonymous": false,
      "inputs": [
        {
          "components": [
            {
              "internalType": "address",
              "name": "implementation",
              "type": "address"
            },
            {
              "internalType": "uint256",
              "name": "tokenId",
              "type": "uint256"
            }
          ],
          "indexed": false,
          "internalType": "struct RaritySkinManager.Skin",
          "name": "skin",
          "type": "tuple"
        },
        {
          "indexed": false,
          "internalType": "uint256",
          "name": "summoner",
          "type": "uint256"
        }
      ],
      "name": "SumonnerSkinAssigned",
      "type": "event"
    },
    {
      "inputs": [
        {
          "internalType": "address",
          "name": "implementation",
          "type": "address"
        },
        {
          "internalType": "uint256",
          "name": "tokenId",
          "type": "uint256"
        },
        {
          "internalType": "uint256",
          "name": "summonerId",
          "type": "uint256"
        }
      ],
      "name": "assignSkinToSummoner",
      "outputs": [],
      "stateMutability": "nonpayable",
      "type": "function"
    },
    {
      "inputs": [],
      "name": "owner",
      "outputs": [
        {
          "internalType": "address",
          "name": "",
          "type": "address"
        }
      ],
      "stateMutability": "view",
      "type": "function"
    },
    {
      "inputs": [],
      "name": "renounceOwnership",
      "outputs": [],
      "stateMutability": "nonpayable",
      "type": "function"
    },
    {
      "inputs": [
        {
          "components": [
            {
              "internalType": "address",
              "name": "implementation",
              "type": "address"
            },
            {
              "internalType": "uint256",
              "name": "tokenId",
              "type": "uint256"
            }
          ],
          "internalType": "struct RaritySkinManager.Skin",
          "name": "skin",
          "type": "tuple"
        }
      ],
      "name": "skinKey",
      "outputs": [
        {
          "internalType": "bytes32",
          "name": "",
          "type": "bytes32"
        }
      ],
      "stateMutability": "pure",
      "type": "function"
    },
    {
      "inputs": [
        {
          "internalType": "uint256",
          "name": "",
          "type": "uint256"
        }
      ],
      "name": "skinOf",
      "outputs": [
        {
          "internalType": "address",
          "name": "implementation",
          "type": "address"
        },
        {
          "internalType": "uint256",
          "name": "tokenId",
          "type": "uint256"
        }
      ],
      "stateMutability": "view",
      "type": "function"
    },
    {
      "inputs": [
        {
          "internalType": "bytes32",
          "name": "",
          "type": "bytes32"
        }
      ],
      "name": "summonerOf",
      "outputs": [
        {
          "internalType": "uint256",
          "name": "",
          "type": "uint256"
        }
      ],
      "stateMutability": "view",
      "type": "function"
    },
    {
      "inputs": [
        {
          "internalType": "address",
          "name": "newOwner",
          "type": "address"
        }
      ],
      "name": "transferOwnership",
      "outputs": [],
      "stateMutability": "nonpayable",
      "type": "function"
    },
    {
      "inputs": [
        {
          "internalType": "address",
          "name": "_impAddress",
          "type": "address"
        }
      ],
      "name": "trustImplementation",
      "outputs": [],
      "stateMutability": "nonpayable",
      "type": "function"
    },
    {
      "inputs": [
        {
          "internalType": "uint256",
          "name": "tokenId",
          "type": "uint256"
        },
        {
          "internalType": "uint256",
          "name": "summonerId",
          "type": "uint256"
        }
      ],
      "name": "trustedAssignSkinToSummoner",
      "outputs": [],
      "stateMutability": "nonpayable",
      "type": "function"
    }
  ],
  "bytecode": "0x608060405234801561001057600080fd5b5061002d61002261003260201b60201c565b61003a60201b60201c565b6100fe565b600033905090565b60008060009054906101000a900473ffffffffffffffffffffffffffffffffffffffff169050816000806101000a81548173ffffffffffffffffffffffffffffffffffffffff021916908373ffffffffffffffffffffffffffffffffffffffff1602179055508173ffffffffffffffffffffffffffffffffffffffff168173ffffffffffffffffffffffffffffffffffffffff167f8be0079c531659141344cd1fd0a4f28419497f9722a3daafe3b4186f6b6457e060405160405180910390a35050565b611a718061010d6000396000f3fe608060405234801561001057600080fd5b50600436106100925760003560e01c80638da5cb5b116100665780638da5cb5b1461011e578063b03b256e1461013c578063c55b02f414610158578063f2fde38b14610188578063f8588f16146101a457610092565b8062a7c6ee146100975780632abb5c03146100b35780635d98f434146100e4578063715018a614610114575b600080fd5b6100b160048036038101906100ac9190611313565b6101c0565b005b6100cd60048036038101906100c891906112c1565b610523565b6040516100db929190611539565b60405180910390f35b6100fe60048036038101906100f99190611298565b610567565b60405161010b9190611562565b60405180910390f35b61011c6105a1565b005b610126610629565b60405161013391906114f5565b60405180910390f35b610156600480360381019061015191906111f7565b610652565b005b610172600480360381019061016d919061126f565b6109ee565b60405161017f9190611666565b60405180910390f35b6101a2600480360381019061019d91906111a5565b610a06565b005b6101be60048036038101906101b991906111a5565b610afe565b005b3382828273ffffffffffffffffffffffffffffffffffffffff1663b8dbacf96040518163ffffffff1660e01b8152600401602060405180830381600087803b15801561020b57600080fd5b505af192505050801561023c57506040513d601f19601f820116820180604052508101906102399190611246565b60015b61031257610248611797565b634e487b7114156103035761025b6119be565b906102665750610303565b600360003373ffffffffffffffffffffffffffffffffffffffff1673ffffffffffffffffffffffffffffffffffffffff16815260200190815260200160002060009054906101000a900460ff166102f2576040517f08c379a00000000000000000000000000000000000000000000000000000000081526004016102e9906115fd565b60405180910390fd5b6102fd338787610bd5565b5061030d565b3d6000803e3d6000fd5b61051c565b8015610483578373ffffffffffffffffffffffffffffffffffffffff16633613a9f4846040518263ffffffff1660e01b81526004016103519190611666565b602060405180830381600087803b15801561036b57600080fd5b505af115801561037f573d6000803e3d6000fd5b505050506040513d601f19601f820116820180604052508101906103a391906112ea565b73ce761d788df608bd21bdd59d6f4b54b2e27f25bb73ffffffffffffffffffffffffffffffffffffffff16633613a9f4846040518263ffffffff1660e01b81526004016103f09190611666565b602060405180830381600087803b15801561040a57600080fd5b505af115801561041e573d6000803e3d6000fd5b505050506040513d601f19601f8201168201806040525081019061044291906112ea565b14610482576040517f08c379a00000000000000000000000000000000000000000000000000000000081526004016104799061161d565b60405180910390fd5b5b600360003373ffffffffffffffffffffffffffffffffffffffff1673ffffffffffffffffffffffffffffffffffffffff16815260200190815260200160002060009054906101000a900460ff1661050f576040517f08c379a0000000000000000000000000000000000000000000000000000000008152600401610506906115fd565b60405180910390fd5b61051a338787610bd5565b505b5050505050565b60016020528060005260406000206000915090508060000160009054906101000a900473ffffffffffffffffffffffffffffffffffffffff16908060010154905082565b6000816000015182602001516040516020016105849291906114c9565b604051602081830303815290604052805190602001209050919050565b6105a9610df2565b73ffffffffffffffffffffffffffffffffffffffff166105c7610629565b73ffffffffffffffffffffffffffffffffffffffff161461061d576040517f08c379a0000000000000000000000000000000000000000000000000000000008152600401610614906115dd565b60405180910390fd5b6106276000610dfa565b565b60008060009054906101000a900473ffffffffffffffffffffffffffffffffffffffff16905090565b8282828273ffffffffffffffffffffffffffffffffffffffff1663b8dbacf96040518163ffffffff1660e01b8152600401602060405180830381600087803b15801561069d57600080fd5b505af19250505080156106ce57506040513d601f19601f820116820180604052508101906106cb9190611246565b60015b6107c0576106da611797565b634e487b7114156107b1576106ed6119be565b906106f857506107b1565b610703873388610ebe565b610742576040517f08c379a00000000000000000000000000000000000000000000000000000000081526004016107399061159d565b60405180910390fd5b61076173ce761d788df608bd21bdd59d6f4b54b2e27f25bb3387610ebe565b6107a0576040517f08c379a00000000000000000000000000000000000000000000000000000000081526004016107979061157d565b60405180910390fd5b6107ab878787610bd5565b506107bb565b3d6000803e3d6000fd5b6109e6565b8015610931578373ffffffffffffffffffffffffffffffffffffffff16633613a9f4846040518263ffffffff1660e01b81526004016107ff9190611666565b602060405180830381600087803b15801561081957600080fd5b505af115801561082d573d6000803e3d6000fd5b505050506040513d601f19601f8201168201806040525081019061085191906112ea565b73ce761d788df608bd21bdd59d6f4b54b2e27f25bb73ffffffffffffffffffffffffffffffffffffffff16633613a9f4846040518263ffffffff1660e01b815260040161089e9190611666565b602060405180830381600087803b1580156108b857600080fd5b505af11580156108cc573d6000803e3d6000fd5b505050506040513d601f19601f820116820180604052508101906108f091906112ea565b14610930576040517f08c379a00000000000000000000000000000000000000000000000000000000081526004016109279061161d565b60405180910390fd5b5b61093c873388610ebe565b61097b576040517f08c379a00000000000000000000000000000000000000000000000000000000081526004016109729061159d565b60405180910390fd5b61099a73ce761d788df608bd21bdd59d6f4b54b2e27f25bb3387610ebe565b6109d9576040517f08c379a00000000000000000000000000000000000000000000000000000000081526004016109d09061157d565b60405180910390fd5b6109e4878787610bd5565b505b505050505050565b60026020528060005260406000206000915090505481565b610a0e610df2565b73ffffffffffffffffffffffffffffffffffffffff16610a2c610629565b73ffffffffffffffffffffffffffffffffffffffff1614610a82576040517f08c379a0000000000000000000000000000000000000000000000000000000008152600401610a79906115dd565b60405180910390fd5b600073ffffffffffffffffffffffffffffffffffffffff168173ffffffffffffffffffffffffffffffffffffffff161415610af2576040517f08c379a0000000000000000000000000000000000000000000000000000000008152600401610ae9906115bd565b60405180910390fd5b610afb81610dfa565b50565b610b06610df2565b73ffffffffffffffffffffffffffffffffffffffff16610b24610629565b73ffffffffffffffffffffffffffffffffffffffff1614610b7a576040517f08c379a0000000000000000000000000000000000000000000000000000000008152600401610b71906115dd565b60405180910390fd5b6001600360008373ffffffffffffffffffffffffffffffffffffffff1673ffffffffffffffffffffffffffffffffffffffff16815260200190815260200160002060006101000a81548160ff02191690831515021790555050565b6040518060400160405280600073ffffffffffffffffffffffffffffffffffffffff16815260200160008152506001600060026000610c3d60405180604001604052808a73ffffffffffffffffffffffffffffffffffffffff16815260200189815250610567565b815260200190815260200160002054815260200190815260200160002060008201518160000160006101000a81548173ffffffffffffffffffffffffffffffffffffffff021916908373ffffffffffffffffffffffffffffffffffffffff160217905550602082015181600101559050508060026000610ce660405180604001604052808873ffffffffffffffffffffffffffffffffffffffff16815260200187815250610567565b81526020019081526020016000208190555060405180604001604052808473ffffffffffffffffffffffffffffffffffffffff168152602001838152506001600083815260200190815260200160002060008201518160000160006101000a81548173ffffffffffffffffffffffffffffffffffffffff021916908373ffffffffffffffffffffffffffffffffffffffff160217905550602082015181600101559050507f91dd75ea262c69e401a2c0fef76c62376c182a4fb4dc1e1c0f320420fccdbc0260405180604001604052808573ffffffffffffffffffffffffffffffffffffffff1681526020018481525082604051610de592919061163d565b60405180910390a1505050565b600033905090565b60008060009054906101000a900473ffffffffffffffffffffffffffffffffffffffff169050816000806101000a81548173ffffffffffffffffffffffffffffffffffffffff021916908373ffffffffffffffffffffffffffffffffffffffff1602179055508173ffffffffffffffffffffffffffffffffffffffff168173ffffffffffffffffffffffffffffffffffffffff167f8be0079c531659141344cd1fd0a4f28419497f9722a3daafe3b4186f6b6457e060405160405180910390a35050565b60008084905060008173ffffffffffffffffffffffffffffffffffffffff16636352211e856040518263ffffffff1660e01b8152600401610eff9190611666565b60206040518083038186803b158015610f1757600080fd5b505afa158015610f2b573d6000803e3d6000fd5b505050506040513d601f19601f82011682018060405250810190610f4f91906111ce565b90508073ffffffffffffffffffffffffffffffffffffffff168573ffffffffffffffffffffffffffffffffffffffff16148061103e57508473ffffffffffffffffffffffffffffffffffffffff168273ffffffffffffffffffffffffffffffffffffffff1663081812fc866040518263ffffffff1660e01b8152600401610fd69190611666565b60206040518083038186803b158015610fee57600080fd5b505afa158015611002573d6000803e3d6000fd5b505050506040513d601f19601f8201168201806040525081019061102691906111ce565b73ffffffffffffffffffffffffffffffffffffffff16145b806110d057508173ffffffffffffffffffffffffffffffffffffffff1663e985e9c582876040518363ffffffff1660e01b815260040161107f929190611510565b60206040518083038186803b15801561109757600080fd5b505afa1580156110ab573d6000803e3d6000fd5b505050506040513d601f19601f820116820180604052508101906110cf9190611246565b5b925050509392505050565b6000813590506110ea816119df565b92915050565b6000815190506110ff816119df565b92915050565b600081519050611114816119f6565b92915050565b60008135905061112981611a0d565b92915050565b60006040828403121561114157600080fd5b61114b6040611681565b9050600061115b848285016110db565b600083015250602061116f8482850161117b565b60208301525092915050565b60008135905061118a81611a24565b92915050565b60008151905061119f81611a24565b92915050565b6000602082840312156111b757600080fd5b60006111c5848285016110db565b91505092915050565b6000602082840312156111e057600080fd5b60006111ee848285016110f0565b91505092915050565b60008060006060848603121561120c57600080fd5b600061121a868287016110db565b935050602061122b8682870161117b565b925050604061123c8682870161117b565b9150509250925092565b60006020828403121561125857600080fd5b600061126684828501611105565b91505092915050565b60006020828403121561128157600080fd5b600061128f8482850161111a565b91505092915050565b6000604082840312156112aa57600080fd5b60006112b88482850161112f565b91505092915050565b6000602082840312156112d357600080fd5b60006112e18482850161117b565b91505092915050565b6000602082840312156112fc57600080fd5b600061130a84828501611190565b91505092915050565b6000806040838503121561132657600080fd5b60006113348582860161117b565b92505060206113458582860161117b565b9150509250929050565b611358816116b7565b82525050565b611367816116b7565b82525050565b61137e611379826116b7565b61173a565b82525050565b61138d816116d5565b82525050565b60006113a0602f836116a6565b91506113ab826117e4565b604082019050919050565b60006113c3602c836116a6565b91506113ce82611833565b604082019050919050565b60006113e66026836116a6565b91506113f182611882565b604082019050919050565b60006114096020836116a6565b9150611414826118d1565b602082019050919050565b600061142c6046836116a6565b9150611437826118fa565b606082019050919050565b600061144f602b836116a6565b915061145a8261196f565b604082019050919050565b60408201600082015161147b600085018261134f565b50602082015161148e6020850182611494565b50505050565b61149d816116ff565b82525050565b6114ac816116ff565b82525050565b6114c36114be826116ff565b61175e565b82525050565b60006114d5828561136d565b6014820191506114e582846114b2565b6020820191508190509392505050565b600060208201905061150a600083018461135e565b92915050565b6000604082019050611525600083018561135e565b611532602083018461135e565b9392505050565b600060408201905061154e600083018561135e565b61155b60208301846114a3565b9392505050565b60006020820190506115776000830184611384565b92915050565b6000602082019050818103600083015261159681611393565b9050919050565b600060208201905081810360008301526115b6816113b6565b9050919050565b600060208201905081810360008301526115d6816113d9565b9050919050565b600060208201905081810360008301526115f6816113fc565b9050919050565b600060208201905081810360008301526116168161141f565b9050919050565b6000602082019050818103600083015261163681611442565b9050919050565b60006060820190506116526000830185611465565b61165f60408301846114a3565b9392505050565b600060208201905061167b60008301846114a3565b92915050565b600061168b61169c565b90506116978282611709565b919050565b6000604051905090565b600082825260208201905092915050565b60006116c2826116df565b9050919050565b60008115159050919050565b6000819050919050565b600073ffffffffffffffffffffffffffffffffffffffff82169050919050565b6000819050919050565b611712826117b9565b810181811067ffffffffffffffff8211171561173157611730611768565b5b80604052505050565b60006117458261174c565b9050919050565b6000611757826117ca565b9050919050565b6000819050919050565b7f4e487b7100000000000000000000000000000000000000000000000000000000600052604160045260246000fd5b600060033d11156117b65760046000803e6117b36000516117d7565b90505b90565b6000601f19601f8301169050919050565b60008160601b9050919050565b60008160e01c9050919050565b7f596f75206d757374206265206f776e6572206f7220617070726f76656420666f60008201527f7220746869732073756d6d6f6e65720000000000000000000000000000000000602082015250565b7f596f75206d757374206265206f776e6572206f7220617070726f76656420666f60008201527f72207468697320746f6b656e0000000000000000000000000000000000000000602082015250565b7f4f776e61626c653a206e6577206f776e657220697320746865207a65726f206160008201527f6464726573730000000000000000000000000000000000000000000000000000602082015250565b7f4f776e61626c653a2063616c6c6572206973206e6f7420746865206f776e6572600082015250565b7f4f6e6c7920747275737465642045524337323120696d706c656d656e7461746960008201527f6f6e732063616e20616363657373207468697320776179206f6620617373696760208201527f6e6174696f6e0000000000000000000000000000000000000000000000000000604082015250565b7f53756d6d6f6e657220616e6420736b696e206d757374206265206f662074686560008201527f2073616d6520636c617373000000000000000000000000000000000000000000602082015250565b60008060233d11156119db576020600460003e6001915060005190505b9091565b6119e8816116b7565b81146119f357600080fd5b50565b6119ff816116c9565b8114611a0a57600080fd5b50565b611a16816116d5565b8114611a2157600080fd5b50565b611a2d816116ff565b8114611a3857600080fd5b5056fea26469706673582212202c44c8afae1572703ed32948b845347c3cabac037016ee9911f937f30ed283d064736f6c63430008040033",
  "linkReferences": {},
  "deployedLinkReferences": {}
}