{
  "_format": "hh-sol-artifact-1",
  "contractName": "SummonerSkins",
  "sourceName": "contracts/SummonerSkins.sol",
  "abi": [
    {
      "inputs": [],
      "stateMutability": "nonpayable",
      "type": "constructor"
    },
    {
      "anonymous": false,
      "inputs": [
        {
          "indexed": true,
          "internalType": "address",
          "name": "owner",
          "type": "address"
        },
        {
          "indexed": true,
          "internalType": "address",
          "name": "approved",
          "type": "address"
        },
        {
          "indexed": true,
          "internalType": "uint256",
          "name": "tokenId",
          "type": "uint256"
        }
      ],
      "name": "Approval",
      "type": "event"
    },
    {
      "anonymous": false,
      "inputs": [
        {
          "indexed": true,
          "internalType": "address",
          "name": "owner",
          "type": "address"
        },
        {
          "indexed": true,
          "internalType": "address",
          "name": "operator",
          "type": "address"
        },
        {
          "indexed": false,
          "internalType": "bool",
          "name": "approved",
          "type": "bool"
        }
      ],
      "name": "ApprovalForAll",
      "type": "event"
    },
    {
      "anonymous": false,
      "inputs": [
        {
          "indexed": true,
          "internalType": "address",
          "name": "previousOwner",
          "type": "address"
        },
        {
          "indexed": true,
          "internalType": "address",
          "name": "newOwner",
          "type": "address"
        }
      ],
      "name": "OwnershipTransferred",
      "type": "event"
    },
    {
      "anonymous": false,
      "inputs": [
        {
          "indexed": true,
          "internalType": "address",
          "name": "from",
          "type": "address"
        },
        {
          "indexed": true,
          "internalType": "address",
          "name": "to",
          "type": "address"
        },
        {
          "indexed": true,
          "internalType": "uint256",
          "name": "tokenId",
          "type": "uint256"
        }
      ],
      "name": "Transfer",
      "type": "event"
    },
    {
      "inputs": [
        {
          "internalType": "address",
          "name": "to",
          "type": "address"
        },
        {
          "internalType": "uint256",
          "name": "tokenId",
          "type": "uint256"
        }
      ],
      "name": "approve",
      "outputs": [],
      "stateMutability": "nonpayable",
      "type": "function"
    },
    {
      "inputs": [
        {
          "internalType": "address",
          "name": "owner",
          "type": "address"
        }
      ],
      "name": "balanceOf",
      "outputs": [
        {
          "internalType": "uint256",
          "name": "",
          "type": "uint256"
        }
      ],
      "stateMutability": "view",
      "type": "function"
    },
    {
      "inputs": [
        {
          "internalType": "uint256",
          "name": "",
          "type": "uint256"
        }
      ],
      "name": "class",
      "outputs": [
        {
          "internalType": "uint256",
          "name": "",
          "type": "uint256"
        }
      ],
      "stateMutability": "view",
      "type": "function"
    },
    {
      "inputs": [
        {
          "internalType": "uint256",
          "name": "tokenId",
          "type": "uint256"
        }
      ],
      "name": "getApproved",
      "outputs": [
        {
          "internalType": "address",
          "name": "",
          "type": "address"
        }
      ],
      "stateMutability": "view",
      "type": "function"
    },
    {
      "inputs": [],
      "name": "getPrice",
      "outputs": [
        {
          "internalType": "uint256",
          "name": "",
          "type": "uint256"
        }
      ],
      "stateMutability": "view",
      "type": "function"
    },
    {
      "inputs": [
        {
          "internalType": "address",
          "name": "owner",
          "type": "address"
        },
        {
          "internalType": "address",
          "name": "operator",
          "type": "address"
        }
      ],
      "name": "isApprovedForAll",
      "outputs": [
        {
          "internalType": "bool",
          "name": "",
          "type": "bool"
        }
      ],
      "stateMutability": "view",
      "type": "function"
    },
    {
      "inputs": [],
      "name": "isStrictOnSummonerClass",
      "outputs": [
        {
          "internalType": "bool",
          "name": "",
          "type": "bool"
        }
      ],
      "stateMutability": "view",
      "type": "function"
    },
    {
      "inputs": [
        {
          "internalType": "uint256",
          "name": "quantity",
          "type": "uint256"
        }
      ],
      "name": "mint",
      "outputs": [],
      "stateMutability": "payable",
      "type": "function"
    },
    {
      "inputs": [
        {
          "internalType": "uint256[]",
          "name": "summonerIds",
          "type": "uint256[]"
        }
      ],
      "name": "mintAndAssign",
      "outputs": [],
      "stateMutability": "payable",
      "type": "function"
    },
    {
      "inputs": [],
      "name": "name",
      "outputs": [
        {
          "internalType": "string",
          "name": "",
          "type": "string"
        }
      ],
      "stateMutability": "view",
      "type": "function"
    },
    {
      "inputs": [],
      "name": "owner",
      "outputs": [
        {
          "internalType": "address",
          "name": "",
          "type": "address"
        }
      ],
      "stateMutability": "view",
      "type": "function"
    },
    {
      "inputs": [
        {
          "internalType": "uint256",
          "name": "tokenId",
          "type": "uint256"
        }
      ],
      "name": "ownerOf",
      "outputs": [
        {
          "internalType": "address",
          "name": "",
          "type": "address"
        }
      ],
      "stateMutability": "view",
      "type": "function"
    },
    {
      "inputs": [],
      "name": "raritySkinManager",
      "outputs": [
        {
          "internalType": "contract RaritySkinManager",
          "name": "",
          "type": "address"
        }
      ],
      "stateMutability": "view",
      "type": "function"
    },
    {
      "inputs": [],
      "name": "renounceOwnership",
      "outputs": [],
      "stateMutability": "nonpayable",
      "type": "function"
    },
    {
      "inputs": [
        {
          "internalType": "address",
          "name": "from",
          "type": "address"
        },
        {
          "internalType": "address",
          "name": "to",
          "type": "address"
        },
        {
          "internalType": "uint256",
          "name": "tokenId",
          "type": "uint256"
        }
      ],
      "name": "safeTransferFrom",
      "outputs": [],
      "stateMutability": "nonpayable",
      "type": "function"
    },
    {
      "inputs": [
        {
          "internalType": "address",
          "name": "from",
          "type": "address"
        },
        {
          "internalType": "address",
          "name": "to",
          "type": "address"
        },
        {
          "internalType": "uint256",
          "name": "tokenId",
          "type": "uint256"
        },
        {
          "internalType": "bytes",
          "name": "_data",
          "type": "bytes"
        }
      ],
      "name": "safeTransferFrom",
      "outputs": [],
      "stateMutability": "nonpayable",
      "type": "function"
    },
    {
      "inputs": [
        {
          "internalType": "address",
          "name": "operator",
          "type": "address"
        },
        {
          "internalType": "bool",
          "name": "approved",
          "type": "bool"
        }
      ],
      "name": "setApprovalForAll",
      "outputs": [],
      "stateMutability": "nonpayable",
      "type": "function"
    },
    {
      "inputs": [
        {
          "internalType": "uint256",
          "name": "_minimumPrice",
          "type": "uint256"
        }
      ],
      "name": "setMinimumPrice",
      "outputs": [],
      "stateMutability": "nonpayable",
      "type": "function"
    },
    {
      "inputs": [
        {
          "internalType": "bytes4",
          "name": "interfaceId",
          "type": "bytes4"
        }
      ],
      "name": "supportsInterface",
      "outputs": [
        {
          "internalType": "bool",
          "name": "",
          "type": "bool"
        }
      ],
      "stateMutability": "view",
      "type": "function"
    },
    {
      "inputs": [],
      "name": "symbol",
      "outputs": [
        {
          "internalType": "string",
          "name": "",
          "type": "string"
        }
      ],
      "stateMutability": "view",
      "type": "function"
    },
    {
      "inputs": [
        {
          "internalType": "uint256",
          "name": "index",
          "type": "uint256"
        }
      ],
      "name": "tokenByIndex",
      "outputs": [
        {
          "internalType": "uint256",
          "name": "",
          "type": "uint256"
        }
      ],
      "stateMutability": "view",
      "type": "function"
    },
    {
      "inputs": [
        {
          "internalType": "address",
          "name": "owner",
          "type": "address"
        },
        {
          "internalType": "uint256",
          "name": "index",
          "type": "uint256"
        }
      ],
      "name": "tokenOfOwnerByIndex",
      "outputs": [
        {
          "internalType": "uint256",
          "name": "",
          "type": "uint256"
        }
      ],
      "stateMutability": "view",
      "type": "function"
    },
    {
      "inputs": [
        {
          "internalType": "uint256",
          "name": "_tokenId",
          "type": "uint256"
        }
      ],
      "name": "tokenURI",
      "outputs": [
        {
          "internalType": "string",
          "name": "",
          "type": "string"
        }
      ],
      "stateMutability": "view",
      "type": "function"
    },
    {
      "inputs": [],
      "name": "totalSupply",
      "outputs": [
        {
          "internalType": "uint256",
          "name": "",
          "type": "uint256"
        }
      ],
      "stateMutability": "view",
      "type": "function"
    },
    {
      "inputs": [
        {
          "internalType": "address",
          "name": "from",
          "type": "address"
        },
        {
          "internalType": "address",
          "name": "to",
          "type": "address"
        },
        {
          "internalType": "uint256",
          "name": "tokenId",
          "type": "uint256"
        }
      ],
      "name": "transferFrom",
      "outputs": [],
      "stateMutability": "nonpayable",
      "type": "function"
    },
    {
      "inputs": [
        {
          "internalType": "address",
          "name": "newOwner",
          "type": "address"
        }
      ],
      "name": "transferOwnership",
      "outputs": [],
      "stateMutability": "nonpayable",
      "type": "function"
    },
    {
      "inputs": [],
      "name": "withdraw",
      "outputs": [],
      "stateMutability": "nonpayable",
      "type": "function"
    }
  ],
  "bytecode": "0x60c0604052670de0b6b3a7640000600e553480156200001d57600080fd5b506040518060400160405280601381526020017f53756d6d6f6e6572205261726520536b696e73000000000000000000000000008152506040518060400160405280600a81526020017f5241524520534b494e53000000000000000000000000000000000000000000008152506001600081905550620000b2620000a6620002f360201b60201c565b620002fb60201b60201c565b8160029080519060200190620000ca929190620003c1565b508060039080519060200190620000e3929190620003c1565b5050504260a08181525050611388604051620000ff9062000452565b6200010b9190620004cc565b604051809103906000f08015801562000128573d6000803e3d6000fd5b5073ffffffffffffffffffffffffffffffffffffffff1660808173ffffffffffffffffffffffffffffffffffffffff1660601b815250506040516200016d9062000460565b604051809103906000f0801580156200018a573d6000803e3d6000fd5b50600d60006101000a81548173ffffffffffffffffffffffffffffffffffffffff021916908373ffffffffffffffffffffffffffffffffffffffff160217905550600d60009054906101000a900473ffffffffffffffffffffffffffffffffffffffff1673ffffffffffffffffffffffffffffffffffffffff1663f8588f16306040518263ffffffff1660e01b8152600401620002289190620004af565b600060405180830381600087803b1580156200024357600080fd5b505af115801562000258573d6000803e3d6000fd5b50505050600d60009054906101000a900473ffffffffffffffffffffffffffffffffffffffff1673ffffffffffffffffffffffffffffffffffffffff1663f2fde38b336040518263ffffffff1660e01b8152600401620002b99190620004af565b600060405180830381600087803b158015620002d457600080fd5b505af1158015620002e9573d6000803e3d6000fd5b505050506200058c565b600033905090565b6000600160009054906101000a900473ffffffffffffffffffffffffffffffffffffffff16905081600160006101000a81548173ffffffffffffffffffffffffffffffffffffffff021916908373ffffffffffffffffffffffffffffffffffffffff1602179055508173ffffffffffffffffffffffffffffffffffffffff168173ffffffffffffffffffffffffffffffffffffffff167f8be0079c531659141344cd1fd0a4f28419497f9722a3daafe3b4186f6b6457e060405160405180910390a35050565b828054620003cf9062000527565b90600052602060002090601f016020900481019282620003f357600085556200043f565b82601f106200040e57805160ff19168380011785556200043f565b828001600101855582156200043f579182015b828111156200043e57825182559160200191906001019062000421565b5b5090506200044e91906200046e565b5090565b61a4908062004bd483390190565b611b7e806200f06483390190565b5b80821115620004895760008160009055506001016200046f565b5090565b6200049881620004e9565b82525050565b620004a9816200051d565b82525050565b6000602082019050620004c660008301846200048d565b92915050565b6000602082019050620004e360008301846200049e565b92915050565b6000620004f682620004fd565b9050919050565b600073ffffffffffffffffffffffffffffffffffffffff82169050919050565b6000819050919050565b600060028204905060018216806200054057607f821691505b602082108114156200055757620005566200055d565b5b50919050565b7f4e487b7100000000000000000000000000000000000000000000000000000000600052602260045260246000fd5b60805160601c60a051614618620005bc60003960008181610f8f0152610fd0015260006112c001526146186000f3fe60806040526004361061019c5760003560e01c80636352211e116100ec578063a22cb4651161008a578063c87b56dd11610064578063c87b56dd146105b9578063e985e9c5146105f6578063f2fde38b14610633578063f41327ca1461065c5761019c565b8063a22cb4651461053c578063b88d4fde14610565578063b8dbacf91461058e5761019c565b80638da5cb5b116100c65780638da5cb5b1461049f57806395d89b41146104ca57806398d5fdca146104f5578063a0712d68146105205761019c565b80636352211e1461040e57806370a082311461044b578063715018a6146104885761019c565b806323b872dd116101595780633613a9f4116101335780633613a9f4146103545780633ccfd60b1461039157806342842e0e146103a85780634f6ccce7146103d15761019c565b806323b872dd146102c557806325cea976146102ee5780632f745c59146103175761019c565b806301ffc9a7146101a157806306fdde03146101de578063081812fc14610209578063095ea7b3146102465780630e83a5a71461026f57806318160ddd1461029a575b600080fd5b3480156101ad57600080fd5b506101c860048036038101906101c3919061312b565b610678565b6040516101d59190613728565b60405180910390f35b3480156101ea57600080fd5b506101f36106f2565b604051610200919061375e565b60405180910390f35b34801561021557600080fd5b50610230600480360381019061022b91906131be565b610784565b60405161023d9190613698565b60405180910390f35b34801561025257600080fd5b5061026d60048036038101906102689190613085565b610809565b005b34801561027b57600080fd5b50610284610921565b6040516102919190613743565b60405180910390f35b3480156102a657600080fd5b506102af610947565b6040516102bc9190613a80565b60405180910390f35b3480156102d157600080fd5b506102ec60048036038101906102e79190612f7f565b610954565b005b3480156102fa57600080fd5b50610315600480360381019061031091906131be565b6109b4565b005b34801561032357600080fd5b5061033e60048036038101906103399190613085565b610a3a565b60405161034b9190613a80565b60405180910390f35b34801561036057600080fd5b5061037b600480360381019061037691906131be565b610adf565b6040516103889190613a80565b60405180910390f35b34801561039d57600080fd5b506103a6610af7565b005b3480156103b457600080fd5b506103cf60048036038101906103ca9190612f7f565b610c22565b005b3480156103dd57600080fd5b506103f860048036038101906103f391906131be565b610c42565b6040516104059190613a80565b60405180910390f35b34801561041a57600080fd5b50610435600480360381019061043091906131be565b610cd9565b6040516104429190613698565b60405180910390f35b34801561045757600080fd5b50610472600480360381019061046d9190612ef1565b610d8b565b60405161047f9190613a80565b60405180910390f35b34801561049457600080fd5b5061049d610e43565b005b3480156104ab57600080fd5b506104b4610ecb565b6040516104c19190613698565b60405180910390f35b3480156104d657600080fd5b506104df610ef5565b6040516104ec919061375e565b60405180910390f35b34801561050157600080fd5b5061050a610f87565b6040516105179190613a80565b60405180910390f35b61053a600480360381019061053591906131be565b611032565b005b34801561054857600080fd5b50610563600480360381019061055e9190613049565b6111f7565b005b34801561057157600080fd5b5061058c60048036038101906105879190612fce565b61120d565b005b34801561059a57600080fd5b506105a361126f565b6040516105b09190613728565b60405180910390f35b3480156105c557600080fd5b506105e060048036038101906105db91906131be565b611274565b6040516105ed919061375e565b60405180910390f35b34801561060257600080fd5b5061061d60048036038101906106189190612f43565b611388565b60405161062a9190613728565b60405180910390f35b34801561063f57600080fd5b5061065a60048036038101906106559190612ef1565b61141c565b005b610676600480360381019061067191906130c1565b611514565b005b60007f780e9d63000000000000000000000000000000000000000000000000000000007bffffffffffffffffffffffffffffffffffffffffffffffffffffffff1916827bffffffffffffffffffffffffffffffffffffffffffffffffffffffff191614806106eb57506106ea826118c7565b5b9050919050565b60606002805461070190613db3565b80601f016020809104026020016040519081016040528092919081815260200182805461072d90613db3565b801561077a5780601f1061074f5761010080835404028352916020019161077a565b820191906000526020600020905b81548152906001019060200180831161075d57829003601f168201915b5050505050905090565b600061078f826119a9565b6107ce576040517f08c379a00000000000000000000000000000000000000000000000000000000081526004016107c590613940565b60405180910390fd5b6006600083815260200190815260200160002060009054906101000a900473ffffffffffffffffffffffffffffffffffffffff169050919050565b600061081482610cd9565b90508073ffffffffffffffffffffffffffffffffffffffff168373ffffffffffffffffffffffffffffffffffffffff161415610885576040517f08c379a000000000000000000000000000000000000000000000000000000000815260040161087c906139a0565b60405180910390fd5b8073ffffffffffffffffffffffffffffffffffffffff166108a4611a15565b73ffffffffffffffffffffffffffffffffffffffff1614806108d357506108d2816108cd611a15565b611388565b5b610912576040517f08c379a0000000000000000000000000000000000000000000000000000000008152600401610909906138a0565b60405180910390fd5b61091c8383611a1d565b505050565b600d60009054906101000a900473ffffffffffffffffffffffffffffffffffffffff1681565b6000600a80549050905090565b61096561095f611a15565b82611ad6565b6109a4576040517f08c379a000000000000000000000000000000000000000000000000000000000815260040161099b906139c0565b60405180910390fd5b6109af838383611bb4565b505050565b6109bc611a15565b73ffffffffffffffffffffffffffffffffffffffff166109da610ecb565b73ffffffffffffffffffffffffffffffffffffffff1614610a30576040517f08c379a0000000000000000000000000000000000000000000000000000000008152600401610a2790613960565b60405180910390fd5b80600e8190555050565b6000610a4583610d8b565b8210610a86576040517f08c379a0000000000000000000000000000000000000000000000000000000008152600401610a7d906137c0565b60405180910390fd5b600860008473ffffffffffffffffffffffffffffffffffffffff1673ffffffffffffffffffffffffffffffffffffffff168152602001908152602001600020600083815260200190815260200160002054905092915050565b60106020528060005260406000206000915090505481565b610aff611a15565b73ffffffffffffffffffffffffffffffffffffffff16610b1d610ecb565b73ffffffffffffffffffffffffffffffffffffffff1614610b73576040517f08c379a0000000000000000000000000000000000000000000000000000000008152600401610b6a90613960565b60405180910390fd5b60003373ffffffffffffffffffffffffffffffffffffffff1647604051610b9990613683565b60006040518083038185875af1925050503d8060008114610bd6576040519150601f19603f3d011682016040523d82523d6000602084013e610bdb565b606091505b5050905080610c1f576040517f08c379a0000000000000000000000000000000000000000000000000000000008152600401610c1690613a40565b60405180910390fd5b50565b610c3d8383836040518060200160405280600081525061120d565b505050565b6000610c4c610947565b8210610c8d576040517f08c379a0000000000000000000000000000000000000000000000000000000008152600401610c84906139e0565b60405180910390fd5b600a8281548110610cc7577f4e487b7100000000000000000000000000000000000000000000000000000000600052603260045260246000fd5b90600052602060002001549050919050565b6000806004600084815260200190815260200160002060009054906101000a900473ffffffffffffffffffffffffffffffffffffffff169050600073ffffffffffffffffffffffffffffffffffffffff168173ffffffffffffffffffffffffffffffffffffffff161415610d82576040517f08c379a0000000000000000000000000000000000000000000000000000000008152600401610d79906138e0565b60405180910390fd5b80915050919050565b60008073ffffffffffffffffffffffffffffffffffffffff168273ffffffffffffffffffffffffffffffffffffffff161415610dfc576040517f08c379a0000000000000000000000000000000000000000000000000000000008152600401610df3906138c0565b60405180910390fd5b600560008373ffffffffffffffffffffffffffffffffffffffff1673ffffffffffffffffffffffffffffffffffffffff168152602001908152602001600020549050919050565b610e4b611a15565b73ffffffffffffffffffffffffffffffffffffffff16610e69610ecb565b73ffffffffffffffffffffffffffffffffffffffff1614610ebf576040517f08c379a0000000000000000000000000000000000000000000000000000000008152600401610eb690613960565b60405180910390fd5b610ec96000611e10565b565b6000600160009054906101000a900473ffffffffffffffffffffffffffffffffffffffff16905090565b606060038054610f0490613db3565b80601f0160208091040260200160405190810160405280929190818152602001828054610f3090613db3565b8015610f7d5780601f10610f5257610100808354040283529160200191610f7d565b820191906000526020600020905b815481529060010190602001808311610f6057829003601f168201915b5050505050905090565b6000620546007f0000000000000000000000000000000000000000000000000000000000000000610fb89190613bba565b4210610fc657600e5461102d565b61102c42620546007f0000000000000000000000000000000000000000000000000000000000000000610ff99190613bba565b6110039190613c9b565b62054600674563918244f4000061101a9190613c10565b6110249190613c41565b600e54611ed6565b5b905090565b60026000541415611078576040517f08c379a000000000000000000000000000000000000000000000000000000000815260040161106f90613a20565b60405180910390fd5b60026000819055508061138861108e600c611eef565b106110ce576040517f08c379a00000000000000000000000000000000000000000000000000000000081526004016110c590613a60565b60405180910390fd5b611388816110dc600c611eef565b6110e69190613bba565b1115611127576040517f08c379a000000000000000000000000000000000000000000000000000000000815260040161111e90613780565b60405180910390fd5b80611130610f87565b61113a9190613c41565b34101561117c576040517f08c379a000000000000000000000000000000000000000000000000000000000815260040161117390613a00565b60405180910390fd5b6000600b61119261118d600c611eef565b611efd565b61119c9190613e73565b905060005b838110156111e9576111d56001600b83856111bc9190613bba565b6111c69190613e73565b6111d09190613bba565b611f3f565b5080806111e190613e16565b9150506111a1565b505050600160008190555050565b611209611202611a15565b8383611fc7565b5050565b61121e611218611a15565b83611ad6565b61125d576040517f08c379a0000000000000000000000000000000000000000000000000000000008152600401611254906139c0565b60405180910390fd5b61126984848484612134565b50505050565b600181565b606061127f826119a9565b6112be576040517f08c379a00000000000000000000000000000000000000000000000000000000081526004016112b590613900565b60405180910390fd5b7f000000000000000000000000000000000000000000000000000000000000000073ffffffffffffffffffffffffffffffffffffffff166392cb829d83600f6000868152602001908152602001600020546040518363ffffffff1660e01b815260040161132c929190613a9b565b60006040518083038186803b15801561134457600080fd5b505afa158015611358573d6000803e3d6000fd5b505050506040513d6000823e3d601f19601f82011682018060405250810190611381919061317d565b9050919050565b6000600760008473ffffffffffffffffffffffffffffffffffffffff1673ffffffffffffffffffffffffffffffffffffffff16815260200190815260200160002060008373ffffffffffffffffffffffffffffffffffffffff1673ffffffffffffffffffffffffffffffffffffffff16815260200190815260200160002060009054906101000a900460ff16905092915050565b611424611a15565b73ffffffffffffffffffffffffffffffffffffffff16611442610ecb565b73ffffffffffffffffffffffffffffffffffffffff1614611498576040517f08c379a000000000000000000000000000000000000000000000000000000000815260040161148f90613960565b60405180910390fd5b600073ffffffffffffffffffffffffffffffffffffffff168173ffffffffffffffffffffffffffffffffffffffff161415611508576040517f08c379a00000000000000000000000000000000000000000000000000000000081526004016114ff90613800565b60405180910390fd5b61151181611e10565b50565b6002600054141561155a576040517f08c379a000000000000000000000000000000000000000000000000000000000815260040161155190613a20565b60405180910390fd5b60026000819055508051611388611571600c611eef565b106115b1576040517f08c379a00000000000000000000000000000000000000000000000000000000081526004016115a890613a60565b60405180910390fd5b611388816115bf600c611eef565b6115c99190613bba565b111561160a576040517f08c379a000000000000000000000000000000000000000000000000000000000815260040161160190613780565b60405180910390fd5b80611613610f87565b61161d9190613c41565b34101561165f576040517f08c379a000000000000000000000000000000000000000000000000000000000815260040161165690613a00565b60405180910390fd5b60005b82518110156118ba576116b48382815181106116a7577f4e487b7100000000000000000000000000000000000000000000000000000000600052603260045260246000fd5b6020026020010151612190565b6116f3576040517f08c379a00000000000000000000000000000000000000000000000000000000081526004016116ea906137a0565b60405180910390fd5b600d60009054906101000a900473ffffffffffffffffffffffffffffffffffffffff1673ffffffffffffffffffffffffffffffffffffffff1662a7c6ee611817732a8ac1b2fcb475c7646f93b6e69930d1eb67c05373ffffffffffffffffffffffffffffffffffffffff16633613a9f487868151811061179c577f4e487b7100000000000000000000000000000000000000000000000000000000600052603260045260246000fd5b60200260200101516040518263ffffffff1660e01b81526004016117c09190613a80565b602060405180830381600087803b1580156117da57600080fd5b505af11580156117ee573d6000803e3d6000fd5b505050506040513d601f19601f8201168201806040525081019061181291906131e7565b611f3f565b858481518110611850577f4e487b7100000000000000000000000000000000000000000000000000000000600052603260045260246000fd5b60200260200101516040518363ffffffff1660e01b8152600401611875929190613a9b565b600060405180830381600087803b15801561188f57600080fd5b505af11580156118a3573d6000803e3d6000fd5b5050505080806118b290613e16565b915050611662565b5050600160008190555050565b60007f80ac58cd000000000000000000000000000000000000000000000000000000007bffffffffffffffffffffffffffffffffffffffffffffffffffffffff1916827bffffffffffffffffffffffffffffffffffffffffffffffffffffffff1916148061199257507f5b5e139f000000000000000000000000000000000000000000000000000000007bffffffffffffffffffffffffffffffffffffffffffffffffffffffff1916827bffffffffffffffffffffffffffffffffffffffffffffffffffffffff1916145b806119a257506119a1826123e1565b5b9050919050565b60008073ffffffffffffffffffffffffffffffffffffffff166004600084815260200190815260200160002060009054906101000a900473ffffffffffffffffffffffffffffffffffffffff1673ffffffffffffffffffffffffffffffffffffffff1614159050919050565b600033905090565b816006600083815260200190815260200160002060006101000a81548173ffffffffffffffffffffffffffffffffffffffff021916908373ffffffffffffffffffffffffffffffffffffffff160217905550808273ffffffffffffffffffffffffffffffffffffffff16611a9083610cd9565b73ffffffffffffffffffffffffffffffffffffffff167f8c5be1e5ebec7d5bd14f71427d1e84f3dd0314c0f7b2291e5b200ac8c7c3b92560405160405180910390a45050565b6000611ae1826119a9565b611b20576040517f08c379a0000000000000000000000000000000000000000000000000000000008152600401611b1790613880565b60405180910390fd5b6000611b2b83610cd9565b90508073ffffffffffffffffffffffffffffffffffffffff168473ffffffffffffffffffffffffffffffffffffffff161480611b9a57508373ffffffffffffffffffffffffffffffffffffffff16611b8284610784565b73ffffffffffffffffffffffffffffffffffffffff16145b80611bab5750611baa8185611388565b5b91505092915050565b8273ffffffffffffffffffffffffffffffffffffffff16611bd482610cd9565b73ffffffffffffffffffffffffffffffffffffffff1614611c2a576040517f08c379a0000000000000000000000000000000000000000000000000000000008152600401611c2190613980565b60405180910390fd5b600073ffffffffffffffffffffffffffffffffffffffff168273ffffffffffffffffffffffffffffffffffffffff161415611c9a576040517f08c379a0000000000000000000000000000000000000000000000000000000008152600401611c9190613840565b60405180910390fd5b611ca583838361244b565b611cb0600082611a1d565b6001600560008573ffffffffffffffffffffffffffffffffffffffff1673ffffffffffffffffffffffffffffffffffffffff1681526020019081526020016000206000828254611d009190613c9b565b925050819055506001600560008473ffffffffffffffffffffffffffffffffffffffff1673ffffffffffffffffffffffffffffffffffffffff1681526020019081526020016000206000828254611d579190613bba565b92505081905550816004600083815260200190815260200160002060006101000a81548173ffffffffffffffffffffffffffffffffffffffff021916908373ffffffffffffffffffffffffffffffffffffffff160217905550808273ffffffffffffffffffffffffffffffffffffffff168473ffffffffffffffffffffffffffffffffffffffff167fddf252ad1be2c89b69c2b068fc378daa952ba7f163c4a11628f55a4df523b3ef60405160405180910390a4505050565b6000600160009054906101000a900473ffffffffffffffffffffffffffffffffffffffff16905081600160006101000a81548173ffffffffffffffffffffffffffffffffffffffff021916908373ffffffffffffffffffffffffffffffffffffffff1602179055508173ffffffffffffffffffffffffffffffffffffffff168173ffffffffffffffffffffffffffffffffffffffff167f8be0079c531659141344cd1fd0a4f28419497f9722a3daafe3b4186f6b6457e060405160405180910390a35050565b6000818311611ee55781611ee7565b825b905092915050565b600081600001549050919050565b6000600143611f0c9190613c9b565b4082604051602001611f1f929190613657565b6040516020818303038152906040528051906020012060001c9050919050565b600080611f54611f4f600c611eef565b611efd565b9050611f60600c61255f565b611f7333611f6e600c611eef565b612575565b80600f6000611f82600c611eef565b8152602001908152602001600020819055508260106000611fa3600c611eef565b815260200190815260200160002081905550611fbf600c611eef565b915050919050565b8173ffffffffffffffffffffffffffffffffffffffff168373ffffffffffffffffffffffffffffffffffffffff161415612036576040517f08c379a000000000000000000000000000000000000000000000000000000000815260040161202d90613860565b60405180910390fd5b80600760008573ffffffffffffffffffffffffffffffffffffffff1673ffffffffffffffffffffffffffffffffffffffff16815260200190815260200160002060008473ffffffffffffffffffffffffffffffffffffffff1673ffffffffffffffffffffffffffffffffffffffff16815260200190815260200160002060006101000a81548160ff0219169083151502179055508173ffffffffffffffffffffffffffffffffffffffff168373ffffffffffffffffffffffffffffffffffffffff167f17307eab39ab6107e8899845ad3d59bd9653f200f220920489ca2b5937696c31836040516121279190613728565b60405180910390a3505050565b61213f848484611bb4565b61214b84848484612593565b61218a576040517f08c379a0000000000000000000000000000000000000000000000000000000008152600401612181906137e0565b60405180910390fd5b50505050565b600080732a8ac1b2fcb475c7646f93b6e69930d1eb67c05373ffffffffffffffffffffffffffffffffffffffff16636352211e846040518263ffffffff1660e01b81526004016121e09190613a80565b60206040518083038186803b1580156121f857600080fd5b505afa15801561220c573d6000803e3d6000fd5b505050506040513d601f19601f820116820180604052508101906122309190612f1a565b90508073ffffffffffffffffffffffffffffffffffffffff163373ffffffffffffffffffffffffffffffffffffffff16148061233357503373ffffffffffffffffffffffffffffffffffffffff16732a8ac1b2fcb475c7646f93b6e69930d1eb67c05373ffffffffffffffffffffffffffffffffffffffff1663081812fc856040518263ffffffff1660e01b81526004016122cb9190613a80565b60206040518083038186803b1580156122e357600080fd5b505afa1580156122f7573d6000803e3d6000fd5b505050506040513d601f19601f8201168201806040525081019061231b9190612f1a565b73ffffffffffffffffffffffffffffffffffffffff16145b806123d95750732a8ac1b2fcb475c7646f93b6e69930d1eb67c05373ffffffffffffffffffffffffffffffffffffffff1663e985e9c582336040518363ffffffff1660e01b81526004016123889291906136b3565b60206040518083038186803b1580156123a057600080fd5b505afa1580156123b4573d6000803e3d6000fd5b505050506040513d601f19601f820116820180604052508101906123d89190613102565b5b915050919050565b60007f01ffc9a7000000000000000000000000000000000000000000000000000000007bffffffffffffffffffffffffffffffffffffffffffffffffffffffff1916827bffffffffffffffffffffffffffffffffffffffffffffffffffffffff1916149050919050565b61245683838361272a565b600073ffffffffffffffffffffffffffffffffffffffff168373ffffffffffffffffffffffffffffffffffffffff161415612499576124948161272f565b6124d8565b8173ffffffffffffffffffffffffffffffffffffffff168373ffffffffffffffffffffffffffffffffffffffff16146124d7576124d68382612778565b5b5b600073ffffffffffffffffffffffffffffffffffffffff168273ffffffffffffffffffffffffffffffffffffffff16141561251b57612516816128e5565b61255a565b8273ffffffffffffffffffffffffffffffffffffffff168273ffffffffffffffffffffffffffffffffffffffff1614612559576125588282612a28565b5b5b505050565b6001816000016000828254019250508190555050565b61258f828260405180602001604052806000815250612aa7565b5050565b60006125b48473ffffffffffffffffffffffffffffffffffffffff16612b02565b1561271d578373ffffffffffffffffffffffffffffffffffffffff1663150b7a026125dd611a15565b8786866040518563ffffffff1660e01b81526004016125ff94939291906136dc565b602060405180830381600087803b15801561261957600080fd5b505af192505050801561264a57506040513d601f19601f820116820180604052508101906126479190613154565b60015b6126cd573d806000811461267a576040519150601f19603f3d011682016040523d82523d6000602084013e61267f565b606091505b506000815114156126c5576040517f08c379a00000000000000000000000000000000000000000000000000000000081526004016126bc906137e0565b60405180910390fd5b805181602001fd5b63150b7a0260e01b7bffffffffffffffffffffffffffffffffffffffffffffffffffffffff1916817bffffffffffffffffffffffffffffffffffffffffffffffffffffffff191614915050612722565b600190505b949350505050565b505050565b600a80549050600b600083815260200190815260200160002081905550600a81908060018154018082558091505060019003906000526020600020016000909190919091505550565b6000600161278584610d8b565b61278f9190613c9b565b9050600060096000848152602001908152602001600020549050818114612874576000600860008673ffffffffffffffffffffffffffffffffffffffff1673ffffffffffffffffffffffffffffffffffffffff168152602001908152602001600020600084815260200190815260200160002054905080600860008773ffffffffffffffffffffffffffffffffffffffff1673ffffffffffffffffffffffffffffffffffffffff168152602001908152602001600020600084815260200190815260200160002081905550816009600083815260200190815260200160002081905550505b6009600084815260200190815260200160002060009055600860008573ffffffffffffffffffffffffffffffffffffffff1673ffffffffffffffffffffffffffffffffffffffff16815260200190815260200160002060008381526020019081526020016000206000905550505050565b60006001600a805490506128f99190613c9b565b90506000600b60008481526020019081526020016000205490506000600a838154811061294f577f4e487b7100000000000000000000000000000000000000000000000000000000600052603260045260246000fd5b9060005260206000200154905080600a8381548110612997577f4e487b7100000000000000000000000000000000000000000000000000000000600052603260045260246000fd5b906000526020600020018190555081600b600083815260200190815260200160002081905550600b600085815260200190815260200160002060009055600a805480612a0c577f4e487b7100000000000000000000000000000000000000000000000000000000600052603160045260246000fd5b6001900381819060005260206000200160009055905550505050565b6000612a3383610d8b565b905081600860008573ffffffffffffffffffffffffffffffffffffffff1673ffffffffffffffffffffffffffffffffffffffff168152602001908152602001600020600083815260200190815260200160002081905550806009600084815260200190815260200160002081905550505050565b612ab18383612b15565b612abe6000848484612593565b612afd576040517f08c379a0000000000000000000000000000000000000000000000000000000008152600401612af4906137e0565b60405180910390fd5b505050565b600080823b905060008111915050919050565b600073ffffffffffffffffffffffffffffffffffffffff168273ffffffffffffffffffffffffffffffffffffffff161415612b85576040517f08c379a0000000000000000000000000000000000000000000000000000000008152600401612b7c90613920565b60405180910390fd5b612b8e816119a9565b15612bce576040517f08c379a0000000000000000000000000000000000000000000000000000000008152600401612bc590613820565b60405180910390fd5b612bda6000838361244b565b6001600560008473ffffffffffffffffffffffffffffffffffffffff1673ffffffffffffffffffffffffffffffffffffffff1681526020019081526020016000206000828254612c2a9190613bba565b92505081905550816004600083815260200190815260200160002060006101000a81548173ffffffffffffffffffffffffffffffffffffffff021916908373ffffffffffffffffffffffffffffffffffffffff160217905550808273ffffffffffffffffffffffffffffffffffffffff16600073ffffffffffffffffffffffffffffffffffffffff167fddf252ad1be2c89b69c2b068fc378daa952ba7f163c4a11628f55a4df523b3ef60405160405180910390a45050565b6000612cf6612cf184613ae9565b613ac4565b90508083825260208201905082856020860282011115612d1557600080fd5b60005b85811015612d455781612d2b8882612ec7565b845260208401935060208301925050600181019050612d18565b5050509392505050565b6000612d62612d5d84613b15565b613ac4565b905082815260208101848484011115612d7a57600080fd5b612d85848285613d71565b509392505050565b6000612da0612d9b84613b46565b613ac4565b905082815260208101848484011115612db857600080fd5b612dc3848285613d80565b509392505050565b600081359050612dda81614586565b92915050565b600081519050612def81614586565b92915050565b600082601f830112612e0657600080fd5b8135612e16848260208601612ce3565b91505092915050565b600081359050612e2e8161459d565b92915050565b600081519050612e438161459d565b92915050565b600081359050612e58816145b4565b92915050565b600081519050612e6d816145b4565b92915050565b600082601f830112612e8457600080fd5b8135612e94848260208601612d4f565b91505092915050565b600082601f830112612eae57600080fd5b8151612ebe848260208601612d8d565b91505092915050565b600081359050612ed6816145cb565b92915050565b600081519050612eeb816145cb565b92915050565b600060208284031215612f0357600080fd5b6000612f1184828501612dcb565b91505092915050565b600060208284031215612f2c57600080fd5b6000612f3a84828501612de0565b91505092915050565b60008060408385031215612f5657600080fd5b6000612f6485828601612dcb565b9250506020612f7585828601612dcb565b9150509250929050565b600080600060608486031215612f9457600080fd5b6000612fa286828701612dcb565b9350506020612fb386828701612dcb565b9250506040612fc486828701612ec7565b9150509250925092565b60008060008060808587031215612fe457600080fd5b6000612ff287828801612dcb565b945050602061300387828801612dcb565b935050604061301487828801612ec7565b925050606085013567ffffffffffffffff81111561303157600080fd5b61303d87828801612e73565b91505092959194509250565b6000806040838503121561305c57600080fd5b600061306a85828601612dcb565b925050602061307b85828601612e1f565b9150509250929050565b6000806040838503121561309857600080fd5b60006130a685828601612dcb565b92505060206130b785828601612ec7565b9150509250929050565b6000602082840312156130d357600080fd5b600082013567ffffffffffffffff8111156130ed57600080fd5b6130f984828501612df5565b91505092915050565b60006020828403121561311457600080fd5b600061312284828501612e34565b91505092915050565b60006020828403121561313d57600080fd5b600061314b84828501612e49565b91505092915050565b60006020828403121561316657600080fd5b600061317484828501612e5e565b91505092915050565b60006020828403121561318f57600080fd5b600082015167ffffffffffffffff8111156131a957600080fd5b6131b584828501612e9d565b91505092915050565b6000602082840312156131d057600080fd5b60006131de84828501612ec7565b91505092915050565b6000602082840312156131f957600080fd5b600061320784828501612edc565b91505092915050565b61321981613ccf565b82525050565b61322881613ce1565b82525050565b61323f61323a82613ced565b613e5f565b82525050565b600061325082613b77565b61325a8185613b8d565b935061326a818560208601613d80565b61327381613f60565b840191505092915050565b61328781613d4d565b82525050565b600061329882613b82565b6132a28185613ba9565b93506132b2818560208601613d80565b6132bb81613f60565b840191505092915050565b60006132d3602083613ba9565b91506132de82613f71565b602082019050919050565b60006132f6602f83613ba9565b915061330182613f9a565b604082019050919050565b6000613319602b83613ba9565b915061332482613fe9565b604082019050919050565b600061333c603283613ba9565b915061334782614038565b604082019050919050565b600061335f602683613ba9565b915061336a82614087565b604082019050919050565b6000613382601c83613ba9565b915061338d826140d6565b602082019050919050565b60006133a5602483613ba9565b91506133b0826140ff565b604082019050919050565b60006133c8601983613ba9565b91506133d38261414e565b602082019050919050565b60006133eb602c83613ba9565b91506133f682614177565b604082019050919050565b600061340e603883613ba9565b9150613419826141c6565b604082019050919050565b6000613431602a83613ba9565b915061343c82614215565b604082019050919050565b6000613454602983613ba9565b915061345f82614264565b604082019050919050565b6000613477601b83613ba9565b9150613482826142b3565b602082019050919050565b600061349a602083613ba9565b91506134a5826142dc565b602082019050919050565b60006134bd602c83613ba9565b91506134c882614305565b604082019050919050565b60006134e0602083613ba9565b91506134eb82614354565b602082019050919050565b6000613503602983613ba9565b915061350e8261437d565b604082019050919050565b6000613526602183613ba9565b9150613531826143cc565b604082019050919050565b6000613549600083613b9e565b91506135548261441b565b600082019050919050565b600061356c603183613ba9565b91506135778261441e565b604082019050919050565b600061358f602c83613ba9565b915061359a8261446d565b604082019050919050565b60006135b2602a83613ba9565b91506135bd826144bc565b604082019050919050565b60006135d5601f83613ba9565b91506135e08261450b565b602082019050919050565b60006135f8601183613ba9565b915061360382614534565b602082019050919050565b600061361b601583613ba9565b91506136268261455d565b602082019050919050565b61363a81613d43565b82525050565b61365161364c82613d43565b613e69565b82525050565b6000613663828561322e565b6020820191506136738284613640565b6020820191508190509392505050565b600061368e8261353c565b9150819050919050565b60006020820190506136ad6000830184613210565b92915050565b60006040820190506136c86000830185613210565b6136d56020830184613210565b9392505050565b60006080820190506136f16000830187613210565b6136fe6020830186613210565b61370b6040830185613631565b818103606083015261371d8184613245565b905095945050505050565b600060208201905061373d600083018461321f565b92915050565b6000602082019050613758600083018461327e565b92915050565b60006020820190508181036000830152613778818461328d565b905092915050565b60006020820190508181036000830152613799816132c6565b9050919050565b600060208201905081810360008301526137b9816132e9565b9050919050565b600060208201905081810360008301526137d98161330c565b9050919050565b600060208201905081810360008301526137f98161332f565b9050919050565b6000602082019050818103600083015261381981613352565b9050919050565b6000602082019050818103600083015261383981613375565b9050919050565b6000602082019050818103600083015261385981613398565b9050919050565b60006020820190508181036000830152613879816133bb565b9050919050565b60006020820190508181036000830152613899816133de565b9050919050565b600060208201905081810360008301526138b981613401565b9050919050565b600060208201905081810360008301526138d981613424565b9050919050565b600060208201905081810360008301526138f981613447565b9050919050565b600060208201905081810360008301526139198161346a565b9050919050565b600060208201905081810360008301526139398161348d565b9050919050565b60006020820190508181036000830152613959816134b0565b9050919050565b60006020820190508181036000830152613979816134d3565b9050919050565b60006020820190508181036000830152613999816134f6565b9050919050565b600060208201905081810360008301526139b981613519565b9050919050565b600060208201905081810360008301526139d98161355f565b9050919050565b600060208201905081810360008301526139f981613582565b9050919050565b60006020820190508181036000830152613a19816135a5565b9050919050565b60006020820190508181036000830152613a39816135c8565b9050919050565b60006020820190508181036000830152613a59816135eb565b9050919050565b60006020820190508181036000830152613a798161360e565b9050919050565b6000602082019050613a956000830184613631565b92915050565b6000604082019050613ab06000830185613631565b613abd6020830184613631565b9392505050565b6000613ace613adf565b9050613ada8282613de5565b919050565b6000604051905090565b600067ffffffffffffffff821115613b0457613b03613f31565b5b602082029050602081019050919050565b600067ffffffffffffffff821115613b3057613b2f613f31565b5b613b3982613f60565b9050602081019050919050565b600067ffffffffffffffff821115613b6157613b60613f31565b5b613b6a82613f60565b9050602081019050919050565b600081519050919050565b600081519050919050565b600082825260208201905092915050565b600081905092915050565b600082825260208201905092915050565b6000613bc582613d43565b9150613bd083613d43565b9250827fffffffffffffffffffffffffffffffffffffffffffffffffffffffffffffffff03821115613c0557613c04613ea4565b5b828201905092915050565b6000613c1b82613d43565b9150613c2683613d43565b925082613c3657613c35613ed3565b5b828204905092915050565b6000613c4c82613d43565b9150613c5783613d43565b9250817fffffffffffffffffffffffffffffffffffffffffffffffffffffffffffffffff0483118215151615613c9057613c8f613ea4565b5b828202905092915050565b6000613ca682613d43565b9150613cb183613d43565b925082821015613cc457613cc3613ea4565b5b828203905092915050565b6000613cda82613d23565b9050919050565b60008115159050919050565b6000819050919050565b60007fffffffff0000000000000000000000000000000000000000000000000000000082169050919050565b600073ffffffffffffffffffffffffffffffffffffffff82169050919050565b6000819050919050565b6000613d5882613d5f565b9050919050565b6000613d6a82613d23565b9050919050565b82818337600083830152505050565b60005b83811015613d9e578082015181840152602081019050613d83565b83811115613dad576000848401525b50505050565b60006002820490506001821680613dcb57607f821691505b60208210811415613ddf57613dde613f02565b5b50919050565b613dee82613f60565b810181811067ffffffffffffffff82111715613e0d57613e0c613f31565b5b80604052505050565b6000613e2182613d43565b91507fffffffffffffffffffffffffffffffffffffffffffffffffffffffffffffffff821415613e5457613e53613ea4565b5b600182019050919050565b6000819050919050565b6000819050919050565b6000613e7e82613d43565b9150613e8983613d43565b925082613e9957613e98613ed3565b5b828206905092915050565b7f4e487b7100000000000000000000000000000000000000000000000000000000600052601160045260246000fd5b7f4e487b7100000000000000000000000000000000000000000000000000000000600052601260045260246000fd5b7f4e487b7100000000000000000000000000000000000000000000000000000000600052602260045260246000fd5b7f4e487b7100000000000000000000000000000000000000000000000000000000600052604160045260246000fd5b6000601f19601f8301169050919050565b7f6d696e74207175616e746974792065786365656473206d617820737570706c79600082015250565b7f596f75206d757374206265206f776e6572206f7220617070726f76656420666f60008201527f7220746869732073756d6d6f6e65720000000000000000000000000000000000602082015250565b7f455243373231456e756d657261626c653a206f776e657220696e646578206f7560008201527f74206f6620626f756e6473000000000000000000000000000000000000000000602082015250565b7f4552433732313a207472616e7366657220746f206e6f6e20455243373231526560008201527f63656976657220696d706c656d656e7465720000000000000000000000000000602082015250565b7f4f776e61626c653a206e6577206f776e657220697320746865207a65726f206160008201527f6464726573730000000000000000000000000000000000000000000000000000602082015250565b7f4552433732313a20746f6b656e20616c7265616479206d696e74656400000000600082015250565b7f4552433732313a207472616e7366657220746f20746865207a65726f2061646460008201527f7265737300000000000000000000000000000000000000000000000000000000602082015250565b7f4552433732313a20617070726f766520746f2063616c6c657200000000000000600082015250565b7f4552433732313a206f70657261746f7220717565727920666f72206e6f6e657860008201527f697374656e7420746f6b656e0000000000000000000000000000000000000000602082015250565b7f4552433732313a20617070726f76652063616c6c6572206973206e6f74206f7760008201527f6e6572206e6f7220617070726f76656420666f7220616c6c0000000000000000602082015250565b7f4552433732313a2062616c616e636520717565727920666f7220746865207a6560008201527f726f206164647265737300000000000000000000000000000000000000000000602082015250565b7f4552433732313a206f776e657220717565727920666f72206e6f6e657869737460008201527f656e7420746f6b656e0000000000000000000000000000000000000000000000602082015250565b7f746f6b656e5552493a206e6f6e6578697374656e7420746f6b656e0000000000600082015250565b7f4552433732313a206d696e7420746f20746865207a65726f2061646472657373600082015250565b7f4552433732313a20617070726f76656420717565727920666f72206e6f6e657860008201527f697374656e7420746f6b656e0000000000000000000000000000000000000000602082015250565b7f4f776e61626c653a2063616c6c6572206973206e6f7420746865206f776e6572600082015250565b7f4552433732313a207472616e73666572206f6620746f6b656e2074686174206960008201527f73206e6f74206f776e0000000000000000000000000000000000000000000000602082015250565b7f4552433732313a20617070726f76616c20746f2063757272656e74206f776e6560008201527f7200000000000000000000000000000000000000000000000000000000000000602082015250565b50565b7f4552433732313a207472616e736665722063616c6c6572206973206e6f74206f60008201527f776e6572206e6f7220617070726f766564000000000000000000000000000000602082015250565b7f455243373231456e756d657261626c653a20676c6f62616c20696e646578206f60008201527f7574206f6620626f756e64730000000000000000000000000000000000000000602082015250565b7f7468652046544d207472616e7366657220616d6f756e7420697320756e64657260008201527f2074686520707269636500000000000000000000000000000000000000000000602082015250565b7f5265656e7472616e637947756172643a207265656e7472616e742063616c6c00600082015250565b7f5769746864726177616c206661696c6564000000000000000000000000000000600082015250565b7f6d6178696d756d20736b696e7320726561636865640000000000000000000000600082015250565b61458f81613ccf565b811461459a57600080fd5b50565b6145a681613ce1565b81146145b157600080fd5b50565b6145bd81613cf7565b81146145c857600080fd5b50565b6145d481613d43565b81146145df57600080fd5b5056fea2646970667358221220664c943198698f4835e1daa4c7ddb06f72a45a8ec83c47e7aaf77b55b44c8efe64736f6c6343000804003360c06040523480156200001157600080fd5b506040516200a4903803806200a49083398181016040528101906200003791906200293b565b6040518061014001604052806040518060400160405280600681526020017f464644343332000000000000000000000000000000000000000000000000000081525081526020016040518060400160405280600681526020017f463238444232000000000000000000000000000000000000000000000000000081525081526020016040518060400160405280600681526020017f413245304530000000000000000000000000000000000000000000000000000081525081526020016040518060400160405280600681526020017f464641413938000000000000000000000000000000000000000000000000000081525081526020016040518060400160405280600681526020017f443930423143000000000000000000000000000000000000000000000000000081525081526020016040518060400160405280600681526020017f303332353843000000000000000000000000000000000000000000000000000081525081526020016040518060400160405280600681526020017f443244393034000000000000000000000000000000000000000000000000000081525081526020016040518060400160405280600681526020017f323543374439000000000000000000000000000000000000000000000000000081525081526020016040518060400160405280600681526020017f373234384235000000000000000000000000000000000000000000000000000081525081526020016040518060400160405280600681526020017f38433033323700000000000000000000000000000000000000000000000000008152508152506000800190600a620002a392919062002738565b506040518061014001604052806040518060400160405280600681526020017f313130303636000000000000000000000000000000000000000000000000000081525081526020016040518060400160405280600681526020017f333338364130000000000000000000000000000000000000000000000000000081525081526020016040518060400160405280600681526020017f424637423644000000000000000000000000000000000000000000000000000081525081526020016040518060400160405280600681526020017f364230444646000000000000000000000000000000000000000000000000000081525081526020016040518060400160405280600681526020017f343033343246000000000000000000000000000000000000000000000000000081525081526020016040518060400160405280600681526020017f464645303030000000000000000000000000000000000000000000000000000081525081526020016040518060400160405280600681526020017f353931323032000000000000000000000000000000000000000000000000000081525081526020016040518060400160405280600681526020017f453838353637000000000000000000000000000000000000000000000000000081525081526020016040518060400160405280600681526020017f444437463139000000000000000000000000000000000000000000000000000081525081526020016040518060400160405280600681526020017f3044374341330000000000000000000000000000000000000000000000000000815250815250600060010190600a6200051192919062002738565b506040518061014001604052806040518060400160405280600681526020017f663964316237000000000000000000000000000000000000000000000000000081525081526020016040518060400160405280600681526020017f663762383937000000000000000000000000000000000000000000000000000081525081526020016040518060400160405280600681526020017f663339633737000000000000000000000000000000000000000000000000000081525081526020016040518060400160405280600681526020017f666663623834000000000000000000000000000000000000000000000000000081525081526020016040518060400160405280600681526020017f626437653437000000000000000000000000000000000000000000000000000081525081526020016040518060400160405280600681526020017f623937653462000000000000000000000000000000000000000000000000000081525081526020016040518060400160405280600681526020017f623937613530000000000000000000000000000000000000000000000000000081525081526020016040518060400160405280600681526020017f356133323134000000000000000000000000000000000000000000000000000081525081526020016040518060400160405280600681526020017f353032373065000000000000000000000000000000000000000000000000000081525081526020016040518060400160405280600681526020017f3361316230390000000000000000000000000000000000000000000000000000815250815250600060020190600a6200077f92919062002738565b5060405180604001604052807f42726163656c657400000000000000000000000000000000000000000000000073ffffffffffffffffffffffffffffffffffffffff191681526020016040518060800160405280605e81526020016200673f605e91398152506000600301600080815260200190815260200160002060008201518160000160006101000a8154816bffffffffffffffffffffffff021916908360a01c02179055506020820151816001019080519060200190620008459291906200279f565b5090505060405180604001604052807f45617272696e670000000000000000000000000000000000000000000000000073ffffffffffffffffffffffffffffffffffffffff191681526020016040518060600160405280602281526020016200617d60229139815250600060030160006001815260200190815260200160002060008201518160000160006101000a8154816bffffffffffffffffffffffff021916908360a01c021790555060208201518160010190805190602001906200090f9291906200279f565b5090505060405180604001604052807f4e65636b6c61636500000000000000000000000000000000000000000000000073ffffffffffffffffffffffffffffffffffffffff191681526020016040518060c00160405280608681526020016200604060869139815250600060030160006002815260200190815260200160002060008201518160000160006101000a8154816bffffffffffffffffffffffff021916908360a01c02179055506020820151816001019080519060200190620009d99291906200279f565b5090505060405180604001604052807f52696e670000000000000000000000000000000000000000000000000000000073ffffffffffffffffffffffffffffffffffffffff1916815260200160405180606001604052806027815260200162008a6060279139815250600060030160006003815260200190815260200160002060008201518160000160006101000a8154816bffffffffffffffffffffffff021916908360a01c0217905550602082015181600101908051906020019062000aa39291906200279f565b5090505060405180604001604052807f476c6f766573000000000000000000000000000000000000000000000000000073ffffffffffffffffffffffffffffffffffffffff1916815260200160405180608001604052806059815260200162008dae60599139815250600060030160006004815260200190815260200160002060008201518160000160006101000a8154816bffffffffffffffffffffffff021916908360a01c0217905550602082015181600101908051906020019062000b6d9291906200279f565b5090505060405180604001604052807f426f77000000000000000000000000000000000000000000000000000000000073ffffffffffffffffffffffffffffffffffffffff191681526020016040518061022001604052806101f0815260200162006fc16101f091398152506000600401600080815260200190815260200160002060008201518160000160006101000a8154816bffffffffffffffffffffffff021916908360a01c0217905550602082015181600101908051906020019062000c399291906200279f565b5090505060405180604001604052807f446167676572000000000000000000000000000000000000000000000000000073ffffffffffffffffffffffffffffffffffffffff191681526020016040518061020001604052806101d8815260200162005cd46101d89139815250600060040160006001815260200190815260200160002060008201518160000160006101000a8154816bffffffffffffffffffffffff021916908360a01c0217905550602082015181600101908051906020019062000d069291906200279f565b5090505060405180604001604052807f4669726562616c6c00000000000000000000000000000000000000000000000073ffffffffffffffffffffffffffffffffffffffff1916815260200160405180610100016040528060da815260200162007c1360da9139815250600060040160006002815260200190815260200160002060008201518160000160006101000a8154816bffffffffffffffffffffffff021916908360a01c0217905550602082015181600101908051906020019062000dd19291906200279f565b5090505060405180604001604052807f48616c626572640000000000000000000000000000000000000000000000000073ffffffffffffffffffffffffffffffffffffffff191681526020016040518061038001604052806103558152602001620084bb6103559139815250600060040160006003815260200190815260200160002060008201518160000160006101000a8154816bffffffffffffffffffffffff021916908360a01c0217905550602082015181600101908051906020019062000e9e9291906200279f565b5090505060405180604001604052807f486174636865740000000000000000000000000000000000000000000000000073ffffffffffffffffffffffffffffffffffffffff191681526020016040518061032001604052806102f28152602001620078086102f29139815250600060040160006004815260200190815260200160002060008201518160000160006101000a8154816bffffffffffffffffffffffff021916908360a01c0217905550602082015181600101908051906020019062000f6b9291906200279f565b5090505060405180604001604052807f4b6174616e61000000000000000000000000000000000000000000000000000073ffffffffffffffffffffffffffffffffffffffff191681526020016040518061032001604052806102e8815260200162008ac66102e89139815250600060040160006005815260200190815260200160002060008201518160000160006101000a8154816bffffffffffffffffffffffff021916908360a01c02179055506020820151816001019080519060200190620010389291906200279f565b5090505060405180604001604052807f4b6e69766573000000000000000000000000000000000000000000000000000073ffffffffffffffffffffffffffffffffffffffff19168152602001604051806101e001604052806101a98152602001620097df6101a99139815250600060040160006006815260200190815260200160002060008201518160000160006101000a8154816bffffffffffffffffffffffff021916908360a01c02179055506020820151816001019080519060200190620011059291906200279f565b5090505060405180604001604052807f537065617200000000000000000000000000000000000000000000000000000073ffffffffffffffffffffffffffffffffffffffff19168152602001604051806102400160405280610215815260200162007ced6102159139815250600060040160006007815260200190815260200160002060008201518160000160006101000a8154816bffffffffffffffffffffffff021916908360a01c02179055506020820151816001019080519060200190620011d29291906200279f565b5090505060405180604001604052807f53776f726400000000000000000000000000000000000000000000000000000073ffffffffffffffffffffffffffffffffffffffff19168152602001604051806104a0016040528061047e815260200162008f4c61047e9139815250600060040160006008815260200190815260200160002060008201518160000160006101000a8154816bffffffffffffffffffffffff021916908360a01c021790555060208201518160010190805190602001906200129f9291906200279f565b5090505060405180604001604052807f57616e640000000000000000000000000000000000000000000000000000000073ffffffffffffffffffffffffffffffffffffffff1916815260200160405180610100016040528060d981526020016200619f60d99139815250600060040160006009815260200190815260200160002060008201518160000160006101000a8154816bffffffffffffffffffffffff021916908360a01c021790555060208201518160010190805190602001906200136a9291906200279f565b5090505060405180604001604052807f457965205061746368000000000000000000000000000000000000000000000073ffffffffffffffffffffffffffffffffffffffff191681526020016040518060c001604052806090815260200162009dc7609091398152506000600501600080815260200190815260200160002060008201518160000160006101000a8154816bffffffffffffffffffffffff021916908360a01c02179055506020820151816001019080519060200190620014339291906200279f565b5090505060405180604001604052807f486174000000000000000000000000000000000000000000000000000000000073ffffffffffffffffffffffffffffffffffffffff19168152602001604051806102a0016040528061027681526020016200679d6102769139815250600060050160006001815260200190815260200160002060008201518160000160006101000a8154816bffffffffffffffffffffffff021916908360a01c02179055506020820151816001019080519060200190620015009291906200279f565b5090505060405180604001604052807f4865616462616e6400000000000000000000000000000000000000000000000073ffffffffffffffffffffffffffffffffffffffff191681526020016040518060c00160405280608a815260200162006a13608a9139815250600060050160006002815260200190815260200160002060008201518160000160006101000a8154816bffffffffffffffffffffffff021916908360a01c02179055506020820151816001019080519060200190620015ca9291906200279f565b5090505060405180604001604052807f486f726e6564000000000000000000000000000000000000000000000000000073ffffffffffffffffffffffffffffffffffffffff191681526020016040518061034001604052806103168152602001620057b76103169139815250600060050160006003815260200190815260200160002060008201518160000160006101000a8154816bffffffffffffffffffffffff021916908360a01c02179055506020820151816001019080519060200190620016979291906200279f565b5090505060405180604001604052807f4b6e69676874000000000000000000000000000000000000000000000000000073ffffffffffffffffffffffffffffffffffffffff191681526020016040518061038001604052806103538152602001620074246103539139815250600060050160006004815260200190815260200160002060008201518160000160006101000a8154816bffffffffffffffffffffffff021916908360a01c02179055506020820151816001019080519060200190620017649291906200279f565b5090505060405180604001604052807f576869746520457965730000000000000000000000000000000000000000000073ffffffffffffffffffffffffffffffffffffffff191681526020016040518060600160405280603181526020016200892060319139815250600060050160006005815260200190815260200160002060008201518160000160006101000a8154816bffffffffffffffffffffffff021916908360a01c021790555060208201518160010190805190602001906200182e9291906200279f565b5090505060405180604001604052807f4269672053686f6573000000000000000000000000000000000000000000000073ffffffffffffffffffffffffffffffffffffffff1916815260200160405180610100016040528060cf81526020016200802160cf91398152506000600601600080815260200190815260200160002060008201518160000160006101000a8154816bffffffffffffffffffffffff021916908360a01c02179055506020820151816001019080519060200190620018f89291906200279f565b5090505060405180604001604052807f53616e64616c730000000000000000000000000000000000000000000000000073ffffffffffffffffffffffffffffffffffffffff191681526020016040518060a00160405280607a8152602001620062ee607a9139815250600060060160006001815260200190815260200160002060008201518160000160006101000a8154816bffffffffffffffffffffffff021916908360a01c02179055506020820151816001019080519060200190620019c29291906200279f565b5090505060405180604001604052807f53686f657300000000000000000000000000000000000000000000000000000073ffffffffffffffffffffffffffffffffffffffff191681526020016040518060e0016040528060be81526020016200a3d260be9139815250600060060160006002815260200190815260200160002060008201518160000160006101000a8154816bffffffffffffffffffffffff021916908360a01c0217905550602082015181600101908051906020019062001a8c9291906200279f565b5090505060405180604001604052807f57696e6765642053686f6573000000000000000000000000000000000000000073ffffffffffffffffffffffffffffffffffffffff191681526020016040518061018001604052806101468152602001620054f66101469139815250600060060160006003815260200190815260200160002060008201518160000160006101000a8154816bffffffffffffffffffffffff021916908360a01c0217905550602082015181600101908051906020019062001b599291906200279f565b5090505060405180604001604052807f41726d6f7200000000000000000000000000000000000000000000000000000073ffffffffffffffffffffffffffffffffffffffff19168152602001604051806102a001604052806102738152602001620071b161027391398152506000600701600080815260200190815260200160002060008201518160000160006101000a8154816bffffffffffffffffffffffff021916908360a01c0217905550602082015181600101908051906020019062001c259291906200279f565b5090505060405180604001604052807f4261636b7061636b00000000000000000000000000000000000000000000000073ffffffffffffffffffffffffffffffffffffffff1916815260200160405180610120016040528060ff81526020016200a26260ff9139815250600060070160006001815260200190815260200160002060008201518160000160006101000a8154816bffffffffffffffffffffffff021916908360a01c0217905550602082015181600101908051906020019062001cf09291906200279f565b5090505060405180604001604052807f426561726400000000000000000000000000000000000000000000000000000073ffffffffffffffffffffffffffffffffffffffff191681526020016040518061022001604052806101e481526020016200953f6101e49139815250600060070160006002815260200190815260200160002060008201518160000160006101000a8154816bffffffffffffffffffffffff021916908360a01c0217905550602082015181600101908051906020019062001dbd9291906200279f565b5090505060405180604001604052807f436170650000000000000000000000000000000000000000000000000000000073ffffffffffffffffffffffffffffffffffffffff19168152602001604051806102c001604052806102a0815260200162006ba46102a09139815250600060070160006003815260200190815260200160002060008201518160000160006101000a8154816bffffffffffffffffffffffff021916908360a01c0217905550602082015181600101908051906020019062001e8a9291906200279f565b5090505060405180604001604052807f5361746368656c0000000000000000000000000000000000000000000000000073ffffffffffffffffffffffffffffffffffffffff1916815260200160405180610120016040528060ec81526020016200665360ec9139815250600060070160006004815260200190815260200160002060008201518160000160006101000a8154816bffffffffffffffffffffffff021916908360a01c0217905550602082015181600101908051906020019062001f559291906200279f565b5090505060405180604001604052807f536361626261726400000000000000000000000000000000000000000000000073ffffffffffffffffffffffffffffffffffffffff1916815260200160405180610240016040528061021981526020016200639b6102199139815250600060070160006005815260200190815260200160002060008201518160000160006101000a8154816bffffffffffffffffffffffff021916908360a01c02179055506020820151816001019080519060200190620020229291906200279f565b5090505060405180604001604052807f536361726600000000000000000000000000000000000000000000000000000073ffffffffffffffffffffffffffffffffffffffff191681526020016040518060e0016040528060a381526020016200895160a39139815250600060070160006006815260200190815260200160002060008201518160000160006101000a8154816bffffffffffffffffffffffff021916908360a01c02179055506020820151816001019080519060200190620020ec9291906200279f565b50905050604051806101600160405280604051806060016040528060338152602001620063686033913981526020016040518060600160405280603b8152602001620060c6603b913981526020016040518060600160405280603b8152602001620060c6603b913981526020016040518060600160405280603b8152602001620060c6603b913981526020016040518060600160405280603f815260200162006a9d603f913981526020016040518060600160405280603f815260200162008a87603f913981526020016040518060600160405280603b815260200162009e57603b9139815260200160405180608001604052806043815260200162008e076043913981526020016040518060800160405280605881526020016200949d605891398152602001604051806060016040528060398152602001620097a66039913981526020016040518060800160405280604a8152602001620094f5604a9139815250600060080190600b6200226492919062002830565b506040518061016001604052806040518060a00160405280607c815260200162006101607c913981526020016040518060a00160405280606d815260200162008e4a606d913981526020016040518060c0016040528060838152602001620097236083913981526020016040518060a0016040528060768152602001620062786076913981526020016040518060a00160405280606c8152602001620089f4606c913981526020016040518060a00160405280607181526020016200a3616071913981526020016040518060a001604052806078815260200162007f026078913981526020016040518060a001604052806063815260200162009a2f6063913981526020016040518060c00160405280609f8152602001620065b4609f913981526020016040518060e0016040528060a7815260200162007f7a60a7913981526020016040518060e0016040528060a7815260200162007f7a60a79139815250600060090190600b620023d992919062002830565b506040518061016001604052806040518060c00160405280609181526020016200777760919139815260200160405180610140016040528061010e81526020016200818861010e91398152602001604051806101400160405280610119815260200162007afa61011991398152602001604051806101400160405280610107815260200162005acd6101079139815260200160405180610100016040528060c8815260200162006adc60c89139815260200160405180610100016040528060d38152602001620093ca60d391398152602001604051806101200160405280610100815260200162005bd46101009139815260200160405180610100016040528060df815260200162009f9a60df913981526020016040518061022001604052806101e981526020016200a0796101e991398152602001604051806101a0016040528061017d815260200162006e4461017d91398152602001604051806101a0016040528061017d815260200162006e4461017d91398152506000600a0190600b6200256692919062002830565b50604051806101600160405280604051806101c00160405280610194815260200162005eac61019491398152602001604051806101400160405280610110815260200162009a92610110913981526020016040518061014001604052806101108152602001620088106101109139815260200160405180610260016040528061022581526020016200829661022591398152602001604051806101800160405280610144815260200162009c8361014491398152602001604051806101400160405280610108815260200162009e9261010891398152602001604051806101a0016040528061017b81526020016200563c61017b913981526020016040518060c0016040528060988152602001620080f06098913981526020016040518060c001604052806095815260200162008eb76095913981526020016040518060e0016040528060a781526020016200998860a79139815260200160405180610120016040528060e1815260200162009ba260e191398152506000600b0190600b620026f192919062002830565b5080608081815250503373ffffffffffffffffffffffffffffffffffffffff1660a08173ffffffffffffffffffffffffffffffffffffffff1660601b8152505050620029f0565b8280548282559060005260206000209081019282156200278c579160200282015b828111156200278b5782518290805190602001906200277a9291906200279f565b509160200191906001019062002759565b5b5090506200279b919062002897565b5090565b828054620027ad9062002971565b90600052602060002090601f016020900481019282620027d157600085556200281d565b82601f10620027ec57805160ff19168380011785556200281d565b828001600101855582156200281d579182015b828111156200281c578251825591602001919060010190620027ff565b5b5090506200282c9190620028bf565b5090565b82805482825590600052602060002090810192821562002884579160200282015b8281111562002883578251829080519060200190620028729291906200279f565b509160200191906001019062002851565b5b50905062002893919062002897565b5090565b5b80821115620028bb5760008181620028b19190620028de565b5060010162002898565b5090565b5b80821115620028da576000816000905550600101620028c0565b5090565b508054620028ec9062002971565b6000825580601f1062002900575062002921565b601f016020900490600052602060002090810190620029209190620028bf565b5b50565b6000815190506200293581620029d6565b92915050565b6000602082840312156200294e57600080fd5b60006200295e8482850162002924565b91505092915050565b6000819050919050565b600060028204905060018216806200298a57607f821691505b60208210811415620029a157620029a0620029a7565b5b50919050565b7f4e487b7100000000000000000000000000000000000000000000000000000000600052602260045260246000fd5b620029e18162002967565b8114620029ed57600080fd5b50565b60805160a05160601c612add62002a1960003960006112b1015260006109e00152612add6000f3fe608060405234801561001057600080fd5b506004361061002b5760003560e01c806392cb829d14610030575b600080fd5b61004a60048036038101906100459190611995565b610060565b6040516100579190612115565b60405180910390f35b606061007461006f848461009b565b610a45565b60405160200161008491906120f3565b604051602081830303815290604052905092915050565b606060006100a883610bf0565b905060006040518060a0016040528060006003016000856000600881106100f8577f4e487b7100000000000000000000000000000000000000000000000000000000600052603260045260246000fd5b602002015160ff1681526020019081526020016000206040518060400160405290816000820160009054906101000a900460a01b73ffffffffffffffffffffffffffffffffffffffff191673ffffffffffffffffffffffffffffffffffffffff1916815260200160018201805461016e906122ed565b80601f016020809104026020016040519081016040528092919081815260200182805461019a906122ed565b80156101e75780601f106101bc576101008083540402835291602001916101e7565b820191906000526020600020905b8154815290600101906020018083116101ca57829003601f168201915b50505050508152505081526020016000600401600085600160088110610236577f4e487b7100000000000000000000000000000000000000000000000000000000600052603260045260246000fd5b602002015160ff1681526020019081526020016000206040518060400160405290816000820160009054906101000a900460a01b73ffffffffffffffffffffffffffffffffffffffff191673ffffffffffffffffffffffffffffffffffffffff191681526020016001820180546102ac906122ed565b80601f01602080910402602001604051908101604052809291908181526020018280546102d8906122ed565b80156103255780601f106102fa57610100808354040283529160200191610325565b820191906000526020600020905b81548152906001019060200180831161030857829003601f168201915b50505050508152505081526020016000600501600085600260088110610374577f4e487b7100000000000000000000000000000000000000000000000000000000600052603260045260246000fd5b602002015160ff1681526020019081526020016000206040518060400160405290816000820160009054906101000a900460a01b73ffffffffffffffffffffffffffffffffffffffff191673ffffffffffffffffffffffffffffffffffffffff191681526020016001820180546103ea906122ed565b80601f0160208091040260200160405190810160405280929190818152602001828054610416906122ed565b80156104635780601f1061043857610100808354040283529160200191610463565b820191906000526020600020905b81548152906001019060200180831161044657829003601f168201915b505050505081525050815260200160006006016000856003600881106104b2577f4e487b7100000000000000000000000000000000000000000000000000000000600052603260045260246000fd5b602002015160ff1681526020019081526020016000206040518060400160405290816000820160009054906101000a900460a01b73ffffffffffffffffffffffffffffffffffffffff191673ffffffffffffffffffffffffffffffffffffffff19168152602001600182018054610528906122ed565b80601f0160208091040260200160405190810160405280929190818152602001828054610554906122ed565b80156105a15780601f10610576576101008083540402835291602001916105a1565b820191906000526020600020905b81548152906001019060200180831161058457829003601f168201915b505050505081525050815260200160006007016000856004600881106105f0577f4e487b7100000000000000000000000000000000000000000000000000000000600052603260045260246000fd5b602002015160ff1681526020019081526020016000206040518060400160405290816000820160009054906101000a900460a01b73ffffffffffffffffffffffffffffffffffffffff191673ffffffffffffffffffffffffffffffffffffffff19168152602001600182018054610666906122ed565b80601f0160208091040260200160405190810160405280929190818152602001828054610692906122ed565b80156106df5780601f106106b4576101008083540402835291602001916106df565b820191906000526020600020905b8154815290600101906020018083116106c257829003601f168201915b5050505050815250508152509050606060006040518060a001604052806040518060400160405280600981526020017f4163636573736f7279000000000000000000000000000000000000000000000081525081526020016040518060400160405280600681526020017f576561706f6e000000000000000000000000000000000000000000000000000081525081526020016040518060400160405280600481526020017f486561640000000000000000000000000000000000000000000000000000000081525081526020016040518060400160405280600581526020017f53686f657300000000000000000000000000000000000000000000000000000081525081526020016040518060400160405280600581526020017f546f72736f000000000000000000000000000000000000000000000000000000815250815250905060005b60058110156109d157600084826005811061086a577f4e487b7100000000000000000000000000000000000000000000000000000000600052603260045260246000fd5b60200201516000015173ffffffffffffffffffffffffffffffffffffffff19161415610895576109be565b8260008451146108da576040518060400160405280600381526020017f2c207b0000000000000000000000000000000000000000000000000000000000815250610911565b6040518060400160405280600181526020017f7b000000000000000000000000000000000000000000000000000000000000008152505b83836005811061094a577f4e487b7100000000000000000000000000000000000000000000000000000000600052603260045260246000fd5b602002015161099987856005811061098b577f4e487b7100000000000000000000000000000000000000000000000000000000600052603260045260246000fd5b602002015160000151610e96565b6040516020016109ac9493929190611e34565b60405160208183030381529060405292505b80806109c99061231f565b915050610826565b506109db876110ef565b610a047f00000000000000000000000000000000000000000000000000000000000000006110ef565b610a16610a118a8a61129c565b610a45565b84604051602001610a2a9493929190612047565b60405160208183030381529060405294505050505092915050565b6060600082511415610a6857604051806020016040528060008152509050610beb565b6000604051806060016040528060408152602001612a686040913990506000600360028551610a97919061218e565b610aa191906121e4565b6004610aad9190612215565b90506000602082610abe919061218e565b67ffffffffffffffff811115610afd577f4e487b7100000000000000000000000000000000000000000000000000000000600052604160045260246000fd5b6040519080825280601f01601f191660200182016040528015610b2f5781602001600182028036833780820191505090505b509050818152600183018586518101602084015b81831015610baa576003830192508251603f8160121c1685015160f81b8252600182019150603f81600c1c1685015160f81b8252600182019150603f8160061c1685015160f81b8252600182019150603f811685015160f81b825260018201915050610b43565b600389510660018114610bc45760028114610bd457610bdf565b613d3d60f01b6002830352610bdf565b603d60f81b60018303525b50505050508093505050505b919050565b610bf861191f565b610c0061191f565b600a83610c0d9190612392565b81600060088110610c47577f4e487b7100000000000000000000000000000000000000000000000000000000600052603260045260246000fd5b602002019060ff16908160ff1681525050600a83610c6591906121e4565b9250600e83610c749190612392565b81600160088110610cae577f4e487b7100000000000000000000000000000000000000000000000000000000600052603260045260246000fd5b602002019060ff16908160ff1681525050600e83610ccc91906121e4565b9250600c83610cdb9190612392565b81600260088110610d15577f4e487b7100000000000000000000000000000000000000000000000000000000600052603260045260246000fd5b602002019060ff16908160ff1681525050600c83610d3391906121e4565b9250600883610d429190612392565b81600360088110610d7c577f4e487b7100000000000000000000000000000000000000000000000000000000600052603260045260246000fd5b602002019060ff16908160ff1681525050600883610d9a91906121e4565b9250601083610da99190612392565b81600460088110610de3577f4e487b7100000000000000000000000000000000000000000000000000000000600052603260045260246000fd5b602002019060ff16908160ff1681525050601083610e0191906121e4565b92506000600590505b6008811015610e8c57600a84610e209190612392565b828260088110610e59577f4e487b7100000000000000000000000000000000000000000000000000000000600052603260045260246000fd5b602002019060ff16908160ff1681525050600a84610e7791906121e4565b93508080610e849061231f565b915050610e0a565b5080915050919050565b606060005b600c8160ff16108015610f135750600060f81b838260ff16600c8110610eea577f4e487b7100000000000000000000000000000000000000000000000000000000600052603260045260246000fd5b1a60f81b7effffffffffffffffffffffffffffffffffffffffffffffffffffffffffffff191614155b15610f2b578080610f2390612368565b915050610e9b565b60008160ff1667ffffffffffffffff811115610f70577f4e487b7100000000000000000000000000000000000000000000000000000000600052604160045260246000fd5b6040519080825280601f01601f191660200182016040528015610fa25781602001600182028036833780820191505090505b509050600091505b600c8260ff161080156110225750600060f81b848360ff16600c8110610ff9577f4e487b7100000000000000000000000000000000000000000000000000000000600052603260045260246000fd5b1a60f81b7effffffffffffffffffffffffffffffffffffffffffffffffffffffffffffff191614155b156110e557838260ff16600c8110611063577f4e487b7100000000000000000000000000000000000000000000000000000000600052603260045260246000fd5b1a60f81b818360ff16815181106110a3577f4e487b7100000000000000000000000000000000000000000000000000000000600052603260045260246000fd5b60200101907effffffffffffffffffffffffffffffffffffffffffffffffffffffffffffff1916908160001a90535081806110dd90612368565b925050610faa565b8092505050919050565b60606000821415611137576040518060400160405280600181526020017f30000000000000000000000000000000000000000000000000000000000000008152509050611297565b600082905060005b600082146111695780806111529061231f565b915050600a8261116291906121e4565b915061113f565b60008167ffffffffffffffff8111156111ab577f4e487b7100000000000000000000000000000000000000000000000000000000600052604160045260246000fd5b6040519080825280601f01601f1916602001820160405280156111dd5781602001600182028036833780820191505090505b5090505b60008514611290576001826111f6919061226f565b9150600a856112059190612392565b6030611211919061218e565b60f81b81838151811061124d577f4e487b7100000000000000000000000000000000000000000000000000000000600052603260045260246000fd5b60200101907effffffffffffffffffffffffffffffffffffffffffffffffffffffffffffff1916908160001a905350600a8561128991906121e4565b94506111e1565b8093505050505b919050565b606060006112a983610bf0565b9050600060017f000000000000000000000000000000000000000000000000000000000000000073ffffffffffffffffffffffffffffffffffffffff16633613a9f4876040518263ffffffff1660e01b81526004016113089190612137565b60206040518083038186803b15801561132057600080fd5b505afa158015611334573d6000803e3d6000fd5b505050506040513d601f19601f82011682018060405250810190611358919061196c565b611362919061226f565b9050600060078214806113755750600182145b61138e5760405180602001604052806000815250611436565b6000600201836007600881106113cd577f4e487b7100000000000000000000000000000000000000000000000000000000600052603260045260246000fd5b602002015160ff168154811061140c577f4e487b7100000000000000000000000000000000000000000000000000000000600052603260045260246000fd5b906000526020600020016040516020016114269190611ef4565b6040516020818303038152906040525b9050611441866110ef565b600060020184600760088110611480577f4e487b7100000000000000000000000000000000000000000000000000000000600052603260045260246000fd5b602002015160ff16815481106114bf577f4e487b7100000000000000000000000000000000000000000000000000000000600052603260045260246000fd5b9060005260206000200182600060010186600560088110611509577f4e487b7100000000000000000000000000000000000000000000000000000000600052603260045260246000fd5b602002015160ff1681548110611548577f4e487b7100000000000000000000000000000000000000000000000000000000600052603260045260246000fd5b906000526020600020016000600801868154811061158f577f4e487b7100000000000000000000000000000000000000000000000000000000600052603260045260246000fd5b9060005260206000200160008001886006600881106115d7577f4e487b7100000000000000000000000000000000000000000000000000000000600052603260045260246000fd5b602002015160ff1681548110611616577f4e487b7100000000000000000000000000000000000000000000000000000000600052603260045260246000fd5b906000526020600020016000600901888154811061165d577f4e487b7100000000000000000000000000000000000000000000000000000000600052603260045260246000fd5b906000526020600020016000600a0189815481106116a4577f4e487b7100000000000000000000000000000000000000000000000000000000600052603260045260246000fd5b906000526020600020016000600b018a815481106116eb577f4e487b7100000000000000000000000000000000000000000000000000000000600052603260045260246000fd5b906000526020600020016116fe8c611731565b6040516020016117179a99989796959493929190611f21565b604051602081830303815290604052935050505092915050565b60606000600701600083600160088110611774577f4e487b7100000000000000000000000000000000000000000000000000000000600052603260045260246000fd5b602002015160ff16815260200190815260200160002060010160006005016000846000600881106117ce577f4e487b7100000000000000000000000000000000000000000000000000000000600052603260045260246000fd5b602002015160ff1681526020019081526020016000206001016000600301600085600260088110611828577f4e487b7100000000000000000000000000000000000000000000000000000000600052603260045260246000fd5b602002015160ff1681526020019081526020016000206001016000600601600086600360088110611882577f4e487b7100000000000000000000000000000000000000000000000000000000600052603260045260246000fd5b602002015160ff16815260200190815260200160002060010160006004016000876004600881106118dc577f4e487b7100000000000000000000000000000000000000000000000000000000600052603260045260246000fd5b602002015160ff168152602001908152602001600020600101604051602001611909959493929190611ea9565b6040516020818303038152906040529050919050565b604051806101000160405280600890602082028036833780820191505090505090565b60008135905061195181612a50565b92915050565b60008151905061196681612a50565b92915050565b60006020828403121561197e57600080fd5b600061198c84828501611957565b91505092915050565b600080604083850312156119a857600080fd5b60006119b685828601611942565b92505060206119c785828601611942565b9150509250929050565b60006119dc82612167565b6119e68185612172565b93506119f68185602086016122ba565b6119ff81612450565b840191505092915050565b6000611a1582612167565b611a1f8185612183565b9350611a2f8185602086016122ba565b80840191505092915050565b60008154611a48816122ed565b611a528186612183565b94506001821660008114611a6d5760018114611a7e57611ab1565b60ff19831686528186019350611ab1565b611a8785612152565b60005b83811015611aa957815481890152600182019150602081019050611a8a565b838801955050505b50505092915050565b6000611ac7600a83612183565b9150611ad282612461565b600a82019050919050565b6000611aea601183612183565b9150611af58261248a565b601182019050919050565b6000611b0d600283612183565b9150611b18826124b3565b600282019050919050565b6000611b30608c83612183565b9150611b3b826124dc565b608c82019050919050565b6000611b53602483612183565b9150611b5e8261259d565b602482019050919050565b6000611b76601283612183565b9150611b81826125ec565b601282019050919050565b6000611b99600f83612183565b9150611ba482612615565b600f82019050919050565b6000611bbc601483612183565b9150611bc78261263e565b601482019050919050565b6000611bdf606783612183565b9150611bea82612667565b606782019050919050565b6000611c02600383612183565b9150611c0d82612702565b600382019050919050565b6000611c25600f83612183565b9150611c308261272b565b600f82019050919050565b6000611c48600183612183565b9150611c5382612754565b600182019050919050565b6000611c6b600a83612183565b9150611c768261277d565b600a82019050919050565b6000611c8e600183612183565b9150611c99826127a6565b600182019050919050565b6000611cb1606183612183565b9150611cbc826127cf565b606182019050919050565b6000611cd4603183612183565b9150611cdf8261286a565b603182019050919050565b6000611cf7600483612183565b9150611d02826128b9565b600482019050919050565b6000611d1a603983612183565b9150611d25826128e2565b603982019050919050565b6000611d3d600183612183565b9150611d4882612931565b600182019050919050565b6000611d60600183612183565b9150611d6b8261295a565b600182019050919050565b6000611d83600d83612183565b9150611d8e82612983565b600d82019050919050565b6000611da6601d83612183565b9150611db1826129ac565b601d82019050919050565b6000611dc9601383612183565b9150611dd4826129d5565b601382019050919050565b6000611dec600283612183565b9150611df7826129fe565b600282019050919050565b6000611e0f600683612183565b9150611e1a82612a27565b600682019050919050565b611e2e816122a3565b82525050565b6000611e408287611a0a565b9150611e4c8286611a0a565b9150611e5782611b8c565b9150611e638285611a0a565b9150611e6e82611b00565b9150611e7982611aba565b9150611e858284611a0a565b9150611e9082611c81565b9150611e9b82611c3b565b915081905095945050505050565b6000611eb58288611a3b565b9150611ec18287611a3b565b9150611ecd8286611a3b565b9150611ed98285611a3b565b9150611ee58284611a3b565b91508190509695505050505050565b6000611eff82611b23565b9150611f0b8284611a3b565b9150611f1682611bf5565b915081905092915050565b6000611f2c82611b69565b9150611f38828d611a0a565b9150611f4382611d0d565b9150611f4e82611d76565b9150611f5a828c611a3b565b9150611f6582611bd2565b9150611f71828b611a0a565b9150611f7c82611cc7565b9150611f8782611c5e565b9150611f93828a611a3b565b9150611f9e82611ddf565b9150611faa8289611a3b565b9150611fb582611cea565b9150611fc082611c5e565b9150611fcc8288611a3b565b9150611fd782611ddf565b9150611fe38287611a3b565b9150611fee82611cea565b9150611ff982611add565b91506120058286611a3b565b915061201082611cea565b915061201c8285611a3b565b91506120288284611a0a565b915061203382611e02565b91508190509b9a5050505050505050505050565b600061205282611d30565b915061205d82611baf565b91506120698287611a0a565b915061207482611b00565b915061207f82611ca4565b915061208b8286611a0a565b915061209682611dbc565b91506120a182611b46565b91506120ad8285611a0a565b91506120b882611b00565b91506120c382611c18565b91506120cf8284611a0a565b91506120da82611d53565b91506120e582611c3b565b915081905095945050505050565b60006120fe82611d99565b915061210a8284611a0a565b915081905092915050565b6000602082019050818103600083015261212f81846119d1565b905092915050565b600060208201905061214c6000830184611e25565b92915050565b60008190508160005260206000209050919050565b600081519050919050565b600082825260208201905092915050565b600081905092915050565b6000612199826122a3565b91506121a4836122a3565b9250827fffffffffffffffffffffffffffffffffffffffffffffffffffffffffffffffff038211156121d9576121d86123c3565b5b828201905092915050565b60006121ef826122a3565b91506121fa836122a3565b92508261220a576122096123f2565b5b828204905092915050565b6000612220826122a3565b915061222b836122a3565b9250817fffffffffffffffffffffffffffffffffffffffffffffffffffffffffffffffff0483118215151615612264576122636123c3565b5b828202905092915050565b600061227a826122a3565b9150612285836122a3565b925082821015612298576122976123c3565b5b828203905092915050565b6000819050919050565b600060ff82169050919050565b60005b838110156122d85780820151818401526020810190506122bd565b838111156122e7576000848401525b50505050565b6000600282049050600182168061230557607f821691505b6020821081141561231957612318612421565b5b50919050565b600061232a826122a3565b91507fffffffffffffffffffffffffffffffffffffffffffffffffffffffffffffffff82141561235d5761235c6123c3565b5b600182019050919050565b6000612373826122ad565b915060ff821415612387576123866123c3565b5b600182019050919050565b600061239d826122a3565b91506123a8836122a3565b9250826123b8576123b76123f2565b5b828206905092915050565b7f4e487b7100000000000000000000000000000000000000000000000000000000600052601160045260246000fd5b7f4e487b7100000000000000000000000000000000000000000000000000000000600052601260045260246000fd5b7f4e487b7100000000000000000000000000000000000000000000000000000000600052602260045260246000fd5b6000601f19601f8301169050919050565b7f2776616c7565273a202700000000000000000000000000000000000000000000600082015250565b7f3c67206f7061636974793d222e3233223e000000000000000000000000000000600082015250565b7f272c000000000000000000000000000000000000000000000000000000000000600082015250565b7f3c7061746820643d274d31352e3939203131762d3168315639682d315635682d60008201527f315634682d315633682d347631682d317631682d31763568317631683176326860208201527f2d312d312d317631203120316831763268327631682d3176356831203520317660408201527f2d31682d31762d356831762d316831762d32682d31762d312d31682d31762d3260608201527f68317a272066696c6c3d27230000000000000000000000000000000000000000608082015250565b7f27696d616765273a2027646174613a696d6167652f7376672b786d6c3b62617360008201527f6536342c00000000000000000000000000000000000000000000000000000000602082015250565b7f3c7376672069643d227261726520736b696e0000000000000000000000000000600082015250565b7f2774726169745f74797065273a20270000000000000000000000000000000000600082015250565b7f276e616d65273a20275261726520536b696e2023000000000000000000000000600082015250565b7f2720643d274d3136203131762d3168315639682d315635682d315634682d315660008201527f33682d347631483976314838763568317631683176344838763368327631483960208201527f7635683120352031762d31682d31762d356831762d316831762d32682d32762d60408201527f3468317a272f3e00000000000000000000000000000000000000000000000000606082015250565b7f272f3e0000000000000000000000000000000000000000000000000000000000600082015250565b7f2761747472696275746573273a205b0000000000000000000000000000000000600082015250565b7f7d00000000000000000000000000000000000000000000000000000000000000600082015250565b7f3c672066696c6c3d272300000000000000000000000000000000000000000000600082015250565b7f2700000000000000000000000000000000000000000000000000000000000000600082015250565b7f276465736372697074696f6e273a20275261726520536b696e7320617265207260008201527f616e646f6d6c792067656e65726174656420616e64206861766520313030252060208201527f6f6e2d636861696e2061727420616e64206d65746164617461202d204f6e6c7960408201527f2000000000000000000000000000000000000000000000000000000000000000606082015250565b7f3c7061746820643d274d3132203768317631682d317a6d33203068317631682d60008201527f317a272066696c6c3d2723666666272f3e000000000000000000000000000000602082015250565b7f3c2f673e00000000000000000000000000000000000000000000000000000000600082015250565b7f2220786d6c6e733d22687474703a2f2f7777772e77332e6f72672f323030302f60008201527f737667222076696577426f783d22302030203234203234223e00000000000000602082015250565b7f7b00000000000000000000000000000000000000000000000000000000000000600082015250565b7f5d00000000000000000000000000000000000000000000000000000000000000600082015250565b7f3c706174682066696c6c3d272300000000000000000000000000000000000000600082015250565b7f646174613a6170706c69636174696f6e2f6a736f6e3b6261736536342c000000600082015250565b7f2077696c6c206576657220657869737421272c00000000000000000000000000600082015250565b7f273e000000000000000000000000000000000000000000000000000000000000600082015250565b7f3c2f7376673e0000000000000000000000000000000000000000000000000000600082015250565b612a59816122a3565b8114612a6457600080fd5b5056fe4142434445464748494a4b4c4d4e4f505152535455565758595a6162636465666768696a6b6c6d6e6f707172737475767778797a303132333435363738392b2fa26469706673582212209eca4eba3c66ec033cfce7c696e04cedcaab76f95a2b6bbd6d6c5445b08a5ec764736f6c634300080400333c7061746820643d274d3135203232762d312d31682d312d312d31763120312031682d31762d31682d312d31763120316831203120312031203120312031762d312d31682d317a272066696c6c3d2723316331633163272f3e3c672066696c6c3d2723666365373932273e3c7061746820643d274d39203139483820377631683120312031762d3148397a272f3e3c7061746820643d274d31302032307631483920387631683120312031762d312d31682d317a272f3e3c2f673e3c672066696c6c3d2723666664383134273e3c7061746820643d274d31312032307631203120316831762d312d312d31682d317a272f3e3c7061746820643d274d313020313968317631682d317a272f3e3c7061746820643d274d39203138483820377631683120312031762d3148397a6d2d312032763168312031762d31483920387a272f3e3c2f673e3c7061746820643d274d3135203868317631682d317a6d2d33203068317631682d317a272066696c6c3d2723326233666232272f3e3c7061746820643d274d313120377631683120315637682d312d317a6d342030682d317631683120315637682d317a6d312d335633682d315632682d312d312d3120302d3120302d312d31763148387631483776314836763120312031683120315637683176316831563720366831563568312031203120317631683120315634682d317a4d362039763148357631203120316831762d312d316831762d3168315639483720367a272066696c6c3d2723653563663330272f3e3c7061746820643d274d3720384836763168312031563848377a272066696c6c3d2723343733663365272f3e3c672066696c6c3d2723343733663365273e3c7061746820643d274d3720313676316831762d312d31483776317a272f3e3c7061746820643d274d38203134763168312031762d31483920387a6d37203068317631682d317a272f3e3c2f673e3c672066696c6c3d2723373537333733273e3c7061746820643d274d3130203876312031203120316831762d312d312d312d312d31682d3176317a6d322d3468317631682d317a6d33203068317631682d317a272f3e3c7061746820643d274d3134203368317631682d317a6d2d33203368317631682d317a272f3e3c2f673e3c672066696c6c3d2723333333273e3c7061746820643d274d31342032682d312d312d312d312d3176316831203120312031203120315632682d317a272f3e3c7061746820643d274d3135203368317631682d317a272f3e3c7061746820643d274d313620347631682d312d312d312d317631203168315636683120312031763120312031683156382037203620352034682d317a6d30203776316831762d312d31682d3176317a4d37203956382037203620352034483676312031203120312031203120316831762d312d317a272f3e3c7061746820643d274d39203131483820377631683120312031762d3148397a272f3e3c7061746820643d274d313020313268317631682d317a272f3e3c7061746820643d274d3131203876312031203120316831762d312d312d312d312d31682d3176317a272f3e3c2f673e3c7061746820643d274d392036483856354837763120312031203120312031683120312031762d312d312d312d31483956367a6d352d325633682d312d312d312d3176316831203120317631683120315634682d317a272066696c6c3d2723346334633463272f3e3c672066696c6c3d2723666664383134273e3c7061746820643d274d3920367631683120315636682d312d317a272f3e3c7061746820643d274d3820356831763148387a6d33203068317631682d317a272f3e3c2f673e3c672066696c6c3d2723666665643663273e3c7061746820643d274d3130203456334839563268315631483920387631483776312031203168312031763168312031563568315634682d312d317a272f3e3c7061746820643d274d3130203068317631682d317a6d34203068317631682d317a272f3e3c7061746820643d274d3135203176312031683156322031682d317a272f3e3c2f673e3c7061746820643d274d313020313948397631203168312031762d31682d31762d317a272f3e3c7061746820643d274d3134203139682d312d312d3176316831203120312031762d312d31682d3176317a6d2d342d3268317631682d317a6d2d342d347631203120316831762d312d312d312d31483676317a6d38203076312031682d31763168312031762d312d312d312d31682d3176317a272f3e3c7061746820643d274d3920313048382037763168312031762d317a6d342033682d31762d31682d31763120312031203120316831762d312d316831762d312d317a272f3e3c7061746820643d274d313520313168317631682d317a6d2d3620306831763148397a272f3e3c7061746820643d274d313220313868317631682d317a6d2d32203076316831762d312d31682d3176317a272f3e3c7061746820643d274d3134203133682d312d317631683120317631682d312d317631683120317631682d317631683176316831762d312d312d312d312d312d312d31682d3176317a6d2d372d33763168312031762d31483820377a272f3e3c7061746820643d274d3130203133763120316831762d312d312d31682d3176317a6d352d3268317631682d317a272f3e3c7061746820643d274d3620313276312031203120316831762d312d312d3168312031762d3148382037762d31483676317a6d3130203068317631682d317a272f3e3c672066696c6c3d2723613035303030273e3c7061746820643d274d372031386831763148377a6d332d3368317631682d317a272f3e3c7061746820643d274d392031346831763148397a6d32203268317631682d317a272f3e3c2f673e3c672066696c6c3d2723373162636433273e3c7061746820643d274d313020313468317631682d317a272f3e3c7061746820643d274d313120313568317631682d317a6d302d3268317631682d317a272f3e3c7061746820643d274d313220313468317631682d317a6d302d3268317631682d317a272f3e3c7061746820643d274d313320313368317631682d317a6d302d3268317631682d317a272f3e3c7061746820643d274d313420313268317631682d317a6d302d3268317631682d317a272f3e3c7061746820643d274d313520313168317631682d317a272f3e3c2f673e3c672066696c6c3d2723336439346130273e3c7061746820643d274d313120313468317631682d317a272f3e3c7061746820643d274d313220313368317631682d317a272f3e3c7061746820643d274d313320313268317631682d317a272f3e3c7061746820643d274d313420313168317631682d317a272f3e3c7061746820643d274d313520313068317631682d317a272f3e3c2f673e3c672066696c6c3d2723343733663365273e3c7061746820643d274d3920377631683156372036483976317a272f3e3c7061746820643d274d3130203568317631682d317a272f3e3c7061746820643d274d3131203468317631682d317a4d3920377631683156372036483976317a272f3e3c7061746820643d274d3130203568317631682d317a272f3e3c7061746820643d274d3131203468317631682d317a272f3e3c2f673e3c7061746820643d274d313120377631683120315637682d312d317a6d342030682d317631683120315637682d317a272066696c6c3d2723346331643063272f3e3c7061746820643d274d3135203868317631682d317a6d2d33203068317631682d317a272066696c6c3d2723653230303030272f3e3c672066696c6c3d2723343733663365273e3c7061746820643d274d372031356831763148377a272f3e3c7061746820643d274d372031366831763148377a6d312d326831763148387a272f3e3c7061746820643d274d392031346831763148397a6d372031682d31762d3168317a272f3e3c2f673e3c7061746820643d274d313320313468317631682d317a272066696c6c3d2723313664366266272f3e3c672066696c6c3d2723666664383134273e3c7061746820643d274d313120313268317631682d317a6d33203068317631682d317a272f3e3c7061746820643d274d3132203133763168312031762d31682d312d317a272f3e3c2f673e3c7061746820643d274d3134203230682d312d312d312d312d3176312031203168312031762d316831203120312031762d312d31682d317a272f3e3c7061746820643d274d3131203132682d31762d314839762d314838203776312031483676312031203120316831762d316831762d31683120317631683176316831762d312d312d316831762d31682d312d317a6d342d317631682d3176312031203120316831762d312d316831762d312d312d31682d317a272f3e3c7061746820643d274d3820396831763148387a272066696c6c3d27726564272f3e3c672066696c6c3d2723343232303037273e3c7061746820643d274d313720313468317631682d317a272f3e3c7061746820643d274d313820313368317631682d317a272f3e3c7061746820643d274d313920313268317631682d317a272f3e3c7061746820643d274d323020313168317631682d317a272f3e3c7061746820643d274d323120313068317631682d317a272f3e3c2f673e3c7061746820643d274d313920313068317631682d317a6d322d3268317631682d317a6d31203468317631682d317a272066696c6c3d2723666666323464272f3e3c7061746820643d274d31352031317631682d312d312d312d312d31762d314839762d314838203776312031483676312031203120316831762d3168312032203176312031682d31763120314839763120316832762d316834762d312d312d312d312d316831762d312d312d312d31682d317a272f3e3c7061746820643d274d3135203233682d312d312d312d312d312d3176316831203120312031203120312031762d31682d317a272066696c6c3d2723333331363032272f3e3c7061746820643d274d313220323268317631682d317a6d32203068317631682d317a272066696c6c3d2723353432613064272f3e3c7061746820643d274d3134203136682d312d312d31763120316831763168312031762d316831762d312d31682d317a272f3e3c7061746820643d274d313320313768317631682d317a272066696c6c3d2723666630303235272f3e3c7061746820643d274d3131203137763168312031762d31682d312d317a6d33203068317631682d317a272066696c6c3d2723343734373437272f3e3c672066696c6c3d2723666662373537273e3c7061746820643d274d372032306831763148377a272f3e3c7061746820643d274d362032316831763148367a272f3e3c7061746820643d274d3620323248357631203168312031762d314836762d317a272f3e3c7061746820643d274d372032326831763148377a272f3e3c7061746820643d274d382032316831763148387a272f3e3c7061746820643d274d392032306831763148397a272f3e3c7061746820643d274d313020313968317631682d317a272f3e3c7061746820643d274d313120313868317631682d317a6d2d3320316831763148387a272f3e3c7061746820643d274d392031386831763148397a272f3e3c7061746820643d274d313020313768317631682d317a272f3e3c2f673e3c672066696c6c3d2723653561633163273e3c7061746820643d274d362032326831763148367a272f3e3c7061746820643d274d372032316831763148377a272f3e3c7061746820643d274d382032306831763148387a272f3e3c7061746820643d274d392031396831763148397a272f3e3c7061746820643d274d313020313868317631682d317a272f3e3c2f673e3c7061746820643d274d313620345633682d315632483876314837763148367635683176322031483676312031203120316831762d3168312032203176312031682d3176312031483976316833762d31683120312031762d312d312d312d316831762d312d312d312d31682d317631682d312d312d31762d31682d31762d31682d3156396831563868315636683376316831763268315634682d317a272f3e3c7061746820643d274d313120313468317631682d317a272066696c6c3d2723356231623065272f3e3c672066696c6c3d2723656131633434273e3c7061746820643d274d313420313268317631682d317a6d2d312033682d317631682d31763168312031762d316831762d312d31682d3176317a272f3e3c7061746820643d274d313020313768317631682d317a272f3e3c2f673e3c672066696c6c3d2723623231663435273e3c7061746820643d274d313220313468317631682d317a272f3e3c7061746820643d274d313120313568317631682d317a6d322d3268317631682d317a272f3e3c2f673e3c672066696c6c3d2723666665393232273e3c7061746820643d274d372031366831763148377a272f3e3c7061746820643d274d382031356831763148387a272f3e3c7061746820643d274d392031346831763148397a272f3e3c2f673e3c7061746820643d274d3820316831763148387a4d3620347631683120315634483720367a272066696c6c3d2723323932343264272f3e3c7061746820643d274d313120336831203120315632682d315631682d312d312d317631683176317a6d332031682d312d312d312d312d312d31763168312031203120312031203120315634682d317a272066696c6c3d2723333732663364272f3e3c7061746820643d274d3135203356322031682d312d3176316831763168317a6d312031682d317631683120315634682d317a272066696c6c3d2723346634323562272f3e3c672066696c6c3d2723326432643264273e3c7061746820643d274d3520346831763148357a6d3132203068317631682d317a272f3e3c7061746820643d274d31352035682d312d312d312d312d312d312d312d312d317631683120312031203120312031203120312031203120315635682d312d317a6d302d32682d312d312d312d312d31763168312031203120312031203120315633682d3156322031682d31763120317a4d3820346831563348385632203148377631203148367631683120317a272f3e3c7061746820643d274d31302031683120312031203120315630682d312d312d312d312d312d312d317631683120317a272f3e3c2f673e3c7061746820643d274d3920326831763148397a272066696c6c3d2723663461363237272f3e3c672066696c6c3d2723326161366632273e3c7061746820643d274d3820326831763148387a272f3e3c7061746820643d274d3920316831763148397a272f3e3c7061746820643d274d3130203268317631682d317a272f3e3c7061746820643d274d3920336831763148397a272f3e3c2f673e3c7061746820643d274d3135203668317631682d317a4d3820367631683120315636483920387a272066696c6c3d2723616632383235272f3e3c7061746820643d274d31342036682d312d312d312d317631683120312031203120315636682d317a4d3720356831763148377a6d3020326831763148377a272066696c6c3d2723646233393331272f3e3c7061746820643d274d3134203138682d312d312d312d317631483976312031203168312031762d316831203120312031762d312d312d31682d317a272f3e3c7061746820643d274d3134203133682d312d31763120316831762d31683176312031203120316831762d312d312d312d312d312d31682d3176317a6d2d372d33763168312031762d31483820377a6d342033762d31682d317631203120316831762d312d317a272f3e3c7061746820643d274d3131203136763120316831762d312d312d31682d3176317a6d342d3568317631682d317a6d2d3920314835763168317631203120316831762d312d312d3168312031762d3148382037762d31483676317a272f3e3c672066696c6c3d2723393236643164273e3c7061746820643d274d37203138762d312d3148367631203120316831762d317a272f3e3c7061746820643d274d36203231762d312d3148357631203120316831762d317a272f3e3c7061746820643d274d313020323076312031203148392038203720362035762d314834763120316831203120312031203120312031762d312d312d312d31682d317a272f3e3c2f673e3c672066696c6c3d2723323932393735273e3c7061746820643d274d372031376831763148377a6d2d3120336831763148367a272f3e3c7061746820643d274d382031386831763148387a272f3e3c7061746820643d274d372031396831763148377a6d3020326831763148377a272f3e3c7061746820643d274d362032326831763148367a6d322d326831763148387a6d322d3268317631682d317a272f3e3c7061746820643d274d392031396831763148397a6d3020326831763148397a272f3e3c7061746820643d274d382032326831763148387a6d332d3568317631682d317a272f3e3c2f673e3c672066696c6c3d2723633039343262273e3c7061746820643d274d372031386831763148377a272f3e3c7061746820643d274d362031396831763148367a6d3020326831763148367a272f3e3c7061746820643d274d352032326831763148357a6d322d326831763148377a6d322d326831763148397a272f3e3c7061746820643d274d382031396831763148387a6d3020326831763148387a272f3e3c7061746820643d274d372032326831763148377a6d322d326831763148397a272f3e3c7061746820643d274d313020313968317631682d317a6d2d3120336831763148397a6d312d3568317631682d317a272f3e3c7061746820643d274d313120313668317631682d317a272f3e3c2f673e3c7061746820643d274d31342031397631203120316831762d312d312d312d312d31682d31763120317a6d2d342d3268317631682d317a272f3e3c7061746820643d274d392031386831763148397a6d302d336831763148397a6d352d3368317631682d317a6d2d372d316831763148377a272f3e3c7061746820643d274d382031306831763148387a6d332033762d31682d312d31763120316831762d3168317a272f3e3c7061746820643d274d31332031347631203120316831762d312d312d312d31682d3176317a6d2d322030682d3176316831763120316831762d312d312d312d31682d3176317a6d34203068317631682d317a6d302d3368317631682d317a6d2d3820376831763148377a272f3e3c7061746820643d274d37203136762d312d312d312d3148367631203120312031203120316831762d312d317a6d31203476316831762d312d31483876317a272f3e3c7061746820643d274d372032327631203168312031762d314838762d312d31483776317a272f3e3c7061746820643d274d332e30342031356831347631682d31347a272066696c6c3d2723666666272f3e3c7061746820643d274d352e303420313768317631682d317a6d32203068317631682d317a6d36203068317631682d317a6d2d32203068317631682d317a272066696c6c3d2723356231323132272f3e3c672066696c6c3d2723383930663063273e3c7061746820643d274d322e3034203135682d31763168312031762d31682d317a272f3e3c7061746820643d274d332e3034203136763168312031762d31682d312d317a6d33203168317631682d317a6d31322d32682d31763168312031762d31682d317a272f3e3c7061746820643d274d31352e3034203136763168312031762d31682d312d317a272f3e3c7061746820643d274d31342e303420313768317631682d317a6d2d32203068317631682d317a6d2d32203068317631682d317a272f3e3c2f673e3c672066696c6c3d2723393133343133273e3c7061746820643d274d322e303420313668317631682d317a272f3e3c7061746820643d274d332e303420313768327631682d327a6d3132203068327631682d327a272f3e3c7061746820643d274d31372e303420313668317631682d317a6d2d362032682d312d312d312d337631683320312031203120312033762d31682d332d317a272f3e3c2f673e3c672066696c6c3d2723333333273e3c7061746820643d274d36203132483576316831763120316831762d312d316831762d314837762d31483676317a272f3e3c7061746820643d274d382031304837763168312031762d3148387a272f3e3c7061746820643d274d392031316831763148397a272f3e3c7061746820643d274d3131203132682d31763120316831762d312d317a6d342d3168317631682d317a272f3e3c7061746820643d274d313620313268317631682d317a6d2d352033763120316831762d312d312d31682d3176317a272f3e3c7061746820643d274d313320313276316831763120312031203120316831762d312d312d312d312d312d31682d312d317a6d2d33203568317631682d317a272f3e3c2f673e3c7061746820643d274d37203131763168312031762d31483820377a6d36203468317631682d317a6d302d3268317631682d317a6d30203468317631682d317a272066696c6c3d2723356230303030272f3e3c672066696c6c3d2723373537333733273e3c7061746820643d274d382031326831763148387a6d352034682d31763168312031762d31682d317a272f3e3c7061746820643d274d313120313768317631682d317a272f3e3c2f673e3c672066696c6c3d2723346334633463273e3c7061746820643d274d31352031327631203120316831762d312d312d31682d317a6d2d3920336831763148367a272f3e3c7061746820643d274d3133203133762d31682d312d317631682d31762d314839763148382037763120316831762d316831203176316831762d316831763120316831762d316831762d31682d31762d317a6d2d31203468317631682d317a272f3e3c2f673e3c672066696c6c3d2723333333273e3c7061746820643d274d313520313068317631682d317a272f3e3c7061746820643d274d313020313268312031203120312031762d31682d312d312d312d312d312d31763168317a4d3820334837763148367631203120312031203120316831563920382037203620356831563420337a272f3e3c7061746820643d274d3820356831763148387a272f3e3c7061746820643d274d31342036682d312d312d312d312d3176312031683156376831203120312031203120315636682d312d317a272f3e3c7061746820643d274d31362033682d315632682d312d312d312d312d312d312d3176316831203176312031683156342033683176312031683156342033683176312031683156346831763120316831563520342033682d317a6d2d3820386831762d3148382037763168317a6d302d336831763148387a272f3e3c2f673e3c672066696c6c3d2723346334633463273e3c7061746820643d274d3720367631203120312031683120317631683120312031762d31682d312d315639483956384838563720362035483776317a272f3e3c7061746820643d274d313420355634682d317631682d315634682d317631682d31563448395633483876312031683176316831203120312031203120315635682d317a272f3e3c2f673e3c672066696c6c3d2723373537333733273e3c7061746820643d274d3920364838763120316831563720367a272f3e3c7061746820643d274d3130203848397631683176316831563920382037682d3176317a6d332032682d317631683120312031762d31682d312d317a6d2d322d3768317631682d317a4d3920336831763148397a6d34203068317631682d317a6d32203176312031683156352034682d317a272f3e3c2f673e3c7061746820643d274d372031682d2e30375630483620357631483420337631683120315631683176316831763168315632203148377a4d3220347631683156342033483276317a6d3220336831763148347a272066696c6c3d2723613031303361272f3e3c7061746820643d274d362032563148357631483420337631203120312031203168315636203520346831563368312031563248367a4d3320397631683156392038483376317a272066696c6c3d2723636533613435272f3e3c7061746820643d274d362031337631203120316831762d312d312d312d31483676317a6d312d33763168312031762d31483820377a6d342034763120316831762d312d312d31682d3176317a6d342d3368317631682d317a272f3e3c7061746820643d274d313220313268317631682d317a6d3220317631203120316831762d312d312d312d31682d3176317a272f3e3c672066696c6c3d2723336132313130273e3c7061746820643d274d372031376831763148377a272f3e3c7061746820643d274d382031386831763148387a6d2d3220306831763148367a272f3e3c7061746820643d274d372031396831763148377a6d332d3568317631682d317a272f3e3c7061746820643d274d3620313948357631203168312031762d314836762d317a6d352d3468317631682d317a272f3e3c2f673e3c672066696c6c3d2723363236326334273e3c7061746820643d274d313220313368317631682d317a272f3e3c7061746820643d274d313320313268317631682d317a272f3e3c2f673e3c672066696c6c3d2723353632333031273e3c7061746820643d274d372031386831763148377a272f3e3c7061746820643d274d362031396831763148367a6d352d3568317631682d317a6d332d3368317631682d317a272f3e3c2f673e3c672066696c6c3d2723326231363034273e3c7061746820643d274d313120313368317631682d317a272f3e3c7061746820643d274d313220313468317631682d317a6d302d3268317631682d317a272f3e3c7061746820643d274d313320313368317631682d317a6d302d3268317631682d317a272f3e3c7061746820643d274d313420313268317631682d317a272f3e3c2f673e3c672066696c6c3d2723393131333133273e3c7061746820643d274d313520313568317631682d317a272f3e3c7061746820643d274d313420313668317631682d317a272f3e3c2f673e3c7061746820643d274d3135203133682d317631682d317631203168312031762d316831762d312d31682d317a6d2d322d32762d31682d312d317631682d317631203168312031762d316831762d317a272066696c6c3d2723333033303330272f3e3c672066696c6c3d2723313431343134273e3c7061746820643d274d313620313468317631682d317a6d2d362d3468317631682d317a272f3e3c7061746820643d274d3131203968317631682d317a6d2d3220326831763148397a272f3e3c2f673e3c7061746820643d274d3132203230682d317631683120312031762d31682d312d317a272f3e3c7061746820643d274d3130203230762d31483976312031203168312031762d31682d31762d317a272f3e3c7061746820643d274d3131203138762d31682d31763120316831762d317a6d2d352d357631203120316831762d312d312d312d31483676317a272f3e3c7061746820643d274d3134203133682d312d31762d31682d31763120312031203120316831762d312d312d31683176316831763120312031203120316831762d312d312d312d312d312d312d312d31682d3176317a6d2d362d336831763148387a272f3e3c7061746820643d274d313520313168317631682d317a6d2d3820306831763148377a272f3e3c672066696c6c3d2723666637363130273e3c7061746820643d274d313120313468317631682d317a6d2d322d346831763148397a272f3e3c7061746820643d274d3131203668317631682d317a6d2d312038483976312031683176316831762d312d31682d31762d317a272f3e3c2f673e3c672066696c6c3d2723666365303366273e3c7061746820643d274d313120313568317631682d317a272f3e3c7061746820643d274d3131203133682d31763120316831762d312d317a6d302d3268317631682d317a4d3920396831763148397a272f3e3c2f673e3c7061746820643d274d3137203868317631682d317a272066696c6c3d2723363236326334272f3e3c7061746820643d274d342032316831763148347a6d322d326831763148367a6d362d3668317631682d317a6d2d32203268317631682d317a6d342d3468317631682d317a6d322d3268317631682d317a272066696c6c3d2723353632333031272f3e3c7061746820643d274d352032306831763148357a6d2d3220326831763148337a6d342d346831763148377a6d342d3468317631682d317a6d322d3268317631682d317a6d322d3268317631682d317a272066696c6c3d2723336132313130272f3e3c672066696c6c3d2723326231383036273e3c7061746820643d274d313920385637682d315636682d317631203168317631683120315638682d317a272f3e3c7061746820643d274d3136203868317631682d317a272f3e3c7061746820643d274d3137203968317631682d317a272f3e3c2f673e3c7061746820643d274d3139203768317631682d317a6d322d3268317631682d317a272066696c6c3d2723373537333733272f3e3c7061746820643d274d323120337631682d317631682d317631682d31763168312031563668315635683156342033682d317a272066696c6c3d2723346334633463272f3e3c7061746820643d274d3230203668317631682d317a6d322d3376312031683156342033682d317a272066696c6c3d2723393131333133272f3e3c7061746820643d274d3136203132762d31682d317631682d312d312d312d312d31762d314839762d314838203776314836763120312031203120316831762d3168312032203176312031682d317631203168312031203120312031762d312d312d312d316831762d312d316831762d31682d317a272f3e3c7061746820643d274d3131203132682d31762d314839762d314838763148377631483676366831763168317632483776336832762d326831762d316831762d326831762d36682d317a6d3020347631682d3176314839762d326831762d3168317a6d342d357631682d317631682d3176312031203120312031203120316831763120316831762d312d312d312d312d312d312d316831762d312d312d312d31682d317a272f3e3c7061746820643d274d313020323168317631682d317a6d342d3168317631682d317a6d2d32203068317631682d317a272066696c6c3d2723636363272f3e3c7061746820643d274d313320323068317631682d317a6d2d3420316831763148397a6d322d3168317631682d317a272066696c6c3d2723613061306130272f3e3c7061746820643d274d3135203232762d31682d312d312d312d317631682d312d31763120316831203120312031203120312031762d312d31682d317a272066696c6c3d2723316331633163272f3e3c7061746820643d274d31342e3939203868317631682d317a6d2d33203068317631682d317a272066696c6c3d2723356164626639272f3e3c7061746820643d274d31352e393920345633682d315632682d312d312d312d312d312d317631682d317631682d31763120312031203168315637683176316831563720366831563568312031203120317631683120315634682d317a272f3e3c7061746820643d274d313020313948397631203168312031762d31682d31762d317a272f3e3c7061746820643d274d3131203138762d31682d31763120316831762d317a272f3e3c7061746820643d274d313120313668317631682d317a272f3e3c7061746820643d274d31342031337631203120312031682d312d317631683120317631682d312d312d3176316831203120312031762d312d312d312d312d312d312d312d31682d3176317a6d2d352d3348382037763168312031762d317a272f3e3c7061746820643d274d3131203134762d316831762d31682d312d317631203120316831762d317a6d2d352d3276316831762d312d31483676317a6d392d3168317631682d317a272f3e3c7061746820643d274d3720384836763168312031563848377a272066696c6c3d2723343733663365272f3e3c7061746820643d274d362039763148357631203120316831762d316831762d312d3168315639483720367a6d31302d355633682d315632682d312d312d312d312d312d31763148387631483776314836763120312031683120315637683176316831563720366831563568312031203120317631683120315634682d317a272066696c6c3d2723356532663064272f3e3c7061746820643d274d3135203868317631682d317a6d2d33203068317631682d317a272066696c6c3d2723353862373161272f3e3c672066696c6c3d2723343733663365273e3c7061746820643d274d3720313676316831762d312d31483776317a272f3e3c7061746820643d274d38203134763168312031762d31483920387a6d37203068317631682d317a272f3e3c2f673e3c7061746820643d274d3134203136682d317631203168312031762d312d31682d317a272066696c6c3d2723353632393061272f3e3c7061746820643d274d3135203130682d312d312d3176312031683120312031762d316831762d31682d317a272066696c6c3d2723363364366261272f3e3c672066696c6c3d2723623262326232273e3c7061746820643d274d313120313068317631682d317a272f3e3c7061746820643d274d3130203968317631682d317a272f3e3c7061746820643d274d3920386831763148397a272f3e3c2f673e3c7061746820643d274d32312035682d317631683120315635682d317a272066696c6c3d2723336133613832272f3e3c7061746820643d274d32312034682d317631683120315634682d317a272066696c6c3d2723363236326334272f3e3c7061746820643d274d323020313368317631682d317a6d2d322d3168317631682d317a272066696c6c3d2723333333272f3e3c672066696c6c3d2723393131333133273e3c7061746820643d274d32332039682d317631683176316831762d312d31682d317a272f3e3c7061746820643d274d323220313168317631682d317a272f3e3c7061746820643d274d323120313268317631682d317a6d2d332031763168312031762d31682d312d317a272f3e3c2f673e3c672066696c6c3d2723373537333733273e3c7061746820643d274d3232203368317631682d317a6d2d36203668317631682d317a6d302d3468317631682d317a272f3e3c7061746820643d274d3230203856372036682d312d312d31763168317631682d3176316831763168317631203168312031762d312d312d31682d3156387a272f3e3c2f673e3c672066696c6c3d2723346334633463273e3c7061746820643d274d323220313056392038682d315637682d317631203168317631203120316831762d316831762d31682d317a272f3e3c7061746820643d274d3139203132763168312031762d31682d312d317a6d302d37682d315634682d31763120316831203156357a272f3e3c2f673e3c672066696c6c3d2723326231383036273e3c7061746820643d274d352032306831763148357a272f3e3c7061746820643d274d342032316831763148347a272f3e3c7061746820643d274d332032326831763148337a6d342d346831763148377a272f3e3c7061746820643d274d362031396831763148367a6d362d3668317631682d317a272f3e3c7061746820643d274d313120313468317631682d317a272f3e3c7061746820643d274d313020313568317631682d317a6d342d3468317631682d317a272f3e3c7061746820643d274d313320313268317631682d317a6d332d33682d317631203168312031762d31682d3156397a272f3e3c7061746820643d274d3137203968317631682d317a272f3e3c7061746820643d274d3136203868317631682d317a272f3e3c2f673e3c7061746820643d274d313520335632682d312d312d312d312d312d31763148387631483776312031203120312031203168315639203820376831763168315637203648395635203468315633683120312031203176316831763120316831563520342033682d317a272066696c6c3d2723613061306130272f3e3c7061746820643d274d3135203868317631682d317a6d2d33203068317631682d317a272066696c6c3d2723383939366339272f3e3c672066696c6c3d2723343733663365273e3c7061746820643d274d3720313676316831762d312d31483776317a272f3e3c7061746820643d274d38203134763168312031762d31483920387a6d37203068317631682d317a272f3e3c2f673e3c7061746820643d274d3132203868317631682d317a6d33203068317631682d317a272066696c6c3d2723666666272f3e3c7061746820643d274d313120313368317631682d317a6d312d33682d312d312d317631683176316831762d3168312031762d31682d317a272066696c6c3d2723616632383235272f3e3c7061746820643d274d313120313468317631682d317a6d342d34682d312d317631682d312d317631682d3176316831203120312031762d316831762d316831762d31682d317a272066696c6c3d2723646233393331272f3e3c7061746820643d274d31352031317631682d312d312d312d312d31762d314839762d31483820377631483676314835763168317631203120316831762d316831203220317631203120316831203120312031762d312d312d316831762d312d312d312d31682d317a272f3e3c7061746820643d274d392031366831763148397a272066696c6c3d2723666665393232272f3e3c7061746820643d274d3134203139682d312d312d312d312d31763120312031203168312031762d316831203120312031762d312d312d31682d317a272f3e3c7061746820643d274d372031386831763148377a6d332d3368317631682d317a272066696c6c3d2723656661323162272f3e3c672066696c6c3d2723306130613534273e3c7061746820643d274d372031376831763148377a272f3e3c7061746820643d274d382031386831763148387a272f3e3c7061746820643d274d3720313848367631203168312031762d314837762d317a6d332d3468317631682d317a272f3e3c7061746820643d274d313120313568317631682d317a272f3e3c2f673e3c672066696c6c3d2723366638363865273e3c7061746820643d274d313120313468317631682d317a272f3e3c7061746820643d274d313220313368317631682d317a272f3e3c7061746820643d274d313320313268317631682d317a272f3e3c7061746820643d274d313420313168317631682d317a6d332d3368317631682d317a272f3e3c2f673e3c672066696c6c3d2723393131333133273e3c7061746820643d274d313520313068317631682d317a272f3e3c7061746820643d274d3136203968317631682d317a6d322d3268317631682d317a272f3e3c7061746820643d274d3139203668317631682d317a272f3e3c7061746820643d274d3230203568317631682d317a272f3e3c2f673e3c672066696c6c3d2723343434613463273e3c7061746820643d274d313120313368317631682d317a272f3e3c7061746820643d274d313220313268317631682d317a272f3e3c7061746820643d274d313320313168317631682d317a272f3e3c7061746820643d274d313420313068317631682d317a272f3e3c7061746820643d274d3135203968317631682d317a272f3e3c7061746820643d274d3136203868317631682d317a272f3e3c7061746820643d274d3137203768317631682d317a272f3e3c7061746820643d274d3138203668317631682d317a272f3e3c7061746820643d274d3139203568317631682d317a272f3e3c7061746820643d274d3230203468317631682d317a272f3e3c2f673e3c7061746820643d274d39203135483876312031203168312031762d316831762d312d31682d312d317a6d372030682d317631203120316831762d316831762d312d31682d317a272066696c6c3d2723316331633163272f3e3c7061746820643d274d31302e39392031367631682d317632682d31763120312031203168312031762d316831203120312031762d312d312d312d33682d347a272f3e3c7061746820643d274d31352031317631682d312d312d312d312d31762d314839762d31483820377631483676312031683120312031203176312031683176312031682d317632483976326832762d3168312033762d332d312d312d312d316831762d312d31682d317a272f3e3c7061746820643d274d3135203868317631682d317a6d2d33203068317631682d317a272066696c6c3d2723376630613734272f3e3c672066696c6c3d2723343733663365273e3c7061746820643d274d3720313676316831762d312d31483776317a272f3e3c7061746820643d274d38203134763168312031762d31483920387a6d37203068317631682d317a272f3e3c2f673e3c7061746820643d274d313020313568317631682d317a272066696c6c3d2723336133613832272f3e3c672066696c6c3d2723613339663962273e3c7061746820643d274d313620313068317631682d317a272f3e3c7061746820643d274d3138203676312031682d3176312031683156396831563820372036682d317a272f3e3c2f673e3c672066696c6c3d2723326231383036273e3c7061746820643d274d372031386831763148377a6d322d346831763148397a272f3e3c7061746820643d274d313120313668317631682d317a6d2d312d33762d3148392038763120316831762d3168317a272f3e3c7061746820643d274d313020313368317631682d317a6d32203268317631682d317a272f3e3c7061746820643d274d31332031367631682d31763168312031762d312d31682d317a272f3e3c2f673e3c672066696c6c3d2723393131333133273e3c7061746820643d274d323020357631682d31763120312031683156382037683156362035682d317a6d2d34203668317631682d317a272f3e3c7061746820643d274d3138203968317631682d317a6d2d33203368317631682d317a272f3e3c2f673e3c672066696c6c3d2723323332333233273e3c7061746820643d274d32302035682d312d3176316831203156357a6d2d36203468317631682d317a272f3e3c7061746820643d274d3135203868317631682d317a272f3e3c7061746820643d274d3136203768317631682d317a272f3e3c7061746820643d274d3137203668317631682d317a6d30203468317631682d317a6d332d3368317631682d317a6d2d37203368317631682d317a272f3e3c7061746820643d274d313220313168317631682d317a6d32203268317631682d317a272f3e3c7061746820643d274d313120313268317631682d317a6d32203268317631682d317a272f3e3c2f673e3c672066696c6c3d2723363236326334273e3c7061746820643d274d313120313468317631682d317a6d322d3268317631682d317a272f3e3c7061746820643d274d313220313368317631682d317a272f3e3c2f673e3c672066696c6c3d2723376137363732273e3c7061746820643d274d31362039682d3176312031682d31763120316831762d316831762d312d31683156392038682d3176317a272f3e3c7061746820643d274d3137203768317631682d317a272f3e3c2f673e3c672066696c6c3d2723346334633463273e3c7061746820643d274d313220313268317631682d317a272f3e3c7061746820643d274d313320313368317631682d317a6d302d3268317631682d317a272f3e3c7061746820643d274d313420313068317631682d317a6d2d33203368317631682d317a272f3e3c7061746820643d274d313220313468317631682d317a272f3e3c2f673e3c672066696c6c3d2723393334363064273e3c7061746820643d274d313220313668317631682d317a272f3e3c7061746820643d274d313120313568317631682d317a272f3e3c7061746820643d274d313020313468317631682d317a272f3e3c7061746820643d274d392031336831763148397a272f3e3c2f673e3c7061746820643d274d3132203136762d316831762d31682d31762d312d31682d31763120312031203120316831762d317a6d2d362d337631203120316831762d312d312d312d31483676317a272f3e3c7061746820643d274d3134203133682d31763168317631203120312031682d312d312d31762d31682d317631203168312031203120312031762d312d312d312d312d312d312d31682d3176317a6d2d362d336831763148387a272f3e3c7061746820643d274d313520313168317631682d317a6d2d3820306831763148377a272f3e3c7061746820643d274d3134203139682d312d312d312d312d31763120312031203168312031762d316831203120312031762d312d312d31682d317a6d2d322d395639682d327633683120312034762d32682d347a272f3e3c7061746820643d274d3136203130682d365639483876326832763268317637682d312d3176312031203168312031762d316831203120312031762d312d312d376831762d337a272f3e3c672066696c6c3d2723633163316331273e3c7061746820643d274d313020313068317631682d317a272f3e3c7061746820643d274d313120313168317631682d317a272f3e3c7061746820643d274d3133203132682d31763120316831762d312d317a6d3220307631203120316831762d312d312d31682d317a272f3e3c7061746820643d274d3920396831763148397a6d35203668317631682d317a272f3e3c7061746820643d274d313320313468317631682d317a272f3e3c2f673e3c672066696c6c3d2723396539653965273e3c7061746820643d274d392031306831763148397a272f3e3c7061746820643d274d313020313168317631682d317a272f3e3c7061746820643d274d3132203132682d31763120316831762d312d317a6d31203368317631682d317a272f3e3c7061746820643d274d313220313468317631682d317a4d3920384838763120316831563920387a272f3e3c2f673e3c672066696c6c3d2723653065306530273e3c7061746820643d274d3135203130682d312d312d312d31763168317631683176312031683176316831762d312d312d316831762d312d31682d317a272f3e3c7061746820643d274d3130203968317631682d317a272f3e3c7061746820643d274d3920386831763148397a272f3e3c2f673e3c7061746820643d274d31352031317631682d312d312d312d312d31762d314839762d314838763148377631483676312031203120316831762d3168312032203176312031682d3176312031483976312031203168312031762d31683120312031762d316831762d312d312d312d312d316831762d312d312d312d31682d317a272f3e3c7061746820643d274d31312031327638682d312d3176312031203168312031762d316831203120312031762d312d312d38682d347a272f3e3c672066696c6c3d2723373162636433273e3c7061746820643d274d313620313468317631682d317a272f3e3c7061746820643d274d313720313368317631682d317a6d2d37203168317631682d317a272f3e3c7061746820643d274d313120313368317631682d317a272f3e3c7061746820643d274d313220313268317631682d317a272f3e3c2f673e3c672066696c6c3d2723393131333133273e3c7061746820643d274d3138203132763120316831762d312d31682d317a272f3e3c7061746820643d274d313720313468317631682d317a6d2d352d3168317631682d317a272f3e3c7061746820643d274d313120313468317631682d317a272f3e3c2f673e3c7061746820643d274d313620313568317631682d317a6d2d36203068317631682d317a272066696c6c3d2723336439346130272f3e3c672066696c6c3d2723613035303030273e3c7061746820643d274d313520313568317631682d317a272f3e3c7061746820643d274d313620313668317631682d317a6d2d372d316831763148397a272f3e3c7061746820643d274d313020313668317631682d317a272f3e3c2f673e3c7061746820643d274d313620345633682d315632682d312d312d312d312d312d3176314838763120314837763120312031203120316831563920382037683176316831563720366831563568312031203120317631683120315634682d317a272066696c6c3d2723613061306130272f3e3c7061746820643d274d3135203868317631682d317a6d2d33203068317631682d317a272066696c6c3d2723656437663433272f3e3c7061746820643d274d31342e39392031317631682d312d312d312d312d31762d31682d31762d31682d312d317631682d3176312031683120312031203176312031683176316831203120312031762d312d312d316831762d312d31682d317a272f3e3c7061746820643d274d3135203868317631682d317a6d2d33203068317631682d317a272066696c6c3d2723666638646534272f3e3c672066696c6c3d2723356532663064273e3c7061746820643d274d313120377631683156372036682d3176317a272f3e3c7061746820643d274d313620345633682d315632682d312d312d312d312d312d31763148387631483776312031203120312031203168315639203820376831763120316831563820372036683156356831763168315635683176316831763168315636683156352034682d317a6d2d35203568317631682d317a272f3e3c2f673e3c7061746820643d274d31322039682d31563868317a272066696c6c3d2723343733663365272f3e3c7061746820643d274d3135203868317631682d317a6d2d33203068317631682d317a272066696c6c3d2723653533633864272f3e3c672066696c6c3d2723383734393162273e3c7061746820643d274d313620345633682d315632682d312d312d312d312d312d3176314838763120314837763120312031203120316831563920382037683176316831563720366831563568312031203120317631683120315634682d317a272f3e3c7061746820643d274d31352037682d317631683120315637682d317a6d2d3420307631683120315637682d312d317a272f3e3c2f673e3c7061746820643d274d313120377631683120315637682d312d317a6d342030682d317631683120315637682d317a272066696c6c3d2723356532663064272f3e3c7061746820643d274d3135203868317631682d317a6d2d33203068317631682d317a272066696c6c3d2723636363333536272f3e3c7061746820643d274d313620345633682d315632682d312d312d312d312d312d31763148387631483776312031203120312031683156382037683176316831563720366831563568312031203120317631683120315634682d317a272066696c6c3d2723356532663064272f3e3c672066696c6c3d2723343733663365273e3c7061746820643d274d3720313676316831762d312d31483776317a272f3e3c7061746820643d274d38203134763168312031762d31483920387a6d37203068317631682d317a272f3e3c2f673e3c7061746820643d274d31332037682d31763120316831203156382037682d317a272066696c6c3d2723316331633162272f3e3c672066696c6c3d2723336633663366273e3c7061746820643d274d31352036682d317631683120315636682d317a6d2d34203368317631682d317a272f3e3c7061746820643d274d313020313068317631682d317a272f3e3c2f673e3c7061746820643d274d3134203139682d312d312d312d312d3176312031203168312031762d316831203120312031762d312d31682d317a272f3e3c7061746820643d274d3135203868317631682d317a6d2d33203068317631682d317a272066696c6c3d2723326233666232272f3e3c7061746820643d274d313620345633682d312d317631682d312d312d315633682d312d312d31763148377631483676312031203168317631683156382037683176316831563720366831563568312031203120317631683120315634682d317a272066696c6c3d2723356532663064272f3e3c672066696c6c3d2723343733663365273e3c7061746820643d274d3720313676316831762d312d31483776317a272f3e3c7061746820643d274d38203134763168312031762d31483920387a6d37203068317631682d317a272f3e3c2f673e3c7061746820643d274d31332e3939203133682d31763168317631682d31763168312031762d312d312d312d31682d3176317a6d2d372d33763168312031762d31682d312d317a272f3e3c7061746820643d274d31312e393920313468317631682d317a6d302d3268317631682d317a6d2d36203076316831762d312d31682d3176317a6d392d3168317631682d317a272f3e3c7061746820643d274d31312e3939203134762d31682d31762d31682d317631203120316831762d3168317a272f3e3c7061746820643d274d31302e393920313568317631682d317a272f3e3c7061746820643d274d3131203138762d31682d317631203148397631683120312031762d31682d31762d317a272f3e3c7061746820643d274d3132203136762d312d312d312d31682d31763120312031203120316831762d317a6d2d362d337631203120316831762d312d312d312d31483676317a6d38203076312031203120312031682d312d317631683120312031762d312d312d312d312d312d312d31682d3176317a272f3e3c7061746820643d274d313520313168317631682d317a4d38203948377631203168312031762d31483856397a272f3e3c7061746820643d274d3720375636203520344836763120312031203120316831563820377a272f3e3c7061746820643d274d3720336831763148377a272f3e3c7061746820643d274d31302033683120312031203120315632682d312d312d312d312d312d312d317631683120317a272f3e3c7061746820643d274d3135203368317631682d317a272f3e3c7061746820643d274d3136203476312031682d317631683176312031683156382037203620352034682d317a4d3920396831763148397a272f3e3c7061746820643d274d31342035682d312d312d317631203120316831563720366831203120315635682d317a272f3e3c7061746820643d274d3130203868317631682d317a272f3e3c672066696c6c3d2723373030643064273e3c7061746820643d274d313020313368317631682d317a6d34203068317631682d317a6d2d3820336831763148367a272f3e3c7061746820643d274d372031376831763148377a272f3e3c7061746820643d274d38203138763168312031762d31483920387a272f3e3c2f673e3c7061746820643d274d313020313268317631682d317a6d34203068317631682d317a6d2d372d324836203576314834763120312031203120312031683176316831763168312031762d314837762d314836762d312d312d312d312d316831762d316831762d312d31483776317a272066696c6c3d2723633632383238272f3e3c7061746820643d274d31352031317631682d312d312d312d312d31762d314839762d314838763148377631483676312031203120316831762d3168312032203176312031682d317631203168312031203120312031762d312d312d312d316831762d312d312d312d31682d317a272f3e3c7061746820643d274d31352032327631682d312d312d312d312d312d3176316831203120312031203120312031762d312d31682d317a272066696c6c3d2723316331633163272f3e3c7061746820643d274d313320323268317631682d317a6d2d32203068317631682d317a272066696c6c3d2723613061306130272f3e3c7061746820643d274d313420323268317631682d317a6d2d34203068317631682d317a6d32203068317631682d317a272066696c6c3d2723636363272f3e608060405234801561001057600080fd5b5061002d61002261003260201b60201c565b61003a60201b60201c565b6100fe565b600033905090565b60008060009054906101000a900473ffffffffffffffffffffffffffffffffffffffff169050816000806101000a81548173ffffffffffffffffffffffffffffffffffffffff021916908373ffffffffffffffffffffffffffffffffffffffff1602179055508173ffffffffffffffffffffffffffffffffffffffff168173ffffffffffffffffffffffffffffffffffffffff167f8be0079c531659141344cd1fd0a4f28419497f9722a3daafe3b4186f6b6457e060405160405180910390a35050565b611a718061010d6000396000f3fe608060405234801561001057600080fd5b50600436106100925760003560e01c80638da5cb5b116100665780638da5cb5b1461011e578063b03b256e1461013c578063c55b02f414610158578063f2fde38b14610188578063f8588f16146101a457610092565b8062a7c6ee146100975780632abb5c03146100b35780635d98f434146100e4578063715018a614610114575b600080fd5b6100b160048036038101906100ac9190611313565b6101c0565b005b6100cd60048036038101906100c891906112c1565b610523565b6040516100db929190611539565b60405180910390f35b6100fe60048036038101906100f99190611298565b610567565b60405161010b9190611562565b60405180910390f35b61011c6105a1565b005b610126610629565b60405161013391906114f5565b60405180910390f35b610156600480360381019061015191906111f7565b610652565b005b610172600480360381019061016d919061126f565b6109ee565b60405161017f9190611666565b60405180910390f35b6101a2600480360381019061019d91906111a5565b610a06565b005b6101be60048036038101906101b991906111a5565b610afe565b005b3382828273ffffffffffffffffffffffffffffffffffffffff1663b8dbacf96040518163ffffffff1660e01b8152600401602060405180830381600087803b15801561020b57600080fd5b505af192505050801561023c57506040513d601f19601f820116820180604052508101906102399190611246565b60015b61031257610248611797565b634e487b7114156103035761025b6119be565b906102665750610303565b600360003373ffffffffffffffffffffffffffffffffffffffff1673ffffffffffffffffffffffffffffffffffffffff16815260200190815260200160002060009054906101000a900460ff166102f2576040517f08c379a00000000000000000000000000000000000000000000000000000000081526004016102e9906115fd565b60405180910390fd5b6102fd338787610bd5565b5061030d565b3d6000803e3d6000fd5b61051c565b8015610483578373ffffffffffffffffffffffffffffffffffffffff16633613a9f4846040518263ffffffff1660e01b81526004016103519190611666565b602060405180830381600087803b15801561036b57600080fd5b505af115801561037f573d6000803e3d6000fd5b505050506040513d601f19601f820116820180604052508101906103a391906112ea565b732a8ac1b2fcb475c7646f93b6e69930d1eb67c05373ffffffffffffffffffffffffffffffffffffffff16633613a9f4846040518263ffffffff1660e01b81526004016103f09190611666565b602060405180830381600087803b15801561040a57600080fd5b505af115801561041e573d6000803e3d6000fd5b505050506040513d601f19601f8201168201806040525081019061044291906112ea565b14610482576040517f08c379a00000000000000000000000000000000000000000000000000000000081526004016104799061161d565b60405180910390fd5b5b600360003373ffffffffffffffffffffffffffffffffffffffff1673ffffffffffffffffffffffffffffffffffffffff16815260200190815260200160002060009054906101000a900460ff1661050f576040517f08c379a0000000000000000000000000000000000000000000000000000000008152600401610506906115fd565b60405180910390fd5b61051a338787610bd5565b505b5050505050565b60016020528060005260406000206000915090508060000160009054906101000a900473ffffffffffffffffffffffffffffffffffffffff16908060010154905082565b6000816000015182602001516040516020016105849291906114c9565b604051602081830303815290604052805190602001209050919050565b6105a9610df2565b73ffffffffffffffffffffffffffffffffffffffff166105c7610629565b73ffffffffffffffffffffffffffffffffffffffff161461061d576040517f08c379a0000000000000000000000000000000000000000000000000000000008152600401610614906115dd565b60405180910390fd5b6106276000610dfa565b565b60008060009054906101000a900473ffffffffffffffffffffffffffffffffffffffff16905090565b8282828273ffffffffffffffffffffffffffffffffffffffff1663b8dbacf96040518163ffffffff1660e01b8152600401602060405180830381600087803b15801561069d57600080fd5b505af19250505080156106ce57506040513d601f19601f820116820180604052508101906106cb9190611246565b60015b6107c0576106da611797565b634e487b7114156107b1576106ed6119be565b906106f857506107b1565b610703873388610ebe565b610742576040517f08c379a00000000000000000000000000000000000000000000000000000000081526004016107399061159d565b60405180910390fd5b610761732a8ac1b2fcb475c7646f93b6e69930d1eb67c0533387610ebe565b6107a0576040517f08c379a00000000000000000000000000000000000000000000000000000000081526004016107979061157d565b60405180910390fd5b6107ab878787610bd5565b506107bb565b3d6000803e3d6000fd5b6109e6565b8015610931578373ffffffffffffffffffffffffffffffffffffffff16633613a9f4846040518263ffffffff1660e01b81526004016107ff9190611666565b602060405180830381600087803b15801561081957600080fd5b505af115801561082d573d6000803e3d6000fd5b505050506040513d601f19601f8201168201806040525081019061085191906112ea565b732a8ac1b2fcb475c7646f93b6e69930d1eb67c05373ffffffffffffffffffffffffffffffffffffffff16633613a9f4846040518263ffffffff1660e01b815260040161089e9190611666565b602060405180830381600087803b1580156108b857600080fd5b505af11580156108cc573d6000803e3d6000fd5b505050506040513d601f19601f820116820180604052508101906108f091906112ea565b14610930576040517f08c379a00000000000000000000000000000000000000000000000000000000081526004016109279061161d565b60405180910390fd5b5b61093c873388610ebe565b61097b576040517f08c379a00000000000000000000000000000000000000000000000000000000081526004016109729061159d565b60405180910390fd5b61099a732a8ac1b2fcb475c7646f93b6e69930d1eb67c0533387610ebe565b6109d9576040517f08c379a00000000000000000000000000000000000000000000000000000000081526004016109d09061157d565b60405180910390fd5b6109e4878787610bd5565b505b505050505050565b60026020528060005260406000206000915090505481565b610a0e610df2565b73ffffffffffffffffffffffffffffffffffffffff16610a2c610629565b73ffffffffffffffffffffffffffffffffffffffff1614610a82576040517f08c379a0000000000000000000000000000000000000000000000000000000008152600401610a79906115dd565b60405180910390fd5b600073ffffffffffffffffffffffffffffffffffffffff168173ffffffffffffffffffffffffffffffffffffffff161415610af2576040517f08c379a0000000000000000000000000000000000000000000000000000000008152600401610ae9906115bd565b60405180910390fd5b610afb81610dfa565b50565b610b06610df2565b73ffffffffffffffffffffffffffffffffffffffff16610b24610629565b73ffffffffffffffffffffffffffffffffffffffff1614610b7a576040517f08c379a0000000000000000000000000000000000000000000000000000000008152600401610b71906115dd565b60405180910390fd5b6001600360008373ffffffffffffffffffffffffffffffffffffffff1673ffffffffffffffffffffffffffffffffffffffff16815260200190815260200160002060006101000a81548160ff02191690831515021790555050565b6040518060400160405280600073ffffffffffffffffffffffffffffffffffffffff16815260200160008152506001600060026000610c3d60405180604001604052808a73ffffffffffffffffffffffffffffffffffffffff16815260200189815250610567565b815260200190815260200160002054815260200190815260200160002060008201518160000160006101000a81548173ffffffffffffffffffffffffffffffffffffffff021916908373ffffffffffffffffffffffffffffffffffffffff160217905550602082015181600101559050508060026000610ce660405180604001604052808873ffffffffffffffffffffffffffffffffffffffff16815260200187815250610567565b81526020019081526020016000208190555060405180604001604052808473ffffffffffffffffffffffffffffffffffffffff168152602001838152506001600083815260200190815260200160002060008201518160000160006101000a81548173ffffffffffffffffffffffffffffffffffffffff021916908373ffffffffffffffffffffffffffffffffffffffff160217905550602082015181600101559050507f91dd75ea262c69e401a2c0fef76c62376c182a4fb4dc1e1c0f320420fccdbc0260405180604001604052808573ffffffffffffffffffffffffffffffffffffffff1681526020018481525082604051610de592919061163d565b60405180910390a1505050565b600033905090565b60008060009054906101000a900473ffffffffffffffffffffffffffffffffffffffff169050816000806101000a81548173ffffffffffffffffffffffffffffffffffffffff021916908373ffffffffffffffffffffffffffffffffffffffff1602179055508173ffffffffffffffffffffffffffffffffffffffff168173ffffffffffffffffffffffffffffffffffffffff167f8be0079c531659141344cd1fd0a4f28419497f9722a3daafe3b4186f6b6457e060405160405180910390a35050565b60008084905060008173ffffffffffffffffffffffffffffffffffffffff16636352211e856040518263ffffffff1660e01b8152600401610eff9190611666565b60206040518083038186803b158015610f1757600080fd5b505afa158015610f2b573d6000803e3d6000fd5b505050506040513d601f19601f82011682018060405250810190610f4f91906111ce565b90508073ffffffffffffffffffffffffffffffffffffffff168573ffffffffffffffffffffffffffffffffffffffff16148061103e57508473ffffffffffffffffffffffffffffffffffffffff168273ffffffffffffffffffffffffffffffffffffffff1663081812fc866040518263ffffffff1660e01b8152600401610fd69190611666565b60206040518083038186803b158015610fee57600080fd5b505afa158015611002573d6000803e3d6000fd5b505050506040513d601f19601f8201168201806040525081019061102691906111ce565b73ffffffffffffffffffffffffffffffffffffffff16145b806110d057508173ffffffffffffffffffffffffffffffffffffffff1663e985e9c582876040518363ffffffff1660e01b815260040161107f929190611510565b60206040518083038186803b15801561109757600080fd5b505afa1580156110ab573d6000803e3d6000fd5b505050506040513d601f19601f820116820180604052508101906110cf9190611246565b5b925050509392505050565b6000813590506110ea816119df565b92915050565b6000815190506110ff816119df565b92915050565b600081519050611114816119f6565b92915050565b60008135905061112981611a0d565b92915050565b60006040828403121561114157600080fd5b61114b6040611681565b9050600061115b848285016110db565b600083015250602061116f8482850161117b565b60208301525092915050565b60008135905061118a81611a24565b92915050565b60008151905061119f81611a24565b92915050565b6000602082840312156111b757600080fd5b60006111c5848285016110db565b91505092915050565b6000602082840312156111e057600080fd5b60006111ee848285016110f0565b91505092915050565b60008060006060848603121561120c57600080fd5b600061121a868287016110db565b935050602061122b8682870161117b565b925050604061123c8682870161117b565b9150509250925092565b60006020828403121561125857600080fd5b600061126684828501611105565b91505092915050565b60006020828403121561128157600080fd5b600061128f8482850161111a565b91505092915050565b6000604082840312156112aa57600080fd5b60006112b88482850161112f565b91505092915050565b6000602082840312156112d357600080fd5b60006112e18482850161117b565b91505092915050565b6000602082840312156112fc57600080fd5b600061130a84828501611190565b91505092915050565b6000806040838503121561132657600080fd5b60006113348582860161117b565b92505060206113458582860161117b565b9150509250929050565b611358816116b7565b82525050565b611367816116b7565b82525050565b61137e611379826116b7565b61173a565b82525050565b61138d816116d5565b82525050565b60006113a0602f836116a6565b91506113ab826117e4565b604082019050919050565b60006113c3602c836116a6565b91506113ce82611833565b604082019050919050565b60006113e66026836116a6565b91506113f182611882565b604082019050919050565b60006114096020836116a6565b9150611414826118d1565b602082019050919050565b600061142c6046836116a6565b9150611437826118fa565b606082019050919050565b600061144f602b836116a6565b915061145a8261196f565b604082019050919050565b60408201600082015161147b600085018261134f565b50602082015161148e6020850182611494565b50505050565b61149d816116ff565b82525050565b6114ac816116ff565b82525050565b6114c36114be826116ff565b61175e565b82525050565b60006114d5828561136d565b6014820191506114e582846114b2565b6020820191508190509392505050565b600060208201905061150a600083018461135e565b92915050565b6000604082019050611525600083018561135e565b611532602083018461135e565b9392505050565b600060408201905061154e600083018561135e565b61155b60208301846114a3565b9392505050565b60006020820190506115776000830184611384565b92915050565b6000602082019050818103600083015261159681611393565b9050919050565b600060208201905081810360008301526115b6816113b6565b9050919050565b600060208201905081810360008301526115d6816113d9565b9050919050565b600060208201905081810360008301526115f6816113fc565b9050919050565b600060208201905081810360008301526116168161141f565b9050919050565b6000602082019050818103600083015261163681611442565b9050919050565b60006060820190506116526000830185611465565b61165f60408301846114a3565b9392505050565b600060208201905061167b60008301846114a3565b92915050565b600061168b61169c565b90506116978282611709565b919050565b6000604051905090565b600082825260208201905092915050565b60006116c2826116df565b9050919050565b60008115159050919050565b6000819050919050565b600073ffffffffffffffffffffffffffffffffffffffff82169050919050565b6000819050919050565b611712826117b9565b810181811067ffffffffffffffff8211171561173157611730611768565b5b80604052505050565b60006117458261174c565b9050919050565b6000611757826117ca565b9050919050565b6000819050919050565b7f4e487b7100000000000000000000000000000000000000000000000000000000600052604160045260246000fd5b600060033d11156117b65760046000803e6117b36000516117d7565b90505b90565b6000601f19601f8301169050919050565b60008160601b9050919050565b60008160e01c9050919050565b7f596f75206d757374206265206f776e6572206f7220617070726f76656420666f60008201527f7220746869732073756d6d6f6e65720000000000000000000000000000000000602082015250565b7f596f75206d757374206265206f776e6572206f7220617070726f76656420666f60008201527f72207468697320746f6b656e0000000000000000000000000000000000000000602082015250565b7f4f776e61626c653a206e6577206f776e657220697320746865207a65726f206160008201527f6464726573730000000000000000000000000000000000000000000000000000602082015250565b7f4f776e61626c653a2063616c6c6572206973206e6f7420746865206f776e6572600082015250565b7f4f6e6c7920747275737465642045524337323120696d706c656d656e7461746960008201527f6f6e732063616e20616363657373207468697320776179206f6620617373696760208201527f6e6174696f6e0000000000000000000000000000000000000000000000000000604082015250565b7f53756d6d6f6e657220616e6420736b696e206d757374206265206f662074686560008201527f2073616d6520636c617373000000000000000000000000000000000000000000602082015250565b60008060233d11156119db576020600460003e6001915060005190505b9091565b6119e8816116b7565b81146119f357600080fd5b50565b6119ff816116c9565b8114611a0a57600080fd5b50565b611a16816116d5565b8114611a2157600080fd5b50565b611a2d816116ff565b8114611a3857600080fd5b5056fea2646970667358221220acd2abebdc675300fd3316415923a5039b5e24540f034836e225154afdabcb5964736f6c63430008040033",
  "linkReferences": {},
  "deployedLinkReferences": {}
}