{
  "_format": "hh-sol-artifact-1",
  "contractName": "CommonSkinURIs",
  "sourceName": "contracts/alts/CommonSkinURIs.sol",
  "abi": [
    {
      "inputs": [],
      "stateMutability": "nonpayable",
      "type": "constructor"
    },
    {
      "anonymous": false,
      "inputs": [
        {
          "indexed": true,
          "internalType": "address",
          "name": "previousOwner",
          "type": "address"
        },
        {
          "indexed": true,
          "internalType": "address",
          "name": "newOwner",
          "type": "address"
        }
      ],
      "name": "OwnershipTransferred",
      "type": "event"
    },
    {
      "inputs": [
        {
          "internalType": "uint256",
          "name": "startIndex",
          "type": "uint256"
        },
        {
          "internalType": "string[][]",
          "name": "data",
          "type": "string[][]"
        }
      ],
      "name": "initializeArt",
      "outputs": [],
      "stateMutability": "nonpayable",
      "type": "function"
    },
    {
      "inputs": [],
      "name": "owner",
      "outputs": [
        {
          "internalType": "address",
          "name": "",
          "type": "address"
        }
      ],
      "stateMutability": "view",
      "type": "function"
    },
    {
      "inputs": [],
      "name": "renounceOwnership",
      "outputs": [],
      "stateMutability": "nonpayable",
      "type": "function"
    },
    {
      "inputs": [
        {
          "internalType": "uint256",
          "name": "_tokenId",
          "type": "uint256"
        },
        {
          "internalType": "uint256",
          "name": "_dna",
          "type": "uint256"
        }
      ],
      "name": "tokenURI",
      "outputs": [
        {
          "internalType": "string",
          "name": "",
          "type": "string"
        }
      ],
      "stateMutability": "view",
      "type": "function"
    },
    {
      "inputs": [
        {
          "internalType": "address",
          "name": "newOwner",
          "type": "address"
        }
      ],
      "name": "transferOwnership",
      "outputs": [],
      "stateMutability": "nonpayable",
      "type": "function"
    }
  ],
  "bytecode": "0x60a06040523480156200001157600080fd5b5062000032620000266200098260201b60201c565b6200098a60201b60201c565b3373ffffffffffffffffffffffffffffffffffffffff1660808173ffffffffffffffffffffffffffffffffffffffff1660601b815250506040518060a001604052806040518060400160405280600881526020017f42726163656c657400000000000000000000000000000000000000000000000081525081526020016040518060400160405280600781526020017f45617272696e670000000000000000000000000000000000000000000000000081525081526020016040518060400160405280600681526020017f476c6f766573000000000000000000000000000000000000000000000000000081525081526020016040518060400160405280600881526020017f4e65636b6c61636500000000000000000000000000000000000000000000000081525081526020016040518060400160405280600481526020017f52696e67000000000000000000000000000000000000000000000000000000008152508152506002600060058110620001d5577f4e487b7100000000000000000000000000000000000000000000000000000000600052603260045260246000fd5b01906005620001e692919062000a4e565b506040518061014001604052806040518060400160405280600381526020017f426f77000000000000000000000000000000000000000000000000000000000081525081526020016040518060400160405280600681526020017f446167676572000000000000000000000000000000000000000000000000000081525081526020016040518060400160405280600881526020017f4669726562616c6c00000000000000000000000000000000000000000000000081525081526020016040518060400160405280600781526020017f48616c626572640000000000000000000000000000000000000000000000000081525081526020016040518060400160405280600781526020017f486174636865740000000000000000000000000000000000000000000000000081525081526020016040518060400160405280600681526020017f4b6174616e61000000000000000000000000000000000000000000000000000081525081526020016040518060400160405280600681526020017f4b6e69766573000000000000000000000000000000000000000000000000000081525081526020016040518060400160405280600581526020017f537065617200000000000000000000000000000000000000000000000000000081525081526020016040518060400160405280600581526020017f53776f726400000000000000000000000000000000000000000000000000000081525081526020016040518060400160405280600481526020017f57616e640000000000000000000000000000000000000000000000000000000081525081525060026001600581106200047b577f4e487b7100000000000000000000000000000000000000000000000000000000600052603260045260246000fd5b0190600a6200048c92919062000ab5565b506040518060c001604052806040518060400160405280600981526020017f457965205061746368000000000000000000000000000000000000000000000081525081526020016040518060400160405280600381526020017f486174000000000000000000000000000000000000000000000000000000000081525081526020016040518060400160405280600881526020017f4865616462616e6400000000000000000000000000000000000000000000000081525081526020016040518060400160405280600681526020017f486f726e6564000000000000000000000000000000000000000000000000000081525081526020016040518060400160405280600681526020017f4b6e69676874000000000000000000000000000000000000000000000000000081525081526020016040518060400160405280600a81526020017f57686974652045796573000000000000000000000000000000000000000000008152508152506002806005811062000633577f4e487b7100000000000000000000000000000000000000000000000000000000600052603260045260246000fd5b019060066200064492919062000b1c565b5060405180608001604052806040518060400160405280600981526020017f4269672053686f6573000000000000000000000000000000000000000000000081525081526020016040518060400160405280600781526020017f53616e64616c730000000000000000000000000000000000000000000000000081525081526020016040518060400160405280600581526020017f53686f657300000000000000000000000000000000000000000000000000000081525081526020016040518060400160405280600c81526020017f57696e6765642053686f65730000000000000000000000000000000000000000815250815250600260036005811062000776577f4e487b7100000000000000000000000000000000000000000000000000000000600052603260045260246000fd5b019060046200078792919062000b83565b506040518060e001604052806040518060400160405280600581526020017f41726d6f7200000000000000000000000000000000000000000000000000000081525081526020016040518060400160405280600881526020017f4261636b7061636b00000000000000000000000000000000000000000000000081525081526020016040518060400160405280600581526020017f426561726400000000000000000000000000000000000000000000000000000081525081526020016040518060400160405280600481526020017f436170650000000000000000000000000000000000000000000000000000000081525081526020016040518060400160405280600781526020017f5361746368656c0000000000000000000000000000000000000000000000000081525081526020016040518060400160405280600881526020017f536361626261726400000000000000000000000000000000000000000000000081525081526020016040518060400160405280600581526020017f536361726600000000000000000000000000000000000000000000000000000081525081525060026004600581106200096a577f4e487b7100000000000000000000000000000000000000000000000000000000600052603260045260246000fd5b019060076200097b92919062000bea565b5062000dd4565b600033905090565b60008060009054906101000a900473ffffffffffffffffffffffffffffffffffffffff169050816000806101000a81548173ffffffffffffffffffffffffffffffffffffffff021916908373ffffffffffffffffffffffffffffffffffffffff1602179055508173ffffffffffffffffffffffffffffffffffffffff168173ffffffffffffffffffffffffffffffffffffffff167f8be0079c531659141344cd1fd0a4f28419497f9722a3daafe3b4186f6b6457e060405160405180910390a35050565b82805482825590600052602060002090810192821562000aa2579160200282015b8281111562000aa157825182908051906020019062000a9092919062000c51565b509160200191906001019062000a6f565b5b50905062000ab1919062000ce2565b5090565b82805482825590600052602060002090810192821562000b09579160200282015b8281111562000b0857825182908051906020019062000af792919062000c51565b509160200191906001019062000ad6565b5b50905062000b18919062000ce2565b5090565b82805482825590600052602060002090810192821562000b70579160200282015b8281111562000b6f57825182908051906020019062000b5e92919062000c51565b509160200191906001019062000b3d565b5b50905062000b7f919062000ce2565b5090565b82805482825590600052602060002090810192821562000bd7579160200282015b8281111562000bd657825182908051906020019062000bc592919062000c51565b509160200191906001019062000ba4565b5b50905062000be6919062000ce2565b5090565b82805482825590600052602060002090810192821562000c3e579160200282015b8281111562000c3d57825182908051906020019062000c2c92919062000c51565b509160200191906001019062000c0b565b5b50905062000c4d919062000ce2565b5090565b82805462000c5f9062000d6f565b90600052602060002090601f01602090048101928262000c83576000855562000ccf565b82601f1062000c9e57805160ff191683800117855562000ccf565b8280016001018555821562000ccf579182015b8281111562000cce57825182559160200191906001019062000cb1565b5b50905062000cde919062000d0a565b5090565b5b8082111562000d06576000818162000cfc919062000d29565b5060010162000ce3565b5090565b5b8082111562000d2557600081600090555060010162000d0b565b5090565b50805462000d379062000d6f565b6000825580601f1062000d4b575062000d6c565b601f01602090049060005260206000209081019062000d6b919062000d0a565b5b50565b6000600282049050600182168062000d8857607f821691505b6020821081141562000d9f5762000d9e62000da5565b5b50919050565b7f4e487b7100000000000000000000000000000000000000000000000000000000600052602260045260246000fd5b60805160601c6129d562000df36000396000610f5001526129d56000f3fe608060405234801561001057600080fd5b50600436106100575760003560e01c8063715018a61461005c5780638da5cb5b1461006657806392cb829d1461008457806393e6f872146100b4578063f2fde38b146100d0575b600080fd5b6100646100ec565b005b61006e610174565b60405161007b9190611e7d565b60405180910390f35b61009e600480360381019061009991906116e3565b61019d565b6040516100ab9190611e98565b60405180910390f35b6100ce60048036038101906100c9919061168b565b6101d8565b005b6100ea60048036038101906100e59190611639565b6103b7565b005b6100f46104af565b73ffffffffffffffffffffffffffffffffffffffff16610112610174565b73ffffffffffffffffffffffffffffffffffffffff1614610168576040517f08c379a000000000000000000000000000000000000000000000000000000000815260040161015f90611eda565b60405180910390fd5b61017260006104b7565b565b60008060009054906101000a900473ffffffffffffffffffffffffffffffffffffffff16905090565b60606101b16101ac848461057b565b61093d565b6040516020016101c19190611e5b565b604051602081830303815290604052905092915050565b6101e06104af565b73ffffffffffffffffffffffffffffffffffffffff166101fe610174565b73ffffffffffffffffffffffffffffffffffffffff1614610254576040517f08c379a000000000000000000000000000000000000000000000000000000000815260040161024b90611eda565b60405180910390fd5b60005b828290508110156103b15760005b83838381811061029e577f4e487b7100000000000000000000000000000000000000000000000000000000600052603260045260246000fd5b90506020028101906102b09190611f15565b905081101561039d578383838181106102f2577f4e487b7100000000000000000000000000000000000000000000000000000000600052603260045260246000fd5b90506020028101906103049190611f15565b8281811061033b577f4e487b7100000000000000000000000000000000000000000000000000000000600052603260045260246000fd5b905060200281019061034d9190611f6c565b60016000858961035d9190611fff565b8152602001908152602001600020600084815260200190815260200160002091906103899291906114ea565b508080610395906121b5565b915050610265565b5080806103a9906121b5565b915050610257565b50505050565b6103bf6104af565b73ffffffffffffffffffffffffffffffffffffffff166103dd610174565b73ffffffffffffffffffffffffffffffffffffffff1614610433576040517f08c379a000000000000000000000000000000000000000000000000000000000815260040161042a90611eda565b60405180910390fd5b600073ffffffffffffffffffffffffffffffffffffffff168173ffffffffffffffffffffffffffffffffffffffff1614156104a3576040517f08c379a000000000000000000000000000000000000000000000000000000000815260040161049a90611eba565b60405180910390fd5b6104ac816104b7565b50565b600033905090565b60008060009054906101000a900473ffffffffffffffffffffffffffffffffffffffff169050816000806101000a81548173ffffffffffffffffffffffffffffffffffffffff021916908373ffffffffffffffffffffffffffffffffffffffff1602179055508173ffffffffffffffffffffffffffffffffffffffff168173ffffffffffffffffffffffffffffffffffffffff167f8be0079c531659141344cd1fd0a4f28419497f9722a3daafe3b4186f6b6457e060405160405180910390a35050565b6060600061058883610ae8565b9050606060006040518060a001604052806040518060400160405280600981526020017f4163636573736f7279000000000000000000000000000000000000000000000081525081526020016040518060400160405280600681526020017f576561706f6e000000000000000000000000000000000000000000000000000081525081526020016040518060400160405280600481526020017f486561640000000000000000000000000000000000000000000000000000000081525081526020016040518060400160405280600581526020017f53686f657300000000000000000000000000000000000000000000000000000081525081526020016040518060400160405280600581526020017f546f72736f000000000000000000000000000000000000000000000000000000815250815250905060005b60058110156108f457600060016000838152602001908152602001600020600086846008811061071c577f4e487b7100000000000000000000000000000000000000000000000000000000600052603260045260246000fd5b602002015160ff168152602001908152602001600020805461073d90612183565b905011156108e15782600084511461078a576040518060400160405280600381526020017f2c207b00000000000000000000000000000000000000000000000000000000008152506107c1565b6040518060400160405280600181526020017f7b000000000000000000000000000000000000000000000000000000000000008152505b8383600581106107fa577f4e487b7100000000000000000000000000000000000000000000000000000000600052603260045260246000fd5b602002015160028460058110610839577f4e487b7100000000000000000000000000000000000000000000000000000000600052603260045260246000fd5b01878560088110610873577f4e487b7100000000000000000000000000000000000000000000000000000000600052603260045260246000fd5b602002015160ff16815481106108b2577f4e487b7100000000000000000000000000000000000000000000000000000000600052603260045260246000fd5b906000526020600020016040516020016108cf9493929190611bb4565b60405160208183030381529060405292505b80806108ec906121b5565b9150506106c3565b506108fe86610d8e565b61091061090b8888610f3b565b61093d565b8360405160200161092393929190611dc7565b604051602081830303815290604052935050505092915050565b606060008251141561096057604051806020016040528060008152509050610ae3565b6000604051806060016040528060408152602001612960604091399050600060036002855161098f9190611fff565b6109999190612055565b60046109a59190612086565b905060006020826109b69190611fff565b67ffffffffffffffff8111156109f5577f4e487b7100000000000000000000000000000000000000000000000000000000600052604160045260246000fd5b6040519080825280601f01601f191660200182016040528015610a275781602001600182028036833780820191505090505b509050818152600183018586518101602084015b81831015610aa2576003830192508251603f8160121c1685015160f81b8252600182019150603f81600c1c1685015160f81b8252600182019150603f8160061c1685015160f81b8252600182019150603f811685015160f81b825260018201915050610a3b565b600389510660018114610abc5760028114610acc57610ad7565b613d3d60f01b6002830352610ad7565b603d60f81b60018303525b50505050508093505050505b919050565b610af0611570565b610af8611570565b600a83610b0591906121fe565b81600060088110610b3f577f4e487b7100000000000000000000000000000000000000000000000000000000600052603260045260246000fd5b602002019060ff16908160ff1681525050600a83610b5d9190612055565b9250600e83610b6c91906121fe565b81600160088110610ba6577f4e487b7100000000000000000000000000000000000000000000000000000000600052603260045260246000fd5b602002019060ff16908160ff1681525050600e83610bc49190612055565b9250600c83610bd391906121fe565b81600260088110610c0d577f4e487b7100000000000000000000000000000000000000000000000000000000600052603260045260246000fd5b602002019060ff16908160ff1681525050600c83610c2b9190612055565b9250600883610c3a91906121fe565b81600360088110610c74577f4e487b7100000000000000000000000000000000000000000000000000000000600052603260045260246000fd5b602002019060ff16908160ff1681525050600883610c929190612055565b9250601083610ca191906121fe565b81600460088110610cdb577f4e487b7100000000000000000000000000000000000000000000000000000000600052603260045260246000fd5b602002019060ff16908160ff1681525050601083610cf99190612055565b92506000600590505b6008811015610d8457600a84610d1891906121fe565b828260088110610d51577f4e487b7100000000000000000000000000000000000000000000000000000000600052603260045260246000fd5b602002019060ff16908160ff1681525050600a84610d6f9190612055565b93508080610d7c906121b5565b915050610d02565b5080915050919050565b60606000821415610dd6576040518060400160405280600181526020017f30000000000000000000000000000000000000000000000000000000000000008152509050610f36565b600082905060005b60008214610e08578080610df1906121b5565b915050600a82610e019190612055565b9150610dde565b60008167ffffffffffffffff811115610e4a577f4e487b7100000000000000000000000000000000000000000000000000000000600052604160045260246000fd5b6040519080825280601f01601f191660200182016040528015610e7c5781602001600182028036833780820191505090505b5090505b60008514610f2f57600182610e9591906120e0565b9150600a85610ea491906121fe565b6030610eb09190611fff565b60f81b818381518110610eec577f4e487b7100000000000000000000000000000000000000000000000000000000600052603260045260246000fd5b60200101907effffffffffffffffffffffffffffffffffffffffffffffffffffffffffffff1916908160001a905350600a85610f289190612055565b9450610e80565b8093505050505b919050565b60606000610f4883610ae8565b9050600060017f000000000000000000000000000000000000000000000000000000000000000073ffffffffffffffffffffffffffffffffffffffff16633613a9f4876040518263ffffffff1660e01b8152600401610fa79190611efa565b60206040518083038186803b158015610fbf57600080fd5b505afa158015610fd3573d6000803e3d6000fd5b505050506040513d601f19601f82011682018060405250810190610ff79190611662565b61100191906120e0565b9050600060078214806110145750600182145b61102d57604051806020016040528060008152506110b3565b600160006007815260200190815260200160002060008460076008811061107d577f4e487b7100000000000000000000000000000000000000000000000000000000600052603260045260246000fd5b602002015160ff1681526020019081526020016000206040516020016110a39190611d9a565b6040516020818303038152906040525b90506110be86610d8e565b600160006007815260200190815260200160002060008560076008811061110e577f4e487b7100000000000000000000000000000000000000000000000000000000600052603260045260246000fd5b602002015160ff168152602001908152602001600020826001600060068152602001908152602001600020600087600660088110611175577f4e487b7100000000000000000000000000000000000000000000000000000000600052603260045260246000fd5b602002015160ff168152602001908152602001600020600160006008815260200190815260200160002060008781526020019081526020016000206001600060058152602001908152602001600020600089600560088110611200577f4e487b7100000000000000000000000000000000000000000000000000000000600052603260045260246000fd5b602002015160ff1681526020019081526020016000206001600060098152602001908152602001600020600089815260200190815260200160002060016000600a815260200190815260200160002060008a815260200190815260200160002060016000600b815260200190815260200160002060008b815260200190815260200160002061128e8c6112c1565b6040516020016112a79a99989796959493929190611c74565b604051602081830303815290604052935050505092915050565b60606001600060048152602001908152602001600020600083600460088110611313577f4e487b7100000000000000000000000000000000000000000000000000000000600052603260045260246000fd5b602002015160ff1681526020019081526020016000206001600060028152602001908152602001600020600084600260088110611379577f4e487b7100000000000000000000000000000000000000000000000000000000600052603260045260246000fd5b602002015160ff168152602001908152602001600020600160008081526020019081526020016000206000856000600881106113de577f4e487b7100000000000000000000000000000000000000000000000000000000600052603260045260246000fd5b602002015160ff1681526020019081526020016000206001600060038152602001908152602001600020600086600360088110611444577f4e487b7100000000000000000000000000000000000000000000000000000000600052603260045260246000fd5b602002015160ff16815260200190815260200160002060016000600181526020019081526020016000206000876001600881106114aa577f4e487b7100000000000000000000000000000000000000000000000000000000600052603260045260246000fd5b602002015160ff1681526020019081526020016000206040516020016114d4959493929190611c29565b6040516020818303038152906040529050919050565b8280546114f690612183565b90600052602060002090601f016020900481019282611518576000855561155f565b82601f1061153157803560ff191683800117855561155f565b8280016001018555821561155f579182015b8281111561155e578235825591602001919060010190611543565b5b50905061156c9190611593565b5090565b604051806101000160405280600890602082028036833780820191505090505090565b5b808211156115ac576000816000905550600101611594565b5090565b6000813590506115bf81612931565b92915050565b60008083601f8401126115d757600080fd5b8235905067ffffffffffffffff8111156115f057600080fd5b60208301915083602082028301111561160857600080fd5b9250929050565b60008135905061161e81612948565b92915050565b60008151905061163381612948565b92915050565b60006020828403121561164b57600080fd5b6000611659848285016115b0565b91505092915050565b60006020828403121561167457600080fd5b600061168284828501611624565b91505092915050565b6000806000604084860312156116a057600080fd5b60006116ae8682870161160f565b935050602084013567ffffffffffffffff8111156116cb57600080fd5b6116d7868287016115c5565b92509250509250925092565b600080604083850312156116f657600080fd5b60006117048582860161160f565b92505060206117158582860161160f565b9150509250929050565b61172881612114565b82525050565b600061173982611fd8565b6117438185611fe3565b9350611753818560208601612150565b61175c816122bc565b840191505092915050565b600061177282611fd8565b61177c8185611ff4565b935061178c818560208601612150565b80840191505092915050565b600081546117a581612183565b6117af8186611ff4565b945060018216600081146117ca57600181146117db5761180e565b60ff1983168652818601935061180e565b6117e485611fc3565b60005b83811015611806578154818901526001820191506020810190506117e7565b838801955050505b50505092915050565b6000611824603183611ff4565b915061182f826122cd565b603182019050919050565b6000611847602683611fe3565b91506118528261231c565b604082019050919050565b600061186a600283611ff4565b91506118758261236b565b600282019050919050565b600061188d601683611ff4565b915061189882612394565b601682019050919050565b60006118b0608783611ff4565b91506118bb826123bd565b608782019050919050565b60006118d3600f83611ff4565b91506118de8261247e565b600f82019050919050565b60006118f6600d83611ff4565b9150611901826124a7565b600d82019050919050565b6000611919606783611ff4565b9150611924826124d0565b606782019050919050565b600061193c600a83611ff4565b91506119478261256b565b600a82019050919050565b600061195f600183611ff4565b915061196a82612594565b600182019050919050565b6000611982601183611ff4565b915061198d826125bd565b601182019050919050565b60006119a5602483611ff4565b91506119b0826125e6565b602482019050919050565b60006119c8600183611ff4565b91506119d382612635565b600182019050919050565b60006119eb602083611fe3565b91506119f68261265e565b602082019050919050565b6000611a0e600483611ff4565b9150611a1982612687565b600482019050919050565b6000611a31608c83611ff4565b9150611a3c826126b0565b608c82019050919050565b6000611a54600183611ff4565b9150611a5f82612771565b600182019050919050565b6000611a77600f83611ff4565b9150611a828261279a565b600f82019050919050565b6000611a9a600a83611ff4565b9150611aa5826127c3565b600a82019050919050565b6000611abd601683611ff4565b9150611ac8826127ec565b601682019050919050565b6000611ae0600383611ff4565b9150611aeb82612815565b600382019050919050565b6000611b03600183611ff4565b9150611b0e8261283e565b600182019050919050565b6000611b26601d83611ff4565b9150611b3182612867565b601d82019050919050565b6000611b49600283611ff4565b9150611b5482612890565b600282019050919050565b6000611b6c603983611ff4565b9150611b77826128b9565b603982019050919050565b6000611b8f600683611ff4565b9150611b9a82612908565b600682019050919050565b611bae81612146565b82525050565b6000611bc08287611767565b9150611bcc8286611767565b9150611bd7826118c6565b9150611be38285611767565b9150611bee8261185d565b9150611bf982611a8d565b9150611c058284611798565b9150611c1082611952565b9150611c1b826119bb565b915081905095945050505050565b6000611c358288611798565b9150611c418287611798565b9150611c4d8286611798565b9150611c598285611798565b9150611c658284611798565b91508190509695505050505050565b6000611c7f82611880565b9150611c8b828d611767565b9150611c9682611b5f565b9150611ca1826118e9565b9150611cad828c611798565b9150611cb88261190c565b9150611cc4828b611767565b9150611ccf82611817565b9150611cda8261192f565b9150611ce6828a611798565b9150611cf182611b3c565b9150611cfd8289611798565b9150611d0882611a01565b9150611d138261192f565b9150611d1f8288611798565b9150611d2a82611b3c565b9150611d368287611798565b9150611d4182611a01565b9150611d4c82611975565b9150611d588286611798565b9150611d6382611a01565b9150611d6f8285611798565b9150611d7b8284611767565b9150611d8682611b82565b91508190509b9a5050505050505050505050565b6000611da582611a24565b9150611db18284611798565b9150611dbc82611ad3565b915081905092915050565b6000611dd282611a47565b9150611ddd82611ab0565b9150611de98286611767565b9150611df48261185d565b9150611dff826118a3565b9150611e0a82611998565b9150611e168285611767565b9150611e218261185d565b9150611e2c82611a6a565b9150611e388284611767565b9150611e4382611af6565b9150611e4e826119bb565b9150819050949350505050565b6000611e6682611b19565b9150611e728284611767565b915081905092915050565b6000602082019050611e92600083018461171f565b92915050565b60006020820190508181036000830152611eb2818461172e565b905092915050565b60006020820190508181036000830152611ed38161183a565b9050919050565b60006020820190508181036000830152611ef3816119de565b9050919050565b6000602082019050611f0f6000830184611ba5565b92915050565b60008083356001602003843603038112611f2e57600080fd5b80840192508235915067ffffffffffffffff821115611f4c57600080fd5b602083019250602082023603831315611f6457600080fd5b509250929050565b60008083356001602003843603038112611f8557600080fd5b80840192508235915067ffffffffffffffff821115611fa357600080fd5b602083019250600182023603831315611fbb57600080fd5b509250929050565b60008190508160005260206000209050919050565b600081519050919050565b600082825260208201905092915050565b600081905092915050565b600061200a82612146565b915061201583612146565b9250827fffffffffffffffffffffffffffffffffffffffffffffffffffffffffffffffff0382111561204a5761204961222f565b5b828201905092915050565b600061206082612146565b915061206b83612146565b92508261207b5761207a61225e565b5b828204905092915050565b600061209182612146565b915061209c83612146565b9250817fffffffffffffffffffffffffffffffffffffffffffffffffffffffffffffffff04831182151516156120d5576120d461222f565b5b828202905092915050565b60006120eb82612146565b91506120f683612146565b9250828210156121095761210861222f565b5b828203905092915050565b600061211f82612126565b9050919050565b600073ffffffffffffffffffffffffffffffffffffffff82169050919050565b6000819050919050565b60005b8381101561216e578082015181840152602081019050612153565b8381111561217d576000848401525b50505050565b6000600282049050600182168061219b57607f821691505b602082108114156121af576121ae61228d565b5b50919050565b60006121c082612146565b91507fffffffffffffffffffffffffffffffffffffffffffffffffffffffffffffffff8214156121f3576121f261222f565b5b600182019050919050565b600061220982612146565b915061221483612146565b9250826122245761222361225e565b5b828206905092915050565b7f4e487b7100000000000000000000000000000000000000000000000000000000600052601160045260246000fd5b7f4e487b7100000000000000000000000000000000000000000000000000000000600052601260045260246000fd5b7f4e487b7100000000000000000000000000000000000000000000000000000000600052602260045260246000fd5b6000601f19601f8301169050919050565b7f3c7061746820643d224d3132203768317631682d317a6d33203068317631682d60008201527f317a222066696c6c3d2223666666222f3e000000000000000000000000000000602082015250565b7f4f776e61626c653a206e6577206f776e657220697320746865207a65726f206160008201527f6464726573730000000000000000000000000000000000000000000000000000602082015250565b7f222c000000000000000000000000000000000000000000000000000000000000600082015250565b7f3c7376672069643d27436f6d6d6f6e20536b696e202300000000000000000000600082015250565b7f226465736372697074696f6e223a2022436f6d6d6f6e20536b696e732061726560008201527f2072616e646f6d6c792067656e65726174656420616e6420686176652031303060208201527f25206f6e2d636861696e2061727420616e64206d65746164617461202d20557360408201527f65207468656d20617320796f75722053756d6d6f6e657220617070656172656e60608201527f6365732021222c00000000000000000000000000000000000000000000000000608082015250565b7f2274726169745f74797065223a20220000000000000000000000000000000000600082015250565b7f3c706174682066696c6c3d222300000000000000000000000000000000000000600082015250565b7f2220643d224d3136203131762d3168315639682d315635682d315634682d315660008201527f33682d347631483976314838763568317631683176344838763368327631483960208201527f7635683120352031762d31682d31762d356831762d316831762d32682d32762d60408201527f3468317a222f3e00000000000000000000000000000000000000000000000000606082015250565b7f3c672066696c6c3d222300000000000000000000000000000000000000000000600082015250565b7f2200000000000000000000000000000000000000000000000000000000000000600082015250565b7f3c67206f7061636974793d272e3233273e000000000000000000000000000000600082015250565b7f22696d616765223a2022646174613a696d6167652f7376672b786d6c3b62617360008201527f6536342c00000000000000000000000000000000000000000000000000000000602082015250565b7f7d00000000000000000000000000000000000000000000000000000000000000600082015250565b7f4f776e61626c653a2063616c6c6572206973206e6f7420746865206f776e6572600082015250565b7f3c2f673e00000000000000000000000000000000000000000000000000000000600082015250565b7f3c7061746820643d224d31352e3939203131762d3168315639682d315635682d60008201527f315634682d315633682d347631682d317631682d31763568317631683176326860208201527f2d312d312d317631203120316831763268327631682d3176356831203520317660408201527f2d31682d31762d356831762d316831762d32682d31762d312d31682d31762d3260608201527f68317a222066696c6c3d22230000000000000000000000000000000000000000608082015250565b7f7b00000000000000000000000000000000000000000000000000000000000000600082015250565b7f2261747472696275746573223a205b0000000000000000000000000000000000600082015250565b7f2276616c7565223a202200000000000000000000000000000000000000000000600082015250565b7f226e616d65223a2022436f6d6d6f6e20536b696e202300000000000000000000600082015250565b7f222f3e0000000000000000000000000000000000000000000000000000000000600082015250565b7f5d00000000000000000000000000000000000000000000000000000000000000600082015250565b7f646174613a6170706c69636174696f6e2f6a736f6e3b6261736536342c000000600082015250565b7f223e000000000000000000000000000000000000000000000000000000000000600082015250565b7f2720786d6c6e733d27687474703a2f2f7777772e77332e6f72672f323030302f60008201527f737667272076696577426f783d27302030203234203234273e00000000000000602082015250565b7f3c2f7376673e0000000000000000000000000000000000000000000000000000600082015250565b61293a81612114565b811461294557600080fd5b50565b61295181612146565b811461295c57600080fd5b5056fe4142434445464748494a4b4c4d4e4f505152535455565758595a6162636465666768696a6b6c6d6e6f707172737475767778797a303132333435363738392b2fa2646970667358221220ce837276bf782ef7f6dcfe2170adc7423fcf9d28b631db30fbe69e871aea7ce164736f6c63430008040033",
  "linkReferences": {},
  "deployedLinkReferences": {}
}