{
  "_format": "hh-sol-artifact-1",
  "contractName": "RaritySkinManagerFix",
  "sourceName": "contracts/alts/RaritySkinManagerFix.sol",
  "abi": [
    {
      "anonymous": false,
      "inputs": [
        {
          "indexed": true,
          "internalType": "address",
          "name": "previousOwner",
          "type": "address"
        },
        {
          "indexed": true,
          "internalType": "address",
          "name": "newOwner",
          "type": "address"
        }
      ],
      "name": "OwnershipTransferred",
      "type": "event"
    },
    {
      "anonymous": false,
      "inputs": [
        {
          "components": [
            {
              "internalType": "address",
              "name": "implementation",
              "type": "address"
            },
            {
              "internalType": "uint256",
              "name": "tokenId",
              "type": "uint256"
            }
          ],
          "indexed": false,
          "internalType": "struct RaritySkinManager.Skin",
          "name": "skin",
          "type": "tuple"
        },
        {
          "indexed": false,
          "internalType": "uint256",
          "name": "summoner",
          "type": "uint256"
        }
      ],
      "name": "SumonnerSkinAssigned",
      "type": "event"
    },
    {
      "inputs": [
        {
          "internalType": "address",
          "name": "implementation",
          "type": "address"
        },
        {
          "internalType": "uint256",
          "name": "tokenId",
          "type": "uint256"
        },
        {
          "internalType": "uint256",
          "name": "summonerId",
          "type": "uint256"
        }
      ],
      "name": "assignSkinToSummoner",
      "outputs": [],
      "stateMutability": "nonpayable",
      "type": "function"
    },
    {
      "inputs": [],
      "name": "isStrictOnSummonerClass",
      "outputs": [
        {
          "internalType": "bool",
          "name": "",
          "type": "bool"
        }
      ],
      "stateMutability": "view",
      "type": "function"
    },
    {
      "inputs": [],
      "name": "owner",
      "outputs": [
        {
          "internalType": "address",
          "name": "",
          "type": "address"
        }
      ],
      "stateMutability": "view",
      "type": "function"
    },
    {
      "inputs": [],
      "name": "renounceOwnership",
      "outputs": [],
      "stateMutability": "nonpayable",
      "type": "function"
    },
    {
      "inputs": [
        {
          "components": [
            {
              "internalType": "address",
              "name": "implementation",
              "type": "address"
            },
            {
              "internalType": "uint256",
              "name": "tokenId",
              "type": "uint256"
            }
          ],
          "internalType": "struct RaritySkinManager.Skin",
          "name": "skin",
          "type": "tuple"
        }
      ],
      "name": "skinKey",
      "outputs": [
        {
          "internalType": "bytes32",
          "name": "",
          "type": "bytes32"
        }
      ],
      "stateMutability": "pure",
      "type": "function"
    },
    {
      "inputs": [
        {
          "internalType": "uint256",
          "name": "summonerId",
          "type": "uint256"
        }
      ],
      "name": "skinOf",
      "outputs": [
        {
          "components": [
            {
              "internalType": "address",
              "name": "implementation",
              "type": "address"
            },
            {
              "internalType": "uint256",
              "name": "tokenId",
              "type": "uint256"
            }
          ],
          "internalType": "struct RaritySkinManager.Skin",
          "name": "",
          "type": "tuple"
        }
      ],
      "stateMutability": "view",
      "type": "function"
    },
    {
      "inputs": [
        {
          "internalType": "bytes32",
          "name": "_skinKey",
          "type": "bytes32"
        }
      ],
      "name": "summonerOf",
      "outputs": [
        {
          "internalType": "uint256",
          "name": "summonerId",
          "type": "uint256"
        }
      ],
      "stateMutability": "view",
      "type": "function"
    },
    {
      "inputs": [
        {
          "internalType": "address",
          "name": "newOwner",
          "type": "address"
        }
      ],
      "name": "transferOwnership",
      "outputs": [],
      "stateMutability": "nonpayable",
      "type": "function"
    },
    {
      "inputs": [
        {
          "internalType": "address",
          "name": "_impAddress",
          "type": "address"
        }
      ],
      "name": "trustImplementation",
      "outputs": [],
      "stateMutability": "nonpayable",
      "type": "function"
    },
    {
      "inputs": [
        {
          "internalType": "uint256",
          "name": "tokenId",
          "type": "uint256"
        },
        {
          "internalType": "uint256",
          "name": "summonerId",
          "type": "uint256"
        }
      ],
      "name": "trustedAssignSkinToSummoner",
      "outputs": [],
      "stateMutability": "nonpayable",
      "type": "function"
    }
  ],
  "bytecode": "0x608060405234801561001057600080fd5b5061002d61002261003260201b60201c565b61003a60201b60201c565b6100fe565b600033905090565b60008060009054906101000a900473ffffffffffffffffffffffffffffffffffffffff169050816000806101000a81548173ffffffffffffffffffffffffffffffffffffffff021916908373ffffffffffffffffffffffffffffffffffffffff1602179055508173ffffffffffffffffffffffffffffffffffffffff168173ffffffffffffffffffffffffffffffffffffffff167f8be0079c531659141344cd1fd0a4f28419497f9722a3daafe3b4186f6b6457e060405160405180910390a35050565b61233f806200010e6000396000f3fe608060405234801561001057600080fd5b506004361061009d5760003560e01c8063b03b256e11610066578063b03b256e14610146578063b8dbacf914610162578063c55b02f414610180578063f2fde38b146101b0578063f8588f16146101cc5761009d565b8062a7c6ee146100a25780632abb5c03146100be5780635d98f434146100ee578063715018a61461011e5780638da5cb5b14610128575b600080fd5b6100bc60048036038101906100b79190611bc4565b6101e8565b005b6100d860048036038101906100d39190611b72565b6106c9565b6040516100e59190611e95565b60405180910390f35b61010860048036038101906101039190611b49565b61095d565b6040516101159190611dba565b60405180910390f35b610126610a02565b005b610130610a8a565b60405161013d9190611d5b565b60405180910390f35b610160600480360381019061015b9190611a7f565b610ab3565b005b61016a611005565b6040516101779190611d9f565b60405180910390f35b61019a60048036038101906101959190611af7565b61100a565b6040516101a79190611ed9565b60405180910390f35b6101ca60048036038101906101c591906119f1565b6110e6565b005b6101e660048036038101906101e191906119f1565b6111de565b005b3382828273ffffffffffffffffffffffffffffffffffffffff1663b8dbacf96040518163ffffffff1660e01b8152600401602060405180830381600087803b15801561023357600080fd5b505af192505050801561026457506040513d601f19601f820116820180604052508101906102619190611ace565b60015b6104b857610270611fdc565b806308c379a0141561032d57506102856121f6565b8061029057506103e8565b600360003373ffffffffffffffffffffffffffffffffffffffff1673ffffffffffffffffffffffffffffffffffffffff16815260200190815260200160002060009054906101000a900460ff1661031c576040517f08c379a000000000000000000000000000000000000000000000000000000000815260040161031390611e55565b60405180910390fd5b6103273387876112b5565b506104b3565b634e487b7114156103e85761034061228c565b9061034b57506103e8565b600360003373ffffffffffffffffffffffffffffffffffffffff1673ffffffffffffffffffffffffffffffffffffffff16815260200190815260200160002060009054906101000a900460ff166103d7576040517f08c379a00000000000000000000000000000000000000000000000000000000081526004016103ce90611e55565b60405180910390fd5b6103e23387876112b5565b506104b3565b3d8060008114610414576040519150601f19603f3d011682016040523d82523d6000602084013e610419565b606091505b50600360003373ffffffffffffffffffffffffffffffffffffffff1673ffffffffffffffffffffffffffffffffffffffff16815260200190815260200160002060009054906101000a900460ff166104a6576040517f08c379a000000000000000000000000000000000000000000000000000000000815260040161049d90611e55565b60405180910390fd5b6104b13387876112b5565b505b6106c2565b8015610629578373ffffffffffffffffffffffffffffffffffffffff16633613a9f4846040518263ffffffff1660e01b81526004016104f79190611ed9565b602060405180830381600087803b15801561051157600080fd5b505af1158015610525573d6000803e3d6000fd5b505050506040513d601f19601f820116820180604052508101906105499190611b9b565b732a8ac1b2fcb475c7646f93b6e69930d1eb67c05373ffffffffffffffffffffffffffffffffffffffff16633613a9f4846040518263ffffffff1660e01b81526004016105969190611ed9565b602060405180830381600087803b1580156105b057600080fd5b505af11580156105c4573d6000803e3d6000fd5b505050506040513d601f19601f820116820180604052508101906105e89190611b9b565b14610628576040517f08c379a000000000000000000000000000000000000000000000000000000000815260040161061f90611e75565b60405180910390fd5b5b600360003373ffffffffffffffffffffffffffffffffffffffff1673ffffffffffffffffffffffffffffffffffffffff16815260200190815260200160002060009054906101000a900460ff166106b5576040517f08c379a00000000000000000000000000000000000000000000000000000000081526004016106ac90611e55565b60405180910390fd5b6106c03387876112b5565b505b5050505050565b6106d16118e2565b60008072d13f9f18da2b1368f88954b36e376bfa19c84d73ffffffffffffffffffffffffffffffffffffffff16632abb5c03856040518263ffffffff1660e01b81526004016107209190611ed9565b604080518083038186803b15801561073757600080fd5b505afa15801561074b573d6000803e3d6000fd5b505050506040513d601f19601f8201168201806040525081019061076f9190611a43565b915091506000600160008681526020019081526020016000206040518060400160405290816000820160009054906101000a900473ffffffffffffffffffffffffffffffffffffffff1673ffffffffffffffffffffffffffffffffffffffff1673ffffffffffffffffffffffffffffffffffffffff168152602001600182015481525050905061dead73ffffffffffffffffffffffffffffffffffffffff16816000015173ffffffffffffffffffffffffffffffffffffffff161415610866576040518060400160405280600073ffffffffffffffffffffffffffffffffffffffff16815260200160008152509350505050610958565b600073ffffffffffffffffffffffffffffffffffffffff16816000015173ffffffffffffffffffffffffffffffffffffffff1614156108d45760405180604001604052808473ffffffffffffffffffffffffffffffffffffffff168152602001838152509350505050610958565b600160008681526020019081526020016000206040518060400160405290816000820160009054906101000a900473ffffffffffffffffffffffffffffffffffffffff1673ffffffffffffffffffffffffffffffffffffffff1673ffffffffffffffffffffffffffffffffffffffff16815260200160018201548152505093505050505b919050565b600072d13f9f18da2b1368f88954b36e376bfa19c84d73ffffffffffffffffffffffffffffffffffffffff16635d98f434836040518263ffffffff1660e01b81526004016109ab9190611e95565b60206040518083038186803b1580156109c357600080fd5b505afa1580156109d7573d6000803e3d6000fd5b505050506040513d601f19601f820116820180604052508101906109fb9190611b20565b9050919050565b610a0a6115f9565b73ffffffffffffffffffffffffffffffffffffffff16610a28610a8a565b73ffffffffffffffffffffffffffffffffffffffff1614610a7e576040517f08c379a0000000000000000000000000000000000000000000000000000000008152600401610a7590611e35565b60405180910390fd5b610a886000611601565b565b60008060009054906101000a900473ffffffffffffffffffffffffffffffffffffffff16905090565b8282828273ffffffffffffffffffffffffffffffffffffffff1663b8dbacf96040518163ffffffff1660e01b8152600401602060405180830381600087803b158015610afe57600080fd5b505af1925050508015610b2f57506040513d601f19601f82011682018060405250810190610b2c9190611ace565b60015b610dd757610b3b611fdc565b806308c379a01415610c145750610b506121f6565b80610b5b5750610ceb565b610b668733886116c5565b610ba5576040517f08c379a0000000000000000000000000000000000000000000000000000000008152600401610b9c90611df5565b60405180910390fd5b610bc4732a8ac1b2fcb475c7646f93b6e69930d1eb67c05333876116c5565b610c03576040517f08c379a0000000000000000000000000000000000000000000000000000000008152600401610bfa90611dd5565b60405180910390fd5b610c0e8787876112b5565b50610dd2565b634e487b711415610ceb57610c2761228c565b90610c325750610ceb565b610c3d8733886116c5565b610c7c576040517f08c379a0000000000000000000000000000000000000000000000000000000008152600401610c7390611df5565b60405180910390fd5b610c9b732a8ac1b2fcb475c7646f93b6e69930d1eb67c05333876116c5565b610cda576040517f08c379a0000000000000000000000000000000000000000000000000000000008152600401610cd190611dd5565b60405180910390fd5b610ce58787876112b5565b50610dd2565b3d8060008114610d17576040519150601f19603f3d011682016040523d82523d6000602084013e610d1c565b606091505b50610d288733886116c5565b610d67576040517f08c379a0000000000000000000000000000000000000000000000000000000008152600401610d5e90611df5565b60405180910390fd5b610d86732a8ac1b2fcb475c7646f93b6e69930d1eb67c05333876116c5565b610dc5576040517f08c379a0000000000000000000000000000000000000000000000000000000008152600401610dbc90611dd5565b60405180910390fd5b610dd08787876112b5565b505b610ffd565b8015610f48578373ffffffffffffffffffffffffffffffffffffffff16633613a9f4846040518263ffffffff1660e01b8152600401610e169190611ed9565b602060405180830381600087803b158015610e3057600080fd5b505af1158015610e44573d6000803e3d6000fd5b505050506040513d601f19601f82011682018060405250810190610e689190611b9b565b732a8ac1b2fcb475c7646f93b6e69930d1eb67c05373ffffffffffffffffffffffffffffffffffffffff16633613a9f4846040518263ffffffff1660e01b8152600401610eb59190611ed9565b602060405180830381600087803b158015610ecf57600080fd5b505af1158015610ee3573d6000803e3d6000fd5b505050506040513d601f19601f82011682018060405250810190610f079190611b9b565b14610f47576040517f08c379a0000000000000000000000000000000000000000000000000000000008152600401610f3e90611e75565b60405180910390fd5b5b610f538733886116c5565b610f92576040517f08c379a0000000000000000000000000000000000000000000000000000000008152600401610f8990611df5565b60405180910390fd5b610fb1732a8ac1b2fcb475c7646f93b6e69930d1eb67c05333876116c5565b610ff0576040517f08c379a0000000000000000000000000000000000000000000000000000000008152600401610fe790611dd5565b60405180910390fd5b610ffb8787876112b5565b505b505050505050565b600181565b600080600260008481526020019081526020016000205414156110ca5772d13f9f18da2b1368f88954b36e376bfa19c84d73ffffffffffffffffffffffffffffffffffffffff1663c55b02f4836040518263ffffffff1660e01b81526004016110739190611dba565b60206040518083038186803b15801561108b57600080fd5b505afa15801561109f573d6000803e3d6000fd5b505050506040513d601f19601f820116820180604052508101906110c39190611b9b565b90506110e1565b600260008381526020019081526020016000205490505b919050565b6110ee6115f9565b73ffffffffffffffffffffffffffffffffffffffff1661110c610a8a565b73ffffffffffffffffffffffffffffffffffffffff1614611162576040517f08c379a000000000000000000000000000000000000000000000000000000000815260040161115990611e35565b60405180910390fd5b600073ffffffffffffffffffffffffffffffffffffffff168173ffffffffffffffffffffffffffffffffffffffff1614156111d2576040517f08c379a00000000000000000000000000000000000000000000000000000000081526004016111c990611e15565b60405180910390fd5b6111db81611601565b50565b6111e66115f9565b73ffffffffffffffffffffffffffffffffffffffff16611204610a8a565b73ffffffffffffffffffffffffffffffffffffffff161461125a576040517f08c379a000000000000000000000000000000000000000000000000000000000815260040161125190611e35565b60405180910390fd5b6001600360008373ffffffffffffffffffffffffffffffffffffffff1673ffffffffffffffffffffffffffffffffffffffff16815260200190815260200160002060006101000a81548160ff02191690831515021790555050565b604051806040016040528061dead73ffffffffffffffffffffffffffffffffffffffff1681526020016000815250600160006002600072d13f9f18da2b1368f88954b36e376bfa19c84d73ffffffffffffffffffffffffffffffffffffffff16635d98f43460405180604001604052808b73ffffffffffffffffffffffffffffffffffffffff1681526020018a8152506040518263ffffffff1660e01b81526004016113619190611e95565b60206040518083038186803b15801561137957600080fd5b505afa15801561138d573d6000803e3d6000fd5b505050506040513d601f19601f820116820180604052508101906113b19190611b20565b815260200190815260200160002054815260200190815260200160002060008201518160000160006101000a81548173ffffffffffffffffffffffffffffffffffffffff021916908373ffffffffffffffffffffffffffffffffffffffff16021790555060208201518160010155905050806002600072d13f9f18da2b1368f88954b36e376bfa19c84d73ffffffffffffffffffffffffffffffffffffffff16635d98f43460405180604001604052808973ffffffffffffffffffffffffffffffffffffffff168152602001888152506040518263ffffffff1660e01b815260040161149d9190611e95565b60206040518083038186803b1580156114b557600080fd5b505afa1580156114c9573d6000803e3d6000fd5b505050506040513d601f19601f820116820180604052508101906114ed9190611b20565b81526020019081526020016000208190555060405180604001604052808473ffffffffffffffffffffffffffffffffffffffff168152602001838152506001600083815260200190815260200160002060008201518160000160006101000a81548173ffffffffffffffffffffffffffffffffffffffff021916908373ffffffffffffffffffffffffffffffffffffffff160217905550602082015181600101559050507f91dd75ea262c69e401a2c0fef76c62376c182a4fb4dc1e1c0f320420fccdbc0260405180604001604052808573ffffffffffffffffffffffffffffffffffffffff16815260200184815250826040516115ec929190611eb0565b60405180910390a1505050565b600033905090565b60008060009054906101000a900473ffffffffffffffffffffffffffffffffffffffff169050816000806101000a81548173ffffffffffffffffffffffffffffffffffffffff021916908373ffffffffffffffffffffffffffffffffffffffff1602179055508173ffffffffffffffffffffffffffffffffffffffff168173ffffffffffffffffffffffffffffffffffffffff167f8be0079c531659141344cd1fd0a4f28419497f9722a3daafe3b4186f6b6457e060405160405180910390a35050565b60008084905060008173ffffffffffffffffffffffffffffffffffffffff16636352211e856040518263ffffffff1660e01b81526004016117069190611ed9565b60206040518083038186803b15801561171e57600080fd5b505afa158015611732573d6000803e3d6000fd5b505050506040513d601f19601f820116820180604052508101906117569190611a1a565b90508073ffffffffffffffffffffffffffffffffffffffff168573ffffffffffffffffffffffffffffffffffffffff16148061184557508473ffffffffffffffffffffffffffffffffffffffff168273ffffffffffffffffffffffffffffffffffffffff1663081812fc866040518263ffffffff1660e01b81526004016117dd9190611ed9565b60206040518083038186803b1580156117f557600080fd5b505afa158015611809573d6000803e3d6000fd5b505050506040513d601f19601f8201168201806040525081019061182d9190611a1a565b73ffffffffffffffffffffffffffffffffffffffff16145b806118d757508173ffffffffffffffffffffffffffffffffffffffff1663e985e9c582876040518363ffffffff1660e01b8152600401611886929190611d76565b60206040518083038186803b15801561189e57600080fd5b505afa1580156118b2573d6000803e3d6000fd5b505050506040513d601f19601f820116820180604052508101906118d69190611ace565b5b925050509392505050565b6040518060400160405280600073ffffffffffffffffffffffffffffffffffffffff168152602001600081525090565b600081359050611921816122ad565b92915050565b600081519050611936816122ad565b92915050565b60008151905061194b816122c4565b92915050565b600081359050611960816122db565b92915050565b600081519050611975816122db565b92915050565b60006040828403121561198d57600080fd5b6119976040611ef4565b905060006119a784828501611912565b60008301525060206119bb848285016119c7565b60208301525092915050565b6000813590506119d6816122f2565b92915050565b6000815190506119eb816122f2565b92915050565b600060208284031215611a0357600080fd5b6000611a1184828501611912565b91505092915050565b600060208284031215611a2c57600080fd5b6000611a3a84828501611927565b91505092915050565b60008060408385031215611a5657600080fd5b6000611a6485828601611927565b9250506020611a75858286016119dc565b9150509250929050565b600080600060608486031215611a9457600080fd5b6000611aa286828701611912565b9350506020611ab3868287016119c7565b9250506040611ac4868287016119c7565b9150509250925092565b600060208284031215611ae057600080fd5b6000611aee8482850161193c565b91505092915050565b600060208284031215611b0957600080fd5b6000611b1784828501611951565b91505092915050565b600060208284031215611b3257600080fd5b6000611b4084828501611966565b91505092915050565b600060408284031215611b5b57600080fd5b6000611b698482850161197b565b91505092915050565b600060208284031215611b8457600080fd5b6000611b92848285016119c7565b91505092915050565b600060208284031215611bad57600080fd5b6000611bbb848285016119dc565b91505092915050565b60008060408385031215611bd757600080fd5b6000611be5858286016119c7565b9250506020611bf6858286016119c7565b9150509250929050565b611c0981611f2a565b82525050565b611c1881611f2a565b82525050565b611c2781611f3c565b82525050565b611c3681611f48565b82525050565b6000611c49602f83611f19565b9150611c548261201c565b604082019050919050565b6000611c6c602c83611f19565b9150611c778261206b565b604082019050919050565b6000611c8f602683611f19565b9150611c9a826120ba565b604082019050919050565b6000611cb2602083611f19565b9150611cbd82612109565b602082019050919050565b6000611cd5604683611f19565b9150611ce082612132565b606082019050919050565b6000611cf8602b83611f19565b9150611d03826121a7565b604082019050919050565b604082016000820151611d246000850182611c00565b506020820151611d376020850182611d3d565b50505050565b611d4681611f72565b82525050565b611d5581611f72565b82525050565b6000602082019050611d706000830184611c0f565b92915050565b6000604082019050611d8b6000830185611c0f565b611d986020830184611c0f565b9392505050565b6000602082019050611db46000830184611c1e565b92915050565b6000602082019050611dcf6000830184611c2d565b92915050565b60006020820190508181036000830152611dee81611c3c565b9050919050565b60006020820190508181036000830152611e0e81611c5f565b9050919050565b60006020820190508181036000830152611e2e81611c82565b9050919050565b60006020820190508181036000830152611e4e81611ca5565b9050919050565b60006020820190508181036000830152611e6e81611cc8565b9050919050565b60006020820190508181036000830152611e8e81611ceb565b9050919050565b6000604082019050611eaa6000830184611d0e565b92915050565b6000606082019050611ec56000830185611d0e565b611ed26040830184611d4c565b9392505050565b6000602082019050611eee6000830184611d4c565b92915050565b6000611efe611f0f565b9050611f0a8282611f7c565b919050565b6000604051905090565b600082825260208201905092915050565b6000611f3582611f52565b9050919050565b60008115159050919050565b6000819050919050565b600073ffffffffffffffffffffffffffffffffffffffff82169050919050565b6000819050919050565b611f8582611ffe565b810181811067ffffffffffffffff82111715611fa457611fa3611fad565b5b80604052505050565b7f4e487b7100000000000000000000000000000000000000000000000000000000600052604160045260246000fd5b600060033d1115611ffb5760046000803e611ff860005161200f565b90505b90565b6000601f19601f8301169050919050565b60008160e01c9050919050565b7f596f75206d757374206265206f776e6572206f7220617070726f76656420666f60008201527f7220746869732073756d6d6f6e65720000000000000000000000000000000000602082015250565b7f596f75206d757374206265206f776e6572206f7220617070726f76656420666f60008201527f72207468697320746f6b656e0000000000000000000000000000000000000000602082015250565b7f4f776e61626c653a206e6577206f776e657220697320746865207a65726f206160008201527f6464726573730000000000000000000000000000000000000000000000000000602082015250565b7f4f776e61626c653a2063616c6c6572206973206e6f7420746865206f776e6572600082015250565b7f4f6e6c7920747275737465642045524337323120696d706c656d656e7461746960008201527f6f6e732063616e20616363657373207468697320776179206f6620617373696760208201527f6e6174696f6e0000000000000000000000000000000000000000000000000000604082015250565b7f53756d6d6f6e657220616e6420736b696e206d757374206265206f662074686560008201527f2073616d6520636c617373000000000000000000000000000000000000000000602082015250565b600060443d101561220657612289565b61220e611f0f565b60043d036004823e80513d602482011167ffffffffffffffff82111715612236575050612289565b808201805167ffffffffffffffff8111156122545750505050612289565b80602083010160043d038501811115612271575050505050612289565b61228082602001850186611f7c565b82955050505050505b90565b60008060233d11156122a9576020600460003e6001915060005190505b9091565b6122b681611f2a565b81146122c157600080fd5b50565b6122cd81611f3c565b81146122d857600080fd5b50565b6122e481611f48565b81146122ef57600080fd5b50565b6122fb81611f72565b811461230657600080fd5b5056fea26469706673582212208dff6d9c3f405b33adca6de28565e8004b12aecf7fba23fd7653bc469335656764736f6c63430008040033",
  "linkReferences": {},
  "deployedLinkReferences": {}
}