{
  "_format": "hh-sol-artifact-1",
  "contractName": "RaritySkinManagerFix",
  "sourceName": "contracts/alts/RaritySkinManagerFix.sol",
  "abi": [
    {
      "anonymous": false,
      "inputs": [
        {
          "indexed": true,
          "internalType": "address",
          "name": "previousOwner",
          "type": "address"
        },
        {
          "indexed": true,
          "internalType": "address",
          "name": "newOwner",
          "type": "address"
        }
      ],
      "name": "OwnershipTransferred",
      "type": "event"
    },
    {
      "anonymous": false,
      "inputs": [
        {
          "components": [
            {
              "internalType": "address",
              "name": "implementation",
              "type": "address"
            },
            {
              "internalType": "uint256",
              "name": "tokenId",
              "type": "uint256"
            }
          ],
          "indexed": false,
          "internalType": "struct RaritySkinManager.Skin",
          "name": "skin",
          "type": "tuple"
        },
        {
          "indexed": false,
          "internalType": "uint256",
          "name": "summoner",
          "type": "uint256"
        }
      ],
      "name": "SumonnerSkinAssigned",
      "type": "event"
    },
    {
      "inputs": [
        {
          "internalType": "address",
          "name": "implementation",
          "type": "address"
        },
        {
          "internalType": "uint256",
          "name": "tokenId",
          "type": "uint256"
        },
        {
          "internalType": "uint256",
          "name": "summonerId",
          "type": "uint256"
        }
      ],
      "name": "assignSkinToSummoner",
      "outputs": [],
      "stateMutability": "nonpayable",
      "type": "function"
    },
    {
      "inputs": [],
      "name": "isStrictOnSummonerClass",
      "outputs": [
        {
          "internalType": "bool",
          "name": "",
          "type": "bool"
        }
      ],
      "stateMutability": "view",
      "type": "function"
    },
    {
      "inputs": [],
      "name": "owner",
      "outputs": [
        {
          "internalType": "address",
          "name": "",
          "type": "address"
        }
      ],
      "stateMutability": "view",
      "type": "function"
    },
    {
      "inputs": [],
      "name": "renounceOwnership",
      "outputs": [],
      "stateMutability": "nonpayable",
      "type": "function"
    },
    {
      "inputs": [
        {
          "components": [
            {
              "internalType": "address",
              "name": "implementation",
              "type": "address"
            },
            {
              "internalType": "uint256",
              "name": "tokenId",
              "type": "uint256"
            }
          ],
          "internalType": "struct RaritySkinManager.Skin",
          "name": "skin",
          "type": "tuple"
        }
      ],
      "name": "skinKey",
      "outputs": [
        {
          "internalType": "bytes32",
          "name": "",
          "type": "bytes32"
        }
      ],
      "stateMutability": "pure",
      "type": "function"
    },
    {
      "inputs": [
        {
          "internalType": "uint256",
          "name": "summonerId",
          "type": "uint256"
        }
      ],
      "name": "skinOf",
      "outputs": [
        {
          "components": [
            {
              "internalType": "address",
              "name": "implementation",
              "type": "address"
            },
            {
              "internalType": "uint256",
              "name": "tokenId",
              "type": "uint256"
            }
          ],
          "internalType": "struct RaritySkinManager.Skin",
          "name": "",
          "type": "tuple"
        }
      ],
      "stateMutability": "view",
      "type": "function"
    },
    {
      "inputs": [
        {
          "internalType": "bytes32",
          "name": "_skinKey",
          "type": "bytes32"
        }
      ],
      "name": "summonerOf",
      "outputs": [
        {
          "internalType": "uint256",
          "name": "summonerId",
          "type": "uint256"
        }
      ],
      "stateMutability": "view",
      "type": "function"
    },
    {
      "inputs": [
        {
          "internalType": "address",
          "name": "newOwner",
          "type": "address"
        }
      ],
      "name": "transferOwnership",
      "outputs": [],
      "stateMutability": "nonpayable",
      "type": "function"
    },
    {
      "inputs": [
        {
          "internalType": "address",
          "name": "_impAddress",
          "type": "address"
        }
      ],
      "name": "trustImplementation",
      "outputs": [],
      "stateMutability": "nonpayable",
      "type": "function"
    },
    {
      "inputs": [
        {
          "internalType": "uint256",
          "name": "tokenId",
          "type": "uint256"
        },
        {
          "internalType": "uint256",
          "name": "summonerId",
          "type": "uint256"
        }
      ],
      "name": "trustedAssignSkinToSummoner",
      "outputs": [],
      "stateMutability": "nonpayable",
      "type": "function"
    }
  ],
  "bytecode": "0x608060405234801561001057600080fd5b5061002d61002261003260201b60201c565b61003a60201b60201c565b6100fe565b600033905090565b60008060009054906101000a900473ffffffffffffffffffffffffffffffffffffffff169050816000806101000a81548173ffffffffffffffffffffffffffffffffffffffff021916908373ffffffffffffffffffffffffffffffffffffffff1602179055508173ffffffffffffffffffffffffffffffffffffffff168173ffffffffffffffffffffffffffffffffffffffff167f8be0079c531659141344cd1fd0a4f28419497f9722a3daafe3b4186f6b6457e060405160405180910390a35050565b612344806200010e6000396000f3fe608060405234801561001057600080fd5b506004361061009d5760003560e01c8063b03b256e11610066578063b03b256e14610146578063b8dbacf914610162578063c55b02f414610180578063f2fde38b146101b0578063f8588f16146101cc5761009d565b8062a7c6ee146100a25780632abb5c03146100be5780635d98f434146100ee578063715018a61461011e5780638da5cb5b14610128575b600080fd5b6100bc60048036038101906100b79190611bc9565b6101e8565b005b6100d860048036038101906100d39190611b77565b6106c9565b6040516100e59190611e9a565b60405180910390f35b61010860048036038101906101039190611b4e565b61095e565b6040516101159190611dbf565b60405180910390f35b610126610a04565b005b610130610a8c565b60405161013d9190611d60565b60405180910390f35b610160600480360381019061015b9190611a84565b610ab5565b005b61016a611007565b6040516101779190611da4565b60405180910390f35b61019a60048036038101906101959190611afc565b61100c565b6040516101a79190611ede565b60405180910390f35b6101ca60048036038101906101c591906119f6565b6110e9565b005b6101e660048036038101906101e191906119f6565b6111e1565b005b3382828273ffffffffffffffffffffffffffffffffffffffff1663b8dbacf96040518163ffffffff1660e01b8152600401602060405180830381600087803b15801561023357600080fd5b505af192505050801561026457506040513d601f19601f820116820180604052508101906102619190611ad3565b60015b6104b857610270611fe1565b806308c379a0141561032d57506102856121fb565b8061029057506103e8565b600360003373ffffffffffffffffffffffffffffffffffffffff1673ffffffffffffffffffffffffffffffffffffffff16815260200190815260200160002060009054906101000a900460ff1661031c576040517f08c379a000000000000000000000000000000000000000000000000000000000815260040161031390611e5a565b60405180910390fd5b6103273387876112b8565b506104b3565b634e487b7114156103e857610340612291565b9061034b57506103e8565b600360003373ffffffffffffffffffffffffffffffffffffffff1673ffffffffffffffffffffffffffffffffffffffff16815260200190815260200160002060009054906101000a900460ff166103d7576040517f08c379a00000000000000000000000000000000000000000000000000000000081526004016103ce90611e5a565b60405180910390fd5b6103e23387876112b8565b506104b3565b3d8060008114610414576040519150601f19603f3d011682016040523d82523d6000602084013e610419565b606091505b50600360003373ffffffffffffffffffffffffffffffffffffffff1673ffffffffffffffffffffffffffffffffffffffff16815260200190815260200160002060009054906101000a900460ff166104a6576040517f08c379a000000000000000000000000000000000000000000000000000000000815260040161049d90611e5a565b60405180910390fd5b6104b13387876112b8565b505b6106c2565b8015610629578373ffffffffffffffffffffffffffffffffffffffff16633613a9f4846040518263ffffffff1660e01b81526004016104f79190611ede565b602060405180830381600087803b15801561051157600080fd5b505af1158015610525573d6000803e3d6000fd5b505050506040513d601f19601f820116820180604052508101906105499190611ba0565b73ce761d788df608bd21bdd59d6f4b54b2e27f25bb73ffffffffffffffffffffffffffffffffffffffff16633613a9f4846040518263ffffffff1660e01b81526004016105969190611ede565b602060405180830381600087803b1580156105b057600080fd5b505af11580156105c4573d6000803e3d6000fd5b505050506040513d601f19601f820116820180604052508101906105e89190611ba0565b14610628576040517f08c379a000000000000000000000000000000000000000000000000000000000815260040161061f90611e7a565b60405180910390fd5b5b600360003373ffffffffffffffffffffffffffffffffffffffff1673ffffffffffffffffffffffffffffffffffffffff16815260200190815260200160002060009054906101000a900460ff166106b5576040517f08c379a00000000000000000000000000000000000000000000000000000000081526004016106ac90611e5a565b60405180910390fd5b6106c03387876112b8565b505b5050505050565b6106d16118e7565b60008073d1447fe5e70d58204946d61224643738ba54f5cc73ffffffffffffffffffffffffffffffffffffffff16632abb5c03856040518263ffffffff1660e01b81526004016107219190611ede565b604080518083038186803b15801561073857600080fd5b505afa15801561074c573d6000803e3d6000fd5b505050506040513d601f19601f820116820180604052508101906107709190611a48565b915091506000600160008681526020019081526020016000206040518060400160405290816000820160009054906101000a900473ffffffffffffffffffffffffffffffffffffffff1673ffffffffffffffffffffffffffffffffffffffff1673ffffffffffffffffffffffffffffffffffffffff168152602001600182015481525050905061dead73ffffffffffffffffffffffffffffffffffffffff16816000015173ffffffffffffffffffffffffffffffffffffffff161415610867576040518060400160405280600073ffffffffffffffffffffffffffffffffffffffff16815260200160008152509350505050610959565b600073ffffffffffffffffffffffffffffffffffffffff16816000015173ffffffffffffffffffffffffffffffffffffffff1614156108d55760405180604001604052808473ffffffffffffffffffffffffffffffffffffffff168152602001838152509350505050610959565b600160008681526020019081526020016000206040518060400160405290816000820160009054906101000a900473ffffffffffffffffffffffffffffffffffffffff1673ffffffffffffffffffffffffffffffffffffffff1673ffffffffffffffffffffffffffffffffffffffff16815260200160018201548152505093505050505b919050565b600073d1447fe5e70d58204946d61224643738ba54f5cc73ffffffffffffffffffffffffffffffffffffffff16635d98f434836040518263ffffffff1660e01b81526004016109ad9190611e9a565b60206040518083038186803b1580156109c557600080fd5b505afa1580156109d9573d6000803e3d6000fd5b505050506040513d601f19601f820116820180604052508101906109fd9190611b25565b9050919050565b610a0c6115fe565b73ffffffffffffffffffffffffffffffffffffffff16610a2a610a8c565b73ffffffffffffffffffffffffffffffffffffffff1614610a80576040517f08c379a0000000000000000000000000000000000000000000000000000000008152600401610a7790611e3a565b60405180910390fd5b610a8a6000611606565b565b60008060009054906101000a900473ffffffffffffffffffffffffffffffffffffffff16905090565b8282828273ffffffffffffffffffffffffffffffffffffffff1663b8dbacf96040518163ffffffff1660e01b8152600401602060405180830381600087803b158015610b0057600080fd5b505af1925050508015610b3157506040513d601f19601f82011682018060405250810190610b2e9190611ad3565b60015b610dd957610b3d611fe1565b806308c379a01415610c165750610b526121fb565b80610b5d5750610ced565b610b688733886116ca565b610ba7576040517f08c379a0000000000000000000000000000000000000000000000000000000008152600401610b9e90611dfa565b60405180910390fd5b610bc673ce761d788df608bd21bdd59d6f4b54b2e27f25bb33876116ca565b610c05576040517f08c379a0000000000000000000000000000000000000000000000000000000008152600401610bfc90611dda565b60405180910390fd5b610c108787876112b8565b50610dd4565b634e487b711415610ced57610c29612291565b90610c345750610ced565b610c3f8733886116ca565b610c7e576040517f08c379a0000000000000000000000000000000000000000000000000000000008152600401610c7590611dfa565b60405180910390fd5b610c9d73ce761d788df608bd21bdd59d6f4b54b2e27f25bb33876116ca565b610cdc576040517f08c379a0000000000000000000000000000000000000000000000000000000008152600401610cd390611dda565b60405180910390fd5b610ce78787876112b8565b50610dd4565b3d8060008114610d19576040519150601f19603f3d011682016040523d82523d6000602084013e610d1e565b606091505b50610d2a8733886116ca565b610d69576040517f08c379a0000000000000000000000000000000000000000000000000000000008152600401610d6090611dfa565b60405180910390fd5b610d8873ce761d788df608bd21bdd59d6f4b54b2e27f25bb33876116ca565b610dc7576040517f08c379a0000000000000000000000000000000000000000000000000000000008152600401610dbe90611dda565b60405180910390fd5b610dd28787876112b8565b505b610fff565b8015610f4a578373ffffffffffffffffffffffffffffffffffffffff16633613a9f4846040518263ffffffff1660e01b8152600401610e189190611ede565b602060405180830381600087803b158015610e3257600080fd5b505af1158015610e46573d6000803e3d6000fd5b505050506040513d601f19601f82011682018060405250810190610e6a9190611ba0565b73ce761d788df608bd21bdd59d6f4b54b2e27f25bb73ffffffffffffffffffffffffffffffffffffffff16633613a9f4846040518263ffffffff1660e01b8152600401610eb79190611ede565b602060405180830381600087803b158015610ed157600080fd5b505af1158015610ee5573d6000803e3d6000fd5b505050506040513d601f19601f82011682018060405250810190610f099190611ba0565b14610f49576040517f08c379a0000000000000000000000000000000000000000000000000000000008152600401610f4090611e7a565b60405180910390fd5b5b610f558733886116ca565b610f94576040517f08c379a0000000000000000000000000000000000000000000000000000000008152600401610f8b90611dfa565b60405180910390fd5b610fb373ce761d788df608bd21bdd59d6f4b54b2e27f25bb33876116ca565b610ff2576040517f08c379a0000000000000000000000000000000000000000000000000000000008152600401610fe990611dda565b60405180910390fd5b610ffd8787876112b8565b505b505050505050565b600181565b600080600260008481526020019081526020016000205414156110cd5773d1447fe5e70d58204946d61224643738ba54f5cc73ffffffffffffffffffffffffffffffffffffffff1663c55b02f4836040518263ffffffff1660e01b81526004016110769190611dbf565b60206040518083038186803b15801561108e57600080fd5b505afa1580156110a2573d6000803e3d6000fd5b505050506040513d601f19601f820116820180604052508101906110c69190611ba0565b90506110e4565b600260008381526020019081526020016000205490505b919050565b6110f16115fe565b73ffffffffffffffffffffffffffffffffffffffff1661110f610a8c565b73ffffffffffffffffffffffffffffffffffffffff1614611165576040517f08c379a000000000000000000000000000000000000000000000000000000000815260040161115c90611e3a565b60405180910390fd5b600073ffffffffffffffffffffffffffffffffffffffff168173ffffffffffffffffffffffffffffffffffffffff1614156111d5576040517f08c379a00000000000000000000000000000000000000000000000000000000081526004016111cc90611e1a565b60405180910390fd5b6111de81611606565b50565b6111e96115fe565b73ffffffffffffffffffffffffffffffffffffffff16611207610a8c565b73ffffffffffffffffffffffffffffffffffffffff161461125d576040517f08c379a000000000000000000000000000000000000000000000000000000000815260040161125490611e3a565b60405180910390fd5b6001600360008373ffffffffffffffffffffffffffffffffffffffff1673ffffffffffffffffffffffffffffffffffffffff16815260200190815260200160002060006101000a81548160ff02191690831515021790555050565b604051806040016040528061dead73ffffffffffffffffffffffffffffffffffffffff1681526020016000815250600160006002600073d1447fe5e70d58204946d61224643738ba54f5cc73ffffffffffffffffffffffffffffffffffffffff16635d98f43460405180604001604052808b73ffffffffffffffffffffffffffffffffffffffff1681526020018a8152506040518263ffffffff1660e01b81526004016113659190611e9a565b60206040518083038186803b15801561137d57600080fd5b505afa158015611391573d6000803e3d6000fd5b505050506040513d601f19601f820116820180604052508101906113b59190611b25565b815260200190815260200160002054815260200190815260200160002060008201518160000160006101000a81548173ffffffffffffffffffffffffffffffffffffffff021916908373ffffffffffffffffffffffffffffffffffffffff16021790555060208201518160010155905050806002600073d1447fe5e70d58204946d61224643738ba54f5cc73ffffffffffffffffffffffffffffffffffffffff16635d98f43460405180604001604052808973ffffffffffffffffffffffffffffffffffffffff168152602001888152506040518263ffffffff1660e01b81526004016114a29190611e9a565b60206040518083038186803b1580156114ba57600080fd5b505afa1580156114ce573d6000803e3d6000fd5b505050506040513d601f19601f820116820180604052508101906114f29190611b25565b81526020019081526020016000208190555060405180604001604052808473ffffffffffffffffffffffffffffffffffffffff168152602001838152506001600083815260200190815260200160002060008201518160000160006101000a81548173ffffffffffffffffffffffffffffffffffffffff021916908373ffffffffffffffffffffffffffffffffffffffff160217905550602082015181600101559050507f91dd75ea262c69e401a2c0fef76c62376c182a4fb4dc1e1c0f320420fccdbc0260405180604001604052808573ffffffffffffffffffffffffffffffffffffffff16815260200184815250826040516115f1929190611eb5565b60405180910390a1505050565b600033905090565b60008060009054906101000a900473ffffffffffffffffffffffffffffffffffffffff169050816000806101000a81548173ffffffffffffffffffffffffffffffffffffffff021916908373ffffffffffffffffffffffffffffffffffffffff1602179055508173ffffffffffffffffffffffffffffffffffffffff168173ffffffffffffffffffffffffffffffffffffffff167f8be0079c531659141344cd1fd0a4f28419497f9722a3daafe3b4186f6b6457e060405160405180910390a35050565b60008084905060008173ffffffffffffffffffffffffffffffffffffffff16636352211e856040518263ffffffff1660e01b815260040161170b9190611ede565b60206040518083038186803b15801561172357600080fd5b505afa158015611737573d6000803e3d6000fd5b505050506040513d601f19601f8201168201806040525081019061175b9190611a1f565b90508073ffffffffffffffffffffffffffffffffffffffff168573ffffffffffffffffffffffffffffffffffffffff16148061184a57508473ffffffffffffffffffffffffffffffffffffffff168273ffffffffffffffffffffffffffffffffffffffff1663081812fc866040518263ffffffff1660e01b81526004016117e29190611ede565b60206040518083038186803b1580156117fa57600080fd5b505afa15801561180e573d6000803e3d6000fd5b505050506040513d601f19601f820116820180604052508101906118329190611a1f565b73ffffffffffffffffffffffffffffffffffffffff16145b806118dc57508173ffffffffffffffffffffffffffffffffffffffff1663e985e9c582876040518363ffffffff1660e01b815260040161188b929190611d7b565b60206040518083038186803b1580156118a357600080fd5b505afa1580156118b7573d6000803e3d6000fd5b505050506040513d601f19601f820116820180604052508101906118db9190611ad3565b5b925050509392505050565b6040518060400160405280600073ffffffffffffffffffffffffffffffffffffffff168152602001600081525090565b600081359050611926816122b2565b92915050565b60008151905061193b816122b2565b92915050565b600081519050611950816122c9565b92915050565b600081359050611965816122e0565b92915050565b60008151905061197a816122e0565b92915050565b60006040828403121561199257600080fd5b61199c6040611ef9565b905060006119ac84828501611917565b60008301525060206119c0848285016119cc565b60208301525092915050565b6000813590506119db816122f7565b92915050565b6000815190506119f0816122f7565b92915050565b600060208284031215611a0857600080fd5b6000611a1684828501611917565b91505092915050565b600060208284031215611a3157600080fd5b6000611a3f8482850161192c565b91505092915050565b60008060408385031215611a5b57600080fd5b6000611a698582860161192c565b9250506020611a7a858286016119e1565b9150509250929050565b600080600060608486031215611a9957600080fd5b6000611aa786828701611917565b9350506020611ab8868287016119cc565b9250506040611ac9868287016119cc565b9150509250925092565b600060208284031215611ae557600080fd5b6000611af384828501611941565b91505092915050565b600060208284031215611b0e57600080fd5b6000611b1c84828501611956565b91505092915050565b600060208284031215611b3757600080fd5b6000611b458482850161196b565b91505092915050565b600060408284031215611b6057600080fd5b6000611b6e84828501611980565b91505092915050565b600060208284031215611b8957600080fd5b6000611b97848285016119cc565b91505092915050565b600060208284031215611bb257600080fd5b6000611bc0848285016119e1565b91505092915050565b60008060408385031215611bdc57600080fd5b6000611bea858286016119cc565b9250506020611bfb858286016119cc565b9150509250929050565b611c0e81611f2f565b82525050565b611c1d81611f2f565b82525050565b611c2c81611f41565b82525050565b611c3b81611f4d565b82525050565b6000611c4e602f83611f1e565b9150611c5982612021565b604082019050919050565b6000611c71602c83611f1e565b9150611c7c82612070565b604082019050919050565b6000611c94602683611f1e565b9150611c9f826120bf565b604082019050919050565b6000611cb7602083611f1e565b9150611cc28261210e565b602082019050919050565b6000611cda604683611f1e565b9150611ce582612137565b606082019050919050565b6000611cfd602b83611f1e565b9150611d08826121ac565b604082019050919050565b604082016000820151611d296000850182611c05565b506020820151611d3c6020850182611d42565b50505050565b611d4b81611f77565b82525050565b611d5a81611f77565b82525050565b6000602082019050611d756000830184611c14565b92915050565b6000604082019050611d906000830185611c14565b611d9d6020830184611c14565b9392505050565b6000602082019050611db96000830184611c23565b92915050565b6000602082019050611dd46000830184611c32565b92915050565b60006020820190508181036000830152611df381611c41565b9050919050565b60006020820190508181036000830152611e1381611c64565b9050919050565b60006020820190508181036000830152611e3381611c87565b9050919050565b60006020820190508181036000830152611e5381611caa565b9050919050565b60006020820190508181036000830152611e7381611ccd565b9050919050565b60006020820190508181036000830152611e9381611cf0565b9050919050565b6000604082019050611eaf6000830184611d13565b92915050565b6000606082019050611eca6000830185611d13565b611ed76040830184611d51565b9392505050565b6000602082019050611ef36000830184611d51565b92915050565b6000611f03611f14565b9050611f0f8282611f81565b919050565b6000604051905090565b600082825260208201905092915050565b6000611f3a82611f57565b9050919050565b60008115159050919050565b6000819050919050565b600073ffffffffffffffffffffffffffffffffffffffff82169050919050565b6000819050919050565b611f8a82612003565b810181811067ffffffffffffffff82111715611fa957611fa8611fb2565b5b80604052505050565b7f4e487b7100000000000000000000000000000000000000000000000000000000600052604160045260246000fd5b600060033d11156120005760046000803e611ffd600051612014565b90505b90565b6000601f19601f8301169050919050565b60008160e01c9050919050565b7f596f75206d757374206265206f776e6572206f7220617070726f76656420666f60008201527f7220746869732073756d6d6f6e65720000000000000000000000000000000000602082015250565b7f596f75206d757374206265206f776e6572206f7220617070726f76656420666f60008201527f72207468697320746f6b656e0000000000000000000000000000000000000000602082015250565b7f4f776e61626c653a206e6577206f776e657220697320746865207a65726f206160008201527f6464726573730000000000000000000000000000000000000000000000000000602082015250565b7f4f776e61626c653a2063616c6c6572206973206e6f7420746865206f776e6572600082015250565b7f4f6e6c7920747275737465642045524337323120696d706c656d656e7461746960008201527f6f6e732063616e20616363657373207468697320776179206f6620617373696760208201527f6e6174696f6e0000000000000000000000000000000000000000000000000000604082015250565b7f53756d6d6f6e657220616e6420736b696e206d757374206265206f662074686560008201527f2073616d6520636c617373000000000000000000000000000000000000000000602082015250565b600060443d101561220b5761228e565b612213611f14565b60043d036004823e80513d602482011167ffffffffffffffff8211171561223b57505061228e565b808201805167ffffffffffffffff811115612259575050505061228e565b80602083010160043d03850181111561227657505050505061228e565b61228582602001850186611f81565b82955050505050505b90565b60008060233d11156122ae576020600460003e6001915060005190505b9091565b6122bb81611f2f565b81146122c657600080fd5b50565b6122d281611f41565b81146122dd57600080fd5b50565b6122e981611f4d565b81146122f457600080fd5b50565b61230081611f77565b811461230b57600080fd5b5056fea2646970667358221220bacafa7dac99b3de66751d841b9eb620bf87bb8e56f2f45f2282310290252c3064736f6c63430008040033",
  "linkReferences": {},
  "deployedLinkReferences": {}
}