{
  "_format": "hh-sol-artifact-1",
  "contractName": "SummonerSkins",
  "sourceName": "contracts/alts/SummonerSkins.sol",
  "abi": [
    {
      "inputs": [],
      "stateMutability": "nonpayable",
      "type": "constructor"
    },
    {
      "anonymous": false,
      "inputs": [
        {
          "indexed": true,
          "internalType": "address",
          "name": "owner",
          "type": "address"
        },
        {
          "indexed": true,
          "internalType": "address",
          "name": "approved",
          "type": "address"
        },
        {
          "indexed": true,
          "internalType": "uint256",
          "name": "tokenId",
          "type": "uint256"
        }
      ],
      "name": "Approval",
      "type": "event"
    },
    {
      "anonymous": false,
      "inputs": [
        {
          "indexed": true,
          "internalType": "address",
          "name": "owner",
          "type": "address"
        },
        {
          "indexed": true,
          "internalType": "address",
          "name": "operator",
          "type": "address"
        },
        {
          "indexed": false,
          "internalType": "bool",
          "name": "approved",
          "type": "bool"
        }
      ],
      "name": "ApprovalForAll",
      "type": "event"
    },
    {
      "anonymous": false,
      "inputs": [
        {
          "indexed": true,
          "internalType": "address",
          "name": "previousOwner",
          "type": "address"
        },
        {
          "indexed": true,
          "internalType": "address",
          "name": "newOwner",
          "type": "address"
        }
      ],
      "name": "OwnershipTransferred",
      "type": "event"
    },
    {
      "anonymous": false,
      "inputs": [
        {
          "indexed": true,
          "internalType": "address",
          "name": "from",
          "type": "address"
        },
        {
          "indexed": true,
          "internalType": "address",
          "name": "to",
          "type": "address"
        },
        {
          "indexed": true,
          "internalType": "uint256",
          "name": "tokenId",
          "type": "uint256"
        }
      ],
      "name": "Transfer",
      "type": "event"
    },
    {
      "inputs": [
        {
          "internalType": "address",
          "name": "to",
          "type": "address"
        },
        {
          "internalType": "uint256",
          "name": "tokenId",
          "type": "uint256"
        }
      ],
      "name": "approve",
      "outputs": [],
      "stateMutability": "nonpayable",
      "type": "function"
    },
    {
      "inputs": [
        {
          "internalType": "address",
          "name": "owner",
          "type": "address"
        }
      ],
      "name": "balanceOf",
      "outputs": [
        {
          "internalType": "uint256",
          "name": "",
          "type": "uint256"
        }
      ],
      "stateMutability": "view",
      "type": "function"
    },
    {
      "inputs": [
        {
          "internalType": "uint256",
          "name": "",
          "type": "uint256"
        }
      ],
      "name": "class",
      "outputs": [
        {
          "internalType": "uint256",
          "name": "",
          "type": "uint256"
        }
      ],
      "stateMutability": "view",
      "type": "function"
    },
    {
      "inputs": [
        {
          "internalType": "uint256",
          "name": "tokenId",
          "type": "uint256"
        }
      ],
      "name": "getApproved",
      "outputs": [
        {
          "internalType": "address",
          "name": "",
          "type": "address"
        }
      ],
      "stateMutability": "view",
      "type": "function"
    },
    {
      "inputs": [],
      "name": "getPrice",
      "outputs": [
        {
          "internalType": "uint256",
          "name": "",
          "type": "uint256"
        }
      ],
      "stateMutability": "view",
      "type": "function"
    },
    {
      "inputs": [
        {
          "internalType": "address",
          "name": "owner",
          "type": "address"
        },
        {
          "internalType": "address",
          "name": "operator",
          "type": "address"
        }
      ],
      "name": "isApprovedForAll",
      "outputs": [
        {
          "internalType": "bool",
          "name": "",
          "type": "bool"
        }
      ],
      "stateMutability": "view",
      "type": "function"
    },
    {
      "inputs": [],
      "name": "isStrictOnSummonerClass",
      "outputs": [
        {
          "internalType": "bool",
          "name": "",
          "type": "bool"
        }
      ],
      "stateMutability": "view",
      "type": "function"
    },
    {
      "inputs": [
        {
          "internalType": "uint256",
          "name": "quantity",
          "type": "uint256"
        }
      ],
      "name": "mint",
      "outputs": [],
      "stateMutability": "payable",
      "type": "function"
    },
    {
      "inputs": [
        {
          "internalType": "uint256[]",
          "name": "summonerIds",
          "type": "uint256[]"
        }
      ],
      "name": "mintAndAssign",
      "outputs": [],
      "stateMutability": "payable",
      "type": "function"
    },
    {
      "inputs": [],
      "name": "name",
      "outputs": [
        {
          "internalType": "string",
          "name": "",
          "type": "string"
        }
      ],
      "stateMutability": "view",
      "type": "function"
    },
    {
      "inputs": [],
      "name": "owner",
      "outputs": [
        {
          "internalType": "address",
          "name": "",
          "type": "address"
        }
      ],
      "stateMutability": "view",
      "type": "function"
    },
    {
      "inputs": [
        {
          "internalType": "uint256",
          "name": "tokenId",
          "type": "uint256"
        }
      ],
      "name": "ownerOf",
      "outputs": [
        {
          "internalType": "address",
          "name": "",
          "type": "address"
        }
      ],
      "stateMutability": "view",
      "type": "function"
    },
    {
      "inputs": [],
      "name": "raritySkinManager",
      "outputs": [
        {
          "internalType": "contract RaritySkinManager",
          "name": "",
          "type": "address"
        }
      ],
      "stateMutability": "view",
      "type": "function"
    },
    {
      "inputs": [],
      "name": "renounceOwnership",
      "outputs": [],
      "stateMutability": "nonpayable",
      "type": "function"
    },
    {
      "inputs": [
        {
          "internalType": "address",
          "name": "from",
          "type": "address"
        },
        {
          "internalType": "address",
          "name": "to",
          "type": "address"
        },
        {
          "internalType": "uint256",
          "name": "tokenId",
          "type": "uint256"
        }
      ],
      "name": "safeTransferFrom",
      "outputs": [],
      "stateMutability": "nonpayable",
      "type": "function"
    },
    {
      "inputs": [
        {
          "internalType": "address",
          "name": "from",
          "type": "address"
        },
        {
          "internalType": "address",
          "name": "to",
          "type": "address"
        },
        {
          "internalType": "uint256",
          "name": "tokenId",
          "type": "uint256"
        },
        {
          "internalType": "bytes",
          "name": "_data",
          "type": "bytes"
        }
      ],
      "name": "safeTransferFrom",
      "outputs": [],
      "stateMutability": "nonpayable",
      "type": "function"
    },
    {
      "inputs": [
        {
          "internalType": "address",
          "name": "operator",
          "type": "address"
        },
        {
          "internalType": "bool",
          "name": "approved",
          "type": "bool"
        }
      ],
      "name": "setApprovalForAll",
      "outputs": [],
      "stateMutability": "nonpayable",
      "type": "function"
    },
    {
      "inputs": [
        {
          "internalType": "uint256",
          "name": "_minimumPrice",
          "type": "uint256"
        }
      ],
      "name": "setMinimumPrice",
      "outputs": [],
      "stateMutability": "nonpayable",
      "type": "function"
    },
    {
      "inputs": [],
      "name": "skinURIs",
      "outputs": [
        {
          "internalType": "contract SkinURIs",
          "name": "",
          "type": "address"
        }
      ],
      "stateMutability": "view",
      "type": "function"
    },
    {
      "inputs": [
        {
          "internalType": "bytes4",
          "name": "interfaceId",
          "type": "bytes4"
        }
      ],
      "name": "supportsInterface",
      "outputs": [
        {
          "internalType": "bool",
          "name": "",
          "type": "bool"
        }
      ],
      "stateMutability": "view",
      "type": "function"
    },
    {
      "inputs": [],
      "name": "symbol",
      "outputs": [
        {
          "internalType": "string",
          "name": "",
          "type": "string"
        }
      ],
      "stateMutability": "view",
      "type": "function"
    },
    {
      "inputs": [
        {
          "internalType": "uint256",
          "name": "index",
          "type": "uint256"
        }
      ],
      "name": "tokenByIndex",
      "outputs": [
        {
          "internalType": "uint256",
          "name": "",
          "type": "uint256"
        }
      ],
      "stateMutability": "view",
      "type": "function"
    },
    {
      "inputs": [
        {
          "internalType": "address",
          "name": "owner",
          "type": "address"
        },
        {
          "internalType": "uint256",
          "name": "index",
          "type": "uint256"
        }
      ],
      "name": "tokenOfOwnerByIndex",
      "outputs": [
        {
          "internalType": "uint256",
          "name": "",
          "type": "uint256"
        }
      ],
      "stateMutability": "view",
      "type": "function"
    },
    {
      "inputs": [
        {
          "internalType": "uint256",
          "name": "_tokenId",
          "type": "uint256"
        }
      ],
      "name": "tokenURI",
      "outputs": [
        {
          "internalType": "string",
          "name": "",
          "type": "string"
        }
      ],
      "stateMutability": "view",
      "type": "function"
    },
    {
      "inputs": [],
      "name": "totalSupply",
      "outputs": [
        {
          "internalType": "uint256",
          "name": "",
          "type": "uint256"
        }
      ],
      "stateMutability": "view",
      "type": "function"
    },
    {
      "inputs": [
        {
          "internalType": "address",
          "name": "from",
          "type": "address"
        },
        {
          "internalType": "address",
          "name": "to",
          "type": "address"
        },
        {
          "internalType": "uint256",
          "name": "tokenId",
          "type": "uint256"
        }
      ],
      "name": "transferFrom",
      "outputs": [],
      "stateMutability": "nonpayable",
      "type": "function"
    },
    {
      "inputs": [
        {
          "internalType": "address",
          "name": "newOwner",
          "type": "address"
        }
      ],
      "name": "transferOwnership",
      "outputs": [],
      "stateMutability": "nonpayable",
      "type": "function"
    },
    {
      "inputs": [],
      "name": "withdraw",
      "outputs": [],
      "stateMutability": "nonpayable",
      "type": "function"
    }
  ],
  "bytecode": "0x60a0604052670de0b6b3a7640000600f553480156200001d57600080fd5b506040518060400160405280601381526020017f53756d6d6f6e6572205261726520536b696e73000000000000000000000000008152506040518060400160405280600a81526020017f5241524520534b494e53000000000000000000000000000000000000000000008152506001600081905550620000b2620000a66200038e60201b60201c565b6200039660201b60201c565b8160029080519060200190620000ca9291906200045c565b508060039080519060200190620000e39291906200045c565b5050504260808181525050611388604051620000ff90620004ed565b6200010b919062000567565b604051809103906000f08015801562000128573d6000803e3d6000fd5b50600d60006101000a81548173ffffffffffffffffffffffffffffffffffffffff021916908373ffffffffffffffffffffffffffffffffffffffff1602179055506040516200017790620004fb565b604051809103906000f08015801562000194573d6000803e3d6000fd5b50600e60006101000a81548173ffffffffffffffffffffffffffffffffffffffff021916908373ffffffffffffffffffffffffffffffffffffffff160217905550600e60009054906101000a900473ffffffffffffffffffffffffffffffffffffffff1673ffffffffffffffffffffffffffffffffffffffff1663f8588f16306040518263ffffffff1660e01b81526004016200023291906200054a565b600060405180830381600087803b1580156200024d57600080fd5b505af115801562000262573d6000803e3d6000fd5b50505050600e60009054906101000a900473ffffffffffffffffffffffffffffffffffffffff1673ffffffffffffffffffffffffffffffffffffffff1663f2fde38b336040518263ffffffff1660e01b8152600401620002c391906200054a565b600060405180830381600087803b158015620002de57600080fd5b505af1158015620002f3573d6000803e3d6000fd5b50505050600d60009054906101000a900473ffffffffffffffffffffffffffffffffffffffff1673ffffffffffffffffffffffffffffffffffffffff1663f2fde38b336040518263ffffffff1660e01b81526004016200035491906200054a565b600060405180830381600087803b1580156200036f57600080fd5b505af115801562000384573d6000803e3d6000fd5b5050505062000627565b600033905090565b6000600160009054906101000a900473ffffffffffffffffffffffffffffffffffffffff16905081600160006101000a81548173ffffffffffffffffffffffffffffffffffffffff021916908373ffffffffffffffffffffffffffffffffffffffff1602179055508173ffffffffffffffffffffffffffffffffffffffff168173ffffffffffffffffffffffffffffffffffffffff167f8be0079c531659141344cd1fd0a4f28419497f9722a3daafe3b4186f6b6457e060405160405180910390a35050565b8280546200046a90620005c2565b90600052602060002090601f0160209004810192826200048e5760008555620004da565b82601f10620004a957805160ff1916838001178555620004da565b82800160010185558215620004da579182015b82811115620004d9578251825591602001919060010190620004bc565b5b509050620004e9919062000509565b5090565b6138cf8062004d1e83390190565b611b7e80620085ed83390190565b5b80821115620005245760008160009055506001016200050a565b5090565b620005338162000584565b82525050565b6200054481620005b8565b82525050565b600060208201905062000561600083018462000528565b92915050565b60006020820190506200057e600083018462000539565b92915050565b6000620005918262000598565b9050919050565b600073ffffffffffffffffffffffffffffffffffffffff82169050919050565b6000819050919050565b60006002820490506001821680620005db57607f821691505b60208210811415620005f257620005f1620005f8565b5b50919050565b7f4e487b7100000000000000000000000000000000000000000000000000000000600052602260045260246000fd5b6080516146d46200064a60003960008181610ffb015261103c01526146d46000f3fe6080604052600436106101b75760003560e01c80636352211e116100ec578063a22cb4651161008a578063c87b56dd11610064578063c87b56dd146105ff578063e985e9c51461063c578063f2fde38b14610679578063f41327ca146106a2576101b7565b8063a22cb46514610582578063b88d4fde146105ab578063b8dbacf9146105d4576101b7565b80638da5cb5b116100c65780638da5cb5b146104e557806395d89b411461051057806398d5fdca1461053b578063a0712d6814610566576101b7565b80636352211e1461045457806370a0823114610491578063715018a6146104ce576101b7565b806325cea976116101595780633ccfd60b116101335780633ccfd60b146103ac57806342842e0e146103c35780634f33a4ea146103ec5780634f6ccce714610417576101b7565b806325cea976146103095780632f745c59146103325780633613a9f41461036f576101b7565b8063095ea7b311610195578063095ea7b3146102615780630e83a5a71461028a57806318160ddd146102b557806323b872dd146102e0576101b7565b806301ffc9a7146101bc57806306fdde03146101f9578063081812fc14610224575b600080fd5b3480156101c857600080fd5b506101e360048036038101906101de9190613199565b6106be565b6040516101f091906137a5565b60405180910390f35b34801561020557600080fd5b5061020e610738565b60405161021b91906137f6565b60405180910390f35b34801561023057600080fd5b5061024b6004803603810190610246919061322c565b6107ca565b6040516102589190613715565b60405180910390f35b34801561026d57600080fd5b50610288600480360381019061028391906130f3565b61084f565b005b34801561029657600080fd5b5061029f610967565b6040516102ac91906137c0565b60405180910390f35b3480156102c157600080fd5b506102ca61098d565b6040516102d79190613b18565b60405180910390f35b3480156102ec57600080fd5b5061030760048036038101906103029190612fed565b61099a565b005b34801561031557600080fd5b50610330600480360381019061032b919061322c565b6109fa565b005b34801561033e57600080fd5b50610359600480360381019061035491906130f3565b610a80565b6040516103669190613b18565b60405180910390f35b34801561037b57600080fd5b506103966004803603810190610391919061322c565b610b25565b6040516103a39190613b18565b60405180910390f35b3480156103b857600080fd5b506103c1610b3d565b005b3480156103cf57600080fd5b506103ea60048036038101906103e59190612fed565b610c68565b005b3480156103f857600080fd5b50610401610c88565b60405161040e91906137db565b60405180910390f35b34801561042357600080fd5b5061043e6004803603810190610439919061322c565b610cae565b60405161044b9190613b18565b60405180910390f35b34801561046057600080fd5b5061047b6004803603810190610476919061322c565b610d45565b6040516104889190613715565b60405180910390f35b34801561049d57600080fd5b506104b860048036038101906104b39190612f5f565b610df7565b6040516104c59190613b18565b60405180910390f35b3480156104da57600080fd5b506104e3610eaf565b005b3480156104f157600080fd5b506104fa610f37565b6040516105079190613715565b60405180910390f35b34801561051c57600080fd5b50610525610f61565b60405161053291906137f6565b60405180910390f35b34801561054757600080fd5b50610550610ff3565b60405161055d9190613b18565b60405180910390f35b610580600480360381019061057b919061322c565b61109e565b005b34801561058e57600080fd5b506105a960048036038101906105a491906130b7565b611263565b005b3480156105b757600080fd5b506105d260048036038101906105cd919061303c565b611279565b005b3480156105e057600080fd5b506105e96112db565b6040516105f691906137a5565b60405180910390f35b34801561060b57600080fd5b506106266004803603810190610621919061322c565b6112e0565b60405161063391906137f6565b60405180910390f35b34801561064857600080fd5b50610663600480360381019061065e9190612fb1565b6113f6565b60405161067091906137a5565b60405180910390f35b34801561068557600080fd5b506106a0600480360381019061069b9190612f5f565b61148a565b005b6106bc60048036038101906106b7919061312f565b611582565b005b60007f780e9d63000000000000000000000000000000000000000000000000000000007bffffffffffffffffffffffffffffffffffffffffffffffffffffffff1916827bffffffffffffffffffffffffffffffffffffffffffffffffffffffff19161480610731575061073082611935565b5b9050919050565b60606002805461074790613e6f565b80601f016020809104026020016040519081016040528092919081815260200182805461077390613e6f565b80156107c05780601f10610795576101008083540402835291602001916107c0565b820191906000526020600020905b8154815290600101906020018083116107a357829003601f168201915b5050505050905090565b60006107d582611a17565b610814576040517f08c379a000000000000000000000000000000000000000000000000000000000815260040161080b906139d8565b60405180910390fd5b6006600083815260200190815260200160002060009054906101000a900473ffffffffffffffffffffffffffffffffffffffff169050919050565b600061085a82610d45565b90508073ffffffffffffffffffffffffffffffffffffffff168373ffffffffffffffffffffffffffffffffffffffff1614156108cb576040517f08c379a00000000000000000000000000000000000000000000000000000000081526004016108c290613a38565b60405180910390fd5b8073ffffffffffffffffffffffffffffffffffffffff166108ea611a83565b73ffffffffffffffffffffffffffffffffffffffff161480610919575061091881610913611a83565b6113f6565b5b610958576040517f08c379a000000000000000000000000000000000000000000000000000000000815260040161094f90613938565b60405180910390fd5b6109628383611a8b565b505050565b600e60009054906101000a900473ffffffffffffffffffffffffffffffffffffffff1681565b6000600a80549050905090565b6109ab6109a5611a83565b82611b44565b6109ea576040517f08c379a00000000000000000000000000000000000000000000000000000000081526004016109e190613a58565b60405180910390fd5b6109f5838383611c22565b505050565b610a02611a83565b73ffffffffffffffffffffffffffffffffffffffff16610a20610f37565b73ffffffffffffffffffffffffffffffffffffffff1614610a76576040517f08c379a0000000000000000000000000000000000000000000000000000000008152600401610a6d906139f8565b60405180910390fd5b80600f8190555050565b6000610a8b83610df7565b8210610acc576040517f08c379a0000000000000000000000000000000000000000000000000000000008152600401610ac390613858565b60405180910390fd5b600860008473ffffffffffffffffffffffffffffffffffffffff1673ffffffffffffffffffffffffffffffffffffffff168152602001908152602001600020600083815260200190815260200160002054905092915050565b60116020528060005260406000206000915090505481565b610b45611a83565b73ffffffffffffffffffffffffffffffffffffffff16610b63610f37565b73ffffffffffffffffffffffffffffffffffffffff1614610bb9576040517f08c379a0000000000000000000000000000000000000000000000000000000008152600401610bb0906139f8565b60405180910390fd5b60003373ffffffffffffffffffffffffffffffffffffffff1647604051610bdf90613700565b60006040518083038185875af1925050503d8060008114610c1c576040519150601f19603f3d011682016040523d82523d6000602084013e610c21565b606091505b5050905080610c65576040517f08c379a0000000000000000000000000000000000000000000000000000000008152600401610c5c90613ad8565b60405180910390fd5b50565b610c8383838360405180602001604052806000815250611279565b505050565b600d60009054906101000a900473ffffffffffffffffffffffffffffffffffffffff1681565b6000610cb861098d565b8210610cf9576040517f08c379a0000000000000000000000000000000000000000000000000000000008152600401610cf090613a78565b60405180910390fd5b600a8281548110610d33577f4e487b7100000000000000000000000000000000000000000000000000000000600052603260045260246000fd5b90600052602060002001549050919050565b6000806004600084815260200190815260200160002060009054906101000a900473ffffffffffffffffffffffffffffffffffffffff169050600073ffffffffffffffffffffffffffffffffffffffff168173ffffffffffffffffffffffffffffffffffffffff161415610dee576040517f08c379a0000000000000000000000000000000000000000000000000000000008152600401610de590613978565b60405180910390fd5b80915050919050565b60008073ffffffffffffffffffffffffffffffffffffffff168273ffffffffffffffffffffffffffffffffffffffff161415610e68576040517f08c379a0000000000000000000000000000000000000000000000000000000008152600401610e5f90613958565b60405180910390fd5b600560008373ffffffffffffffffffffffffffffffffffffffff1673ffffffffffffffffffffffffffffffffffffffff168152602001908152602001600020549050919050565b610eb7611a83565b73ffffffffffffffffffffffffffffffffffffffff16610ed5610f37565b73ffffffffffffffffffffffffffffffffffffffff1614610f2b576040517f08c379a0000000000000000000000000000000000000000000000000000000008152600401610f22906139f8565b60405180910390fd5b610f356000611e7e565b565b6000600160009054906101000a900473ffffffffffffffffffffffffffffffffffffffff16905090565b606060038054610f7090613e6f565b80601f0160208091040260200160405190810160405280929190818152602001828054610f9c90613e6f565b8015610fe95780601f10610fbe57610100808354040283529160200191610fe9565b820191906000526020600020905b815481529060010190602001808311610fcc57829003601f168201915b5050505050905090565b6000620546007f00000000000000000000000000000000000000000000000000000000000000006110249190613c52565b421061103257600f54611099565b61109842620546007f00000000000000000000000000000000000000000000000000000000000000006110659190613c52565b61106f9190613d33565b62054600674563918244f400006110869190613ca8565b6110909190613cd9565b600f54611f44565b5b905090565b600260005414156110e4576040517f08c379a00000000000000000000000000000000000000000000000000000000081526004016110db90613ab8565b60405180910390fd5b6002600081905550806113886110fa600c611f5d565b1061113a576040517f08c379a000000000000000000000000000000000000000000000000000000000815260040161113190613af8565b60405180910390fd5b61138881611148600c611f5d565b6111529190613c52565b1115611193576040517f08c379a000000000000000000000000000000000000000000000000000000000815260040161118a90613818565b60405180910390fd5b8061119c610ff3565b6111a69190613cd9565b3410156111e8576040517f08c379a00000000000000000000000000000000000000000000000000000000081526004016111df90613a98565b60405180910390fd5b6000600b6111fe6111f9600c611f5d565b611f6b565b6112089190613f2f565b905060005b83811015611255576112416001600b83856112289190613c52565b6112329190613f2f565b61123c9190613c52565b611fad565b50808061124d90613ed2565b91505061120d565b505050600160008190555050565b61127561126e611a83565b8383612035565b5050565b61128a611284611a83565b83611b44565b6112c9576040517f08c379a00000000000000000000000000000000000000000000000000000000081526004016112c090613a58565b60405180910390fd5b6112d5848484846121a2565b50505050565b600181565b60606112eb82611a17565b61132a576040517f08c379a000000000000000000000000000000000000000000000000000000000815260040161132190613998565b60405180910390fd5b600d60009054906101000a900473ffffffffffffffffffffffffffffffffffffffff1673ffffffffffffffffffffffffffffffffffffffff166392cb829d8360106000868152602001908152602001600020546040518363ffffffff1660e01b815260040161139a929190613b33565b60006040518083038186803b1580156113b257600080fd5b505afa1580156113c6573d6000803e3d6000fd5b505050506040513d6000823e3d601f19601f820116820180604052508101906113ef91906131eb565b9050919050565b6000600760008473ffffffffffffffffffffffffffffffffffffffff1673ffffffffffffffffffffffffffffffffffffffff16815260200190815260200160002060008373ffffffffffffffffffffffffffffffffffffffff1673ffffffffffffffffffffffffffffffffffffffff16815260200190815260200160002060009054906101000a900460ff16905092915050565b611492611a83565b73ffffffffffffffffffffffffffffffffffffffff166114b0610f37565b73ffffffffffffffffffffffffffffffffffffffff1614611506576040517f08c379a00000000000000000000000000000000000000000000000000000000081526004016114fd906139f8565b60405180910390fd5b600073ffffffffffffffffffffffffffffffffffffffff168173ffffffffffffffffffffffffffffffffffffffff161415611576576040517f08c379a000000000000000000000000000000000000000000000000000000000815260040161156d90613898565b60405180910390fd5b61157f81611e7e565b50565b600260005414156115c8576040517f08c379a00000000000000000000000000000000000000000000000000000000081526004016115bf90613ab8565b60405180910390fd5b600260008190555080516113886115df600c611f5d565b1061161f576040517f08c379a000000000000000000000000000000000000000000000000000000000815260040161161690613af8565b60405180910390fd5b6113888161162d600c611f5d565b6116379190613c52565b1115611678576040517f08c379a000000000000000000000000000000000000000000000000000000000815260040161166f90613818565b60405180910390fd5b80611681610ff3565b61168b9190613cd9565b3410156116cd576040517f08c379a00000000000000000000000000000000000000000000000000000000081526004016116c490613a98565b60405180910390fd5b60005b825181101561192857611722838281518110611715577f4e487b7100000000000000000000000000000000000000000000000000000000600052603260045260246000fd5b60200260200101516121fe565b611761576040517f08c379a000000000000000000000000000000000000000000000000000000000815260040161175890613838565b60405180910390fd5b600e60009054906101000a900473ffffffffffffffffffffffffffffffffffffffff1673ffffffffffffffffffffffffffffffffffffffff1662a7c6ee611885732a8ac1b2fcb475c7646f93b6e69930d1eb67c05373ffffffffffffffffffffffffffffffffffffffff16633613a9f487868151811061180a577f4e487b7100000000000000000000000000000000000000000000000000000000600052603260045260246000fd5b60200260200101516040518263ffffffff1660e01b815260040161182e9190613b18565b602060405180830381600087803b15801561184857600080fd5b505af115801561185c573d6000803e3d6000fd5b505050506040513d601f19601f820116820180604052508101906118809190613255565b611fad565b8584815181106118be577f4e487b7100000000000000000000000000000000000000000000000000000000600052603260045260246000fd5b60200260200101516040518363ffffffff1660e01b81526004016118e3929190613b33565b600060405180830381600087803b1580156118fd57600080fd5b505af1158015611911573d6000803e3d6000fd5b50505050808061192090613ed2565b9150506116d0565b5050600160008190555050565b60007f80ac58cd000000000000000000000000000000000000000000000000000000007bffffffffffffffffffffffffffffffffffffffffffffffffffffffff1916827bffffffffffffffffffffffffffffffffffffffffffffffffffffffff19161480611a0057507f5b5e139f000000000000000000000000000000000000000000000000000000007bffffffffffffffffffffffffffffffffffffffffffffffffffffffff1916827bffffffffffffffffffffffffffffffffffffffffffffffffffffffff1916145b80611a105750611a0f8261244f565b5b9050919050565b60008073ffffffffffffffffffffffffffffffffffffffff166004600084815260200190815260200160002060009054906101000a900473ffffffffffffffffffffffffffffffffffffffff1673ffffffffffffffffffffffffffffffffffffffff1614159050919050565b600033905090565b816006600083815260200190815260200160002060006101000a81548173ffffffffffffffffffffffffffffffffffffffff021916908373ffffffffffffffffffffffffffffffffffffffff160217905550808273ffffffffffffffffffffffffffffffffffffffff16611afe83610d45565b73ffffffffffffffffffffffffffffffffffffffff167f8c5be1e5ebec7d5bd14f71427d1e84f3dd0314c0f7b2291e5b200ac8c7c3b92560405160405180910390a45050565b6000611b4f82611a17565b611b8e576040517f08c379a0000000000000000000000000000000000000000000000000000000008152600401611b8590613918565b60405180910390fd5b6000611b9983610d45565b90508073ffffffffffffffffffffffffffffffffffffffff168473ffffffffffffffffffffffffffffffffffffffff161480611c0857508373ffffffffffffffffffffffffffffffffffffffff16611bf0846107ca565b73ffffffffffffffffffffffffffffffffffffffff16145b80611c195750611c1881856113f6565b5b91505092915050565b8273ffffffffffffffffffffffffffffffffffffffff16611c4282610d45565b73ffffffffffffffffffffffffffffffffffffffff1614611c98576040517f08c379a0000000000000000000000000000000000000000000000000000000008152600401611c8f90613a18565b60405180910390fd5b600073ffffffffffffffffffffffffffffffffffffffff168273ffffffffffffffffffffffffffffffffffffffff161415611d08576040517f08c379a0000000000000000000000000000000000000000000000000000000008152600401611cff906138d8565b60405180910390fd5b611d138383836124b9565b611d1e600082611a8b565b6001600560008573ffffffffffffffffffffffffffffffffffffffff1673ffffffffffffffffffffffffffffffffffffffff1681526020019081526020016000206000828254611d6e9190613d33565b925050819055506001600560008473ffffffffffffffffffffffffffffffffffffffff1673ffffffffffffffffffffffffffffffffffffffff1681526020019081526020016000206000828254611dc59190613c52565b92505081905550816004600083815260200190815260200160002060006101000a81548173ffffffffffffffffffffffffffffffffffffffff021916908373ffffffffffffffffffffffffffffffffffffffff160217905550808273ffffffffffffffffffffffffffffffffffffffff168473ffffffffffffffffffffffffffffffffffffffff167fddf252ad1be2c89b69c2b068fc378daa952ba7f163c4a11628f55a4df523b3ef60405160405180910390a4505050565b6000600160009054906101000a900473ffffffffffffffffffffffffffffffffffffffff16905081600160006101000a81548173ffffffffffffffffffffffffffffffffffffffff021916908373ffffffffffffffffffffffffffffffffffffffff1602179055508173ffffffffffffffffffffffffffffffffffffffff168173ffffffffffffffffffffffffffffffffffffffff167f8be0079c531659141344cd1fd0a4f28419497f9722a3daafe3b4186f6b6457e060405160405180910390a35050565b6000818311611f535781611f55565b825b905092915050565b600081600001549050919050565b6000600143611f7a9190613d33565b4082604051602001611f8d9291906136d4565b6040516020818303038152906040528051906020012060001c9050919050565b600080611fc2611fbd600c611f5d565b611f6b565b9050611fce600c6125cd565b611fe133611fdc600c611f5d565b6125e3565b8060106000611ff0600c611f5d565b8152602001908152602001600020819055508260116000612011600c611f5d565b81526020019081526020016000208190555061202d600c611f5d565b915050919050565b8173ffffffffffffffffffffffffffffffffffffffff168373ffffffffffffffffffffffffffffffffffffffff1614156120a4576040517f08c379a000000000000000000000000000000000000000000000000000000000815260040161209b906138f8565b60405180910390fd5b80600760008573ffffffffffffffffffffffffffffffffffffffff1673ffffffffffffffffffffffffffffffffffffffff16815260200190815260200160002060008473ffffffffffffffffffffffffffffffffffffffff1673ffffffffffffffffffffffffffffffffffffffff16815260200190815260200160002060006101000a81548160ff0219169083151502179055508173ffffffffffffffffffffffffffffffffffffffff168373ffffffffffffffffffffffffffffffffffffffff167f17307eab39ab6107e8899845ad3d59bd9653f200f220920489ca2b5937696c318360405161219591906137a5565b60405180910390a3505050565b6121ad848484611c22565b6121b984848484612601565b6121f8576040517f08c379a00000000000000000000000000000000000000000000000000000000081526004016121ef90613878565b60405180910390fd5b50505050565b600080732a8ac1b2fcb475c7646f93b6e69930d1eb67c05373ffffffffffffffffffffffffffffffffffffffff16636352211e846040518263ffffffff1660e01b815260040161224e9190613b18565b60206040518083038186803b15801561226657600080fd5b505afa15801561227a573d6000803e3d6000fd5b505050506040513d601f19601f8201168201806040525081019061229e9190612f88565b90508073ffffffffffffffffffffffffffffffffffffffff163373ffffffffffffffffffffffffffffffffffffffff1614806123a157503373ffffffffffffffffffffffffffffffffffffffff16732a8ac1b2fcb475c7646f93b6e69930d1eb67c05373ffffffffffffffffffffffffffffffffffffffff1663081812fc856040518263ffffffff1660e01b81526004016123399190613b18565b60206040518083038186803b15801561235157600080fd5b505afa158015612365573d6000803e3d6000fd5b505050506040513d601f19601f820116820180604052508101906123899190612f88565b73ffffffffffffffffffffffffffffffffffffffff16145b806124475750732a8ac1b2fcb475c7646f93b6e69930d1eb67c05373ffffffffffffffffffffffffffffffffffffffff1663e985e9c582336040518363ffffffff1660e01b81526004016123f6929190613730565b60206040518083038186803b15801561240e57600080fd5b505afa158015612422573d6000803e3d6000fd5b505050506040513d601f19601f820116820180604052508101906124469190613170565b5b915050919050565b60007f01ffc9a7000000000000000000000000000000000000000000000000000000007bffffffffffffffffffffffffffffffffffffffffffffffffffffffff1916827bffffffffffffffffffffffffffffffffffffffffffffffffffffffff1916149050919050565b6124c4838383612798565b600073ffffffffffffffffffffffffffffffffffffffff168373ffffffffffffffffffffffffffffffffffffffff161415612507576125028161279d565b612546565b8173ffffffffffffffffffffffffffffffffffffffff168373ffffffffffffffffffffffffffffffffffffffff16146125455761254483826127e6565b5b5b600073ffffffffffffffffffffffffffffffffffffffff168273ffffffffffffffffffffffffffffffffffffffff1614156125895761258481612953565b6125c8565b8273ffffffffffffffffffffffffffffffffffffffff168273ffffffffffffffffffffffffffffffffffffffff16146125c7576125c68282612a96565b5b5b505050565b6001816000016000828254019250508190555050565b6125fd828260405180602001604052806000815250612b15565b5050565b60006126228473ffffffffffffffffffffffffffffffffffffffff16612b70565b1561278b578373ffffffffffffffffffffffffffffffffffffffff1663150b7a0261264b611a83565b8786866040518563ffffffff1660e01b815260040161266d9493929190613759565b602060405180830381600087803b15801561268757600080fd5b505af19250505080156126b857506040513d601f19601f820116820180604052508101906126b591906131c2565b60015b61273b573d80600081146126e8576040519150601f19603f3d011682016040523d82523d6000602084013e6126ed565b606091505b50600081511415612733576040517f08c379a000000000000000000000000000000000000000000000000000000000815260040161272a90613878565b60405180910390fd5b805181602001fd5b63150b7a0260e01b7bffffffffffffffffffffffffffffffffffffffffffffffffffffffff1916817bffffffffffffffffffffffffffffffffffffffffffffffffffffffff191614915050612790565b600190505b949350505050565b505050565b600a80549050600b600083815260200190815260200160002081905550600a81908060018154018082558091505060019003906000526020600020016000909190919091505550565b600060016127f384610df7565b6127fd9190613d33565b90506000600960008481526020019081526020016000205490508181146128e2576000600860008673ffffffffffffffffffffffffffffffffffffffff1673ffffffffffffffffffffffffffffffffffffffff168152602001908152602001600020600084815260200190815260200160002054905080600860008773ffffffffffffffffffffffffffffffffffffffff1673ffffffffffffffffffffffffffffffffffffffff168152602001908152602001600020600084815260200190815260200160002081905550816009600083815260200190815260200160002081905550505b6009600084815260200190815260200160002060009055600860008573ffffffffffffffffffffffffffffffffffffffff1673ffffffffffffffffffffffffffffffffffffffff16815260200190815260200160002060008381526020019081526020016000206000905550505050565b60006001600a805490506129679190613d33565b90506000600b60008481526020019081526020016000205490506000600a83815481106129bd577f4e487b7100000000000000000000000000000000000000000000000000000000600052603260045260246000fd5b9060005260206000200154905080600a8381548110612a05577f4e487b7100000000000000000000000000000000000000000000000000000000600052603260045260246000fd5b906000526020600020018190555081600b600083815260200190815260200160002081905550600b600085815260200190815260200160002060009055600a805480612a7a577f4e487b7100000000000000000000000000000000000000000000000000000000600052603160045260246000fd5b6001900381819060005260206000200160009055905550505050565b6000612aa183610df7565b905081600860008573ffffffffffffffffffffffffffffffffffffffff1673ffffffffffffffffffffffffffffffffffffffff168152602001908152602001600020600083815260200190815260200160002081905550806009600084815260200190815260200160002081905550505050565b612b1f8383612b83565b612b2c6000848484612601565b612b6b576040517f08c379a0000000000000000000000000000000000000000000000000000000008152600401612b6290613878565b60405180910390fd5b505050565b600080823b905060008111915050919050565b600073ffffffffffffffffffffffffffffffffffffffff168273ffffffffffffffffffffffffffffffffffffffff161415612bf3576040517f08c379a0000000000000000000000000000000000000000000000000000000008152600401612bea906139b8565b60405180910390fd5b612bfc81611a17565b15612c3c576040517f08c379a0000000000000000000000000000000000000000000000000000000008152600401612c33906138b8565b60405180910390fd5b612c48600083836124b9565b6001600560008473ffffffffffffffffffffffffffffffffffffffff1673ffffffffffffffffffffffffffffffffffffffff1681526020019081526020016000206000828254612c989190613c52565b92505081905550816004600083815260200190815260200160002060006101000a81548173ffffffffffffffffffffffffffffffffffffffff021916908373ffffffffffffffffffffffffffffffffffffffff160217905550808273ffffffffffffffffffffffffffffffffffffffff16600073ffffffffffffffffffffffffffffffffffffffff167fddf252ad1be2c89b69c2b068fc378daa952ba7f163c4a11628f55a4df523b3ef60405160405180910390a45050565b6000612d64612d5f84613b81565b613b5c565b90508083825260208201905082856020860282011115612d8357600080fd5b60005b85811015612db35781612d998882612f35565b845260208401935060208301925050600181019050612d86565b5050509392505050565b6000612dd0612dcb84613bad565b613b5c565b905082815260208101848484011115612de857600080fd5b612df3848285613e2d565b509392505050565b6000612e0e612e0984613bde565b613b5c565b905082815260208101848484011115612e2657600080fd5b612e31848285613e3c565b509392505050565b600081359050612e4881614642565b92915050565b600081519050612e5d81614642565b92915050565b600082601f830112612e7457600080fd5b8135612e84848260208601612d51565b91505092915050565b600081359050612e9c81614659565b92915050565b600081519050612eb181614659565b92915050565b600081359050612ec681614670565b92915050565b600081519050612edb81614670565b92915050565b600082601f830112612ef257600080fd5b8135612f02848260208601612dbd565b91505092915050565b600082601f830112612f1c57600080fd5b8151612f2c848260208601612dfb565b91505092915050565b600081359050612f4481614687565b92915050565b600081519050612f5981614687565b92915050565b600060208284031215612f7157600080fd5b6000612f7f84828501612e39565b91505092915050565b600060208284031215612f9a57600080fd5b6000612fa884828501612e4e565b91505092915050565b60008060408385031215612fc457600080fd5b6000612fd285828601612e39565b9250506020612fe385828601612e39565b9150509250929050565b60008060006060848603121561300257600080fd5b600061301086828701612e39565b935050602061302186828701612e39565b925050604061303286828701612f35565b9150509250925092565b6000806000806080858703121561305257600080fd5b600061306087828801612e39565b945050602061307187828801612e39565b935050604061308287828801612f35565b925050606085013567ffffffffffffffff81111561309f57600080fd5b6130ab87828801612ee1565b91505092959194509250565b600080604083850312156130ca57600080fd5b60006130d885828601612e39565b92505060206130e985828601612e8d565b9150509250929050565b6000806040838503121561310657600080fd5b600061311485828601612e39565b925050602061312585828601612f35565b9150509250929050565b60006020828403121561314157600080fd5b600082013567ffffffffffffffff81111561315b57600080fd5b61316784828501612e63565b91505092915050565b60006020828403121561318257600080fd5b600061319084828501612ea2565b91505092915050565b6000602082840312156131ab57600080fd5b60006131b984828501612eb7565b91505092915050565b6000602082840312156131d457600080fd5b60006131e284828501612ecc565b91505092915050565b6000602082840312156131fd57600080fd5b600082015167ffffffffffffffff81111561321757600080fd5b61322384828501612f0b565b91505092915050565b60006020828403121561323e57600080fd5b600061324c84828501612f35565b91505092915050565b60006020828403121561326757600080fd5b600061327584828501612f4a565b91505092915050565b61328781613d67565b82525050565b61329681613d79565b82525050565b6132ad6132a882613d85565b613f1b565b82525050565b60006132be82613c0f565b6132c88185613c25565b93506132d8818560208601613e3c565b6132e18161401c565b840191505092915050565b6132f581613de5565b82525050565b61330481613e09565b82525050565b600061331582613c1a565b61331f8185613c41565b935061332f818560208601613e3c565b6133388161401c565b840191505092915050565b6000613350602083613c41565b915061335b8261402d565b602082019050919050565b6000613373602f83613c41565b915061337e82614056565b604082019050919050565b6000613396602b83613c41565b91506133a1826140a5565b604082019050919050565b60006133b9603283613c41565b91506133c4826140f4565b604082019050919050565b60006133dc602683613c41565b91506133e782614143565b604082019050919050565b60006133ff601c83613c41565b915061340a82614192565b602082019050919050565b6000613422602483613c41565b915061342d826141bb565b604082019050919050565b6000613445601983613c41565b91506134508261420a565b602082019050919050565b6000613468602c83613c41565b915061347382614233565b604082019050919050565b600061348b603883613c41565b915061349682614282565b604082019050919050565b60006134ae602a83613c41565b91506134b9826142d1565b604082019050919050565b60006134d1602983613c41565b91506134dc82614320565b604082019050919050565b60006134f4601b83613c41565b91506134ff8261436f565b602082019050919050565b6000613517602083613c41565b915061352282614398565b602082019050919050565b600061353a602c83613c41565b9150613545826143c1565b604082019050919050565b600061355d602083613c41565b915061356882614410565b602082019050919050565b6000613580602983613c41565b915061358b82614439565b604082019050919050565b60006135a3602183613c41565b91506135ae82614488565b604082019050919050565b60006135c6600083613c36565b91506135d1826144d7565b600082019050919050565b60006135e9603183613c41565b91506135f4826144da565b604082019050919050565b600061360c602c83613c41565b915061361782614529565b604082019050919050565b600061362f602a83613c41565b915061363a82614578565b604082019050919050565b6000613652601f83613c41565b915061365d826145c7565b602082019050919050565b6000613675601183613c41565b9150613680826145f0565b602082019050919050565b6000613698601583613c41565b91506136a382614619565b602082019050919050565b6136b781613ddb565b82525050565b6136ce6136c982613ddb565b613f25565b82525050565b60006136e0828561329c565b6020820191506136f082846136bd565b6020820191508190509392505050565b600061370b826135b9565b9150819050919050565b600060208201905061372a600083018461327e565b92915050565b6000604082019050613745600083018561327e565b613752602083018461327e565b9392505050565b600060808201905061376e600083018761327e565b61377b602083018661327e565b61378860408301856136ae565b818103606083015261379a81846132b3565b905095945050505050565b60006020820190506137ba600083018461328d565b92915050565b60006020820190506137d560008301846132ec565b92915050565b60006020820190506137f060008301846132fb565b92915050565b60006020820190508181036000830152613810818461330a565b905092915050565b6000602082019050818103600083015261383181613343565b9050919050565b6000602082019050818103600083015261385181613366565b9050919050565b6000602082019050818103600083015261387181613389565b9050919050565b60006020820190508181036000830152613891816133ac565b9050919050565b600060208201905081810360008301526138b1816133cf565b9050919050565b600060208201905081810360008301526138d1816133f2565b9050919050565b600060208201905081810360008301526138f181613415565b9050919050565b6000602082019050818103600083015261391181613438565b9050919050565b600060208201905081810360008301526139318161345b565b9050919050565b600060208201905081810360008301526139518161347e565b9050919050565b60006020820190508181036000830152613971816134a1565b9050919050565b60006020820190508181036000830152613991816134c4565b9050919050565b600060208201905081810360008301526139b1816134e7565b9050919050565b600060208201905081810360008301526139d18161350a565b9050919050565b600060208201905081810360008301526139f18161352d565b9050919050565b60006020820190508181036000830152613a1181613550565b9050919050565b60006020820190508181036000830152613a3181613573565b9050919050565b60006020820190508181036000830152613a5181613596565b9050919050565b60006020820190508181036000830152613a71816135dc565b9050919050565b60006020820190508181036000830152613a91816135ff565b9050919050565b60006020820190508181036000830152613ab181613622565b9050919050565b60006020820190508181036000830152613ad181613645565b9050919050565b60006020820190508181036000830152613af181613668565b9050919050565b60006020820190508181036000830152613b118161368b565b9050919050565b6000602082019050613b2d60008301846136ae565b92915050565b6000604082019050613b4860008301856136ae565b613b5560208301846136ae565b9392505050565b6000613b66613b77565b9050613b728282613ea1565b919050565b6000604051905090565b600067ffffffffffffffff821115613b9c57613b9b613fed565b5b602082029050602081019050919050565b600067ffffffffffffffff821115613bc857613bc7613fed565b5b613bd18261401c565b9050602081019050919050565b600067ffffffffffffffff821115613bf957613bf8613fed565b5b613c028261401c565b9050602081019050919050565b600081519050919050565b600081519050919050565b600082825260208201905092915050565b600081905092915050565b600082825260208201905092915050565b6000613c5d82613ddb565b9150613c6883613ddb565b9250827fffffffffffffffffffffffffffffffffffffffffffffffffffffffffffffffff03821115613c9d57613c9c613f60565b5b828201905092915050565b6000613cb382613ddb565b9150613cbe83613ddb565b925082613cce57613ccd613f8f565b5b828204905092915050565b6000613ce482613ddb565b9150613cef83613ddb565b9250817fffffffffffffffffffffffffffffffffffffffffffffffffffffffffffffffff0483118215151615613d2857613d27613f60565b5b828202905092915050565b6000613d3e82613ddb565b9150613d4983613ddb565b925082821015613d5c57613d5b613f60565b5b828203905092915050565b6000613d7282613dbb565b9050919050565b60008115159050919050565b6000819050919050565b60007fffffffff0000000000000000000000000000000000000000000000000000000082169050919050565b600073ffffffffffffffffffffffffffffffffffffffff82169050919050565b6000819050919050565b6000613df082613df7565b9050919050565b6000613e0282613dbb565b9050919050565b6000613e1482613e1b565b9050919050565b6000613e2682613dbb565b9050919050565b82818337600083830152505050565b60005b83811015613e5a578082015181840152602081019050613e3f565b83811115613e69576000848401525b50505050565b60006002820490506001821680613e8757607f821691505b60208210811415613e9b57613e9a613fbe565b5b50919050565b613eaa8261401c565b810181811067ffffffffffffffff82111715613ec957613ec8613fed565b5b80604052505050565b6000613edd82613ddb565b91507fffffffffffffffffffffffffffffffffffffffffffffffffffffffffffffffff821415613f1057613f0f613f60565b5b600182019050919050565b6000819050919050565b6000819050919050565b6000613f3a82613ddb565b9150613f4583613ddb565b925082613f5557613f54613f8f565b5b828206905092915050565b7f4e487b7100000000000000000000000000000000000000000000000000000000600052601160045260246000fd5b7f4e487b7100000000000000000000000000000000000000000000000000000000600052601260045260246000fd5b7f4e487b7100000000000000000000000000000000000000000000000000000000600052602260045260246000fd5b7f4e487b7100000000000000000000000000000000000000000000000000000000600052604160045260246000fd5b6000601f19601f8301169050919050565b7f6d696e74207175616e746974792065786365656473206d617820737570706c79600082015250565b7f596f75206d757374206265206f776e6572206f7220617070726f76656420666f60008201527f7220746869732073756d6d6f6e65720000000000000000000000000000000000602082015250565b7f455243373231456e756d657261626c653a206f776e657220696e646578206f7560008201527f74206f6620626f756e6473000000000000000000000000000000000000000000602082015250565b7f4552433732313a207472616e7366657220746f206e6f6e20455243373231526560008201527f63656976657220696d706c656d656e7465720000000000000000000000000000602082015250565b7f4f776e61626c653a206e6577206f776e657220697320746865207a65726f206160008201527f6464726573730000000000000000000000000000000000000000000000000000602082015250565b7f4552433732313a20746f6b656e20616c7265616479206d696e74656400000000600082015250565b7f4552433732313a207472616e7366657220746f20746865207a65726f2061646460008201527f7265737300000000000000000000000000000000000000000000000000000000602082015250565b7f4552433732313a20617070726f766520746f2063616c6c657200000000000000600082015250565b7f4552433732313a206f70657261746f7220717565727920666f72206e6f6e657860008201527f697374656e7420746f6b656e0000000000000000000000000000000000000000602082015250565b7f4552433732313a20617070726f76652063616c6c6572206973206e6f74206f7760008201527f6e6572206e6f7220617070726f76656420666f7220616c6c0000000000000000602082015250565b7f4552433732313a2062616c616e636520717565727920666f7220746865207a6560008201527f726f206164647265737300000000000000000000000000000000000000000000602082015250565b7f4552433732313a206f776e657220717565727920666f72206e6f6e657869737460008201527f656e7420746f6b656e0000000000000000000000000000000000000000000000602082015250565b7f746f6b656e5552493a206e6f6e6578697374656e7420746f6b656e0000000000600082015250565b7f4552433732313a206d696e7420746f20746865207a65726f2061646472657373600082015250565b7f4552433732313a20617070726f76656420717565727920666f72206e6f6e657860008201527f697374656e7420746f6b656e0000000000000000000000000000000000000000602082015250565b7f4f776e61626c653a2063616c6c6572206973206e6f7420746865206f776e6572600082015250565b7f4552433732313a207472616e73666572206f6620746f6b656e2074686174206960008201527f73206e6f74206f776e0000000000000000000000000000000000000000000000602082015250565b7f4552433732313a20617070726f76616c20746f2063757272656e74206f776e6560008201527f7200000000000000000000000000000000000000000000000000000000000000602082015250565b50565b7f4552433732313a207472616e736665722063616c6c6572206973206e6f74206f60008201527f776e6572206e6f7220617070726f766564000000000000000000000000000000602082015250565b7f455243373231456e756d657261626c653a20676c6f62616c20696e646578206f60008201527f7574206f6620626f756e64730000000000000000000000000000000000000000602082015250565b7f7468652046544d207472616e7366657220616d6f756e7420697320756e64657260008201527f2074686520707269636500000000000000000000000000000000000000000000602082015250565b7f5265656e7472616e637947756172643a207265656e7472616e742063616c6c00600082015250565b7f5769746864726177616c206661696c6564000000000000000000000000000000600082015250565b7f6d6178696d756d20736b696e7320726561636865640000000000000000000000600082015250565b61464b81613d67565b811461465657600080fd5b50565b61466281613d79565b811461466d57600080fd5b50565b61467981613d8f565b811461468457600080fd5b50565b61469081613ddb565b811461469b57600080fd5b5056fea2646970667358221220288324f9932dbcf9e289dcb1783586159d5384843ba49498eab05c4b2fb8e06e64736f6c6343000804003360c06040523480156200001157600080fd5b50604051620038cf380380620038cf833981810160405281019062000037919062000db4565b620000576200004b620009b060201b60201c565b620009b860201b60201c565b80608081815250503373ffffffffffffffffffffffffffffffffffffffff1660a08173ffffffffffffffffffffffffffffffffffffffff1660601b815250506040518060a001604052806040518060400160405280600881526020017f42726163656c657400000000000000000000000000000000000000000000000081525081526020016040518060400160405280600781526020017f45617272696e670000000000000000000000000000000000000000000000000081525081526020016040518060400160405280600881526020017f4e65636b6c61636500000000000000000000000000000000000000000000000081525081526020016040518060400160405280600481526020017f52696e670000000000000000000000000000000000000000000000000000000081525081526020016040518060400160405280600681526020017f476c6f7665730000000000000000000000000000000000000000000000000000815250815250600260006005811062000202577f4e487b7100000000000000000000000000000000000000000000000000000000600052603260045260246000fd5b019060056200021392919062000a7c565b506040518061014001604052806040518060400160405280600381526020017f426f77000000000000000000000000000000000000000000000000000000000081525081526020016040518060400160405280600681526020017f446167676572000000000000000000000000000000000000000000000000000081525081526020016040518060400160405280600881526020017f4669726562616c6c00000000000000000000000000000000000000000000000081525081526020016040518060400160405280600781526020017f48616c626572640000000000000000000000000000000000000000000000000081525081526020016040518060400160405280600781526020017f486174636865740000000000000000000000000000000000000000000000000081525081526020016040518060400160405280600681526020017f4b6174616e61000000000000000000000000000000000000000000000000000081525081526020016040518060400160405280600681526020017f4b6e69766573000000000000000000000000000000000000000000000000000081525081526020016040518060400160405280600581526020017f537065617200000000000000000000000000000000000000000000000000000081525081526020016040518060400160405280600581526020017f53776f726400000000000000000000000000000000000000000000000000000081525081526020016040518060400160405280600481526020017f57616e64000000000000000000000000000000000000000000000000000000008152508152506002600160058110620004a8577f4e487b7100000000000000000000000000000000000000000000000000000000600052603260045260246000fd5b0190600a620004b992919062000ae3565b506040518060c001604052806040518060400160405280600981526020017f457965205061746368000000000000000000000000000000000000000000000081525081526020016040518060400160405280600381526020017f486174000000000000000000000000000000000000000000000000000000000081525081526020016040518060400160405280600881526020017f4865616462616e6400000000000000000000000000000000000000000000000081525081526020016040518060400160405280600681526020017f486f726e6564000000000000000000000000000000000000000000000000000081525081526020016040518060400160405280600681526020017f4b6e69676874000000000000000000000000000000000000000000000000000081525081526020016040518060400160405280600a81526020017f57686974652045796573000000000000000000000000000000000000000000008152508152506002806005811062000660577f4e487b7100000000000000000000000000000000000000000000000000000000600052603260045260246000fd5b019060066200067192919062000b4a565b5060405180608001604052806040518060400160405280600981526020017f4269672053686f6573000000000000000000000000000000000000000000000081525081526020016040518060400160405280600781526020017f53616e64616c730000000000000000000000000000000000000000000000000081525081526020016040518060400160405280600581526020017f53686f657300000000000000000000000000000000000000000000000000000081525081526020016040518060400160405280600c81526020017f57696e6765642053686f657300000000000000000000000000000000000000008152508152506002600360058110620007a3577f4e487b7100000000000000000000000000000000000000000000000000000000600052603260045260246000fd5b01906004620007b492919062000bb1565b506040518060e001604052806040518060400160405280600581526020017f41726d6f7200000000000000000000000000000000000000000000000000000081525081526020016040518060400160405280600881526020017f4261636b7061636b00000000000000000000000000000000000000000000000081525081526020016040518060400160405280600581526020017f426561726400000000000000000000000000000000000000000000000000000081525081526020016040518060400160405280600481526020017f436170650000000000000000000000000000000000000000000000000000000081525081526020016040518060400160405280600781526020017f5361746368656c0000000000000000000000000000000000000000000000000081525081526020016040518060400160405280600881526020017f536361626261726400000000000000000000000000000000000000000000000081525081526020016040518060400160405280600581526020017f5363617266000000000000000000000000000000000000000000000000000000815250815250600260046005811062000997577f4e487b7100000000000000000000000000000000000000000000000000000000600052603260045260246000fd5b01906007620009a892919062000c18565b505062000e69565b600033905090565b60008060009054906101000a900473ffffffffffffffffffffffffffffffffffffffff169050816000806101000a81548173ffffffffffffffffffffffffffffffffffffffff021916908373ffffffffffffffffffffffffffffffffffffffff1602179055508173ffffffffffffffffffffffffffffffffffffffff168173ffffffffffffffffffffffffffffffffffffffff167f8be0079c531659141344cd1fd0a4f28419497f9722a3daafe3b4186f6b6457e060405160405180910390a35050565b82805482825590600052602060002090810192821562000ad0579160200282015b8281111562000acf57825182908051906020019062000abe92919062000c7f565b509160200191906001019062000a9d565b5b50905062000adf919062000d10565b5090565b82805482825590600052602060002090810192821562000b37579160200282015b8281111562000b3657825182908051906020019062000b2592919062000c7f565b509160200191906001019062000b04565b5b50905062000b46919062000d10565b5090565b82805482825590600052602060002090810192821562000b9e579160200282015b8281111562000b9d57825182908051906020019062000b8c92919062000c7f565b509160200191906001019062000b6b565b5b50905062000bad919062000d10565b5090565b82805482825590600052602060002090810192821562000c05579160200282015b8281111562000c0457825182908051906020019062000bf392919062000c7f565b509160200191906001019062000bd2565b5b50905062000c14919062000d10565b5090565b82805482825590600052602060002090810192821562000c6c579160200282015b8281111562000c6b57825182908051906020019062000c5a92919062000c7f565b509160200191906001019062000c39565b5b50905062000c7b919062000d10565b5090565b82805462000c8d9062000dea565b90600052602060002090601f01602090048101928262000cb1576000855562000cfd565b82601f1062000ccc57805160ff191683800117855562000cfd565b8280016001018555821562000cfd579182015b8281111562000cfc57825182559160200191906001019062000cdf565b5b50905062000d0c919062000d38565b5090565b5b8082111562000d34576000818162000d2a919062000d57565b5060010162000d11565b5090565b5b8082111562000d5357600081600090555060010162000d39565b5090565b50805462000d659062000dea565b6000825580601f1062000d79575062000d9a565b601f01602090049060005260206000209081019062000d99919062000d38565b5b50565b60008151905062000dae8162000e4f565b92915050565b60006020828403121562000dc757600080fd5b600062000dd78482850162000d9d565b91505092915050565b6000819050919050565b6000600282049050600182168062000e0357607f821691505b6020821081141562000e1a5762000e1962000e20565b5b50919050565b7f4e487b7100000000000000000000000000000000000000000000000000000000600052602260045260246000fd5b62000e5a8162000de0565b811462000e6657600080fd5b50565b60805160a05160601c612a3d62000e926000396000610f7a015260006109030152612a3d6000f3fe608060405234801561001057600080fd5b50600436106100575760003560e01c8063715018a61461005c5780638da5cb5b1461006657806392cb829d1461008457806393e6f872146100b4578063f2fde38b146100d0575b600080fd5b6100646100ec565b005b61006e610174565b60405161007b9190611ee2565b60405180910390f35b61009e6004803603810190610099919061170d565b61019d565b6040516100ab9190611efd565b60405180910390f35b6100ce60048036038101906100c991906116b5565b6101d8565b005b6100ea60048036038101906100e59190611663565b6103b7565b005b6100f46104af565b73ffffffffffffffffffffffffffffffffffffffff16610112610174565b73ffffffffffffffffffffffffffffffffffffffff1614610168576040517f08c379a000000000000000000000000000000000000000000000000000000000815260040161015f90611f3f565b60405180910390fd5b61017260006104b7565b565b60008060009054906101000a900473ffffffffffffffffffffffffffffffffffffffff16905090565b60606101b16101ac848461057b565b610967565b6040516020016101c19190611ec0565b604051602081830303815290604052905092915050565b6101e06104af565b73ffffffffffffffffffffffffffffffffffffffff166101fe610174565b73ffffffffffffffffffffffffffffffffffffffff1614610254576040517f08c379a000000000000000000000000000000000000000000000000000000000815260040161024b90611f3f565b60405180910390fd5b60005b828290508110156103b15760005b83838381811061029e577f4e487b7100000000000000000000000000000000000000000000000000000000600052603260045260246000fd5b90506020028101906102b09190611f7a565b905081101561039d578383838181106102f2577f4e487b7100000000000000000000000000000000000000000000000000000000600052603260045260246000fd5b90506020028101906103049190611f7a565b8281811061033b577f4e487b7100000000000000000000000000000000000000000000000000000000600052603260045260246000fd5b905060200281019061034d9190611fd1565b60016000858961035d9190612064565b815260200190815260200160002060008481526020019081526020016000209190610389929190611514565b5080806103959061221a565b915050610265565b5080806103a99061221a565b915050610257565b50505050565b6103bf6104af565b73ffffffffffffffffffffffffffffffffffffffff166103dd610174565b73ffffffffffffffffffffffffffffffffffffffff1614610433576040517f08c379a000000000000000000000000000000000000000000000000000000000815260040161042a90611f3f565b60405180910390fd5b600073ffffffffffffffffffffffffffffffffffffffff168173ffffffffffffffffffffffffffffffffffffffff1614156104a3576040517f08c379a000000000000000000000000000000000000000000000000000000000815260040161049a90611f1f565b60405180910390fd5b6104ac816104b7565b50565b600033905090565b60008060009054906101000a900473ffffffffffffffffffffffffffffffffffffffff169050816000806101000a81548173ffffffffffffffffffffffffffffffffffffffff021916908373ffffffffffffffffffffffffffffffffffffffff1602179055508173ffffffffffffffffffffffffffffffffffffffff168173ffffffffffffffffffffffffffffffffffffffff167f8be0079c531659141344cd1fd0a4f28419497f9722a3daafe3b4186f6b6457e060405160405180910390a35050565b6060600061058883610b12565b9050606060006040518060a001604052806040518060400160405280600981526020017f4163636573736f7279000000000000000000000000000000000000000000000081525081526020016040518060400160405280600681526020017f576561706f6e000000000000000000000000000000000000000000000000000081525081526020016040518060400160405280600481526020017f486561640000000000000000000000000000000000000000000000000000000081525081526020016040518060400160405280600581526020017f53686f657300000000000000000000000000000000000000000000000000000081525081526020016040518060400160405280600581526020017f546f72736f000000000000000000000000000000000000000000000000000000815250815250905060005b60058110156108f457600060016000838152602001908152602001600020600086846008811061071c577f4e487b7100000000000000000000000000000000000000000000000000000000600052603260045260246000fd5b602002015160ff168152602001908152602001600020805461073d906121e8565b905011156108e15782600084511461078a576040518060400160405280600381526020017f2c207b00000000000000000000000000000000000000000000000000000000008152506107c1565b6040518060400160405280600181526020017f7b000000000000000000000000000000000000000000000000000000000000008152505b8383600581106107fa577f4e487b7100000000000000000000000000000000000000000000000000000000600052603260045260246000fd5b602002015160028460058110610839577f4e487b7100000000000000000000000000000000000000000000000000000000600052603260045260246000fd5b01878560088110610873577f4e487b7100000000000000000000000000000000000000000000000000000000600052603260045260246000fd5b602002015160ff16815481106108b2577f4e487b7100000000000000000000000000000000000000000000000000000000600052603260045260246000fd5b906000526020600020016040516020016108cf9493929190611c01565b60405160208183030381529060405292505b80806108ec9061221a565b9150506106c3565b506108fe86610db8565b6109277f0000000000000000000000000000000000000000000000000000000000000000610db8565b6109396109348989610f65565b610967565b8460405160200161094d9493929190611e14565b604051602081830303815290604052935050505092915050565b606060008251141561098a57604051806020016040528060008152509050610b0d565b60006040518060600160405280604081526020016129c860409139905060006003600285516109b99190612064565b6109c391906120ba565b60046109cf91906120eb565b905060006020826109e09190612064565b67ffffffffffffffff811115610a1f577f4e487b7100000000000000000000000000000000000000000000000000000000600052604160045260246000fd5b6040519080825280601f01601f191660200182016040528015610a515781602001600182028036833780820191505090505b509050818152600183018586518101602084015b81831015610acc576003830192508251603f8160121c1685015160f81b8252600182019150603f81600c1c1685015160f81b8252600182019150603f8160061c1685015160f81b8252600182019150603f811685015160f81b825260018201915050610a65565b600389510660018114610ae65760028114610af657610b01565b613d3d60f01b6002830352610b01565b603d60f81b60018303525b50505050508093505050505b919050565b610b1a61159a565b610b2261159a565b600a83610b2f9190612263565b81600060088110610b69577f4e487b7100000000000000000000000000000000000000000000000000000000600052603260045260246000fd5b602002019060ff16908160ff1681525050600a83610b8791906120ba565b9250600e83610b969190612263565b81600160088110610bd0577f4e487b7100000000000000000000000000000000000000000000000000000000600052603260045260246000fd5b602002019060ff16908160ff1681525050600e83610bee91906120ba565b9250600c83610bfd9190612263565b81600260088110610c37577f4e487b7100000000000000000000000000000000000000000000000000000000600052603260045260246000fd5b602002019060ff16908160ff1681525050600c83610c5591906120ba565b9250600883610c649190612263565b81600360088110610c9e577f4e487b7100000000000000000000000000000000000000000000000000000000600052603260045260246000fd5b602002019060ff16908160ff1681525050600883610cbc91906120ba565b9250601083610ccb9190612263565b81600460088110610d05577f4e487b7100000000000000000000000000000000000000000000000000000000600052603260045260246000fd5b602002019060ff16908160ff1681525050601083610d2391906120ba565b92506000600590505b6008811015610dae57600a84610d429190612263565b828260088110610d7b577f4e487b7100000000000000000000000000000000000000000000000000000000600052603260045260246000fd5b602002019060ff16908160ff1681525050600a84610d9991906120ba565b93508080610da69061221a565b915050610d2c565b5080915050919050565b60606000821415610e00576040518060400160405280600181526020017f30000000000000000000000000000000000000000000000000000000000000008152509050610f60565b600082905060005b60008214610e32578080610e1b9061221a565b915050600a82610e2b91906120ba565b9150610e08565b60008167ffffffffffffffff811115610e74577f4e487b7100000000000000000000000000000000000000000000000000000000600052604160045260246000fd5b6040519080825280601f01601f191660200182016040528015610ea65781602001600182028036833780820191505090505b5090505b60008514610f5957600182610ebf9190612145565b9150600a85610ece9190612263565b6030610eda9190612064565b60f81b818381518110610f16577f4e487b7100000000000000000000000000000000000000000000000000000000600052603260045260246000fd5b60200101907effffffffffffffffffffffffffffffffffffffffffffffffffffffffffffff1916908160001a905350600a85610f5291906120ba565b9450610eaa565b8093505050505b919050565b60606000610f7283610b12565b9050600060017f000000000000000000000000000000000000000000000000000000000000000073ffffffffffffffffffffffffffffffffffffffff16633613a9f4876040518263ffffffff1660e01b8152600401610fd19190611f5f565b60206040518083038186803b158015610fe957600080fd5b505afa158015610ffd573d6000803e3d6000fd5b505050506040513d601f19601f82011682018060405250810190611021919061168c565b61102b9190612145565b90506000600782148061103e5750600182145b61105757604051806020016040528060008152506110dd565b60016000600781526020019081526020016000206000846007600881106110a7577f4e487b7100000000000000000000000000000000000000000000000000000000600052603260045260246000fd5b602002015160ff1681526020019081526020016000206040516020016110cd9190611de7565b6040516020818303038152906040525b90506110e886610db8565b6001600060078152602001908152602001600020600085600760088110611138577f4e487b7100000000000000000000000000000000000000000000000000000000600052603260045260246000fd5b602002015160ff16815260200190815260200160002082600160006006815260200190815260200160002060008760066008811061119f577f4e487b7100000000000000000000000000000000000000000000000000000000600052603260045260246000fd5b602002015160ff16815260200190815260200160002060016000600881526020019081526020016000206000878152602001908152602001600020600160006005815260200190815260200160002060008960056008811061122a577f4e487b7100000000000000000000000000000000000000000000000000000000600052603260045260246000fd5b602002015160ff1681526020019081526020016000206001600060098152602001908152602001600020600089815260200190815260200160002060016000600a815260200190815260200160002060008a815260200190815260200160002060016000600b815260200190815260200160002060008b81526020019081526020016000206112b88c6112eb565b6040516020016112d19a99989796959493929190611cc1565b604051602081830303815290604052935050505092915050565b6060600160006004815260200190815260200160002060008360046008811061133d577f4e487b7100000000000000000000000000000000000000000000000000000000600052603260045260246000fd5b602002015160ff16815260200190815260200160002060016000600281526020019081526020016000206000846002600881106113a3577f4e487b7100000000000000000000000000000000000000000000000000000000600052603260045260246000fd5b602002015160ff16815260200190815260200160002060016000808152602001908152602001600020600085600060088110611408577f4e487b7100000000000000000000000000000000000000000000000000000000600052603260045260246000fd5b602002015160ff168152602001908152602001600020600160006003815260200190815260200160002060008660036008811061146e577f4e487b7100000000000000000000000000000000000000000000000000000000600052603260045260246000fd5b602002015160ff16815260200190815260200160002060016000600181526020019081526020016000206000876001600881106114d4577f4e487b7100000000000000000000000000000000000000000000000000000000600052603260045260246000fd5b602002015160ff1681526020019081526020016000206040516020016114fe959493929190611c76565b6040516020818303038152906040529050919050565b828054611520906121e8565b90600052602060002090601f0160209004810192826115425760008555611589565b82601f1061155b57803560ff1916838001178555611589565b82800160010185558215611589579182015b8281111561158857823582559160200191906001019061156d565b5b50905061159691906115bd565b5090565b604051806101000160405280600890602082028036833780820191505090505090565b5b808211156115d65760008160009055506001016115be565b5090565b6000813590506115e981612999565b92915050565b60008083601f84011261160157600080fd5b8235905067ffffffffffffffff81111561161a57600080fd5b60208301915083602082028301111561163257600080fd5b9250929050565b600081359050611648816129b0565b92915050565b60008151905061165d816129b0565b92915050565b60006020828403121561167557600080fd5b6000611683848285016115da565b91505092915050565b60006020828403121561169e57600080fd5b60006116ac8482850161164e565b91505092915050565b6000806000604084860312156116ca57600080fd5b60006116d886828701611639565b935050602084013567ffffffffffffffff8111156116f557600080fd5b611701868287016115ef565b92509250509250925092565b6000806040838503121561172057600080fd5b600061172e85828601611639565b925050602061173f85828601611639565b9150509250929050565b61175281612179565b82525050565b60006117638261203d565b61176d8185612048565b935061177d8185602086016121b5565b61178681612321565b840191505092915050565b600061179c8261203d565b6117a68185612059565b93506117b68185602086016121b5565b80840191505092915050565b600081546117cf816121e8565b6117d98186612059565b945060018216600081146117f4576001811461180557611838565b60ff19831686528186019350611838565b61180e85612028565b60005b8381101561183057815481890152600182019150602081019050611811565b838801955050505b50505092915050565b600061184e601483612059565b915061185982612332565b601482019050919050565b6000611871603183612059565b915061187c8261235b565b603182019050919050565b6000611894602683612048565b915061189f826123aa565b604082019050919050565b60006118b7600283612059565b91506118c2826123f9565b600282019050919050565b60006118da601383612059565b91506118e582612422565b601382019050919050565b60006118fd600f83612059565b91506119088261244b565b600f82019050919050565b6000611920600d83612059565b915061192b82612474565b600d82019050919050565b6000611943606783612059565b915061194e8261249d565b606782019050919050565b6000611966600a83612059565b915061197182612538565b600a82019050919050565b6000611989600183612059565b915061199482612561565b600182019050919050565b60006119ac601183612059565b91506119b78261258a565b601182019050919050565b60006119cf602483612059565b91506119da826125b3565b602482019050919050565b60006119f2600183612059565b91506119fd82612602565b600182019050919050565b6000611a15602083612048565b9150611a208261262b565b602082019050919050565b6000611a38600483612059565b9150611a4382612654565b600482019050919050565b6000611a5b608c83612059565b9150611a668261267d565b608c82019050919050565b6000611a7e600183612059565b9150611a898261273e565b600182019050919050565b6000611aa1600f83612059565b9150611aac82612767565b600f82019050919050565b6000611ac4600a83612059565b9150611acf82612790565b600a82019050919050565b6000611ae7600383612059565b9150611af2826127b9565b600382019050919050565b6000611b0a600183612059565b9150611b15826127e2565b600182019050919050565b6000611b2d606183612059565b9150611b388261280b565b606182019050919050565b6000611b50601d83612059565b9150611b5b826128a6565b601d82019050919050565b6000611b73601483612059565b9150611b7e826128cf565b601482019050919050565b6000611b96600283612059565b9150611ba1826128f8565b600282019050919050565b6000611bb9603983612059565b9150611bc482612921565b603982019050919050565b6000611bdc600683612059565b9150611be782612970565b600682019050919050565b611bfb816121ab565b82525050565b6000611c0d8287611791565b9150611c198286611791565b9150611c24826118f0565b9150611c308285611791565b9150611c3b826118aa565b9150611c4682611ab7565b9150611c5282846117c2565b9150611c5d8261197c565b9150611c68826119e5565b915081905095945050505050565b6000611c8282886117c2565b9150611c8e82876117c2565b9150611c9a82866117c2565b9150611ca682856117c2565b9150611cb282846117c2565b91508190509695505050505050565b6000611ccc82611841565b9150611cd8828d611791565b9150611ce382611bac565b9150611cee82611913565b9150611cfa828c6117c2565b9150611d0582611936565b9150611d11828b611791565b9150611d1c82611864565b9150611d2782611959565b9150611d33828a6117c2565b9150611d3e82611b89565b9150611d4a82896117c2565b9150611d5582611a2b565b9150611d6082611959565b9150611d6c82886117c2565b9150611d7782611b89565b9150611d8382876117c2565b9150611d8e82611a2b565b9150611d998261199f565b9150611da582866117c2565b9150611db082611a2b565b9150611dbc82856117c2565b9150611dc88284611791565b9150611dd382611bcf565b91508190509b9a5050505050505050505050565b6000611df282611a4e565b9150611dfe82846117c2565b9150611e0982611ada565b915081905092915050565b6000611e1f82611a71565b9150611e2a82611b66565b9150611e368287611791565b9150611e41826118aa565b9150611e4c82611b20565b9150611e588286611791565b9150611e63826118cd565b9150611e6e826119c2565b9150611e7a8285611791565b9150611e85826118aa565b9150611e9082611a94565b9150611e9c8284611791565b9150611ea782611afd565b9150611eb2826119e5565b915081905095945050505050565b6000611ecb82611b43565b9150611ed78284611791565b915081905092915050565b6000602082019050611ef76000830184611749565b92915050565b60006020820190508181036000830152611f178184611758565b905092915050565b60006020820190508181036000830152611f3881611887565b9050919050565b60006020820190508181036000830152611f5881611a08565b9050919050565b6000602082019050611f746000830184611bf2565b92915050565b60008083356001602003843603038112611f9357600080fd5b80840192508235915067ffffffffffffffff821115611fb157600080fd5b602083019250602082023603831315611fc957600080fd5b509250929050565b60008083356001602003843603038112611fea57600080fd5b80840192508235915067ffffffffffffffff82111561200857600080fd5b60208301925060018202360383131561202057600080fd5b509250929050565b60008190508160005260206000209050919050565b600081519050919050565b600082825260208201905092915050565b600081905092915050565b600061206f826121ab565b915061207a836121ab565b9250827fffffffffffffffffffffffffffffffffffffffffffffffffffffffffffffffff038211156120af576120ae612294565b5b828201905092915050565b60006120c5826121ab565b91506120d0836121ab565b9250826120e0576120df6122c3565b5b828204905092915050565b60006120f6826121ab565b9150612101836121ab565b9250817fffffffffffffffffffffffffffffffffffffffffffffffffffffffffffffffff048311821515161561213a57612139612294565b5b828202905092915050565b6000612150826121ab565b915061215b836121ab565b92508282101561216e5761216d612294565b5b828203905092915050565b60006121848261218b565b9050919050565b600073ffffffffffffffffffffffffffffffffffffffff82169050919050565b6000819050919050565b60005b838110156121d35780820151818401526020810190506121b8565b838111156121e2576000848401525b50505050565b6000600282049050600182168061220057607f821691505b60208210811415612214576122136122f2565b5b50919050565b6000612225826121ab565b91507fffffffffffffffffffffffffffffffffffffffffffffffffffffffffffffffff82141561225857612257612294565b5b600182019050919050565b600061226e826121ab565b9150612279836121ab565b925082612289576122886122c3565b5b828206905092915050565b7f4e487b7100000000000000000000000000000000000000000000000000000000600052601160045260246000fd5b7f4e487b7100000000000000000000000000000000000000000000000000000000600052601260045260246000fd5b7f4e487b7100000000000000000000000000000000000000000000000000000000600052602260045260246000fd5b6000601f19601f8301169050919050565b7f3c7376672069643d275261726520536b696e2023000000000000000000000000600082015250565b7f3c7061746820643d224d3132203768317631682d317a6d33203068317631682d60008201527f317a222066696c6c3d2223666666222f3e000000000000000000000000000000602082015250565b7f4f776e61626c653a206e6577206f776e657220697320746865207a65726f206160008201527f6464726573730000000000000000000000000000000000000000000000000000602082015250565b7f222c000000000000000000000000000000000000000000000000000000000000600082015250565b7f2077696c6c206576657220657869737421222c00000000000000000000000000600082015250565b7f2274726169745f74797065223a20220000000000000000000000000000000000600082015250565b7f3c706174682066696c6c3d222300000000000000000000000000000000000000600082015250565b7f2220643d224d3136203131762d3168315639682d315635682d315634682d315660008201527f33682d347631483976314838763568317631683176344838763368327631483960208201527f7635683120352031762d31682d31762d356831762d316831762d32682d32762d60408201527f3468317a222f3e00000000000000000000000000000000000000000000000000606082015250565b7f3c672066696c6c3d222300000000000000000000000000000000000000000000600082015250565b7f2200000000000000000000000000000000000000000000000000000000000000600082015250565b7f3c67206f7061636974793d272e3233273e000000000000000000000000000000600082015250565b7f22696d616765223a2022646174613a696d6167652f7376672b786d6c3b62617360008201527f6536342c00000000000000000000000000000000000000000000000000000000602082015250565b7f7d00000000000000000000000000000000000000000000000000000000000000600082015250565b7f4f776e61626c653a2063616c6c6572206973206e6f7420746865206f776e6572600082015250565b7f3c2f673e00000000000000000000000000000000000000000000000000000000600082015250565b7f3c7061746820643d224d31352e3939203131762d3168315639682d315635682d60008201527f315634682d315633682d347631682d317631682d31763568317631683176326860208201527f2d312d312d317631203120316831763268327631682d3176356831203520317660408201527f2d31682d31762d356831762d316831762d32682d31762d312d31682d31762d3260608201527f68317a222066696c6c3d22230000000000000000000000000000000000000000608082015250565b7f7b00000000000000000000000000000000000000000000000000000000000000600082015250565b7f2261747472696275746573223a205b0000000000000000000000000000000000600082015250565b7f2276616c7565223a202200000000000000000000000000000000000000000000600082015250565b7f222f3e0000000000000000000000000000000000000000000000000000000000600082015250565b7f5d00000000000000000000000000000000000000000000000000000000000000600082015250565b7f226465736372697074696f6e223a20225261726520536b696e7320617265207260008201527f616e646f6d6c792067656e65726174656420616e64206861766520313030252060208201527f6f6e2d636861696e2061727420616e64206d65746164617461202d204f6e6c7960408201527f2000000000000000000000000000000000000000000000000000000000000000606082015250565b7f646174613a6170706c69636174696f6e2f6a736f6e3b6261736536342c000000600082015250565b7f226e616d65223a20225261726520536b696e2023000000000000000000000000600082015250565b7f223e000000000000000000000000000000000000000000000000000000000000600082015250565b7f2720786d6c6e733d27687474703a2f2f7777772e77332e6f72672f323030302f60008201527f737667272076696577426f783d27302030203234203234273e00000000000000602082015250565b7f3c2f7376673e0000000000000000000000000000000000000000000000000000600082015250565b6129a281612179565b81146129ad57600080fd5b50565b6129b9816121ab565b81146129c457600080fd5b5056fe4142434445464748494a4b4c4d4e4f505152535455565758595a6162636465666768696a6b6c6d6e6f707172737475767778797a303132333435363738392b2fa26469706673582212202f2a16be47d30a6132b2c096fe08210d8e3b415048c59e86e734adb1194b3dcc64736f6c63430008040033608060405234801561001057600080fd5b5061002d61002261003260201b60201c565b61003a60201b60201c565b6100fe565b600033905090565b60008060009054906101000a900473ffffffffffffffffffffffffffffffffffffffff169050816000806101000a81548173ffffffffffffffffffffffffffffffffffffffff021916908373ffffffffffffffffffffffffffffffffffffffff1602179055508173ffffffffffffffffffffffffffffffffffffffff168173ffffffffffffffffffffffffffffffffffffffff167f8be0079c531659141344cd1fd0a4f28419497f9722a3daafe3b4186f6b6457e060405160405180910390a35050565b611a718061010d6000396000f3fe608060405234801561001057600080fd5b50600436106100925760003560e01c80638da5cb5b116100665780638da5cb5b1461011e578063b03b256e1461013c578063c55b02f414610158578063f2fde38b14610188578063f8588f16146101a457610092565b8062a7c6ee146100975780632abb5c03146100b35780635d98f434146100e4578063715018a614610114575b600080fd5b6100b160048036038101906100ac9190611313565b6101c0565b005b6100cd60048036038101906100c891906112c1565b610523565b6040516100db929190611539565b60405180910390f35b6100fe60048036038101906100f99190611298565b610567565b60405161010b9190611562565b60405180910390f35b61011c6105a1565b005b610126610629565b60405161013391906114f5565b60405180910390f35b610156600480360381019061015191906111f7565b610652565b005b610172600480360381019061016d919061126f565b6109ee565b60405161017f9190611666565b60405180910390f35b6101a2600480360381019061019d91906111a5565b610a06565b005b6101be60048036038101906101b991906111a5565b610afe565b005b3382828273ffffffffffffffffffffffffffffffffffffffff1663b8dbacf96040518163ffffffff1660e01b8152600401602060405180830381600087803b15801561020b57600080fd5b505af192505050801561023c57506040513d601f19601f820116820180604052508101906102399190611246565b60015b61031257610248611797565b634e487b7114156103035761025b6119be565b906102665750610303565b600360003373ffffffffffffffffffffffffffffffffffffffff1673ffffffffffffffffffffffffffffffffffffffff16815260200190815260200160002060009054906101000a900460ff166102f2576040517f08c379a00000000000000000000000000000000000000000000000000000000081526004016102e9906115fd565b60405180910390fd5b6102fd338787610bd5565b5061030d565b3d6000803e3d6000fd5b61051c565b8015610483578373ffffffffffffffffffffffffffffffffffffffff16633613a9f4846040518263ffffffff1660e01b81526004016103519190611666565b602060405180830381600087803b15801561036b57600080fd5b505af115801561037f573d6000803e3d6000fd5b505050506040513d601f19601f820116820180604052508101906103a391906112ea565b732a8ac1b2fcb475c7646f93b6e69930d1eb67c05373ffffffffffffffffffffffffffffffffffffffff16633613a9f4846040518263ffffffff1660e01b81526004016103f09190611666565b602060405180830381600087803b15801561040a57600080fd5b505af115801561041e573d6000803e3d6000fd5b505050506040513d601f19601f8201168201806040525081019061044291906112ea565b14610482576040517f08c379a00000000000000000000000000000000000000000000000000000000081526004016104799061161d565b60405180910390fd5b5b600360003373ffffffffffffffffffffffffffffffffffffffff1673ffffffffffffffffffffffffffffffffffffffff16815260200190815260200160002060009054906101000a900460ff1661050f576040517f08c379a0000000000000000000000000000000000000000000000000000000008152600401610506906115fd565b60405180910390fd5b61051a338787610bd5565b505b5050505050565b60016020528060005260406000206000915090508060000160009054906101000a900473ffffffffffffffffffffffffffffffffffffffff16908060010154905082565b6000816000015182602001516040516020016105849291906114c9565b604051602081830303815290604052805190602001209050919050565b6105a9610df2565b73ffffffffffffffffffffffffffffffffffffffff166105c7610629565b73ffffffffffffffffffffffffffffffffffffffff161461061d576040517f08c379a0000000000000000000000000000000000000000000000000000000008152600401610614906115dd565b60405180910390fd5b6106276000610dfa565b565b60008060009054906101000a900473ffffffffffffffffffffffffffffffffffffffff16905090565b8282828273ffffffffffffffffffffffffffffffffffffffff1663b8dbacf96040518163ffffffff1660e01b8152600401602060405180830381600087803b15801561069d57600080fd5b505af19250505080156106ce57506040513d601f19601f820116820180604052508101906106cb9190611246565b60015b6107c0576106da611797565b634e487b7114156107b1576106ed6119be565b906106f857506107b1565b610703873388610ebe565b610742576040517f08c379a00000000000000000000000000000000000000000000000000000000081526004016107399061159d565b60405180910390fd5b610761732a8ac1b2fcb475c7646f93b6e69930d1eb67c0533387610ebe565b6107a0576040517f08c379a00000000000000000000000000000000000000000000000000000000081526004016107979061157d565b60405180910390fd5b6107ab878787610bd5565b506107bb565b3d6000803e3d6000fd5b6109e6565b8015610931578373ffffffffffffffffffffffffffffffffffffffff16633613a9f4846040518263ffffffff1660e01b81526004016107ff9190611666565b602060405180830381600087803b15801561081957600080fd5b505af115801561082d573d6000803e3d6000fd5b505050506040513d601f19601f8201168201806040525081019061085191906112ea565b732a8ac1b2fcb475c7646f93b6e69930d1eb67c05373ffffffffffffffffffffffffffffffffffffffff16633613a9f4846040518263ffffffff1660e01b815260040161089e9190611666565b602060405180830381600087803b1580156108b857600080fd5b505af11580156108cc573d6000803e3d6000fd5b505050506040513d601f19601f820116820180604052508101906108f091906112ea565b14610930576040517f08c379a00000000000000000000000000000000000000000000000000000000081526004016109279061161d565b60405180910390fd5b5b61093c873388610ebe565b61097b576040517f08c379a00000000000000000000000000000000000000000000000000000000081526004016109729061159d565b60405180910390fd5b61099a732a8ac1b2fcb475c7646f93b6e69930d1eb67c0533387610ebe565b6109d9576040517f08c379a00000000000000000000000000000000000000000000000000000000081526004016109d09061157d565b60405180910390fd5b6109e4878787610bd5565b505b505050505050565b60026020528060005260406000206000915090505481565b610a0e610df2565b73ffffffffffffffffffffffffffffffffffffffff16610a2c610629565b73ffffffffffffffffffffffffffffffffffffffff1614610a82576040517f08c379a0000000000000000000000000000000000000000000000000000000008152600401610a79906115dd565b60405180910390fd5b600073ffffffffffffffffffffffffffffffffffffffff168173ffffffffffffffffffffffffffffffffffffffff161415610af2576040517f08c379a0000000000000000000000000000000000000000000000000000000008152600401610ae9906115bd565b60405180910390fd5b610afb81610dfa565b50565b610b06610df2565b73ffffffffffffffffffffffffffffffffffffffff16610b24610629565b73ffffffffffffffffffffffffffffffffffffffff1614610b7a576040517f08c379a0000000000000000000000000000000000000000000000000000000008152600401610b71906115dd565b60405180910390fd5b6001600360008373ffffffffffffffffffffffffffffffffffffffff1673ffffffffffffffffffffffffffffffffffffffff16815260200190815260200160002060006101000a81548160ff02191690831515021790555050565b6040518060400160405280600073ffffffffffffffffffffffffffffffffffffffff16815260200160008152506001600060026000610c3d60405180604001604052808a73ffffffffffffffffffffffffffffffffffffffff16815260200189815250610567565b815260200190815260200160002054815260200190815260200160002060008201518160000160006101000a81548173ffffffffffffffffffffffffffffffffffffffff021916908373ffffffffffffffffffffffffffffffffffffffff160217905550602082015181600101559050508060026000610ce660405180604001604052808873ffffffffffffffffffffffffffffffffffffffff16815260200187815250610567565b81526020019081526020016000208190555060405180604001604052808473ffffffffffffffffffffffffffffffffffffffff168152602001838152506001600083815260200190815260200160002060008201518160000160006101000a81548173ffffffffffffffffffffffffffffffffffffffff021916908373ffffffffffffffffffffffffffffffffffffffff160217905550602082015181600101559050507f91dd75ea262c69e401a2c0fef76c62376c182a4fb4dc1e1c0f320420fccdbc0260405180604001604052808573ffffffffffffffffffffffffffffffffffffffff1681526020018481525082604051610de592919061163d565b60405180910390a1505050565b600033905090565b60008060009054906101000a900473ffffffffffffffffffffffffffffffffffffffff169050816000806101000a81548173ffffffffffffffffffffffffffffffffffffffff021916908373ffffffffffffffffffffffffffffffffffffffff1602179055508173ffffffffffffffffffffffffffffffffffffffff168173ffffffffffffffffffffffffffffffffffffffff167f8be0079c531659141344cd1fd0a4f28419497f9722a3daafe3b4186f6b6457e060405160405180910390a35050565b60008084905060008173ffffffffffffffffffffffffffffffffffffffff16636352211e856040518263ffffffff1660e01b8152600401610eff9190611666565b60206040518083038186803b158015610f1757600080fd5b505afa158015610f2b573d6000803e3d6000fd5b505050506040513d601f19601f82011682018060405250810190610f4f91906111ce565b90508073ffffffffffffffffffffffffffffffffffffffff168573ffffffffffffffffffffffffffffffffffffffff16148061103e57508473ffffffffffffffffffffffffffffffffffffffff168273ffffffffffffffffffffffffffffffffffffffff1663081812fc866040518263ffffffff1660e01b8152600401610fd69190611666565b60206040518083038186803b158015610fee57600080fd5b505afa158015611002573d6000803e3d6000fd5b505050506040513d601f19601f8201168201806040525081019061102691906111ce565b73ffffffffffffffffffffffffffffffffffffffff16145b806110d057508173ffffffffffffffffffffffffffffffffffffffff1663e985e9c582876040518363ffffffff1660e01b815260040161107f929190611510565b60206040518083038186803b15801561109757600080fd5b505afa1580156110ab573d6000803e3d6000fd5b505050506040513d601f19601f820116820180604052508101906110cf9190611246565b5b925050509392505050565b6000813590506110ea816119df565b92915050565b6000815190506110ff816119df565b92915050565b600081519050611114816119f6565b92915050565b60008135905061112981611a0d565b92915050565b60006040828403121561114157600080fd5b61114b6040611681565b9050600061115b848285016110db565b600083015250602061116f8482850161117b565b60208301525092915050565b60008135905061118a81611a24565b92915050565b60008151905061119f81611a24565b92915050565b6000602082840312156111b757600080fd5b60006111c5848285016110db565b91505092915050565b6000602082840312156111e057600080fd5b60006111ee848285016110f0565b91505092915050565b60008060006060848603121561120c57600080fd5b600061121a868287016110db565b935050602061122b8682870161117b565b925050604061123c8682870161117b565b9150509250925092565b60006020828403121561125857600080fd5b600061126684828501611105565b91505092915050565b60006020828403121561128157600080fd5b600061128f8482850161111a565b91505092915050565b6000604082840312156112aa57600080fd5b60006112b88482850161112f565b91505092915050565b6000602082840312156112d357600080fd5b60006112e18482850161117b565b91505092915050565b6000602082840312156112fc57600080fd5b600061130a84828501611190565b91505092915050565b6000806040838503121561132657600080fd5b60006113348582860161117b565b92505060206113458582860161117b565b9150509250929050565b611358816116b7565b82525050565b611367816116b7565b82525050565b61137e611379826116b7565b61173a565b82525050565b61138d816116d5565b82525050565b60006113a0602f836116a6565b91506113ab826117e4565b604082019050919050565b60006113c3602c836116a6565b91506113ce82611833565b604082019050919050565b60006113e66026836116a6565b91506113f182611882565b604082019050919050565b60006114096020836116a6565b9150611414826118d1565b602082019050919050565b600061142c6046836116a6565b9150611437826118fa565b606082019050919050565b600061144f602b836116a6565b915061145a8261196f565b604082019050919050565b60408201600082015161147b600085018261134f565b50602082015161148e6020850182611494565b50505050565b61149d816116ff565b82525050565b6114ac816116ff565b82525050565b6114c36114be826116ff565b61175e565b82525050565b60006114d5828561136d565b6014820191506114e582846114b2565b6020820191508190509392505050565b600060208201905061150a600083018461135e565b92915050565b6000604082019050611525600083018561135e565b611532602083018461135e565b9392505050565b600060408201905061154e600083018561135e565b61155b60208301846114a3565b9392505050565b60006020820190506115776000830184611384565b92915050565b6000602082019050818103600083015261159681611393565b9050919050565b600060208201905081810360008301526115b6816113b6565b9050919050565b600060208201905081810360008301526115d6816113d9565b9050919050565b600060208201905081810360008301526115f6816113fc565b9050919050565b600060208201905081810360008301526116168161141f565b9050919050565b6000602082019050818103600083015261163681611442565b9050919050565b60006060820190506116526000830185611465565b61165f60408301846114a3565b9392505050565b600060208201905061167b60008301846114a3565b92915050565b600061168b61169c565b90506116978282611709565b919050565b6000604051905090565b600082825260208201905092915050565b60006116c2826116df565b9050919050565b60008115159050919050565b6000819050919050565b600073ffffffffffffffffffffffffffffffffffffffff82169050919050565b6000819050919050565b611712826117b9565b810181811067ffffffffffffffff8211171561173157611730611768565b5b80604052505050565b60006117458261174c565b9050919050565b6000611757826117ca565b9050919050565b6000819050919050565b7f4e487b7100000000000000000000000000000000000000000000000000000000600052604160045260246000fd5b600060033d11156117b65760046000803e6117b36000516117d7565b90505b90565b6000601f19601f8301169050919050565b60008160601b9050919050565b60008160e01c9050919050565b7f596f75206d757374206265206f776e6572206f7220617070726f76656420666f60008201527f7220746869732073756d6d6f6e65720000000000000000000000000000000000602082015250565b7f596f75206d757374206265206f776e6572206f7220617070726f76656420666f60008201527f72207468697320746f6b656e0000000000000000000000000000000000000000602082015250565b7f4f776e61626c653a206e6577206f776e657220697320746865207a65726f206160008201527f6464726573730000000000000000000000000000000000000000000000000000602082015250565b7f4f776e61626c653a2063616c6c6572206973206e6f7420746865206f776e6572600082015250565b7f4f6e6c7920747275737465642045524337323120696d706c656d656e7461746960008201527f6f6e732063616e20616363657373207468697320776179206f6620617373696760208201527f6e6174696f6e0000000000000000000000000000000000000000000000000000604082015250565b7f53756d6d6f6e657220616e6420736b696e206d757374206265206f662074686560008201527f2073616d6520636c617373000000000000000000000000000000000000000000602082015250565b60008060233d11156119db576020600460003e6001915060005190505b9091565b6119e8816116b7565b81146119f357600080fd5b50565b6119ff816116c9565b8114611a0a57600080fd5b50565b611a16816116d5565b8114611a2157600080fd5b50565b611a2d816116ff565b8114611a3857600080fd5b5056fea2646970667358221220e469e6ffde258af592f661237aa755414692854b787c6b81ba74709095c9a94764736f6c63430008040033",
  "linkReferences": {},
  "deployedLinkReferences": {}
}