{
  "_format": "hh-sol-artifact-1",
  "contractName": "CommonSummonerSkins",
  "sourceName": "contracts/alts/CommonSummonerSkins.sol",
  "abi": [
    {
      "inputs": [],
      "stateMutability": "nonpayable",
      "type": "constructor"
    },
    {
      "anonymous": false,
      "inputs": [
        {
          "indexed": true,
          "internalType": "address",
          "name": "owner",
          "type": "address"
        },
        {
          "indexed": true,
          "internalType": "address",
          "name": "approved",
          "type": "address"
        },
        {
          "indexed": true,
          "internalType": "uint256",
          "name": "tokenId",
          "type": "uint256"
        }
      ],
      "name": "Approval",
      "type": "event"
    },
    {
      "anonymous": false,
      "inputs": [
        {
          "indexed": true,
          "internalType": "address",
          "name": "owner",
          "type": "address"
        },
        {
          "indexed": true,
          "internalType": "address",
          "name": "operator",
          "type": "address"
        },
        {
          "indexed": false,
          "internalType": "bool",
          "name": "approved",
          "type": "bool"
        }
      ],
      "name": "ApprovalForAll",
      "type": "event"
    },
    {
      "anonymous": false,
      "inputs": [
        {
          "indexed": true,
          "internalType": "address",
          "name": "previousOwner",
          "type": "address"
        },
        {
          "indexed": true,
          "internalType": "address",
          "name": "newOwner",
          "type": "address"
        }
      ],
      "name": "OwnershipTransferred",
      "type": "event"
    },
    {
      "anonymous": false,
      "inputs": [
        {
          "indexed": true,
          "internalType": "address",
          "name": "from",
          "type": "address"
        },
        {
          "indexed": true,
          "internalType": "address",
          "name": "to",
          "type": "address"
        },
        {
          "indexed": true,
          "internalType": "uint256",
          "name": "tokenId",
          "type": "uint256"
        }
      ],
      "name": "Transfer",
      "type": "event"
    },
    {
      "inputs": [
        {
          "internalType": "address",
          "name": "to",
          "type": "address"
        },
        {
          "internalType": "uint256",
          "name": "tokenId",
          "type": "uint256"
        }
      ],
      "name": "approve",
      "outputs": [],
      "stateMutability": "nonpayable",
      "type": "function"
    },
    {
      "inputs": [
        {
          "internalType": "address",
          "name": "owner",
          "type": "address"
        }
      ],
      "name": "balanceOf",
      "outputs": [
        {
          "internalType": "uint256",
          "name": "",
          "type": "uint256"
        }
      ],
      "stateMutability": "view",
      "type": "function"
    },
    {
      "inputs": [
        {
          "internalType": "uint256",
          "name": "",
          "type": "uint256"
        }
      ],
      "name": "class",
      "outputs": [
        {
          "internalType": "uint256",
          "name": "",
          "type": "uint256"
        }
      ],
      "stateMutability": "view",
      "type": "function"
    },
    {
      "inputs": [
        {
          "internalType": "uint256",
          "name": "tokenId",
          "type": "uint256"
        }
      ],
      "name": "getApproved",
      "outputs": [
        {
          "internalType": "address",
          "name": "",
          "type": "address"
        }
      ],
      "stateMutability": "view",
      "type": "function"
    },
    {
      "inputs": [
        {
          "internalType": "address",
          "name": "owner",
          "type": "address"
        },
        {
          "internalType": "address",
          "name": "operator",
          "type": "address"
        }
      ],
      "name": "isApprovedForAll",
      "outputs": [
        {
          "internalType": "bool",
          "name": "",
          "type": "bool"
        }
      ],
      "stateMutability": "view",
      "type": "function"
    },
    {
      "inputs": [],
      "name": "isStrictOnSummonerClass",
      "outputs": [
        {
          "internalType": "bool",
          "name": "",
          "type": "bool"
        }
      ],
      "stateMutability": "view",
      "type": "function"
    },
    {
      "inputs": [
        {
          "internalType": "uint256",
          "name": "quantity",
          "type": "uint256"
        }
      ],
      "name": "mint",
      "outputs": [],
      "stateMutability": "payable",
      "type": "function"
    },
    {
      "inputs": [
        {
          "internalType": "uint256[]",
          "name": "summonerIds",
          "type": "uint256[]"
        }
      ],
      "name": "mintAndAssign",
      "outputs": [],
      "stateMutability": "payable",
      "type": "function"
    },
    {
      "inputs": [],
      "name": "name",
      "outputs": [
        {
          "internalType": "string",
          "name": "",
          "type": "string"
        }
      ],
      "stateMutability": "view",
      "type": "function"
    },
    {
      "inputs": [],
      "name": "owner",
      "outputs": [
        {
          "internalType": "address",
          "name": "",
          "type": "address"
        }
      ],
      "stateMutability": "view",
      "type": "function"
    },
    {
      "inputs": [
        {
          "internalType": "uint256",
          "name": "tokenId",
          "type": "uint256"
        }
      ],
      "name": "ownerOf",
      "outputs": [
        {
          "internalType": "address",
          "name": "",
          "type": "address"
        }
      ],
      "stateMutability": "view",
      "type": "function"
    },
    {
      "inputs": [],
      "name": "price",
      "outputs": [
        {
          "internalType": "uint256",
          "name": "",
          "type": "uint256"
        }
      ],
      "stateMutability": "view",
      "type": "function"
    },
    {
      "inputs": [],
      "name": "raritySkinManager",
      "outputs": [
        {
          "internalType": "contract RaritySkinManagerFix",
          "name": "",
          "type": "address"
        }
      ],
      "stateMutability": "view",
      "type": "function"
    },
    {
      "inputs": [],
      "name": "renounceOwnership",
      "outputs": [],
      "stateMutability": "nonpayable",
      "type": "function"
    },
    {
      "inputs": [
        {
          "internalType": "address",
          "name": "from",
          "type": "address"
        },
        {
          "internalType": "address",
          "name": "to",
          "type": "address"
        },
        {
          "internalType": "uint256",
          "name": "tokenId",
          "type": "uint256"
        }
      ],
      "name": "safeTransferFrom",
      "outputs": [],
      "stateMutability": "nonpayable",
      "type": "function"
    },
    {
      "inputs": [
        {
          "internalType": "address",
          "name": "from",
          "type": "address"
        },
        {
          "internalType": "address",
          "name": "to",
          "type": "address"
        },
        {
          "internalType": "uint256",
          "name": "tokenId",
          "type": "uint256"
        },
        {
          "internalType": "bytes",
          "name": "_data",
          "type": "bytes"
        }
      ],
      "name": "safeTransferFrom",
      "outputs": [],
      "stateMutability": "nonpayable",
      "type": "function"
    },
    {
      "inputs": [
        {
          "internalType": "address",
          "name": "operator",
          "type": "address"
        },
        {
          "internalType": "bool",
          "name": "approved",
          "type": "bool"
        }
      ],
      "name": "setApprovalForAll",
      "outputs": [],
      "stateMutability": "nonpayable",
      "type": "function"
    },
    {
      "inputs": [
        {
          "internalType": "uint256",
          "name": "_price",
          "type": "uint256"
        }
      ],
      "name": "setPrice",
      "outputs": [],
      "stateMutability": "nonpayable",
      "type": "function"
    },
    {
      "inputs": [],
      "name": "skinURIs",
      "outputs": [
        {
          "internalType": "contract CommonSkinURIs",
          "name": "",
          "type": "address"
        }
      ],
      "stateMutability": "view",
      "type": "function"
    },
    {
      "inputs": [
        {
          "internalType": "bytes4",
          "name": "interfaceId",
          "type": "bytes4"
        }
      ],
      "name": "supportsInterface",
      "outputs": [
        {
          "internalType": "bool",
          "name": "",
          "type": "bool"
        }
      ],
      "stateMutability": "view",
      "type": "function"
    },
    {
      "inputs": [],
      "name": "symbol",
      "outputs": [
        {
          "internalType": "string",
          "name": "",
          "type": "string"
        }
      ],
      "stateMutability": "view",
      "type": "function"
    },
    {
      "inputs": [
        {
          "internalType": "uint256",
          "name": "index",
          "type": "uint256"
        }
      ],
      "name": "tokenByIndex",
      "outputs": [
        {
          "internalType": "uint256",
          "name": "",
          "type": "uint256"
        }
      ],
      "stateMutability": "view",
      "type": "function"
    },
    {
      "inputs": [
        {
          "internalType": "address",
          "name": "owner",
          "type": "address"
        },
        {
          "internalType": "uint256",
          "name": "index",
          "type": "uint256"
        }
      ],
      "name": "tokenOfOwnerByIndex",
      "outputs": [
        {
          "internalType": "uint256",
          "name": "",
          "type": "uint256"
        }
      ],
      "stateMutability": "view",
      "type": "function"
    },
    {
      "inputs": [
        {
          "internalType": "uint256",
          "name": "_tokenId",
          "type": "uint256"
        }
      ],
      "name": "tokenURI",
      "outputs": [
        {
          "internalType": "string",
          "name": "",
          "type": "string"
        }
      ],
      "stateMutability": "view",
      "type": "function"
    },
    {
      "inputs": [],
      "name": "totalSupply",
      "outputs": [
        {
          "internalType": "uint256",
          "name": "",
          "type": "uint256"
        }
      ],
      "stateMutability": "view",
      "type": "function"
    },
    {
      "inputs": [
        {
          "internalType": "address",
          "name": "from",
          "type": "address"
        },
        {
          "internalType": "address",
          "name": "to",
          "type": "address"
        },
        {
          "internalType": "uint256",
          "name": "tokenId",
          "type": "uint256"
        }
      ],
      "name": "transferFrom",
      "outputs": [],
      "stateMutability": "nonpayable",
      "type": "function"
    },
    {
      "inputs": [
        {
          "internalType": "address",
          "name": "newOwner",
          "type": "address"
        }
      ],
      "name": "transferOwnership",
      "outputs": [],
      "stateMutability": "nonpayable",
      "type": "function"
    },
    {
      "inputs": [],
      "name": "withdraw",
      "outputs": [],
      "stateMutability": "nonpayable",
      "type": "function"
    }
  ],
  "bytecode": "0x608060405267016345785d8a0000600e553480156200001d57600080fd5b506040518060400160405280601581526020017f53756d6d6f6e657220436f6d6d6f6e20536b696e7300000000000000000000008152506040518060400160405280600c81526020017f434f4d4d4f4e20534b494e5300000000000000000000000000000000000000008152506001600081905550620000b2620000a6620001e960201b60201c565b620001f160201b60201c565b8160029080519060200190620000ca929190620002b7565b508060039080519060200190620000e3929190620002b7565b505050604051620000f49062000348565b604051809103906000f08015801562000111573d6000803e3d6000fd5b50600d60006101000a81548173ffffffffffffffffffffffffffffffffffffffff021916908373ffffffffffffffffffffffffffffffffffffffff160217905550600d60009054906101000a900473ffffffffffffffffffffffffffffffffffffffff1673ffffffffffffffffffffffffffffffffffffffff1663f2fde38b336040518263ffffffff1660e01b8152600401620001af919062000386565b600060405180830381600087803b158015620001ca57600080fd5b505af1158015620001df573d6000803e3d6000fd5b505050506200043c565b600033905090565b6000600160009054906101000a900473ffffffffffffffffffffffffffffffffffffffff16905081600160006101000a81548173ffffffffffffffffffffffffffffffffffffffff021916908373ffffffffffffffffffffffffffffffffffffffff1602179055508173ffffffffffffffffffffffffffffffffffffffff168173ffffffffffffffffffffffffffffffffffffffff167f8be0079c531659141344cd1fd0a4f28419497f9722a3daafe3b4186f6b6457e060405160405180910390a35050565b828054620002c590620003d7565b90600052602060002090601f016020900481019282620002e9576000855562000335565b82601f106200030457805160ff191683800117855562000335565b8280016001018555821562000335579182015b828111156200033457825182559160200191906001019062000317565b5b50905062000344919062000356565b5090565b6137c880620047e783390190565b5b808211156200037157600081600090555060010162000357565b5090565b6200038081620003a3565b82525050565b60006020820190506200039d600083018462000375565b92915050565b6000620003b082620003b7565b9050919050565b600073ffffffffffffffffffffffffffffffffffffffff82169050919050565b60006002820490506001821680620003f057607f821691505b602082108114156200040757620004066200040d565b5b50919050565b7f4e487b7100000000000000000000000000000000000000000000000000000000600052602260045260246000fd5b61439b806200044c6000396000f3fe6080604052600436106101b75760003560e01c806370a08231116100ec578063a22cb4651161008a578063c87b56dd11610064578063c87b56dd146105ff578063e985e9c51461063c578063f2fde38b14610679578063f41327ca146106a2576101b7565b8063a22cb46514610582578063b88d4fde146105ab578063b8dbacf9146105d4576101b7565b806391b7f5ed116100c657806391b7f5ed146104e757806395d89b4114610510578063a035b1fe1461053b578063a0712d6814610566576101b7565b806370a0823114610468578063715018a6146104a55780638da5cb5b146104bc576101b7565b80632f745c591161015957806342842e0e1161013357806342842e0e1461039a5780634f33a4ea146103c35780634f6ccce7146103ee5780636352211e1461042b576101b7565b80632f745c59146103095780633613a9f4146103465780633ccfd60b14610383576101b7565b8063095ea7b311610195578063095ea7b3146102615780630e83a5a71461028a57806318160ddd146102b557806323b872dd146102e0576101b7565b806301ffc9a7146101bc57806306fdde03146101f9578063081812fc14610224575b600080fd5b3480156101c857600080fd5b506101e360048036038101906101de9190612f69565b6106be565b6040516101f0919061352f565b60405180910390f35b34801561020557600080fd5b5061020e610738565b60405161021b9190613580565b60405180910390f35b34801561023057600080fd5b5061024b60048036038101906102469190612ffc565b6107ca565b604051610258919061349f565b60405180910390f35b34801561026d57600080fd5b5061028860048036038101906102839190612ec3565b61084f565b005b34801561029657600080fd5b5061029f610967565b6040516102ac9190613565565b60405180910390f35b3480156102c157600080fd5b506102ca61097f565b6040516102d79190613862565b60405180910390f35b3480156102ec57600080fd5b5061030760048036038101906103029190612dbd565b61098c565b005b34801561031557600080fd5b50610330600480360381019061032b9190612ec3565b6109ec565b60405161033d9190613862565b60405180910390f35b34801561035257600080fd5b5061036d60048036038101906103689190612ffc565b610a91565b60405161037a9190613862565b60405180910390f35b34801561038f57600080fd5b50610398610aa9565b005b3480156103a657600080fd5b506103c160048036038101906103bc9190612dbd565b610bd4565b005b3480156103cf57600080fd5b506103d8610bf4565b6040516103e5919061354a565b60405180910390f35b3480156103fa57600080fd5b5061041560048036038101906104109190612ffc565b610c1a565b6040516104229190613862565b60405180910390f35b34801561043757600080fd5b50610452600480360381019061044d9190612ffc565b610cb1565b60405161045f919061349f565b60405180910390f35b34801561047457600080fd5b5061048f600480360381019061048a9190612d2f565b610d63565b60405161049c9190613862565b60405180910390f35b3480156104b157600080fd5b506104ba610e1b565b005b3480156104c857600080fd5b506104d1610ea3565b6040516104de919061349f565b60405180910390f35b3480156104f357600080fd5b5061050e60048036038101906105099190612ffc565b610ecd565b005b34801561051c57600080fd5b50610525610f53565b6040516105329190613580565b60405180910390f35b34801561054757600080fd5b50610550610fe5565b60405161055d9190613862565b60405180910390f35b610580600480360381019061057b9190612ffc565b610feb565b005b34801561058e57600080fd5b506105a960048036038101906105a49190612e87565b611105565b005b3480156105b757600080fd5b506105d260048036038101906105cd9190612e0c565b61111b565b005b3480156105e057600080fd5b506105e961117d565b6040516105f6919061352f565b60405180910390f35b34801561060b57600080fd5b5061062660048036038101906106219190612ffc565b611182565b6040516106339190613580565b60405180910390f35b34801561064857600080fd5b50610663600480360381019061065e9190612d81565b611298565b604051610670919061352f565b60405180910390f35b34801561068557600080fd5b506106a0600480360381019061069b9190612d2f565b61132c565b005b6106bc60048036038101906106b79190612eff565b611424565b005b60007f780e9d63000000000000000000000000000000000000000000000000000000007bffffffffffffffffffffffffffffffffffffffffffffffffffffffff1916827bffffffffffffffffffffffffffffffffffffffffffffffffffffffff1916148061073157506107308261171e565b5b9050919050565b60606002805461074790613b88565b80601f016020809104026020016040519081016040528092919081815260200182805461077390613b88565b80156107c05780601f10610795576101008083540402835291602001916107c0565b820191906000526020600020905b8154815290600101906020018083116107a357829003601f168201915b5050505050905090565b60006107d582611800565b610814576040517f08c379a000000000000000000000000000000000000000000000000000000000815260040161080b90613742565b60405180910390fd5b6006600083815260200190815260200160002060009054906101000a900473ffffffffffffffffffffffffffffffffffffffff169050919050565b600061085a82610cb1565b90508073ffffffffffffffffffffffffffffffffffffffff168373ffffffffffffffffffffffffffffffffffffffff1614156108cb576040517f08c379a00000000000000000000000000000000000000000000000000000000081526004016108c2906137a2565b60405180910390fd5b8073ffffffffffffffffffffffffffffffffffffffff166108ea61186c565b73ffffffffffffffffffffffffffffffffffffffff16148061091957506109188161091361186c565b611298565b5b610958576040517f08c379a000000000000000000000000000000000000000000000000000000000815260040161094f906136a2565b60405180910390fd5b6109628383611874565b505050565b73fb48543dffc6566638709a3d0a8e66ebed73732a81565b6000600a80549050905090565b61099d61099761186c565b8261192d565b6109dc576040517f08c379a00000000000000000000000000000000000000000000000000000000081526004016109d3906137c2565b60405180910390fd5b6109e7838383611a0b565b505050565b60006109f783610d63565b8210610a38576040517f08c379a0000000000000000000000000000000000000000000000000000000008152600401610a2f906135c2565b60405180910390fd5b600860008473ffffffffffffffffffffffffffffffffffffffff1673ffffffffffffffffffffffffffffffffffffffff168152602001908152602001600020600083815260200190815260200160002054905092915050565b60106020528060005260406000206000915090505481565b610ab161186c565b73ffffffffffffffffffffffffffffffffffffffff16610acf610ea3565b73ffffffffffffffffffffffffffffffffffffffff1614610b25576040517f08c379a0000000000000000000000000000000000000000000000000000000008152600401610b1c90613762565b60405180910390fd5b60003373ffffffffffffffffffffffffffffffffffffffff1647604051610b4b9061348a565b60006040518083038185875af1925050503d8060008114610b88576040519150601f19603f3d011682016040523d82523d6000602084013e610b8d565b606091505b5050905080610bd1576040517f08c379a0000000000000000000000000000000000000000000000000000000008152600401610bc890613842565b60405180910390fd5b50565b610bef8383836040518060200160405280600081525061111b565b505050565b600d60009054906101000a900473ffffffffffffffffffffffffffffffffffffffff1681565b6000610c2461097f565b8210610c65576040517f08c379a0000000000000000000000000000000000000000000000000000000008152600401610c5c906137e2565b60405180910390fd5b600a8281548110610c9f577f4e487b7100000000000000000000000000000000000000000000000000000000600052603260045260246000fd5b90600052602060002001549050919050565b6000806004600084815260200190815260200160002060009054906101000a900473ffffffffffffffffffffffffffffffffffffffff169050600073ffffffffffffffffffffffffffffffffffffffff168173ffffffffffffffffffffffffffffffffffffffff161415610d5a576040517f08c379a0000000000000000000000000000000000000000000000000000000008152600401610d51906136e2565b60405180910390fd5b80915050919050565b60008073ffffffffffffffffffffffffffffffffffffffff168273ffffffffffffffffffffffffffffffffffffffff161415610dd4576040517f08c379a0000000000000000000000000000000000000000000000000000000008152600401610dcb906136c2565b60405180910390fd5b600560008373ffffffffffffffffffffffffffffffffffffffff1673ffffffffffffffffffffffffffffffffffffffff168152602001908152602001600020549050919050565b610e2361186c565b73ffffffffffffffffffffffffffffffffffffffff16610e41610ea3565b73ffffffffffffffffffffffffffffffffffffffff1614610e97576040517f08c379a0000000000000000000000000000000000000000000000000000000008152600401610e8e90613762565b60405180910390fd5b610ea16000611c67565b565b6000600160009054906101000a900473ffffffffffffffffffffffffffffffffffffffff16905090565b610ed561186c565b73ffffffffffffffffffffffffffffffffffffffff16610ef3610ea3565b73ffffffffffffffffffffffffffffffffffffffff1614610f49576040517f08c379a0000000000000000000000000000000000000000000000000000000008152600401610f4090613762565b60405180910390fd5b80600e8190555050565b606060038054610f6290613b88565b80601f0160208091040260200160405190810160405280929190818152602001828054610f8e90613b88565b8015610fdb5780601f10610fb057610100808354040283529160200191610fdb565b820191906000526020600020905b815481529060010190602001808311610fbe57829003601f168201915b5050505050905090565b600e5481565b60026000541415611031576040517f08c379a000000000000000000000000000000000000000000000000000000000815260040161102890613822565b60405180910390fd5b60026000819055508080600e5461104891906139f2565b34101561108a576040517f08c379a000000000000000000000000000000000000000000000000000000000815260040161108190613802565b60405180910390fd5b6000600b6110a061109b600c611d2d565b611d3b565b6110aa9190613c48565b905060005b838110156110f7576110e36001600b83856110ca919061399c565b6110d49190613c48565b6110de919061399c565b611d7d565b5080806110ef90613beb565b9150506110af565b505050600160008190555050565b61111761111061186c565b8383611e05565b5050565b61112c61112661186c565b8361192d565b61116b576040517f08c379a0000000000000000000000000000000000000000000000000000000008152600401611162906137c2565b60405180910390fd5b61117784848484611f72565b50505050565b600181565b606061118d82611800565b6111cc576040517f08c379a00000000000000000000000000000000000000000000000000000000081526004016111c390613702565b60405180910390fd5b600d60009054906101000a900473ffffffffffffffffffffffffffffffffffffffff1673ffffffffffffffffffffffffffffffffffffffff166392cb829d83600f6000868152602001908152602001600020546040518363ffffffff1660e01b815260040161123c92919061387d565b60006040518083038186803b15801561125457600080fd5b505afa158015611268573d6000803e3d6000fd5b505050506040513d6000823e3d601f19601f820116820180604052508101906112919190612fbb565b9050919050565b6000600760008473ffffffffffffffffffffffffffffffffffffffff1673ffffffffffffffffffffffffffffffffffffffff16815260200190815260200160002060008373ffffffffffffffffffffffffffffffffffffffff1673ffffffffffffffffffffffffffffffffffffffff16815260200190815260200160002060009054906101000a900460ff16905092915050565b61133461186c565b73ffffffffffffffffffffffffffffffffffffffff16611352610ea3565b73ffffffffffffffffffffffffffffffffffffffff16146113a8576040517f08c379a000000000000000000000000000000000000000000000000000000000815260040161139f90613762565b60405180910390fd5b600073ffffffffffffffffffffffffffffffffffffffff168173ffffffffffffffffffffffffffffffffffffffff161415611418576040517f08c379a000000000000000000000000000000000000000000000000000000000815260040161140f90613602565b60405180910390fd5b61142181611c67565b50565b6002600054141561146a576040517f08c379a000000000000000000000000000000000000000000000000000000000815260040161146190613822565b60405180910390fd5b6002600081905550805180600e5461148291906139f2565b3410156114c4576040517f08c379a00000000000000000000000000000000000000000000000000000000081526004016114bb90613802565b60405180910390fd5b60005b82518110156117115761151983828151811061150c577f4e487b7100000000000000000000000000000000000000000000000000000000600052603260045260246000fd5b6020026020010151611fce565b611558576040517f08c379a000000000000000000000000000000000000000000000000000000000815260040161154f906135a2565b60405180910390fd5b73fb48543dffc6566638709a3d0a8e66ebed73732a73ffffffffffffffffffffffffffffffffffffffff1662a7c6ee61166e732a8ac1b2fcb475c7646f93b6e69930d1eb67c05373ffffffffffffffffffffffffffffffffffffffff16633613a9f48786815181106115f3577f4e487b7100000000000000000000000000000000000000000000000000000000600052603260045260246000fd5b60200260200101516040518263ffffffff1660e01b81526004016116179190613862565b602060405180830381600087803b15801561163157600080fd5b505af1158015611645573d6000803e3d6000fd5b505050506040513d601f19601f820116820180604052508101906116699190613025565b611d7d565b8584815181106116a7577f4e487b7100000000000000000000000000000000000000000000000000000000600052603260045260246000fd5b60200260200101516040518363ffffffff1660e01b81526004016116cc92919061387d565b600060405180830381600087803b1580156116e657600080fd5b505af11580156116fa573d6000803e3d6000fd5b50505050808061170990613beb565b9150506114c7565b5050600160008190555050565b60007f80ac58cd000000000000000000000000000000000000000000000000000000007bffffffffffffffffffffffffffffffffffffffffffffffffffffffff1916827bffffffffffffffffffffffffffffffffffffffffffffffffffffffff191614806117e957507f5b5e139f000000000000000000000000000000000000000000000000000000007bffffffffffffffffffffffffffffffffffffffffffffffffffffffff1916827bffffffffffffffffffffffffffffffffffffffffffffffffffffffff1916145b806117f957506117f88261221f565b5b9050919050565b60008073ffffffffffffffffffffffffffffffffffffffff166004600084815260200190815260200160002060009054906101000a900473ffffffffffffffffffffffffffffffffffffffff1673ffffffffffffffffffffffffffffffffffffffff1614159050919050565b600033905090565b816006600083815260200190815260200160002060006101000a81548173ffffffffffffffffffffffffffffffffffffffff021916908373ffffffffffffffffffffffffffffffffffffffff160217905550808273ffffffffffffffffffffffffffffffffffffffff166118e783610cb1565b73ffffffffffffffffffffffffffffffffffffffff167f8c5be1e5ebec7d5bd14f71427d1e84f3dd0314c0f7b2291e5b200ac8c7c3b92560405160405180910390a45050565b600061193882611800565b611977576040517f08c379a000000000000000000000000000000000000000000000000000000000815260040161196e90613682565b60405180910390fd5b600061198283610cb1565b90508073ffffffffffffffffffffffffffffffffffffffff168473ffffffffffffffffffffffffffffffffffffffff1614806119f157508373ffffffffffffffffffffffffffffffffffffffff166119d9846107ca565b73ffffffffffffffffffffffffffffffffffffffff16145b80611a025750611a018185611298565b5b91505092915050565b8273ffffffffffffffffffffffffffffffffffffffff16611a2b82610cb1565b73ffffffffffffffffffffffffffffffffffffffff1614611a81576040517f08c379a0000000000000000000000000000000000000000000000000000000008152600401611a7890613782565b60405180910390fd5b600073ffffffffffffffffffffffffffffffffffffffff168273ffffffffffffffffffffffffffffffffffffffff161415611af1576040517f08c379a0000000000000000000000000000000000000000000000000000000008152600401611ae890613642565b60405180910390fd5b611afc838383612289565b611b07600082611874565b6001600560008573ffffffffffffffffffffffffffffffffffffffff1673ffffffffffffffffffffffffffffffffffffffff1681526020019081526020016000206000828254611b579190613a4c565b925050819055506001600560008473ffffffffffffffffffffffffffffffffffffffff1673ffffffffffffffffffffffffffffffffffffffff1681526020019081526020016000206000828254611bae919061399c565b92505081905550816004600083815260200190815260200160002060006101000a81548173ffffffffffffffffffffffffffffffffffffffff021916908373ffffffffffffffffffffffffffffffffffffffff160217905550808273ffffffffffffffffffffffffffffffffffffffff168473ffffffffffffffffffffffffffffffffffffffff167fddf252ad1be2c89b69c2b068fc378daa952ba7f163c4a11628f55a4df523b3ef60405160405180910390a4505050565b6000600160009054906101000a900473ffffffffffffffffffffffffffffffffffffffff16905081600160006101000a81548173ffffffffffffffffffffffffffffffffffffffff021916908373ffffffffffffffffffffffffffffffffffffffff1602179055508173ffffffffffffffffffffffffffffffffffffffff168173ffffffffffffffffffffffffffffffffffffffff167f8be0079c531659141344cd1fd0a4f28419497f9722a3daafe3b4186f6b6457e060405160405180910390a35050565b600081600001549050919050565b6000600143611d4a9190613a4c565b4082604051602001611d5d92919061345e565b6040516020818303038152906040528051906020012060001c9050919050565b600080611d92611d8d600c611d2d565b611d3b565b9050611d9e600c61239d565b611db133611dac600c611d2d565b6123b3565b80600f6000611dc0600c611d2d565b8152602001908152602001600020819055508260106000611de1600c611d2d565b815260200190815260200160002081905550611dfd600c611d2d565b915050919050565b8173ffffffffffffffffffffffffffffffffffffffff168373ffffffffffffffffffffffffffffffffffffffff161415611e74576040517f08c379a0000000000000000000000000000000000000000000000000000000008152600401611e6b90613662565b60405180910390fd5b80600760008573ffffffffffffffffffffffffffffffffffffffff1673ffffffffffffffffffffffffffffffffffffffff16815260200190815260200160002060008473ffffffffffffffffffffffffffffffffffffffff1673ffffffffffffffffffffffffffffffffffffffff16815260200190815260200160002060006101000a81548160ff0219169083151502179055508173ffffffffffffffffffffffffffffffffffffffff168373ffffffffffffffffffffffffffffffffffffffff167f17307eab39ab6107e8899845ad3d59bd9653f200f220920489ca2b5937696c3183604051611f65919061352f565b60405180910390a3505050565b611f7d848484611a0b565b611f89848484846123d1565b611fc8576040517f08c379a0000000000000000000000000000000000000000000000000000000008152600401611fbf906135e2565b60405180910390fd5b50505050565b600080732a8ac1b2fcb475c7646f93b6e69930d1eb67c05373ffffffffffffffffffffffffffffffffffffffff16636352211e846040518263ffffffff1660e01b815260040161201e9190613862565b60206040518083038186803b15801561203657600080fd5b505afa15801561204a573d6000803e3d6000fd5b505050506040513d601f19601f8201168201806040525081019061206e9190612d58565b90508073ffffffffffffffffffffffffffffffffffffffff163373ffffffffffffffffffffffffffffffffffffffff16148061217157503373ffffffffffffffffffffffffffffffffffffffff16732a8ac1b2fcb475c7646f93b6e69930d1eb67c05373ffffffffffffffffffffffffffffffffffffffff1663081812fc856040518263ffffffff1660e01b81526004016121099190613862565b60206040518083038186803b15801561212157600080fd5b505afa158015612135573d6000803e3d6000fd5b505050506040513d601f19601f820116820180604052508101906121599190612d58565b73ffffffffffffffffffffffffffffffffffffffff16145b806122175750732a8ac1b2fcb475c7646f93b6e69930d1eb67c05373ffffffffffffffffffffffffffffffffffffffff1663e985e9c582336040518363ffffffff1660e01b81526004016121c69291906134ba565b60206040518083038186803b1580156121de57600080fd5b505afa1580156121f2573d6000803e3d6000fd5b505050506040513d601f19601f820116820180604052508101906122169190612f40565b5b915050919050565b60007f01ffc9a7000000000000000000000000000000000000000000000000000000007bffffffffffffffffffffffffffffffffffffffffffffffffffffffff1916827bffffffffffffffffffffffffffffffffffffffffffffffffffffffff1916149050919050565b612294838383612568565b600073ffffffffffffffffffffffffffffffffffffffff168373ffffffffffffffffffffffffffffffffffffffff1614156122d7576122d28161256d565b612316565b8173ffffffffffffffffffffffffffffffffffffffff168373ffffffffffffffffffffffffffffffffffffffff16146123155761231483826125b6565b5b5b600073ffffffffffffffffffffffffffffffffffffffff168273ffffffffffffffffffffffffffffffffffffffff1614156123595761235481612723565b612398565b8273ffffffffffffffffffffffffffffffffffffffff168273ffffffffffffffffffffffffffffffffffffffff1614612397576123968282612866565b5b5b505050565b6001816000016000828254019250508190555050565b6123cd8282604051806020016040528060008152506128e5565b5050565b60006123f28473ffffffffffffffffffffffffffffffffffffffff16612940565b1561255b578373ffffffffffffffffffffffffffffffffffffffff1663150b7a0261241b61186c565b8786866040518563ffffffff1660e01b815260040161243d94939291906134e3565b602060405180830381600087803b15801561245757600080fd5b505af192505050801561248857506040513d601f19601f820116820180604052508101906124859190612f92565b60015b61250b573d80600081146124b8576040519150601f19603f3d011682016040523d82523d6000602084013e6124bd565b606091505b50600081511415612503576040517f08c379a00000000000000000000000000000000000000000000000000000000081526004016124fa906135e2565b60405180910390fd5b805181602001fd5b63150b7a0260e01b7bffffffffffffffffffffffffffffffffffffffffffffffffffffffff1916817bffffffffffffffffffffffffffffffffffffffffffffffffffffffff191614915050612560565b600190505b949350505050565b505050565b600a80549050600b600083815260200190815260200160002081905550600a81908060018154018082558091505060019003906000526020600020016000909190919091505550565b600060016125c384610d63565b6125cd9190613a4c565b90506000600960008481526020019081526020016000205490508181146126b2576000600860008673ffffffffffffffffffffffffffffffffffffffff1673ffffffffffffffffffffffffffffffffffffffff168152602001908152602001600020600084815260200190815260200160002054905080600860008773ffffffffffffffffffffffffffffffffffffffff1673ffffffffffffffffffffffffffffffffffffffff168152602001908152602001600020600084815260200190815260200160002081905550816009600083815260200190815260200160002081905550505b6009600084815260200190815260200160002060009055600860008573ffffffffffffffffffffffffffffffffffffffff1673ffffffffffffffffffffffffffffffffffffffff16815260200190815260200160002060008381526020019081526020016000206000905550505050565b60006001600a805490506127379190613a4c565b90506000600b60008481526020019081526020016000205490506000600a838154811061278d577f4e487b7100000000000000000000000000000000000000000000000000000000600052603260045260246000fd5b9060005260206000200154905080600a83815481106127d5577f4e487b7100000000000000000000000000000000000000000000000000000000600052603260045260246000fd5b906000526020600020018190555081600b600083815260200190815260200160002081905550600b600085815260200190815260200160002060009055600a80548061284a577f4e487b7100000000000000000000000000000000000000000000000000000000600052603160045260246000fd5b6001900381819060005260206000200160009055905550505050565b600061287183610d63565b905081600860008573ffffffffffffffffffffffffffffffffffffffff1673ffffffffffffffffffffffffffffffffffffffff168152602001908152602001600020600083815260200190815260200160002081905550806009600084815260200190815260200160002081905550505050565b6128ef8383612953565b6128fc60008484846123d1565b61293b576040517f08c379a0000000000000000000000000000000000000000000000000000000008152600401612932906135e2565b60405180910390fd5b505050565b600080823b905060008111915050919050565b600073ffffffffffffffffffffffffffffffffffffffff168273ffffffffffffffffffffffffffffffffffffffff1614156129c3576040517f08c379a00000000000000000000000000000000000000000000000000000000081526004016129ba90613722565b60405180910390fd5b6129cc81611800565b15612a0c576040517f08c379a0000000000000000000000000000000000000000000000000000000008152600401612a0390613622565b60405180910390fd5b612a1860008383612289565b6001600560008473ffffffffffffffffffffffffffffffffffffffff1673ffffffffffffffffffffffffffffffffffffffff1681526020019081526020016000206000828254612a68919061399c565b92505081905550816004600083815260200190815260200160002060006101000a81548173ffffffffffffffffffffffffffffffffffffffff021916908373ffffffffffffffffffffffffffffffffffffffff160217905550808273ffffffffffffffffffffffffffffffffffffffff16600073ffffffffffffffffffffffffffffffffffffffff167fddf252ad1be2c89b69c2b068fc378daa952ba7f163c4a11628f55a4df523b3ef60405160405180910390a45050565b6000612b34612b2f846138cb565b6138a6565b90508083825260208201905082856020860282011115612b5357600080fd5b60005b85811015612b835781612b698882612d05565b845260208401935060208301925050600181019050612b56565b5050509392505050565b6000612ba0612b9b846138f7565b6138a6565b905082815260208101848484011115612bb857600080fd5b612bc3848285613b46565b509392505050565b6000612bde612bd984613928565b6138a6565b905082815260208101848484011115612bf657600080fd5b612c01848285613b55565b509392505050565b600081359050612c1881614309565b92915050565b600081519050612c2d81614309565b92915050565b600082601f830112612c4457600080fd5b8135612c54848260208601612b21565b91505092915050565b600081359050612c6c81614320565b92915050565b600081519050612c8181614320565b92915050565b600081359050612c9681614337565b92915050565b600081519050612cab81614337565b92915050565b600082601f830112612cc257600080fd5b8135612cd2848260208601612b8d565b91505092915050565b600082601f830112612cec57600080fd5b8151612cfc848260208601612bcb565b91505092915050565b600081359050612d148161434e565b92915050565b600081519050612d298161434e565b92915050565b600060208284031215612d4157600080fd5b6000612d4f84828501612c09565b91505092915050565b600060208284031215612d6a57600080fd5b6000612d7884828501612c1e565b91505092915050565b60008060408385031215612d9457600080fd5b6000612da285828601612c09565b9250506020612db385828601612c09565b9150509250929050565b600080600060608486031215612dd257600080fd5b6000612de086828701612c09565b9350506020612df186828701612c09565b9250506040612e0286828701612d05565b9150509250925092565b60008060008060808587031215612e2257600080fd5b6000612e3087828801612c09565b9450506020612e4187828801612c09565b9350506040612e5287828801612d05565b925050606085013567ffffffffffffffff811115612e6f57600080fd5b612e7b87828801612cb1565b91505092959194509250565b60008060408385031215612e9a57600080fd5b6000612ea885828601612c09565b9250506020612eb985828601612c5d565b9150509250929050565b60008060408385031215612ed657600080fd5b6000612ee485828601612c09565b9250506020612ef585828601612d05565b9150509250929050565b600060208284031215612f1157600080fd5b600082013567ffffffffffffffff811115612f2b57600080fd5b612f3784828501612c33565b91505092915050565b600060208284031215612f5257600080fd5b6000612f6084828501612c72565b91505092915050565b600060208284031215612f7b57600080fd5b6000612f8984828501612c87565b91505092915050565b600060208284031215612fa457600080fd5b6000612fb284828501612c9c565b91505092915050565b600060208284031215612fcd57600080fd5b600082015167ffffffffffffffff811115612fe757600080fd5b612ff384828501612cdb565b91505092915050565b60006020828403121561300e57600080fd5b600061301c84828501612d05565b91505092915050565b60006020828403121561303757600080fd5b600061304584828501612d1a565b91505092915050565b61305781613a80565b82525050565b61306681613a92565b82525050565b61307d61307882613a9e565b613c34565b82525050565b600061308e82613959565b613098818561396f565b93506130a8818560208601613b55565b6130b181613d35565b840191505092915050565b6130c581613afe565b82525050565b6130d481613b22565b82525050565b60006130e582613964565b6130ef818561398b565b93506130ff818560208601613b55565b61310881613d35565b840191505092915050565b6000613120602f8361398b565b915061312b82613d46565b604082019050919050565b6000613143602b8361398b565b915061314e82613d95565b604082019050919050565b600061316660328361398b565b915061317182613de4565b604082019050919050565b600061318960268361398b565b915061319482613e33565b604082019050919050565b60006131ac601c8361398b565b91506131b782613e82565b602082019050919050565b60006131cf60248361398b565b91506131da82613eab565b604082019050919050565b60006131f260198361398b565b91506131fd82613efa565b602082019050919050565b6000613215602c8361398b565b915061322082613f23565b604082019050919050565b600061323860388361398b565b915061324382613f72565b604082019050919050565b600061325b602a8361398b565b915061326682613fc1565b604082019050919050565b600061327e60298361398b565b915061328982614010565b604082019050919050565b60006132a1601b8361398b565b91506132ac8261405f565b602082019050919050565b60006132c460208361398b565b91506132cf82614088565b602082019050919050565b60006132e7602c8361398b565b91506132f2826140b1565b604082019050919050565b600061330a60208361398b565b915061331582614100565b602082019050919050565b600061332d60298361398b565b915061333882614129565b604082019050919050565b600061335060218361398b565b915061335b82614178565b604082019050919050565b6000613373600083613980565b915061337e826141c7565b600082019050919050565b600061339660318361398b565b91506133a1826141ca565b604082019050919050565b60006133b9602c8361398b565b91506133c482614219565b604082019050919050565b60006133dc602a8361398b565b91506133e782614268565b604082019050919050565b60006133ff601f8361398b565b915061340a826142b7565b602082019050919050565b600061342260118361398b565b915061342d826142e0565b602082019050919050565b61344181613af4565b82525050565b61345861345382613af4565b613c3e565b82525050565b600061346a828561306c565b60208201915061347a8284613447565b6020820191508190509392505050565b600061349582613366565b9150819050919050565b60006020820190506134b4600083018461304e565b92915050565b60006040820190506134cf600083018561304e565b6134dc602083018461304e565b9392505050565b60006080820190506134f8600083018761304e565b613505602083018661304e565b6135126040830185613438565b81810360608301526135248184613083565b905095945050505050565b6000602082019050613544600083018461305d565b92915050565b600060208201905061355f60008301846130bc565b92915050565b600060208201905061357a60008301846130cb565b92915050565b6000602082019050818103600083015261359a81846130da565b905092915050565b600060208201905081810360008301526135bb81613113565b9050919050565b600060208201905081810360008301526135db81613136565b9050919050565b600060208201905081810360008301526135fb81613159565b9050919050565b6000602082019050818103600083015261361b8161317c565b9050919050565b6000602082019050818103600083015261363b8161319f565b9050919050565b6000602082019050818103600083015261365b816131c2565b9050919050565b6000602082019050818103600083015261367b816131e5565b9050919050565b6000602082019050818103600083015261369b81613208565b9050919050565b600060208201905081810360008301526136bb8161322b565b9050919050565b600060208201905081810360008301526136db8161324e565b9050919050565b600060208201905081810360008301526136fb81613271565b9050919050565b6000602082019050818103600083015261371b81613294565b9050919050565b6000602082019050818103600083015261373b816132b7565b9050919050565b6000602082019050818103600083015261375b816132da565b9050919050565b6000602082019050818103600083015261377b816132fd565b9050919050565b6000602082019050818103600083015261379b81613320565b9050919050565b600060208201905081810360008301526137bb81613343565b9050919050565b600060208201905081810360008301526137db81613389565b9050919050565b600060208201905081810360008301526137fb816133ac565b9050919050565b6000602082019050818103600083015261381b816133cf565b9050919050565b6000602082019050818103600083015261383b816133f2565b9050919050565b6000602082019050818103600083015261385b81613415565b9050919050565b60006020820190506138776000830184613438565b92915050565b60006040820190506138926000830185613438565b61389f6020830184613438565b9392505050565b60006138b06138c1565b90506138bc8282613bba565b919050565b6000604051905090565b600067ffffffffffffffff8211156138e6576138e5613d06565b5b602082029050602081019050919050565b600067ffffffffffffffff82111561391257613911613d06565b5b61391b82613d35565b9050602081019050919050565b600067ffffffffffffffff82111561394357613942613d06565b5b61394c82613d35565b9050602081019050919050565b600081519050919050565b600081519050919050565b600082825260208201905092915050565b600081905092915050565b600082825260208201905092915050565b60006139a782613af4565b91506139b283613af4565b9250827fffffffffffffffffffffffffffffffffffffffffffffffffffffffffffffffff038211156139e7576139e6613c79565b5b828201905092915050565b60006139fd82613af4565b9150613a0883613af4565b9250817fffffffffffffffffffffffffffffffffffffffffffffffffffffffffffffffff0483118215151615613a4157613a40613c79565b5b828202905092915050565b6000613a5782613af4565b9150613a6283613af4565b925082821015613a7557613a74613c79565b5b828203905092915050565b6000613a8b82613ad4565b9050919050565b60008115159050919050565b6000819050919050565b60007fffffffff0000000000000000000000000000000000000000000000000000000082169050919050565b600073ffffffffffffffffffffffffffffffffffffffff82169050919050565b6000819050919050565b6000613b0982613b10565b9050919050565b6000613b1b82613ad4565b9050919050565b6000613b2d82613b34565b9050919050565b6000613b3f82613ad4565b9050919050565b82818337600083830152505050565b60005b83811015613b73578082015181840152602081019050613b58565b83811115613b82576000848401525b50505050565b60006002820490506001821680613ba057607f821691505b60208210811415613bb457613bb3613cd7565b5b50919050565b613bc382613d35565b810181811067ffffffffffffffff82111715613be257613be1613d06565b5b80604052505050565b6000613bf682613af4565b91507fffffffffffffffffffffffffffffffffffffffffffffffffffffffffffffffff821415613c2957613c28613c79565b5b600182019050919050565b6000819050919050565b6000819050919050565b6000613c5382613af4565b9150613c5e83613af4565b925082613c6e57613c6d613ca8565b5b828206905092915050565b7f4e487b7100000000000000000000000000000000000000000000000000000000600052601160045260246000fd5b7f4e487b7100000000000000000000000000000000000000000000000000000000600052601260045260246000fd5b7f4e487b7100000000000000000000000000000000000000000000000000000000600052602260045260246000fd5b7f4e487b7100000000000000000000000000000000000000000000000000000000600052604160045260246000fd5b6000601f19601f8301169050919050565b7f596f75206d757374206265206f776e6572206f7220617070726f76656420666f60008201527f7220746869732073756d6d6f6e65720000000000000000000000000000000000602082015250565b7f455243373231456e756d657261626c653a206f776e657220696e646578206f7560008201527f74206f6620626f756e6473000000000000000000000000000000000000000000602082015250565b7f4552433732313a207472616e7366657220746f206e6f6e20455243373231526560008201527f63656976657220696d706c656d656e7465720000000000000000000000000000602082015250565b7f4f776e61626c653a206e6577206f776e657220697320746865207a65726f206160008201527f6464726573730000000000000000000000000000000000000000000000000000602082015250565b7f4552433732313a20746f6b656e20616c7265616479206d696e74656400000000600082015250565b7f4552433732313a207472616e7366657220746f20746865207a65726f2061646460008201527f7265737300000000000000000000000000000000000000000000000000000000602082015250565b7f4552433732313a20617070726f766520746f2063616c6c657200000000000000600082015250565b7f4552433732313a206f70657261746f7220717565727920666f72206e6f6e657860008201527f697374656e7420746f6b656e0000000000000000000000000000000000000000602082015250565b7f4552433732313a20617070726f76652063616c6c6572206973206e6f74206f7760008201527f6e6572206e6f7220617070726f76656420666f7220616c6c0000000000000000602082015250565b7f4552433732313a2062616c616e636520717565727920666f7220746865207a6560008201527f726f206164647265737300000000000000000000000000000000000000000000602082015250565b7f4552433732313a206f776e657220717565727920666f72206e6f6e657869737460008201527f656e7420746f6b656e0000000000000000000000000000000000000000000000602082015250565b7f746f6b656e5552493a206e6f6e6578697374656e7420746f6b656e0000000000600082015250565b7f4552433732313a206d696e7420746f20746865207a65726f2061646472657373600082015250565b7f4552433732313a20617070726f76656420717565727920666f72206e6f6e657860008201527f697374656e7420746f6b656e0000000000000000000000000000000000000000602082015250565b7f4f776e61626c653a2063616c6c6572206973206e6f7420746865206f776e6572600082015250565b7f4552433732313a207472616e73666572206f6620746f6b656e2074686174206960008201527f73206e6f74206f776e0000000000000000000000000000000000000000000000602082015250565b7f4552433732313a20617070726f76616c20746f2063757272656e74206f776e6560008201527f7200000000000000000000000000000000000000000000000000000000000000602082015250565b50565b7f4552433732313a207472616e736665722063616c6c6572206973206e6f74206f60008201527f776e6572206e6f7220617070726f766564000000000000000000000000000000602082015250565b7f455243373231456e756d657261626c653a20676c6f62616c20696e646578206f60008201527f7574206f6620626f756e64730000000000000000000000000000000000000000602082015250565b7f7468652046544d207472616e7366657220616d6f756e7420697320756e64657260008201527f2074686520707269636500000000000000000000000000000000000000000000602082015250565b7f5265656e7472616e637947756172643a207265656e7472616e742063616c6c00600082015250565b7f5769746864726177616c206661696c6564000000000000000000000000000000600082015250565b61431281613a80565b811461431d57600080fd5b50565b61432981613a92565b811461433457600080fd5b50565b61434081613aa8565b811461434b57600080fd5b50565b61435781613af4565b811461436257600080fd5b5056fea2646970667358221220f3056b8a30fd8ba5e837b7edd75d582c3a6b2fabe43855d2f2257d723edfa98c64736f6c6343000804003360a06040523480156200001157600080fd5b5062000032620000266200098260201b60201c565b6200098a60201b60201c565b3373ffffffffffffffffffffffffffffffffffffffff1660808173ffffffffffffffffffffffffffffffffffffffff1660601b815250506040518060a001604052806040518060400160405280600881526020017f42726163656c657400000000000000000000000000000000000000000000000081525081526020016040518060400160405280600781526020017f45617272696e670000000000000000000000000000000000000000000000000081525081526020016040518060400160405280600681526020017f476c6f766573000000000000000000000000000000000000000000000000000081525081526020016040518060400160405280600881526020017f4e65636b6c61636500000000000000000000000000000000000000000000000081525081526020016040518060400160405280600481526020017f52696e67000000000000000000000000000000000000000000000000000000008152508152506002600060058110620001d5577f4e487b7100000000000000000000000000000000000000000000000000000000600052603260045260246000fd5b01906005620001e692919062000a4e565b506040518061014001604052806040518060400160405280600381526020017f426f77000000000000000000000000000000000000000000000000000000000081525081526020016040518060400160405280600681526020017f446167676572000000000000000000000000000000000000000000000000000081525081526020016040518060400160405280600881526020017f4669726562616c6c00000000000000000000000000000000000000000000000081525081526020016040518060400160405280600781526020017f48616c626572640000000000000000000000000000000000000000000000000081525081526020016040518060400160405280600781526020017f486174636865740000000000000000000000000000000000000000000000000081525081526020016040518060400160405280600681526020017f4b6174616e61000000000000000000000000000000000000000000000000000081525081526020016040518060400160405280600681526020017f4b6e69766573000000000000000000000000000000000000000000000000000081525081526020016040518060400160405280600581526020017f537065617200000000000000000000000000000000000000000000000000000081525081526020016040518060400160405280600581526020017f53776f726400000000000000000000000000000000000000000000000000000081525081526020016040518060400160405280600481526020017f57616e640000000000000000000000000000000000000000000000000000000081525081525060026001600581106200047b577f4e487b7100000000000000000000000000000000000000000000000000000000600052603260045260246000fd5b0190600a6200048c92919062000ab5565b506040518060c001604052806040518060400160405280600981526020017f457965205061746368000000000000000000000000000000000000000000000081525081526020016040518060400160405280600381526020017f486174000000000000000000000000000000000000000000000000000000000081525081526020016040518060400160405280600881526020017f4865616462616e6400000000000000000000000000000000000000000000000081525081526020016040518060400160405280600681526020017f486f726e6564000000000000000000000000000000000000000000000000000081525081526020016040518060400160405280600681526020017f4b6e69676874000000000000000000000000000000000000000000000000000081525081526020016040518060400160405280600a81526020017f57686974652045796573000000000000000000000000000000000000000000008152508152506002806005811062000633577f4e487b7100000000000000000000000000000000000000000000000000000000600052603260045260246000fd5b019060066200064492919062000b1c565b5060405180608001604052806040518060400160405280600981526020017f4269672053686f6573000000000000000000000000000000000000000000000081525081526020016040518060400160405280600781526020017f53616e64616c730000000000000000000000000000000000000000000000000081525081526020016040518060400160405280600581526020017f53686f657300000000000000000000000000000000000000000000000000000081525081526020016040518060400160405280600c81526020017f57696e6765642053686f65730000000000000000000000000000000000000000815250815250600260036005811062000776577f4e487b7100000000000000000000000000000000000000000000000000000000600052603260045260246000fd5b019060046200078792919062000b83565b506040518060e001604052806040518060400160405280600581526020017f41726d6f7200000000000000000000000000000000000000000000000000000081525081526020016040518060400160405280600881526020017f4261636b7061636b00000000000000000000000000000000000000000000000081525081526020016040518060400160405280600581526020017f426561726400000000000000000000000000000000000000000000000000000081525081526020016040518060400160405280600481526020017f436170650000000000000000000000000000000000000000000000000000000081525081526020016040518060400160405280600781526020017f5361746368656c0000000000000000000000000000000000000000000000000081525081526020016040518060400160405280600881526020017f536361626261726400000000000000000000000000000000000000000000000081525081526020016040518060400160405280600581526020017f536361726600000000000000000000000000000000000000000000000000000081525081525060026004600581106200096a577f4e487b7100000000000000000000000000000000000000000000000000000000600052603260045260246000fd5b019060076200097b92919062000bea565b5062000dd4565b600033905090565b60008060009054906101000a900473ffffffffffffffffffffffffffffffffffffffff169050816000806101000a81548173ffffffffffffffffffffffffffffffffffffffff021916908373ffffffffffffffffffffffffffffffffffffffff1602179055508173ffffffffffffffffffffffffffffffffffffffff168173ffffffffffffffffffffffffffffffffffffffff167f8be0079c531659141344cd1fd0a4f28419497f9722a3daafe3b4186f6b6457e060405160405180910390a35050565b82805482825590600052602060002090810192821562000aa2579160200282015b8281111562000aa157825182908051906020019062000a9092919062000c51565b509160200191906001019062000a6f565b5b50905062000ab1919062000ce2565b5090565b82805482825590600052602060002090810192821562000b09579160200282015b8281111562000b0857825182908051906020019062000af792919062000c51565b509160200191906001019062000ad6565b5b50905062000b18919062000ce2565b5090565b82805482825590600052602060002090810192821562000b70579160200282015b8281111562000b6f57825182908051906020019062000b5e92919062000c51565b509160200191906001019062000b3d565b5b50905062000b7f919062000ce2565b5090565b82805482825590600052602060002090810192821562000bd7579160200282015b8281111562000bd657825182908051906020019062000bc592919062000c51565b509160200191906001019062000ba4565b5b50905062000be6919062000ce2565b5090565b82805482825590600052602060002090810192821562000c3e579160200282015b8281111562000c3d57825182908051906020019062000c2c92919062000c51565b509160200191906001019062000c0b565b5b50905062000c4d919062000ce2565b5090565b82805462000c5f9062000d6f565b90600052602060002090601f01602090048101928262000c83576000855562000ccf565b82601f1062000c9e57805160ff191683800117855562000ccf565b8280016001018555821562000ccf579182015b8281111562000cce57825182559160200191906001019062000cb1565b5b50905062000cde919062000d0a565b5090565b5b8082111562000d06576000818162000cfc919062000d29565b5060010162000ce3565b5090565b5b8082111562000d2557600081600090555060010162000d0b565b5090565b50805462000d379062000d6f565b6000825580601f1062000d4b575062000d6c565b601f01602090049060005260206000209081019062000d6b919062000d0a565b5b50565b6000600282049050600182168062000d8857607f821691505b6020821081141562000d9f5762000d9e62000da5565b5b50919050565b7f4e487b7100000000000000000000000000000000000000000000000000000000600052602260045260246000fd5b60805160601c6129d562000df36000396000610f5001526129d56000f3fe608060405234801561001057600080fd5b50600436106100575760003560e01c8063715018a61461005c5780638da5cb5b1461006657806392cb829d1461008457806393e6f872146100b4578063f2fde38b146100d0575b600080fd5b6100646100ec565b005b61006e610174565b60405161007b9190611e7d565b60405180910390f35b61009e600480360381019061009991906116e3565b61019d565b6040516100ab9190611e98565b60405180910390f35b6100ce60048036038101906100c9919061168b565b6101d8565b005b6100ea60048036038101906100e59190611639565b6103b7565b005b6100f46104af565b73ffffffffffffffffffffffffffffffffffffffff16610112610174565b73ffffffffffffffffffffffffffffffffffffffff1614610168576040517f08c379a000000000000000000000000000000000000000000000000000000000815260040161015f90611eda565b60405180910390fd5b61017260006104b7565b565b60008060009054906101000a900473ffffffffffffffffffffffffffffffffffffffff16905090565b60606101b16101ac848461057b565b61093d565b6040516020016101c19190611e5b565b604051602081830303815290604052905092915050565b6101e06104af565b73ffffffffffffffffffffffffffffffffffffffff166101fe610174565b73ffffffffffffffffffffffffffffffffffffffff1614610254576040517f08c379a000000000000000000000000000000000000000000000000000000000815260040161024b90611eda565b60405180910390fd5b60005b828290508110156103b15760005b83838381811061029e577f4e487b7100000000000000000000000000000000000000000000000000000000600052603260045260246000fd5b90506020028101906102b09190611f15565b905081101561039d578383838181106102f2577f4e487b7100000000000000000000000000000000000000000000000000000000600052603260045260246000fd5b90506020028101906103049190611f15565b8281811061033b577f4e487b7100000000000000000000000000000000000000000000000000000000600052603260045260246000fd5b905060200281019061034d9190611f6c565b60016000858961035d9190611fff565b8152602001908152602001600020600084815260200190815260200160002091906103899291906114ea565b508080610395906121b5565b915050610265565b5080806103a9906121b5565b915050610257565b50505050565b6103bf6104af565b73ffffffffffffffffffffffffffffffffffffffff166103dd610174565b73ffffffffffffffffffffffffffffffffffffffff1614610433576040517f08c379a000000000000000000000000000000000000000000000000000000000815260040161042a90611eda565b60405180910390fd5b600073ffffffffffffffffffffffffffffffffffffffff168173ffffffffffffffffffffffffffffffffffffffff1614156104a3576040517f08c379a000000000000000000000000000000000000000000000000000000000815260040161049a90611eba565b60405180910390fd5b6104ac816104b7565b50565b600033905090565b60008060009054906101000a900473ffffffffffffffffffffffffffffffffffffffff169050816000806101000a81548173ffffffffffffffffffffffffffffffffffffffff021916908373ffffffffffffffffffffffffffffffffffffffff1602179055508173ffffffffffffffffffffffffffffffffffffffff168173ffffffffffffffffffffffffffffffffffffffff167f8be0079c531659141344cd1fd0a4f28419497f9722a3daafe3b4186f6b6457e060405160405180910390a35050565b6060600061058883610ae8565b9050606060006040518060a001604052806040518060400160405280600981526020017f4163636573736f7279000000000000000000000000000000000000000000000081525081526020016040518060400160405280600681526020017f576561706f6e000000000000000000000000000000000000000000000000000081525081526020016040518060400160405280600481526020017f486561640000000000000000000000000000000000000000000000000000000081525081526020016040518060400160405280600581526020017f53686f657300000000000000000000000000000000000000000000000000000081525081526020016040518060400160405280600581526020017f546f72736f000000000000000000000000000000000000000000000000000000815250815250905060005b60058110156108f457600060016000838152602001908152602001600020600086846008811061071c577f4e487b7100000000000000000000000000000000000000000000000000000000600052603260045260246000fd5b602002015160ff168152602001908152602001600020805461073d90612183565b905011156108e15782600084511461078a576040518060400160405280600381526020017f2c207b00000000000000000000000000000000000000000000000000000000008152506107c1565b6040518060400160405280600181526020017f7b000000000000000000000000000000000000000000000000000000000000008152505b8383600581106107fa577f4e487b7100000000000000000000000000000000000000000000000000000000600052603260045260246000fd5b602002015160028460058110610839577f4e487b7100000000000000000000000000000000000000000000000000000000600052603260045260246000fd5b01878560088110610873577f4e487b7100000000000000000000000000000000000000000000000000000000600052603260045260246000fd5b602002015160ff16815481106108b2577f4e487b7100000000000000000000000000000000000000000000000000000000600052603260045260246000fd5b906000526020600020016040516020016108cf9493929190611bb4565b60405160208183030381529060405292505b80806108ec906121b5565b9150506106c3565b506108fe86610d8e565b61091061090b8888610f3b565b61093d565b8360405160200161092393929190611dc7565b604051602081830303815290604052935050505092915050565b606060008251141561096057604051806020016040528060008152509050610ae3565b6000604051806060016040528060408152602001612960604091399050600060036002855161098f9190611fff565b6109999190612055565b60046109a59190612086565b905060006020826109b69190611fff565b67ffffffffffffffff8111156109f5577f4e487b7100000000000000000000000000000000000000000000000000000000600052604160045260246000fd5b6040519080825280601f01601f191660200182016040528015610a275781602001600182028036833780820191505090505b509050818152600183018586518101602084015b81831015610aa2576003830192508251603f8160121c1685015160f81b8252600182019150603f81600c1c1685015160f81b8252600182019150603f8160061c1685015160f81b8252600182019150603f811685015160f81b825260018201915050610a3b565b600389510660018114610abc5760028114610acc57610ad7565b613d3d60f01b6002830352610ad7565b603d60f81b60018303525b50505050508093505050505b919050565b610af0611570565b610af8611570565b600a83610b0591906121fe565b81600060088110610b3f577f4e487b7100000000000000000000000000000000000000000000000000000000600052603260045260246000fd5b602002019060ff16908160ff1681525050600a83610b5d9190612055565b9250600e83610b6c91906121fe565b81600160088110610ba6577f4e487b7100000000000000000000000000000000000000000000000000000000600052603260045260246000fd5b602002019060ff16908160ff1681525050600e83610bc49190612055565b9250600c83610bd391906121fe565b81600260088110610c0d577f4e487b7100000000000000000000000000000000000000000000000000000000600052603260045260246000fd5b602002019060ff16908160ff1681525050600c83610c2b9190612055565b9250600883610c3a91906121fe565b81600360088110610c74577f4e487b7100000000000000000000000000000000000000000000000000000000600052603260045260246000fd5b602002019060ff16908160ff1681525050600883610c929190612055565b9250601083610ca191906121fe565b81600460088110610cdb577f4e487b7100000000000000000000000000000000000000000000000000000000600052603260045260246000fd5b602002019060ff16908160ff1681525050601083610cf99190612055565b92506000600590505b6008811015610d8457600a84610d1891906121fe565b828260088110610d51577f4e487b7100000000000000000000000000000000000000000000000000000000600052603260045260246000fd5b602002019060ff16908160ff1681525050600a84610d6f9190612055565b93508080610d7c906121b5565b915050610d02565b5080915050919050565b60606000821415610dd6576040518060400160405280600181526020017f30000000000000000000000000000000000000000000000000000000000000008152509050610f36565b600082905060005b60008214610e08578080610df1906121b5565b915050600a82610e019190612055565b9150610dde565b60008167ffffffffffffffff811115610e4a577f4e487b7100000000000000000000000000000000000000000000000000000000600052604160045260246000fd5b6040519080825280601f01601f191660200182016040528015610e7c5781602001600182028036833780820191505090505b5090505b60008514610f2f57600182610e9591906120e0565b9150600a85610ea491906121fe565b6030610eb09190611fff565b60f81b818381518110610eec577f4e487b7100000000000000000000000000000000000000000000000000000000600052603260045260246000fd5b60200101907effffffffffffffffffffffffffffffffffffffffffffffffffffffffffffff1916908160001a905350600a85610f289190612055565b9450610e80565b8093505050505b919050565b60606000610f4883610ae8565b9050600060017f000000000000000000000000000000000000000000000000000000000000000073ffffffffffffffffffffffffffffffffffffffff16633613a9f4876040518263ffffffff1660e01b8152600401610fa79190611efa565b60206040518083038186803b158015610fbf57600080fd5b505afa158015610fd3573d6000803e3d6000fd5b505050506040513d601f19601f82011682018060405250810190610ff79190611662565b61100191906120e0565b9050600060078214806110145750600182145b61102d57604051806020016040528060008152506110b3565b600160006007815260200190815260200160002060008460076008811061107d577f4e487b7100000000000000000000000000000000000000000000000000000000600052603260045260246000fd5b602002015160ff1681526020019081526020016000206040516020016110a39190611d9a565b6040516020818303038152906040525b90506110be86610d8e565b600160006007815260200190815260200160002060008560076008811061110e577f4e487b7100000000000000000000000000000000000000000000000000000000600052603260045260246000fd5b602002015160ff168152602001908152602001600020826001600060068152602001908152602001600020600087600660088110611175577f4e487b7100000000000000000000000000000000000000000000000000000000600052603260045260246000fd5b602002015160ff168152602001908152602001600020600160006008815260200190815260200160002060008781526020019081526020016000206001600060058152602001908152602001600020600089600560088110611200577f4e487b7100000000000000000000000000000000000000000000000000000000600052603260045260246000fd5b602002015160ff1681526020019081526020016000206001600060098152602001908152602001600020600089815260200190815260200160002060016000600a815260200190815260200160002060008a815260200190815260200160002060016000600b815260200190815260200160002060008b815260200190815260200160002061128e8c6112c1565b6040516020016112a79a99989796959493929190611c74565b604051602081830303815290604052935050505092915050565b60606001600060048152602001908152602001600020600083600460088110611313577f4e487b7100000000000000000000000000000000000000000000000000000000600052603260045260246000fd5b602002015160ff1681526020019081526020016000206001600060028152602001908152602001600020600084600260088110611379577f4e487b7100000000000000000000000000000000000000000000000000000000600052603260045260246000fd5b602002015160ff168152602001908152602001600020600160008081526020019081526020016000206000856000600881106113de577f4e487b7100000000000000000000000000000000000000000000000000000000600052603260045260246000fd5b602002015160ff1681526020019081526020016000206001600060038152602001908152602001600020600086600360088110611444577f4e487b7100000000000000000000000000000000000000000000000000000000600052603260045260246000fd5b602002015160ff16815260200190815260200160002060016000600181526020019081526020016000206000876001600881106114aa577f4e487b7100000000000000000000000000000000000000000000000000000000600052603260045260246000fd5b602002015160ff1681526020019081526020016000206040516020016114d4959493929190611c29565b6040516020818303038152906040529050919050565b8280546114f690612183565b90600052602060002090601f016020900481019282611518576000855561155f565b82601f1061153157803560ff191683800117855561155f565b8280016001018555821561155f579182015b8281111561155e578235825591602001919060010190611543565b5b50905061156c9190611593565b5090565b604051806101000160405280600890602082028036833780820191505090505090565b5b808211156115ac576000816000905550600101611594565b5090565b6000813590506115bf81612931565b92915050565b60008083601f8401126115d757600080fd5b8235905067ffffffffffffffff8111156115f057600080fd5b60208301915083602082028301111561160857600080fd5b9250929050565b60008135905061161e81612948565b92915050565b60008151905061163381612948565b92915050565b60006020828403121561164b57600080fd5b6000611659848285016115b0565b91505092915050565b60006020828403121561167457600080fd5b600061168284828501611624565b91505092915050565b6000806000604084860312156116a057600080fd5b60006116ae8682870161160f565b935050602084013567ffffffffffffffff8111156116cb57600080fd5b6116d7868287016115c5565b92509250509250925092565b600080604083850312156116f657600080fd5b60006117048582860161160f565b92505060206117158582860161160f565b9150509250929050565b61172881612114565b82525050565b600061173982611fd8565b6117438185611fe3565b9350611753818560208601612150565b61175c816122bc565b840191505092915050565b600061177282611fd8565b61177c8185611ff4565b935061178c818560208601612150565b80840191505092915050565b600081546117a581612183565b6117af8186611ff4565b945060018216600081146117ca57600181146117db5761180e565b60ff1983168652818601935061180e565b6117e485611fc3565b60005b83811015611806578154818901526001820191506020810190506117e7565b838801955050505b50505092915050565b6000611824603183611ff4565b915061182f826122cd565b603182019050919050565b6000611847602683611fe3565b91506118528261231c565b604082019050919050565b600061186a600283611ff4565b91506118758261236b565b600282019050919050565b600061188d601683611ff4565b915061189882612394565b601682019050919050565b60006118b0608783611ff4565b91506118bb826123bd565b608782019050919050565b60006118d3600f83611ff4565b91506118de8261247e565b600f82019050919050565b60006118f6600d83611ff4565b9150611901826124a7565b600d82019050919050565b6000611919606783611ff4565b9150611924826124d0565b606782019050919050565b600061193c600a83611ff4565b91506119478261256b565b600a82019050919050565b600061195f600183611ff4565b915061196a82612594565b600182019050919050565b6000611982601183611ff4565b915061198d826125bd565b601182019050919050565b60006119a5602483611ff4565b91506119b0826125e6565b602482019050919050565b60006119c8600183611ff4565b91506119d382612635565b600182019050919050565b60006119eb602083611fe3565b91506119f68261265e565b602082019050919050565b6000611a0e600483611ff4565b9150611a1982612687565b600482019050919050565b6000611a31608c83611ff4565b9150611a3c826126b0565b608c82019050919050565b6000611a54600183611ff4565b9150611a5f82612771565b600182019050919050565b6000611a77600f83611ff4565b9150611a828261279a565b600f82019050919050565b6000611a9a600a83611ff4565b9150611aa5826127c3565b600a82019050919050565b6000611abd601683611ff4565b9150611ac8826127ec565b601682019050919050565b6000611ae0600383611ff4565b9150611aeb82612815565b600382019050919050565b6000611b03600183611ff4565b9150611b0e8261283e565b600182019050919050565b6000611b26601d83611ff4565b9150611b3182612867565b601d82019050919050565b6000611b49600283611ff4565b9150611b5482612890565b600282019050919050565b6000611b6c603983611ff4565b9150611b77826128b9565b603982019050919050565b6000611b8f600683611ff4565b9150611b9a82612908565b600682019050919050565b611bae81612146565b82525050565b6000611bc08287611767565b9150611bcc8286611767565b9150611bd7826118c6565b9150611be38285611767565b9150611bee8261185d565b9150611bf982611a8d565b9150611c058284611798565b9150611c1082611952565b9150611c1b826119bb565b915081905095945050505050565b6000611c358288611798565b9150611c418287611798565b9150611c4d8286611798565b9150611c598285611798565b9150611c658284611798565b91508190509695505050505050565b6000611c7f82611880565b9150611c8b828d611767565b9150611c9682611b5f565b9150611ca1826118e9565b9150611cad828c611798565b9150611cb88261190c565b9150611cc4828b611767565b9150611ccf82611817565b9150611cda8261192f565b9150611ce6828a611798565b9150611cf182611b3c565b9150611cfd8289611798565b9150611d0882611a01565b9150611d138261192f565b9150611d1f8288611798565b9150611d2a82611b3c565b9150611d368287611798565b9150611d4182611a01565b9150611d4c82611975565b9150611d588286611798565b9150611d6382611a01565b9150611d6f8285611798565b9150611d7b8284611767565b9150611d8682611b82565b91508190509b9a5050505050505050505050565b6000611da582611a24565b9150611db18284611798565b9150611dbc82611ad3565b915081905092915050565b6000611dd282611a47565b9150611ddd82611ab0565b9150611de98286611767565b9150611df48261185d565b9150611dff826118a3565b9150611e0a82611998565b9150611e168285611767565b9150611e218261185d565b9150611e2c82611a6a565b9150611e388284611767565b9150611e4382611af6565b9150611e4e826119bb565b9150819050949350505050565b6000611e6682611b19565b9150611e728284611767565b915081905092915050565b6000602082019050611e92600083018461171f565b92915050565b60006020820190508181036000830152611eb2818461172e565b905092915050565b60006020820190508181036000830152611ed38161183a565b9050919050565b60006020820190508181036000830152611ef3816119de565b9050919050565b6000602082019050611f0f6000830184611ba5565b92915050565b60008083356001602003843603038112611f2e57600080fd5b80840192508235915067ffffffffffffffff821115611f4c57600080fd5b602083019250602082023603831315611f6457600080fd5b509250929050565b60008083356001602003843603038112611f8557600080fd5b80840192508235915067ffffffffffffffff821115611fa357600080fd5b602083019250600182023603831315611fbb57600080fd5b509250929050565b60008190508160005260206000209050919050565b600081519050919050565b600082825260208201905092915050565b600081905092915050565b600061200a82612146565b915061201583612146565b9250827fffffffffffffffffffffffffffffffffffffffffffffffffffffffffffffffff0382111561204a5761204961222f565b5b828201905092915050565b600061206082612146565b915061206b83612146565b92508261207b5761207a61225e565b5b828204905092915050565b600061209182612146565b915061209c83612146565b9250817fffffffffffffffffffffffffffffffffffffffffffffffffffffffffffffffff04831182151516156120d5576120d461222f565b5b828202905092915050565b60006120eb82612146565b91506120f683612146565b9250828210156121095761210861222f565b5b828203905092915050565b600061211f82612126565b9050919050565b600073ffffffffffffffffffffffffffffffffffffffff82169050919050565b6000819050919050565b60005b8381101561216e578082015181840152602081019050612153565b8381111561217d576000848401525b50505050565b6000600282049050600182168061219b57607f821691505b602082108114156121af576121ae61228d565b5b50919050565b60006121c082612146565b91507fffffffffffffffffffffffffffffffffffffffffffffffffffffffffffffffff8214156121f3576121f261222f565b5b600182019050919050565b600061220982612146565b915061221483612146565b9250826122245761222361225e565b5b828206905092915050565b7f4e487b7100000000000000000000000000000000000000000000000000000000600052601160045260246000fd5b7f4e487b7100000000000000000000000000000000000000000000000000000000600052601260045260246000fd5b7f4e487b7100000000000000000000000000000000000000000000000000000000600052602260045260246000fd5b6000601f19601f8301169050919050565b7f3c7061746820643d224d3132203768317631682d317a6d33203068317631682d60008201527f317a222066696c6c3d2223666666222f3e000000000000000000000000000000602082015250565b7f4f776e61626c653a206e6577206f776e657220697320746865207a65726f206160008201527f6464726573730000000000000000000000000000000000000000000000000000602082015250565b7f222c000000000000000000000000000000000000000000000000000000000000600082015250565b7f3c7376672069643d27436f6d6d6f6e20536b696e202300000000000000000000600082015250565b7f226465736372697074696f6e223a2022436f6d6d6f6e20536b696e732061726560008201527f2072616e646f6d6c792067656e65726174656420616e6420686176652031303060208201527f25206f6e2d636861696e2061727420616e64206d65746164617461202d20557360408201527f65207468656d20617320796f75722053756d6d6f6e657220617070656172656e60608201527f6365732021222c00000000000000000000000000000000000000000000000000608082015250565b7f2274726169745f74797065223a20220000000000000000000000000000000000600082015250565b7f3c706174682066696c6c3d222300000000000000000000000000000000000000600082015250565b7f2220643d224d3136203131762d3168315639682d315635682d315634682d315660008201527f33682d347631483976314838763568317631683176344838763368327631483960208201527f7635683120352031762d31682d31762d356831762d316831762d32682d32762d60408201527f3468317a222f3e00000000000000000000000000000000000000000000000000606082015250565b7f3c672066696c6c3d222300000000000000000000000000000000000000000000600082015250565b7f2200000000000000000000000000000000000000000000000000000000000000600082015250565b7f3c67206f7061636974793d272e3233273e000000000000000000000000000000600082015250565b7f22696d616765223a2022646174613a696d6167652f7376672b786d6c3b62617360008201527f6536342c00000000000000000000000000000000000000000000000000000000602082015250565b7f7d00000000000000000000000000000000000000000000000000000000000000600082015250565b7f4f776e61626c653a2063616c6c6572206973206e6f7420746865206f776e6572600082015250565b7f3c2f673e00000000000000000000000000000000000000000000000000000000600082015250565b7f3c7061746820643d224d31352e3939203131762d3168315639682d315635682d60008201527f315634682d315633682d347631682d317631682d31763568317631683176326860208201527f2d312d312d317631203120316831763268327631682d3176356831203520317660408201527f2d31682d31762d356831762d316831762d32682d31762d312d31682d31762d3260608201527f68317a222066696c6c3d22230000000000000000000000000000000000000000608082015250565b7f7b00000000000000000000000000000000000000000000000000000000000000600082015250565b7f2261747472696275746573223a205b0000000000000000000000000000000000600082015250565b7f2276616c7565223a202200000000000000000000000000000000000000000000600082015250565b7f226e616d65223a2022436f6d6d6f6e20536b696e202300000000000000000000600082015250565b7f222f3e0000000000000000000000000000000000000000000000000000000000600082015250565b7f5d00000000000000000000000000000000000000000000000000000000000000600082015250565b7f646174613a6170706c69636174696f6e2f6a736f6e3b6261736536342c000000600082015250565b7f223e000000000000000000000000000000000000000000000000000000000000600082015250565b7f2720786d6c6e733d27687474703a2f2f7777772e77332e6f72672f323030302f60008201527f737667272076696577426f783d27302030203234203234273e00000000000000602082015250565b7f3c2f7376673e0000000000000000000000000000000000000000000000000000600082015250565b61293a81612114565b811461294557600080fd5b50565b61295181612146565b811461295c57600080fd5b5056fe4142434445464748494a4b4c4d4e4f505152535455565758595a6162636465666768696a6b6c6d6e6f707172737475767778797a303132333435363738392b2fa2646970667358221220b1b03b49464aa90b226f7f899b59534618636c1bef5561f89f12c3a7b786fd9664736f6c63430008040033",
  "linkReferences": {},
  "deployedLinkReferences": {}
}